:10000000F8FF022099010000892500004125000029
:100010004125000041250000412500004125000048
:1000200041250000412500004125000089250000F0
:1000300089250000412500003D490000414900009C
:1000400089250000892500008925000089250000F8
:1000500089250000892500008925000089250000E8
:1000600089250000892500008925000089250000D8
:1000700089250000892500008925000089250000C8
:1000800089250000892500008925000089250000B8
:1000900089250000892500008925000089250000A8
:1000A000FD5000000951000089250000892500004D
:1000B00089250000892500008925000031340000D1
:1000C000892500008925000089250000553B000096
:1000D0008925000089250000892500008925000068
:1000E0008925000089250000892500008925000058
:1000F0008925000089250000892500008925000048
:100100008925000089250000892500008925000037
:1001100089250000E53D00008925000089250000B3
:100120008925000089250000892500008925000017
:100130008925000089250000892500008925000007
:1001400089250000892500008925000089250000F7
:1001500089250000892500008925000089250000E7
:10016000892500008925000015510000892500001F
:1001700089250000892500008925000089250000C7
:1001800089250000892500008925000089250000B7
:100190008925000089250000584B4CF2205210B5EB
:1001A0001A804DF628121A8000BF00BF02F0F0F945
:1001B000534B4FF030621A60524A9A60524ADA60EA
:1001C000524B4FF470021A60514A136813F4807353
:1001D00004D150490B604FF4A85313604E4B1A786A
:1001E000110703D51A7842F008021A704B4B4C499C
:1001F0002A221A704B4A4C4B8B4204D252F8040FFD
:1002000043F8040BF8E7494B494900228B4202D2DC
:1002100043F8042BFAE74749474A002352F82300E2
:1002200041F823000133662BF8D1444B444A802126
:1002300003F8011B9342FBD1424B3E4A1A60424BEA
:100240008A221A70A3F5805324225A70A0221A70B1
:100250009A799207FCD59A79D406FCD43B4A9379D3
:1002600003F00C03082B394BF9D103221A714622F3
:100270005A719A799006FCD5344A9179334B4906E4
:10028000FBD5334A4FF08271116009215160202261
:100290001A709A7902F00C020C2AFAD12D4B2E4AD0
:1002A0001A602E4B2E4A1A6000225A60072243F829
:1002B000042C2C4AC3F80C2D62B602F019FC154B25
:1002C0001B68DA0705D5284802F000FA274B284AB0
:1002D0001A60284B1B785B0609D5244C244B2268F6
:1002E0009A4204D1204802F0F1F90023236008F07B
:1002F0004BFA02F053F902F047F8FEE70E200540F2
:1003000030800440823F04000100002B88ED00E0B3
:1003100010D0034014D0034002D0074000E0074053
:100320008411FF1FD09D0000F806FF1F8411FF1FDE
:100330002418FF1F0002FF1F0000000000E400E07F
:1003400056E400E008ED00E00050064000400640A2
:100350004480044004800440C010050014E000E024
:10036000BFD4010000002020BFE35F611CE0034018
:10037000A5C3945A00F00740FFFFFFFFFFFFFFFFF8
:10038000FFFFFFFFFFFFFFFFFFFFFFFFFFFFFFFF7D
:10039000FFFFFFFFFFFFFFFFFFFFFFFFFFFFFFFF6D
:1003A000FFFFFFFFFFFFFFFFFFFFFFFFFFFFFFFF5D
:1003B000FFFFFFFFFFFFFFFFFFFFFFFFFFFFFFFF4D
:1003C000FFFFFFFFFFFFFFFFFFFFFFFFFFFFFFFF3D
:1003D000FFFFFFFFFFFFFFFFFFFFFFFFFFFFFFFF2D
:1003E000FFFFFFFFFFFFFFFFFFFFFFFFFFFFFFFF1D
:1003F000FFFFFFFFFFFFFFFFFFFFFFFFFFFFFFFF0D
:10040000FFFFFFFFFFFFFFFFFFFFFFFFDEF9FFFF23
:1004100010B5054C237833B9044B13B10448AFF33E
:1004200000800123237010BD8411FF1F0000000015
:10043000D49D0000084B10B51BB108490848AFF324
:1004400000800848036803B910BD074B002BFBD0A0
:10045000BDE81040184700BF000000008811FF1FD2
:10046000D49D00008411FF1F00000000F8B518267D
:100470002C4D0446324600210D3008F06DFC6027FB
:100480003246294604F1250001F086FFA9193A46B3
:1004900004F1400001F080FF3A4605F1780104F1D3
:1004A000A00001F079FF002514230A200F2784F80B
:1004B000163184F8173184F82F31C4F8185184F8B4
:1004C000140184F81831324684F82C0184F82D0187
:1004D0002946C4F80051C4F80451C4F80851C4F8BE
:1004E0000C51C4F8105184F81571C4F81C51C4F8AB
:1004F0002051C4F82451C4F8285184F82E7104F214
:10050000311008F029FC3246294604F2491008F05F
:1005100023FC3246294604F2611008F01DFC2046F7
:10052000F8BD00BF7492000010B52DED068BB0EE43
:10053000608A8EB0F0EE400AF0EE408AB0EE480AD3
:1005400004F0FAFF9FED499ADFED497A494C20EE1D
:10055000270AF0EE490A00F0EFF92046B0EE40AA73
:1005600000F0ACFB50BB444BDFED447A93ED000A46
:10057000B4EEE70AF1EE10FA1BDC9FED411A414898
:10058000F0EE410A01F048FBF0EE400A28EE088A3E
:10059000B0EE480AA8EEA80AB1EEC01AB4EE411AAD
:1005A000F1EE10FA59D1B0EE4A0A0EB0BDEC068B4E
:1005B00010BDDFED2E7A30EE670ADEE704F11000A1
:1005C00000F07CFB0028CED00021DFED2F0A9FED4C
:1005D0002C0ADFED2AAA0AA800F03AFBD4ED031A90
:1005E00094ED021A94ED000AD4ED010A0AA800F075
:1005F0003BFB214B9FED250AD3ED007ACDED091A87
:10060000F0EE490A30EE670A00F096F9F0EE409AF3
:100610009DED090AF0EE490A30EE2A0A00F08CF945
:1006200039EEC00AB4EEEA0AF1EE10FA12DCDFEDA0
:10063000187AB4EEE70AF1EE10FA48BF30EE090A74
:100640009FED0F1A1348F0EE410A01F0E5FAF1EEC2
:10065000400A9BE730EE490AF2E7CDED010A04F0CB
:10066000EFFFDDED010AB0EE401A9CE70000B44355
:10067000E12E65422015FF1F7012FF1F000034435A
:10068000000000001012FF1F0000B7C20000E1438D
:10069000000034C35012FF1F00B52DED028B9FEDFB
:1006A000118ADFED110A8DB00021B0EE480A08A8CA
:1006B00000F0CEFA0D4B08A893ED000AD3ED010A25
:1006C00093ED021AD3ED031A00F0CEFAF0EE480AC9
:1006D000B0EE480AFFF728FF0DB0BDEC028B5DF8C5
:1006E00004FB00BF000000000000B7C22015FF1F80
:1006F00008B54FF4FA7002F0ADF9084801F04AFA73
:10070000074800F071FC074800F008FA064800F0BE
:10071000F3FC0648BDE8084000F0F2BF7012FF1F6E
:100720002015FF1FD814FF1F8412FF1FE011FF1FA9
:1007300030B52DED028B144C144D87B0204601F0DE
:100740009FF9012194ED000A114800F0F1FA94EDAF
:10075000000A284600F016FD94ED008AFFF79CFF82
:10076000F0EE607AF0EE411AF0EE400AB0EE671A51
:10077000B0EE480A284600F047FF064801F024F88A
:1007800007B0BDEC028B30BD7012FF1F8412FF1F3B
:100790002015FF1FE011FF1FF8B5504D504E514F6F
:1007A0002DED028B01F0AAFD9FED4F8A4F4BDFED3F
:1007B000508A83ED048A0024281D4FF47A612C802E
:1007C000AC70EC7000F0A6F905F114004FF47A71EA
:1007D0002C736C73EC812C746C7400F09BF90A21FF
:1007E00005F11C0000F096F94248AC8400F08EFA46
:1007F0000425414800F000FC07F1D8012A463046A4
:1008000001F0CAFD2A4607F1DC01701901F0C4FDB0
:100810002A4607F1E00106F1080001F0BDFD07F1ED
:10082000E401082206F10C0001F0B6FDB0EE481A12
:10083000F0EE480AF0EE681AB0EE080A2F4834626B
:100840007462B462F46201F0D5F9B0EE481AF0EEC9
:10085000480AF3EE0E1AB7EE000A294801F0CAF969
:10086000F0EE681AB0EE481AF0EE480AB8EE000A48
:10087000244801F0BFF9B0EE481AF0EE480AF3EE52
:100880000E1A9FED210A214801F0B4F9F0EE681A22
:10089000F0EE480A9FED1E1A1E48B6EE000A01F05F
:1008A000A9F9F0EE681AF0EE480AB5EE001AB7EEB4
:1008B000000A194801F09EF9F0EE681AF0EE480AB5
:1008C000B0EE001AB0EE080A144801F093F914488B
:1008D000FFF7CCFDBDEC028BF8BD00BFD814FF1FA5
:1008E000E011FF1F74920000000000007012FF1F53
:1008F0000000C8422015FF1F8412FF1F6015FF1F54
:100900003012FF1FC011FF1FCDCCCC3D0015FF1FC3
:10091000CDCC4C3D1012FF1FA011FF1F5012FF1F26
:100920005C13FF1FB5EEC00AF1EE10FAACBF012058
:100930004FF0FF30704700BF00B52DED028B10EE79
:10094000900A85B0B0EE608A8DED030A07F09AFB3D
:100950009DED030ACDE9000110EE100A07F092FBAD
:100960009DED001B41EC100B04F07AFD51EC100BD7
:1009700007F0B4FE00EE100AB5EEC00AF1EE10FA70
:1009800048BF38EE000A05B0BDEC028B5DF804FBF1
:1009900070EEC07A08B517EE900A07F073FB9FED72
:1009A0000C1B41EC100B04F05BFD51EC100B07F03D
:1009B00095FE00EE100AB5EEC00AF1EE10FA44BF43
:1009C000DFED057A30EE270A08BD00BFAFF30080E7
:1009D00000000000008076400000B443FFFFFFFFEE
:1009E00000B52DED028B70EEC07A83B017EE900A41
:1009F00007F048FB9FED1A1B41EC100B04F030FD93
:100A000051EC100B07F06AFE08EE100AB5EEC08A32
:100A1000F1EE10FA44BFDFED147A38EE278ADFEDED
:100A2000127A77EEC87A17EE900A07F02BFBCDE921
:100A3000000118EE100A07F025FB9DED001B41ECAC
:100A4000100B04F021FC51EC100B07F047FE00EEF8
:100A5000100A03B0BDEC028B5DF804FBAFF300801D
:100A600000000000008076400000B443FFFFFFFF5D
:100A700008B570EEC07A2DED028B17EE900AB0EE3D
:100A8000408A07F0FFFA9FED1A1B41EC100B04F0AF
:100A9000E7FC51EC100B07F021FE07EE900AF5EE93
:100AA000C07AF1EE10FA44BF9FED137A77EE877AA1
:100AB000B6EE007AA7EE878A18EE100A07F0E2FA7F
:100AC0009FED0B1B41EC100B04F0CAFC51EC100B1A
:100AD00007F004FE00EE100ABDEC028BB5EEC00A72
:100AE000F1EE10FA44BFDFED047A30EE270A08BDBC
:100AF00000000000008076400000B44390FBF1F35A
:100B000003FB1100030648BF4018C0B2704700BF86
:100B100001F0F4BB0160704701F0F0BB4FF41651D7
:100B2000014801F067B900BF0C07FF1F10B52DED9C
:100B3000028BB0EE608AF0EE400A28EE080A82B01E
:100B4000A0EEA00A0446C0ED000AF1EEC07A80EDE6
:100B5000018AF4EE677AF1EE10FA2FD1C4ED027A31
:100B6000B0EE480A04F0E8FCDFED197ADFED190A6F
:100B700020EE270AFFF7E0FE84ED030A94ED020A57
:100B8000FFF7D0FE013003D002B0BDEC028B10BDE8
:100B900094ED030ADFED107ADFED0E0A30EE270A3E
:100BA000FFF7CAFED4ED027A84ED030AF1EE677A0C
:100BB000C4ED027A02B0BDEC028B10BDCDED010A8E
:100BC00004F03EFDDDED010AF0EE407AC6E700BF1D
:100BD000E12E65420000B4430000344310B5DFED60
:100BE000040A0446B0EE600AFFF7A0FF204610BDDD
:100BF0000000000010B52DED048B9FED138A20EE50
:100C0000888AF0EE408AB0EE480A0446B0EE609A58
:100C100004F094FB68EE807AB0EE480AC4ED007AE6
:100C200004F0D4FB28EE800AC4ED028A84ED010AA8
:100C3000DFED060AB0EE490AFFF77EFEBDEC048B3D
:100C400084ED030A10BD00BF35FA8E3C0000B443AA
:100C500010B5044619B9FFF769FF204610BDFFF72C
:100C6000C9FF204610BD00BF10B590ED017AD0ED50
:100C7000007A90B008AC77EE600A37EEC00A2046E2
:100C8000FFF754FF94E80F0010AC04E90F009DED4E
:100C90000C0ADDED0D0A9DED0E1ADDED0F1A10B0F8
:100CA00010BD00BF90ED017AD0ED007A77EE600ABA
:100CB00037EEC00A84B004B0FFF738BFD0ED027A37
:100CC000F5EE407AF1EE10FA14BF012000207047D3
:100CD00001F014BBDFED097A9FED097A30EE270AA7
:100CE00008B520EE070A04F029FC9FED067ADFED37
:100CF000067AE0EE077AB0EE670A08BD6A5E8C41BC
:100D000013A5733D5179853C18CF6A4010B5044650
:100D1000FFF764FF04F11000FFF760FF04F120000B
:100D2000FFF75CFF04F13000FFF758FF204610BDCD
:100D30002DE9F04F2DED048B85B00546B0EE408ACD
:100D40000E4602F0D5FA072804DC05B0BDEC048B92
:100D5000BDE8F08F02F0E0FA0446E4B202F01CFBBA
:100D6000EA2CF2D1C0B2EA28EFD102F0D5FA02F0B3
:100D7000D3FA044602F0D0FA074602F0CDFA7838EA
:100D80004FFA80F902F0C8FA78384FFA80FB02F087
:100D9000C3FA783843B2783F08EE903A783C02F0D4
:100DA000BBFA7BB200EE903A63B200EE103A00213B
:100DB000A0F17803B8EEC00AF8EEE00A68464FFAF0
:100DC00083FAFFF745FF9DE80F0005F1300888E83A
:100DD0000F0095ED0E0AB5EE400AF1EE10FA6C46E2
:100DE00040F0DA809FED759AD5ED0F7A9FED740A89
:100DF000DFED740A77EEC87A05F1200737EE800A36
:100E0000FFF79AFD4046F0EE400AB0EE490AFFF7C0
:100E1000F1FE07EE90BAF8EEE70A07EE909A00218D
:100E2000B8EEE70A2046FFF713FF94E80F0087E8C3
:100E30000F0095ED0A0AB5EE400AF1EE10FA40F007
:100E4000A6809FED5E9AD5ED0B7A9FED5D0ADFEDF2
:100E50005D0A37EEC88A05F1100938EE000AFFF77F
:100E60006BFD3846F0EE400AB0EE490AFFF7C2FECD
:100E700007EE90AA0021F8EEE70AB8EEE80A20464D
:100E8000FFF7E6FE94E80F0089E80F00D5ED067A3B
:100E9000F5EE407AF1EE10FA68D19FED488ADFED69
:100EA0004A7A95ED070ADFED470A30EE670AFFF749
:100EB00043FD4846F0EE400AB0EE480AFFF79AFEBE
:100EC0003846FFF7FBFE60B14046FFF7F7FE40B142
:100ED00095ED0A7AD5ED0E7AB4EEE77AF1EE10FAD6
:100EE00027D43846FFF7EAFEF0B94046FFF7E6FEA2
:100EF00000285AD0002E54D1DFED340A31469FED40
:100F00002F0A2046FFF7A4FE94E80F0095ED0C0A87
:100F1000D5ED0D0A95ED0E1AD5ED0F1A85E80F00E7
:100F20002846FFF7BFFE10E74046FFF7C7FE002840
:100F3000DBD1BEB9DFED260A31469FED200A2046FF
:100F4000FFF786FE94E80F0095ED080AD5ED090A33
:100F500095ED0A1AD5ED0B1A85E80F002846FFF724
:100F6000A1FEF2E60021DFED190AE6E79FED197A0E
:100F70009FED190A9FED198A77EE877A27EE800A8E
:100F800004F0DCFADFED167AA0EE278A87E7FFF798
:100F9000A1FEB0EE409A56E7FFF79CFEB0EE409AF5
:100FA00022E70021DFED0A0AA9E72046FFF716FE37
:100FB00094E80F0085E80F00C7E600BF00000000BE
:100FC000000087430000B4430000B4420000B74271
:100FD0000000B7C2E305F4434562623D08030141E6
:100FE0007F54802A01F08AB94FF4E131014800F0C2
:100FF00089BE00BFF806FF1F70B5164B164D036083
:10100000202601220446436002740021324611303A
:1010100007F0A2FE294604F13100052201F0BCF9D7
:10102000432384F83630324605F1080104F13700D5
:10103000402501F0B1F92A4604F15800002107F0DB
:101040008BFE2A4604F19800002107F085FE204619
:1010500070BD00BF000080BF609300002DE9F0412B
:101060004318B7EE007A93F8373007EE903AF8EE6F
:10107000677A82B0F4EEC77A0D46F1EE10FA4FF0BF
:10108000000104468DF80410009117DB0423F6EEEE
:10109000006ABCEEE76A67EEA67A16EE102A02A98D
:1010A0001944F4EEC77A02F00102013BF1EE10FAA6
:1010B00001F8082CDBB2ECDA9DF8001004F13008DE
:1010C0000026013618F8010F01F096FC052E6F4638
:1010D00008D017F8011F18F8010F013601F08CFC39
:1010E000052EF6D194F8360001F04EF84C3524F870
:1010F000150002B0BDE8F0812DE9F047064600F189
:10110000300400F1350514F8010F012101F07AFCDB
:10111000A542F8D1002196F83600DFF8648001F08E
:1011200071FC06F1560500275FFA87F94FF00A0AAD
:10113000002449463046FFF791FFB5F842200AF1F6
:10114000FF33144413F0FF0AA4B2F2D1A8FB043415
:10115000C4F3CF0407EE904AF8EEE77AB6EE007AD1
:1011600077EE877A0137FDEEE77A202F17EE903A77
:1011700003F5967325F8023FD6D1BDE8F08700BF8E
:10118000CDCCCCCC2DE9F0432DED068B00F1100534
:1011900083B00646F0EE409AA94600F1960800F1A9
:1011A00056070024E1B23046FFF758FF38F8023FF7
:1011B00037F8022F0134934294BF00230123202CDF
:1011C00009F8013FEED10024012701E0202C18D0BE
:1011D00015F8013F0134002BF8D1A01E40B22021A8
:1011E000FFF78CFC3044437C002BEFD0202160B211
:1011F000FFF784FC3044437C002BE7D0202C2F7079
:10120000E6D10422C049684601F0C6F80422BE496E
:101210000DEB020001F0C0F800231C4606F111029C
:1012200001210CE002AD2F19651C18B107F8083C2C
:10123000ECB200210133202B02F1010210D0107812
:101240000029EFD10028F5D102A9581E214401330D
:10125000202B01F8050C02F101024FF00101EED143
:1012600096F8303023B102AA22441F2102F8051C4F
:10127000012C40F2B480727C002A40F09F809DF9DE
:1012800000309FEDA28A08EE903A9DF9043009EEF5
:10129000103AF8EEE88AB8EEC99A68EE888A29EE24
:1012A000089AB0EE680AF0EE490AFFF7E1FB9DF9F3
:1012B000053000EE903A9DF90130B0EE40AA00EE04
:1012C000103AF8EEE00AB8EEC00A60EE880A20EEA6
:1012D000080AFFF7CDFB9DF9063000EE903A9DF924
:1012E0000230F0EE40AA00EE103AF8EEE00AB8EE56
:1012F000C00A60EE880A20EE080AFFF7B9FB032C4B
:10130000B0EE408A00F01281022C00F0938086ED4E
:1013100002AAF0EE490AB0EE680AFFF739FBF6EED2
:10132000007A9FED7B7A20EE270A60EE077A17EEAF
:10133000900A06F0A7FE41EC100B03F045FF0020D9
:1013400053EC102B734906F03DFD07F0C7F996EDFD
:10135000028AF060FFEE007AB4EE678AF1EE10FACE
:1013600000F04B8138EE290ADFED6B0AFFF7E4FA53
:10137000337CF0EE408A002B40F08780D6ED017A76
:10138000B0EE087AF4EE477AF1EE10FA3DD19FED17
:10139000660ADFED610A38EE800AFFF7CDFA96EDB6
:1013A000037A86ED000AF0EE007A77EEC77AC6ED92
:1013B000017A03B0BDEC068BBDE8F083002B3FF44F
:1013C0005EAF013C02AB2344FF2213F9081C8DF8E9
:1013D0000010E4B203F8082C03F8042C4FE7002CAB
:1013E00040F01081327C4D4BB360F360002AE0D1B5
:1013F000D6ED017AB0EE087AF4EE477AF1EE10FA03
:10140000D7D0FFEE008AB0EE688ABFEE007AB4EE65
:10141000478AF1EE10FA43D1F7EE006AF4EEE67A6D
:10142000F1EE10FA4FD93E4B736003B0BDEC068B62
:10143000BDE8F083F0EE6A0AB0EE4A0AFFF7A8FAB8
:10144000DFED397AB4EEE70AF1EE10FA95BFF0EE6F
:101450006A0AF0EE4A0AB0EE4A0AB0EE6A0AFFF7EC
:1014600007FBF0EE6A0A86ED020AB0EE4A0AFFF7C1
:101470008FFADFED2D7AB4EEE70AF1EE10FA3ED8DE
:10148000F0EE6A0AB0EE4A0A47E7F26886ED000A13
:1014900000237260337403B0BDEC068BBDE8F083AB
:1014A000D6ED000AB0EE680AFFF79AFADFED1D7A72
:1014B000B4EEE70AF1EE10FA3FF669AFF368C6ED55
:1014C000008A736075E7012386ED007A86ED017A64
:1014D00033746EE7F0EE4A0AB0EE6A0AFFF7C8FA14
:1014E000F0EE4A0A86ED020AB0EE6A0AFFF750FAF9
:1014F000DFED0D7AB4EEE70AF1EE10FA5BD8F0EE0C
:101500004A0AB0EE6A0A08E78893000000003441F6
:1015100035FA8E3C0000F03F0000B443000080BF6D
:10152000000040400000B44200003443F0EE6A0A7C
:10153000B0EE4A0AFFF72CFAF0EE480AB0EE409AF5
:10154000B0EE6A0AFFF724FAF0EE4A0AF0EE408A9B
:10155000B0EE480AFFF71CFAF4EEC08AF1EE10FA7A
:10156000B4BFF0EE407AF0EE687AB4EE679AF1EE2E
:1015700010FAA8BFF0EE497AB4EE679AF1EE10FACD
:10158000A8D0F4EE678AF1EE10FA17D1F0EE6A0AED
:10159000B0EE480AFFF76CFAF0EE6A0A86ED020A2E
:1015A000B0EE480AFFF7F4F95FED217AB4EEE70AEE
:1015B000F1EE10FA1CD94FF07E50C8E6F0EE480A62
:1015C000B0EE4A0AFFF754FAF0EE480A86ED020A36
:1015D000B0EE4A0AFFF7DCF95FED2D7AB4EEE70AC8
:1015E000F1EE10FAE7D8F0EE480AB0EE4A0A94E6B7
:1015F000F0EE6A0AB0EE480A8FE6337C002B3FF427
:10160000F7AED6E601243AE6F0B58FB08DED061AB6
:10161000CDED071ACDED050A05AA034607CA1D7CC4
:1016200008AC84E807004DBBD3ED017AB6EE007A32
:10163000F4EEC77AF1EE10FA10EE102A1F4610EE03
:10164000906A11EE905A1CDCB5EE007AF4EEC77A7F
:10165000F1EE10FA33DCB0EE600A8DED080ACDED44
:101660000A1A94E807000EAB03E907009DED0B0A88
:10167000DDED0C0A9DED0D1A0FB0F0BDB0EE600A65
:10168000EBE7D3ED007A9FED170ADFED170A37EE8F
:10169000800A07EE902A30EE670AFFF74DF9D7ED82
:1016A000016ADFED127ADFED121AB6EE087AF4EE77
:1016B000C76AF1EE10FAC8BFF0EE671ACDE793EDF6
:1016C000000AFFF78DF9DFED0B7ADFED0B1AB4EEB0
:1016D000E70AF1EE10FA00EE106A58BF01EE905AD8
:1016E000BBE700BF000034430000B4430000C84221
:1016F00000002042000070420000000000F0FEBD2B
:1017000038B5044600252078012101F07BF92079C5
:10171000012101F077F9207A012101F073F9207895
:10172000012101F069F9012120790D4401F064F9EA
:10173000207A002100F0DCFF042D04F10104E2D145
:1017400038BD00BFDFED1E7A70B560EE277A82B03B
:10175000F5EE407AF1EE10FA0B462DD0F5EEC07A98
:10176000F1EE10FA9FED177AD8BFF1EE677AF4EE3A
:10177000C77AF1EE10FA48BFFCEEE77AB5EEC00A80
:1017800046BFCDED017A9DF80450FF25F1EE10FA29
:10179000CCBF0121002181F00106C418C05C01F01A
:1017A0002BF93146207901F027F9207A294602B039
:1017B000BDE8704000F09CBF012631460025ECE7F3
:1017C0003333234000007F432DE9F047D0ED057A05
:1017D0002DED048BF4EE407A88B0F1EE10FA8DED29
:1017E000010ACDED020A8DED031A07D1D0ED067A7C
:1017F000F4EE607AF1EE10FA00F09480B5EE401A43
:10180000F1EE10FAB0EE418A10EE906AF0EE408AE6
:101810000546CDED040ACDED050ACDED060ACDED68
:10182000070A0FD1B0EE600A04AF0024E1B22846E7
:101830000134FFF787FF042C00F08180043797ED17
:10184000000AF3E704AF9FED6B9A3C46BA4600F1FD
:101850000A0800F1120938F8023F5A3307EE903AAD
:10186000F8EEE77A77EEE87A67EE897A17EE900A73
:1018700006F008FC41EC100B03F0A6FC51EC100B39
:1018800006F02CFFC8454AF8040BE4D1DDED047ADC
:101890009DED056A9DED067AF5EEC07AF1EE10FA3F
:1018A000B5EEC06AD4BFF1EE676AF0EE676AF1EE9A
:1018B00010FAD8BFB1EE466AF4EE466AF1EE10FABD
:1018C000B5EEC07AA8BFB0EE666AF1EE10FADDEDB3
:1018D000076AD8BFB1EE477AB4EE467AF1EE10FA55
:1018E000F5EEC06A98BFB0EE467AF1EE10FAD8BFB6
:1018F000F1EE666AF4EE476AF1EE10FA98BFF0EE88
:10190000476A08AA3B4668EE277A87EEA67A07EE72
:10191000906A77EE277AE3EC017A9A4219D0D3EDF8
:10192000007AF0E7D0ED077AF4EE417AF1EE10FAA2
:101930007FF464AF08B0BDEC048BBDE8F087C5ED63
:10194000058AAE6185ED078A08B0BDEC048BBDE861
:10195000F087DDED047ADDED056A9DED067AF5EEA2
:10196000C07AF1EE10FAF5EEC06AD4BFB1EE676A44
:10197000B0EE676AF1EE10FAD8BFF1EE666AB4EE27
:10198000666AF1EE10FAB5EEC07AA8BFF0EE466ACC
:10199000F1EE10FA9DED076AD8BFB1EE477AB4EECA
:1019A000667AF1EE10FAB5EEC06A98BFB0EE667ACC
:1019B000F1EE10FAD4BFF1EE466AF0EE466AF4EEAC
:1019C000476AF1EE10FA98BFF0EE476A88EE267A81
:1019D00067EE877AE4EC017AA24207D0D4ED007A70
:1019E00067EE877AE4EC017AA242F7D19DED040A12
:1019F0001BE700BF35FA8E3C00F080BC30B58DB0DF
:101A000008AB0E223B21682003F08AFB9DF828409A
:101A10009DF821309DF82A509DF82B209DF82C0030
:101A20009DF82D109FED147A9FED141A43EA0423BC
:101A300042EA05225B4241EA00211BB2524212B245
:101A400000EE103A0BB200EE902A07EE903AF8EE54
:101A5000E00AB8EEC00AF8EEE77A60EE870A20EEF8
:101A6000070A67EE877A60EE810A20EE010A27EE08
:101A7000811A0DB030BD00BF00007A44000000386C
:101A800030B52DED028B87B00446FFF7B7FFB0EEFF
:101A9000418A8DED030A8DED051ACDED040A00F0A3
:101AA000B7FF6368DFED186A94ED031A174A94EDE7
:101AB000000A11680191C31A07EE903AF8EEE77A2E
:101AC00038EE418A87EEA67A019BA1685B1A642BE7
:101AD0000546A7EE480A84ED000A09D9D4ED047A38
:101AE0001368029330EE270A029BA36084ED000A7C
:101AF000DFED070AFEF720FF656084ED000A07B0FE
:101B0000BDEC028B30BD00BF002474498815FF1F57
:101B10000000B44330B52DED028B054685B014248A
:101B20002846FFF76BFFD5ED037A8DED031A37EEEC
:101B3000811A322085ED031A8DED010ACDED020ADE
:101B400000F088FF631E13F0FF04E9D1D5ED036AAE
:101B5000B3EE047AC6EE877A2846C5ED037AFFF71E
:101B60008FFF642095ED008A00F074FF2846FFF790
:101B700087FF074BD5ED007A1B68009377EEC87A94
:101B8000009BC5ED047AAB6005B0BDEC028B30BDA7
:101B90008815FF1F10B50446144802F0BFFF062247
:101BA0001D21682003F0F6FA06221A21682003F0AE
:101BB000F1FA10221B21682003F0ECFA00221C210C
:101BC000682003F0E7FA02223721682003F0E2FAE6
:101BD00016220A210C2003F0DDFA00F019FF6060E4
:101BE0002046BDE81040FFF795BF00BF0008FF1F6B
:101BF00000F084BB10B5002380ED000AC0ED010A9F
:101C000080ED021AC0ED051A0361044600F000FFE2
:101C1000E060204610BD00BF10B504462DED028BDC
:101C200030EEC08AF0EE418A00F0F2FEE368E06038
:101C3000C01A07EE100A9FED2A6AD4ED067AB8EEB4
:101C4000477AF5EE408AC7EE066A94ED047AE8EE2C
:101C5000267AF1EE10FAC4ED067A38EE477A08D00B
:101C6000B1EE686AB4EEC67AF1EE10FA2BD537EE13
:101C7000287AB1EE477A87EE266A94ED010AD4ED10
:101C8000005A94ED057AD4ED026A84ED048A27EEB9
:101C9000800AB5EE407AA8EE250AF1EE10FAA6EE1B
:101CA000660A0DD0F1EE477AB4EEE70AF1EE10FACB
:101CB00011D4B4EE470AF1EE10FAC8BFB0EE470AED
:101CC000BDEC028B10BDF4EEC78AF1EE10FA48BFEE
:101CD00037EE687ACDE7BDEC028BB0EE670A10BD37
:101CE000002474490368C9B21B6818470368C9B265
:101CF0001B6818470368C9B21B6818470368C9B254
:101D00001B681847084B4A08134410B50446B3FB38
:101D1000F1F000F0EDFF054B1B7803B110BD20463C
:101D2000BDE8104002F014BE001C4E0E5107FF1F0C
:101D300008B5084601F01EFA012008BD08B508469E
:101D400001F018FA012008BD38B508460D4607F025
:101D500077F804460146284601F016FA204638BDB9
:101D600010B508461446114601F00EFA204610BD83
:101D70000846114601F038BC0846114601F01ABC6D
:101D800001F030BB08B5084601F0CCF9003018BFAF
:101D9000012008BD08B5084601F0A2F9003018BFBF
:101DA000012008BD0846114601F016B9084601F0A9
:101DB0005DB900BF084601F0F3B800BF01F07CB880
:101DC00010B5064B144603EB5100B0FBF1F000F0E8
:101DD0008FFF2046BDE8104001F012B8001C4E0EE7
:101DE00001F0DABA01F098BA01F082BA01F05CBAF7
:101DF00001F066BA084B4A08134410B50446B3FB19
:101E0000F1F001F06BFC054B1B7803B110BD2046CF
:101E1000BDE8104002F09CBD000E27075207FF1FCF
:101E200008B5084601F0C6FD012008BD08B5084602
:101E300001F0C0FD012008BD38B508460D4606F08A
:101E4000FFFF04460146284601F0BEFD204638BD8E
:101E500010B508461446114601F0B6FD204610BDE7
:101E60000846114601F028BF0846114601F00ABF96
:101E700001F05EBE08B5084601F07CFD003018BFD9
:101E8000012008BD08B5084601F052FD003018BF1A
:101E9000012008BD0846114601F01EBD084601F0AC
:101EA00045BD00BF084601F0FBBC00BF01F0C0BC4F
:101EB00010B5064B144603EB5100B0FBF1F001F0F6
:101EC0000DFC2046BDE8104001F056BC000E27076F
:101ED00001F008BE01F0C6BD01F0B0BD01F08ABD41
:101EE00001F094BD0368064A1B68934205D110B502
:101EF000C8B201F05FFD012010BDC9B2184700BF94
:101F00002D1E00000368064A1B68934205D110B5D8
:101F1000C8B201F04FFD012010BDC9B2184700BF83
:101F20002D1E00000368064A1B68934205D110B5B8
:101F3000C8B201F03FFD012010BDC9B2184700BF73
:101F40002D1E00000368064A1B68934205D110B598
:101F5000C8B201F02FFD012010BDC9B2184700BF63
:101F60002D1E0000374A384913681B06FCD40B6845
:101F700013F08003F8D172B634490A78002A5FD092
:101F8000334A3448F0B4344C176806682568D4687E
:101F90000C303E44143200681268304F35442C44F3
:101FA00020440244C2F34E022D4E2E482E4D2F4C9B
:101FB00042F400423A60376806682D682C4A24686B
:101FC0000C303E44006812682A4F35442C442044AB
:101FD0000244C2F34E02284E2848294D294C42F4AF
:101FE00000423A60376806682D68274A24680C303A
:101FF0003E4400681268254F35442C442044024476
:10200000C2F34E02224E2348234D244C42F4004298
:102010003A60376806682D68214A24680C303E44CF
:102020000068126835442C4420440244C2F34E0236
:102030001C4842F4004202600B7062B6F0BC70476C
:1020400062B6704724B0034024B00B408115FF1FD7
:1020500038B003403CB0034040B003402CB00340D4
:1020600058B003405CB0034060B0034064B003402C
:102070006CB0034030B0034038B00B403CB00B4074
:1020800040B00B4044B00B404CB00B402CB00B4068
:1020900058B00B405CB00B4060B00B4064B00B40DC
:1020A0006CB00B4030B00B4030B42948294A2A4B61
:1020B0002A4D6024E121047011701B78284C082BF4
:1020C00030D00A2B2748284937D00C2B0CBF35229B
:1020D0005D2212232A60236002600B60234B244997
:1020E0001B78244ABBB101230B601360224B2349A8
:1020F0001B78234A012B26D9042B0FD9082B1ED974
:10210000102B94BF862387230B6013601D4B012285
:102110001A7030BC70470B601360E7E784230B60D4
:102120001360F3E700F58E200F49083021221323B6
:102130002A60236002600B60D0E73922F7E785232D
:102140000B601360E2E780230B601360DEE700BFE3
:1021500000400740014007402007FF1F08B0034030
:102160000CB0034008B00B400CB00B408415FF1FAF
:1021700020B0034020B00B402107FF1F24B00340D4
:1021800024B00B408115FF1F47282FD8334B2DE972
:10219000F0411E5CFF2E2BD0314B1B78002B2AD137
:1021A00032062CD472B62F4D2F4C2F4601232660B9
:1021B0002B7062B672B623681B060CD43B781BB931
:1021C000F4E72B78002BF1D062B602F01FFB72B659
:1021D00023681806F5D5254B1B6800222A7062B6C5
:1021E000234A107843FA00F0BDE8F08100207047E0
:1021F0000020BDE8F081FFF7B5FE3206D2D572B6F9
:102200001C4DDFF87C801C4C06F04007FFB206F046
:102210003F06D8F80030DFB123F01003C8F80030D3
:1022200001232660134A2B7062B672B62368190622
:102230000CD413781BB9ECE72B78002BE9D062B6ED
:1022400002F0E4FA72B623681B06F5D50B4BC3E720
:1022500043F01003C8F80030E2E700BF5C940000D0
:102260008115FF1F8315FF1F00B0034010B003400E
:102270008015FF1F8215FF1F00B00B4010B00B40F0
:102280000CB00B400A4A0B49136843F480531360A7
:102290000B7843B9084BC0221A70084B80F30C002E
:1022A00000B218807047044B80221A70F5E700BF17
:1022B0002C8004408415FF1F21C00C4000C00C403E
:1022C0000A4A0B49136843F4005313600B7843B96F
:1022D000084BC0221A70084B80F30C0000B2188023
:1022E0007047044B80221A70F5E700BF2C80044031
:1022F0008415FF1F21D00C4000D00C40F0B585B0F4
:1023000010221949684600F047F8184A12789107D8
:102310001DD51749174D0A7812F0700218BF0A70C0
:102320001549164A0346802715480F7000261224C7
:1023300005212E700470117072B60D4C43F001032C
:102340002046984762B6237813F0700309D10D4BED
:10235000064901E0013B02D00A78D207FAD505B060
:10236000F0BD237005B0F0BDA49400000100024050
:102370000000024004000240070002400A00024040
:102380000B000240410D030008B5FEF7B1F9FEF75E
:10239000CFF902F03BFAFAE701B441EA000313F087
:1023A00003036FD1403A41D351F8043B40F8043B5A
:1023B00051F8043B40F8043B51F8043B40F8043B1F
:1023C00051F8043B40F8043B51F8043B40F8043B0F
:1023D00051F8043B40F8043B51F8043B40F8043BFF
:1023E00051F8043B40F8043B51F8043B40F8043BEF
:1023F00051F8043B40F8043B51F8043B40F8043BDF
:1024000051F8043B40F8043B51F8043B40F8043BCE
:1024100051F8043B40F8043B51F8043B40F8043BBE
:1024200051F8043B40F8043B403ABDD2303211D35E
:1024300051F8043B40F8043B51F8043B40F8043B9E
:1024400051F8043B40F8043B51F8043B40F8043B8E
:10245000103AEDD20C3205D351F8043B40F8043B5E
:10246000043AF9D204320AD0D2071CBF11F8013B5A
:1024700000F8013B03D30B7803704B78437001BC29
:10248000704700BF0C2A4AD310F0030311D0C3F1E8
:102490000403D21ADB071CBF11F8013B00F8013B13
:1024A00007D311F8013B00F8013B11F8013B00F89C
:1024B000013B11F003033FF475AF30B4043AC91A7D
:1024C000C3F1040C51F8044B022B19D0032B0BD091
:1024D000240A51F8043B1D0644EA050440F8044B65
:1024E0001C46043AF4D216E0240E51F8043B1D02B7
:1024F00044EA050440F8044B1C46043AF4D20AE0CE
:10250000240C51F8043B1D0444EA050440F8044B34
:102510001C46043AF4D20432B1EB0C0130BC043A4C
:10252000A0D3013A11F8013B00F8013BF9D20B7836
:1025300003704B7843708B78837001BC704700BF89
:1025400008B5104C08E0236859050DD423681A0516
:102550000FD42368DB0411D423685803F3D501F0AA
:1025600041FC23685905F1D500F062FF23681A0584
:10257000EFD500F009F82368DB04EDD501F0EAFAA5
:10258000EAE700BF3480044008B5FFF7D9FF00BF79
:10259000014B10221A80704700200540704700BF91
:1025A000094908B50B6830B16A461844A2F50052D3
:1025B000904202D20860184608BD06F0DFF80C23EE
:1025C00003604FF0FF3008BD2407FF1FEFF31380B7
:1025D00070B9EFF310836BB9EFF305825AB94FF47A
:1025E0008070EFF311832BB1984228BF18467047D3
:1025F0004FF0FF3070470F2A01D81846F1E7014B22
:10260000D05CEEE7F0E300E010B4114B53F830205B
:1026100092F8804234B1012379B182F880305DF8BC
:10262000044B704703EBC0035B681A6851B922F092
:1026300002021A605DF8044B704782F800315DF8C1
:10264000044B704742F003021A605DF8044B704778
:10265000B49400001C4A02EBC00301295B6811D04E
:1026600004291BD052F83000002280F8802229B1C2
:10267000022920D0032922D01A6070474FF48072BB
:102680001A60704752F830004FF4A27280F880123E
:102690001A601A6822F020021A60704752F830104F
:1026A0004FF4A272012081F880021A601A6842F089
:1026B00020021A60704740F203121A6070474FF40C
:1026C00081721A60704700BFB494000030B4054BAB
:1026D000054D064C002210211A602A602060196006
:1026E00030BC704714D0034004D0034000D00340F6
:1026F00038B5A0F14203012B04461FD9002975DD2E
:10270000904B1B78012505FA03F28A4202D83F2834
:1027100027D938BDC21E012A2BD9A0F11D02012ADA
:1027200073D90E2856D9A4F12302032A57D9864A11
:10273000126802FB011222FA03F320E0814B1B789E
:102740000B2B0AD90C2B1CBF0C3B1941422C084601
:1027500057D0BDE83840FFF7B3BDC3F10C03994033
:10276000F4E72946FFF750FF2946BDE83840FFF758
:1027700071BF764A126802FB011222FA03F3A21E0D
:10278000242A00F2D580DFE812F0CC00C500BE009C
:10279000B700B000A900A2009B009400D300D300B2
:1027A000D3008D00D300D300D300D300D300860024
:1027B0007F0078007100D300D300D300D300D30092
:1027C0006A006300D300D300D300D3005C0055003F
:1027D0004E00470044F28412C240D207A3D55C4A9F
:1027E000126802FB011222FA03F3C8E73F2890D8CF
:1027F0000021FFF709FF20460121BDE83840FFF71F
:1028000029BFBDE83840FFF73DBD524A126802FBC0
:10281000011222FA03F3B2E74F49504A0B604FF41A
:102820005173136038BD4E494E4A0B604FF45173DB
:10283000136038BD4C494D4A0B604FF4517313601F
:1028400038BD4B494B4A0B604FF45173136038BD90
:1028500049494A4A0B604FF45173136038BD4849E7
:10286000484A0B604FF45173136038BD4649474ADC
:102870000B6040F24443136038BD4549454A0B6044
:1028800040F24443136038BD4349444A0B6040F270
:102890004443136038BD4249424A0B6040F244430E
:1028A000136038BD4049414A0B6040F24443136015
:1028B00038BD3F493F4A0B6040F24443136038BD86
:1028C0003D493E4A0B6040F24443136038BD3C49E9
:1028D0003C4A0B6040F24443136038BD3A493B4ADE
:1028E0000B6040F24443136038BD3949394A0B60EC
:1028F00040F24443136038BD3749384A0B6040F218
:102900004443136038BD3649364A0B604FF4517367
:10291000136038BD3449354A0B604FF4517313606E
:1029200038BD3349334A0B6040F24443136038BD2D
:102930003F2C3FF6EEAE7F29D4BF00210121204677
:1029400057E700BF2807FF1F088003400890034097
:1029500008900B4008800B4048900B402CB004407E
:1029600040900B4028B0044038900B4024B0044005
:1029700030900B4020B0044018800B404CA0044025
:1029800010800B4048A004401880034008B0044069
:102990001080034004B004404080034018C004404D
:1029A0003880034014C0044018900B4004C0044019
:1029B0002880034010B00440208003400CB0044045
:1029C00028900B400CC0044020900B4008C00440ED
:1029D0003080034010C00440488003401CC00440C5
:1029E000189003403490044010900340309004400D
:1029F00010900B4000C004403F2801D8FFF704BEF0
:102A0000704700BF3F2801D8FFF724BE704700BFC2
:102A100072B60C490C4B0D4A1B680868126862B606
:102A2000520102D5322B88BF01300949C3F5EA3380
:102A30004FF47A72BF33A1FB031302FB00F000EBEB
:102A4000931070478815FF1F18E000E004ED00E0C8
:102A5000898888882DE9F843054672B6204F214BB6
:102A6000214A1B683C68126862B6520102D5322BBB
:102A700088BF013495B3C3F5EA331C4EDFF8649088
:102A8000DFF86480BF334FF47A72A6FB031302FBB6
:102A900004F404EB931472B6D9F800103A68D8F82D
:102AA00000E062B6C1F5EA33BF33A6FB03031EF0B4
:102AB000806FC4EB93134FF47A7002D0322988BF31
:102AC000013200FB0233B3F57A7F04D3013D05D018
:102AD00004F57A74DFE701F099FEDCE7BDE8F883DE
:102AE0008815FF1F18E000E004ED00E08988888861
:102AF000F8B53E4B3E49DFF818C13E4E3E4ADFF87E
:102B000014E13E4D3E4C3F4F4FF0006018604FF0D7
:102B1000805018604FF0005018604FF080401860EF
:102B20004FF0004018600020086028234EF6FF7127
:102B3000CCF80010CEF8003033600EF5012E136093
:102B40002B60236005F500253B6004F50024B3628B
:102B500007F50027936206F5012602F501220EF122
:102B6000100E05F6E87504F6E87407F57F67103275
:102B700020362B602360CEF800303B60136033605A
:102B8000214EBB61936109223260A7F5002706F54B
:102B90008056203F083638603160BB60F36047F8EC
:102BA000042C06F5FD2607F5FE2706F2FC76043711
:102BB00030603960B360FB6046F8042C0836C7F813
:102BC000FC0F06F6FC76114831602B602360026032
:102BD000FFF76AFA1920FFF73DFF01F03DFD40F2D3
:102BE0001310BDE8F840FFF735BF00BF04E100E077
:102BF00004800340148003401C8003402480034071
:102C00002C800340348003400080034000900B4040
:102C1000088003400C8003402DE9F84F2C4B1B68C3
:102C200007460BB101221A70DFF8BC90DFF8BC80B8
:102C300099F80040D8F80030264D274E01349C42C8
:102C40002ABF4FF0000A5FFA84FA5446AB462B784D
:102C5000A3421CD1FFF7BAFC40282BDC33791B06BA
:102C6000F5D59BF80030D8F80010DBB25A1C8A4228
:102C700025D23F2A29D919493F3B0968CB5CD1B2FB
:102C8000DBB2DBB2F37129702B78A342E2D03F2C88
:102C90008ABF124B124B1B68124988BF403CFFB2DF
:102CA0001F550D4B0120BC22087089F800A0DA7076
:102CB000BDE8F88FFF28CADD01F0A8FDC7E70021B5
:102CC0000A46074B9B5CDBB2DBE7D1B2F9E700BFFA
:102CD0002416FF1F1D16FF1F00A00640D815FF1F5A
:102CE0009415FF1F1C16FF1F2816FF1F3807FF1F14
:102CF000324A33491368F0B543F4806313600A78AD
:102D0000304F314E314D324C32490023152A3B7041
:102D100033702B7023700B7045D01B2A3ED082B3CA
:102D20002D4B1B78052B34D01A2B41D0012B1BD0F7
:102D30001F281FD8002002460125284B284C1A7056
:102D400028495D7004224FF0020E88273C2640255A
:102D500098729A704FF0004083F813E05A751F7410
:102D6000DE7025700860F0BD1F4B4FF451721F28B4
:102D70001A60DFD9C0F34432C0F3471500F01F00DA
:102D8000DBE71A4B40F213321A60134B1B78052B0A
:102D9000CAD1174B4FF451721A60C9E7154B40F274
:102DA00013321A60BCE7144B40F213321A60B7E7D3
:102DB000124B4FF451721A60BAE700BF34800440DE
:102DC000D415FF1F9015FF1F9115FF1F2816FF1F19
:102DD0001D16FF1F1C16FF1F3C07FF1F00A006400B
:102DE0001FE400E000E100E044A0044040A00440F3
:102DF0001CC004403C90044018C00440389004407B
:102E0000284B28499B7803F0EC0200F0030313439E
:102E1000420700F00F0248BF43F01003042A8B70F2
:102E200038D0204B1F4A5B79C10603F0EF0348BF3F
:102E300043F0100353719379820603F0EF03194AAC
:102E400048BF43F010039371C30506D5537811783A
:102E5000DBB241F020011170537010F4007005D105
:102E6000114B124A1968914219D0704730B40D497C
:102E70000F4D8A780F4B0C480C4C42F0A0028A7020
:102E80002A78046003EBC20340F247325B6830BC2F
:102E90001A6070478B7943F040038B71C1E718606B
:102EA000704700BF00A006402416FF1FD400D44284
:102EB0003C07FF1FB49400002A4B1B685B0536D506
:102EC00010B5294C237823B101F0A0FC2378002B06
:102ED000FAD12648264A274B4FF0004400210460CF
:102EE000D1701B78152B23D01B2B35D01BB9224B4F
:102EF00040F203121A60214B1B7803F07F03052B6D
:102F000020D01A2B23D0012B03D11D4B40F20312EA
:102F10001A601C4A164B1C481C4912681C79DB7944
:102F2000002303700B700AB10123137010BD7047AA
:102F3000174B40F203121A60104B1B7803F07F030B
:102F4000052BDED1134B40F203121A60E1E7124B5E
:102F500040F203121A60DCE7104B40F203121A60D1
:102F6000C9E700BF348004401C16FF1F80E100E069
:102F700000A00640D415FF1F40A004403C07FF1FDF
:102F800044A004408C15FF1F9015FF1F9115FF1FD3
:102F900018C004401CC00440389004403C900440D9
:102FA0000A4A38B50546137803F0FF04002BFAD11E
:102FB00001212846FFF726FD21462846FFF71CFD84
:102FC000034A044B52F835201A6038BD1C16FF1F07
:102FD000B49400002416FF1F09B140F080001E4A7F
:102FE000137898421BD010B41C4C2468640513D588
:102FF00003F07F03052B2AD01A2B24D0012B14D0E9
:10300000002900F07F0114BF60234423052915D057
:103010001A290ED0012903D010705DF8044B7047B7
:103020000F4943F440730B60F6E70D4B00241C601E
:10303000E6E70C4943F440730B60EDE70A4943F4BB
:1030400040730B60E8E7074B00241C60D8E7064B91
:1030500000241C60D4E700BF3C07FF1F34800440FD
:1030600044A00440389004401CC00440174A137820
:1030700083420ED016490968490509D5152B20D081
:103080001B2B1AD05BB115280DD01B2810D008B10E
:10309000107070470F4B40F213311960F8E70D497B
:1030A00015280B60F1D10C4B40F213311960EFE79A
:1030B0000A4B40F213311960EAE7084B002119600E
:1030C000E1E7054B00211960DDE700BFD415FF1FC4
:1030D0003480044040A0044018C004403C900440A8
:1030E0000D4B1B6813F4806305D03F2805D90B4BAB
:1030F00000201860704718467047094B10B5074C00
:1031000053F8303023600121FFF77CFC2368002254
:103110001A70012010BD00BF348004408C15FF1FC1
:10312000B49400000F4B1B6813F4806308D012287E
:1031300008D0142811D00C4A537B03F0FE035373BC
:1031400000207047094B40F202321A60064A537B56
:1031500043F00103537301207047054B40F20232E4
:103160001A60F3E73480044000A006400CA004403D
:1031700014C00440034B1B685B0501D5FFF74CBD31
:10318000704700BF348004403E4B1B685A0575D51C
:103190002DE9F04F3C4B1B6883B00BB101221A7034
:1031A00043189842019363D2DFF8F080DFF8F09083
:1031B000364CDFF8F0B0364F451C18E022789245C7
:1031C0005FFA8AF629D0BAF13F0F1ED9DBF800204A
:1031D00015F8011CAAF14003D1542A462D490123B8
:1031E0000B701D44019B88F800609A4240D298F809
:1031F0000030D9F8002003F1010A9245DED323788C
:1032000003F0FF0643B10026B246234B15F8012C0C
:1032100003F80A202A46E1E7B246BC22FA7005E02C
:103220003A7913060BD422785245CCD1FFF7CEF968
:103230004028F5DDFF28F6DD01F0E8FAF3E7227813
:10324000D9F80010D2B2501C88420BD23F2816D9B0
:10325000DBF800103F3A8A5CC1B2D2B2D2B2FA7146
:103260002170E0E7002108460B4B1A5CD2B2F5E76B
:10327000074BBC22DA7003B0BDE8F08F7047C1B2D3
:10328000F2E700BF348004402416FF1F1D16FF1F05
:1032900000A006401C16FF1F9415FF1F2816FF1FD5
:1032A0003807FF1FD815FF1F10B5044C237823B132
:1032B00001F0ACFA2378002BFAD110BD1C16FF1FC9
:1032C000084B094A1B781078DBB2C0B2834202D2A5
:1032D0000138C01A7047054A1268013A1044C01AF2
:1032E000704700BF2816FF1F1D16FF1F3807FF1F5E
:1032F000064A074B10781B78C0B2DBB2984202D264
:10330000044A12681044C01A704700BF9015FF1F8E
:103310009115FF1F2C07FF1F70B4184B184D1B7819
:103320002A78D9B2D2B2914222D0164B1C68531CD3
:10333000A34214D3002213461348C05CC0B2134EFC
:103340002A7032684AB1994238BF0919CB1A10491C
:1033500009688B4201D80023137070BC70473F2B63
:1033600009D90C483F3A0068805CDAB2C0B2E6E79F
:103370004FF0FF30F1E7DAB2DEE700BF9015FF1F34
:103380009115FF1F2C07FF1FDC15FF1F8C15FF1F5A
:103390003007FF1F2016FF1F0D4A0E4B12781B78B7
:1033A000DBB29A4211D00C4A11685A1C8A4204D3EB
:1033B00000220A4B985CC0B270473F2AF9D9084AEC
:1033C0003F3B1268D05CC0B270474FF0FF3070478F
:1033D0009015FF1F9115FF1F2C07FF1FDC15FF1F06
:1033E0002016FF1F0D4B1B685B0516D530B40C4B28
:1033F0000C4CDA780C480D4902F0CB024025DA700B
:103400005D74DA7842F03402DA7023780268DBB255
:103410000B700AB10023137030BC70473480044035
:1034200000A006409115FF1F8C15FF1F9015FF1F70
:103430002DE9F041504A137913F0300F44D072B6A1
:10344000937D03F0FF01002B57D062B6DFF858815F
:103450004A4B4B4D98F800004A4C1B782F68D4F823
:1034600000C0DFF848E11546C0B2DEB20CE096427B
:10347000A0F13F0404D03F2A7CD90CF80430104658
:103480004A1E12F0FF010DD0EB79421CBA42DBB2AA
:10349000EDD3002EF4D000204A1E12F0FF010EF8EA
:1034A0000030F1D1384B1A68C3B288F800305AB1F5
:1034B0003649B04238BFBB1B09682CBF831B1B18A1
:1034C0008B4224BF012313702B48C178C9B20D066B
:1034D00018D44A060FD5284B1B795B060BD52C4B0D
:1034E0002C491B6800220A7003B11A70224B3C223F
:1034F000DA70BDE8F081BDE8F0814023D1795374E2
:1035000062B6E1E703791C06E3D5234BDFF8A0E0C0
:103510001D789EF80030EDB2DBB29D421ED01F4CEC
:103520001F4A2668D2F800C01E4F0DE03F2C0279DA
:103530001ED91CF803202346D2B2D2B2C271027D3A
:10354000072A0BD89D4209D05C1CA642A3F13F0379
:10355000ECD803790023FA5CD2B2EEE7DBB2064A7C
:103560008EF800301379180644BF7C23D370B0E77F
:103570002346F0E710468FE700A006409115FF1F95
:103580002C07FF1F2016FF1F8C15FF1F3407FF1F7E
:103590002416FF1F1C16FF1F2816FF1F3807FF1FCA
:1035A000D815FF1F9415FF1F9015FF1FDC15FF1F77
:1035B0001D16FF1F084B1860084B50B101F1400267
:1035C0001A60074A074B01F11A0028311060196090
:1035D000704740221A60F4E72016FF1F2C07FF1FD8
:1035E0003007FF1F3407FF1F044B1860044B10B156
:1035F00040311960704740221A607047D815FF1F8C
:103600003807FF1F2DE9F84F2C4B1B6807460BB1FD
:1036100001221A70DFF8BC90DFF8BC8099F80040F6
:10362000D8F80030264D274E01349C422ABF4FF077
:10363000000A5FFA84FA5446AB462B78A3421CD1A9
:10364000FEF7C4FF40282BDC33791B06F5D59BF829
:103650000030D8F80010DBB25A1C8A4225D2272A43
:1036600029D91949273B0968CB5CD1B2DBB2DBB25F
:10367000F37129702B78A342E2D0272C8ABF124B1A
:10368000124B1B68124988BF283CFFB21F550D4BD7
:103690000120AC22087089F800A0DA70BDE8F88F2C
:1036A000FF28CADD01F0B2F8C7E700210A46074B40
:1036B0009B5CDBB2DBE7D1B2F9E700BFA816FF1FC6
:1036C000A116FF1F00C006405C16FF1F3416FF1F27
:1036D000A016FF1FAC16FF1F4C07FF1F1B4BDFF888
:1036E00090C01A681A49F0B542F48052194D1A6018
:1036F000DFF880E0184F194E194C00238CF8003089
:103700004FF451722B701F2840F213358EF80030A1
:103710003B70337025600A6011D819460124114AA4
:10372000114D11701148547000212C2740269372BE
:10373000082491701174D7702E700460F0BDC0F32E
:103740004431C0F3471400F01F03E8E7348004401D
:103750000CC004403116FF1FA116FF1FA016FF1F4B
:1037600008C0044000C0064023E400E004E100E09B
:103770003016FF1FAC16FF1F284B28499B7803F01B
:10378000EC0200F003031343420700F00F0248BFAE
:1037900043F01003042A8B7038D0204B1F4A5B790A
:1037A000C10603F0EF0348BF43F010035371937950
:1037B000820603F0EF03194A48BF43F010039371E8
:1037C000C30506D553781178DBB241F020011170A2
:1037D000537010F4007005D1114B124A19689142D0
:1037E00019D0704730B40D490F4D8A780F4B0C48F3
:1037F0000C4C42F0A0028A702A78046003EBC203EA
:1038000040F247325B6830BC1A6070478B7943F0F6
:1038100040038B71C1E71860704700BF00C00640CD
:10382000A816FF1FD400D8425007FF1FB494000011
:10383000F8B5124B1B68DB041ED5114C237823B15D
:1038400000F0E4FF2378002BFAD10E4B0E4A0F4D07
:103850000F4F104E104C1148082119600023D370EF
:1038600040F203113960316029681579D2792370EB
:10387000037011B101230B70F8BDF8BD3480044012
:10388000A016FF1F84E100E000C006402C16FF1FB9
:1038900008C004400CC004403016FF1F3116FF1F43
:1038A0000A4A38B50546137803F0FF04002BFAD115
:1038B00001212846FFF7A6F821462846FFF79CF885
:1038C000034A044B52F835201A6038BDA016FF1F7A
:1038D000B4940000A816FF1F09B140F08000104A00
:1038E000137898421AD010B40E4C2468E40412D510
:1038F00003F07F03082B02D10B4B00241C6000292E
:1039000000F07F0314BF60214421082B03D1064B34
:1039100041F44071196010705DF8044B704700BFAE
:103920005007FF1F348004400CC00440704700BFA4
:103930000D4B1B6813F4805305D03F2805D90B4B62
:1039400000201860704718467047094B10B5074CA7
:1039500053F8303023600121FFF754F82368002228
:103960001A70012010BD00BF348004402C16FF1FC8
:10397000B49400000C4B1B6813F4805306D00E283F
:1039800006D00A4A537B03F0FE03537300207047AE
:10399000074B064A40F202311960537B43F00103A2
:1039A00053730120704700BF3480044000C00640BC
:1039B00004C00440034B1B68DB0401D5FFF722BEA3
:1039C000704700BF3480044070B5094E0446451866
:1039D000AC4204F101040AD03368DB04F8D514F8D2
:1039E000010CFFF70FFEAC4204F10104F4D170BDED
:1039F0003480044010B5044C237823B100F006FF56
:103A00002378002BFAD110BDA016FF1F084B094ADE
:103A10001B781078DBB2C0B2834202D20138C01AE0
:103A20007047054A1268013A1044C01A704700BF37
:103A3000AC16FF1FA116FF1F4C07FF1F064A074BBE
:103A400010781B78C0B2DBB2984202D2044A1268E6
:103A50001044C01A704700BF3016FF1F3116FF1FF9
:103A60004007FF1F70B4184B184D1B782A78D9B245
:103A7000D2B2914222D0164B1C68531CA34214D3DD
:103A8000002213461348C05CC0B2134E2A7032683D
:103A90004AB1994238BF0919CB1A104909688B42BB
:103AA00001D80023137070BC70473F2B09D90C4814
:103AB0003F3A0068805CDAB2C0B2E6E74FF0FF3010
:103AC000F1E7DAB2DEE700BF3016FF1F3116FF1F45
:103AD0004007FF1F6016FF1F2C16FF1F4407FF1F24
:103AE000A416FF1F0D4A0E4B12781B78DBB29A42C8
:103AF00011D00C4A11685A1C8A4204D300220A4B86
:103B0000985CC0B270473F2AF9D9084A3F3B126817
:103B1000D05CC0B270474FF0FF3070473016FF1FC7
:103B20003116FF1F4007FF1F6016FF1FA416FF1F5F
:103B3000054B064A1B7806491268DBB20B700AB1C6
:103B400000231370704700BF3116FF1F2C16FF1F94
:103B50003016FF1F30B43C4B1A79940626D53B4DE6
:103B6000DC793B4B29781A683A4BC9B2481C904221
:103B7000E4B232D3197801F0FF03002957D00023B3
:103B8000184635490C542B703449096871B1344BCF
:103B90001B78DBB2834284BFD21A1318314A1268F1
:103BA00098BFC31A934224BF01230B70264AD378CF
:103BB000DBB218061DD45A060DD5234B1B795B06C4
:103BC00009D5294B29491B6800220A7003B11A70D4
:103BD0001D4B2C22DA7030BC70471B789842D3D032
:103BE0003F282FD9224B3F391B685C54C3B22B703E
:103BF000CAE711790906DED51E49194C08782178E3
:103C0000C9B288421BD01C4A1268481C904210D28C
:103C1000272898BFC1B20ED9184A27391268525CBA
:103C2000C1B2D2B20848D2B2C2712170C3E71846FD
:103C3000AAE700210846124A125CD2B2F2E76C21D0
:103C4000D170B8E7C3B29CE700C006403016FF1F32
:103C50004007FF1F3116FF1F6016FF1F2C16FF1FA6
:103C6000A116FF1F4807FF1FA816FF1FA016FF1F62
:103C7000A416FF1FAC16FF1F4C07FF1F5C16FF1F8B
:103C80003416FF1F084B1860084B50B101F1400279
:103C90001A60074A074B01F11A00283110601960B9
:103CA000704740221A60F4E7A416FF1F4007FF1F69
:103CB0004407FF1F4807FF1F044B1860044B10B157
:103CC00028311960704728221A6070475C16FF1F60
:103CD0004C07FF1F704700BF704700BFF0B472B6BB
:103CE0001A491B4E012311F8014B194F9A00240762
:103CF00042F0010505D556F8324064B156F835203A
:103D0000BAB10133052BEED162B6124B00221A7004
:103D1000F0BC00F023BD0F4C0F4D217807EB43138F
:103D2000083001395860217047F8325062B6F0BC53
:103D30007047084A0949137807EBC5040830013B6E
:103D40006060137047F8351062B6F0E7B496000073
:103D50000000FF1F8517FF1F88004000C8004000BB
:103D6000431E032B1DD81B4A400140F0100030B405
:103D7000104472B6184CE25C032A1BD8DFE802F04C
:103D80000212151703220D88E25410F0080F14BF19
:103D9000C823882343EA054308314160036062B6C3
:103DA00030BC704708300222EDE70522EBE708300F
:103DB0000422E8E7094A52F8230038B1084A52F8C9
:103DC0002300416042F8231062B6E9E742F823106D
:103DD000034AF7E70000FF1F9417FF1F5C17FF1F40
:103DE0006C17FF1F2DE9F04FDFF814B3DFF814A3B1
:103DF00087B044E0AD4F4FEA930807EBC809013E96
:103E0000D9F8042003F00803F6B2A2F1080003F089
:103E1000FF04002B40F0038157F838301B0C99B297
:103E200022F8081C002B00F0F180A14B22F8064C70
:103E300042F8044C53F82620002A00F06C819D4D76
:103E400055F8263058609C4C45F8260034F816305A
:103E5000194424F8161000F061FC002800F0548189
:103E6000964A974B19F0080F00F1080018BF134647
:103E7000C9F8040047F8383008238BF800309BF865
:103E80000040E4B260071BD58E4B1B78ABB18E4966
:103E90000A7802F0FF032AB1013BDBB20B70002B62
:103EA00000F0B58389490A7802F0FF032AB1013B8B
:103EB000DBB20B70002B00F0F68004238BF800308F
:103EC00004F0080303F0FF02002B00F0D5809AF8FD
:103ED0000030DBB21E098DD19C08744F57F8342096
:103EE00007EBC401C2F38302013A49680C2A7ED869
:103EF000DFE802F081817D7D7D7D7D7D427D7D7D60
:103F000007000868724B734D01936C4B4A68724E00
:103F100047F8343081B240F281646D4B6A602860AA
:103F200000220120A1423A611A60BA61307000F2A9
:103F3000F680B1F5D06F80F0E882B1F5817F00F0B6
:103F4000D38200F2D881802900F04D81822940F08F
:103F50009282A988614B01F07F01042900F28C82D2
:103F60005F4C89000B44227062701A78930740F10D
:103F70003883207002203AE1554B01931A6862B3EE
:103F8000584B5949544E18880C7896F800E0402850
:103F9000054684F0010C28BF402544F00204BEF120
:103FA000000F81F800C0A0EB050007EBC40C0CBFAC
:103FB0008821C82180B28EF0010E41EA0541CCF87B
:103FC0000420188086F800E02A4447F8341010B91D
:103FD000402D18BF0022019B1A603E4B1A88B2F593
:103FE000A06F04D100219A785970404B1A70404A52
:103FF0000123137040E7374A158842F221008542B9
:1040000000F052812D4A47F83420F0E72B4A2C4B20
:1040100019F0080F18BF134647F838302CE700F0A6
:104020009DFB344A344952F82630002B00F02D8194
:1040300058688C5D42F8260003F10802C9F8042094
:10404000032C05D8DFE804F0120F150204228A556C
:104050001A8819F0080F0CBF8823C82343EA0243CB
:1040600047F8383008E702228A55F1E703228A55DB
:10407000EEE705228A55EBE7E00700F1788121069B
:1040800000F1A281A20706D51C4A1D49137802201F
:10409000DBB213700870E30602D5194B10221A70B8
:1040A00007B0BDE8F08F00F08DFB06E70000FF1FB2
:1040B0000817FF1FB416FF1F0C18FF1FC800400091
:1040C000880040009017FF1F1917FF1F9817FF1F48
:1040D000B016FF1F7C17FF1F1817FF1FC0200740D7
:1040E0008817FF1FC416FF1F8417FF1F9820074063
:1040F000942007405C17FF1F9417FF1F882007407C
:104100008020074090200740B74A47F838001378CE
:1041100001331370B0E643F82600B44D93E642F243
:104120002104A14200F0AD8000F20E81B1F5086FCC
:1041300000F05481B1F5106F40F09D81AC4AA97830
:104140001170AC4D042402E00134142C0CD057F84B
:1041500034301906F8D505EBC40301345868083823
:1041600000F0FCFA142CF2D1A349A44BA44A02910A
:10417000A449A54C9D4D039405964FF0000988462F
:104180001C4616460495206828B1456800F0E6FAFA
:104190002846002DF9D100232360049B30681A467D
:1041A000002342F8293028B1456800F0D7FA2846A4
:1041B000002DF9D100223260029A98F800301146A1
:1041C000002241F8042B039A0291023B4FF00001B8
:1041D00022F81910032B00F2B481DFE813F0E2019A
:1041E000AE01E201AE01894C022022706270EA88C1
:1041F000824280F00D8286490D78402A45F0020EF9
:10420000944607EBCE0028BF4FF0400C04EB0C03A4
:1042100044600293CCEB02004FEA0C484FF00109D6
:104220000022C82444EA080385F0010447F83E3020
:1042300032700C70DFF8BCE1764BDFF8D4810028D7
:1042400040F02081BCF1400F1BD144F0020407EB89
:10425000C403029FDFF89CE15F60002A40F02781E1
:10426000020442F0880286F800900D7007444EF870
:1042700034203B46402804D10020674A0199108031
:104280000B60664A01231370B1E68B5D032B00F2CD
:10429000248101A252F823F0793E0000793E00000B
:1042A000BD430000C3430000928862B95C4ACD1D43
:1042B00011F8013B02F8013F8D42F9D1594A1268C9
:1042C000862A00F0C9805249524E0878327840F070
:1042D000020580F00100087007EBC501002A4FF0CD
:1042E0000000486082F001020CBF8821C82147F815
:1042F0003510327086E640F20232914240F0B080D2
:10430000A98801F07F01042900F2B5806A88002A9B
:1043100040F0B180444C89000C448146217841F042
:1043200002012170002002908046844604463849EC
:104330000D7845F0020E07EBCE03B9F1000F5C607B
:104340000CBF8824C8246DE742F22124A14240F02A
:104350008E80A988002940F04281344B344A354C84
:104360001B68AD78136081460A462570DAE72B4951
:10437000204B3148264EDFF8B0C0304DDFF8D4E096
:104380002F4F02240C702F4C18605C6098602E48F0
:10439000D8601A619A610D2332702C4C8CF8003071
:1043A0002B4EFF232B7001209F258EF800303A7092
:1043B00033702570087007B0BDE8F08F00238B556F
:1043C0005AE501238B5557E51749224B80220D20D2
:1043D00008701A70A2077FF55EAE55E6044A0B4CD2
:1043E0001278227003E700BF8517FF1FB416FF1F66
:1043F0009017FF1F0000FF1F6C17FF1F0817FF1FFC
:104400005C17FF1F9417FF1F0C18FF1F8817FF1F53
:104410008417FF1F1817FF1FC416FF1F94200740A3
:104420001318FF1F1418FF1FC02007408815FF1F17
:104430001C18FF1FA417FF1F88004000882007409A
:1044400098200740C816FF1F1C17FF1F8420074035
:104450008C20074080200740754A0F21117032E7F9
:10446000B1F5A06F07D100224FF001095AE742F2DF
:1044700021329142F7D06F4B0F221A706E4A0123FE
:104480001370B4E540287FF6E0AE44F002040EEB72
:10449000C401029E4E60AAB183F80090674A88F872
:1044A00000503346403840334EF83420E5E6029B56
:1044B00086F80090020442F0C8020D7003444EF8E2
:1044C0003420D7E683F80090029B5D4A88F80050BC
:1044D000403840334EF83420CFE619F0080F0CBFB7
:1044E000022303238B55C7E4A98801F07F01042927
:1044F000C1D86A88002ABED14E4C89000C4481463E
:10450000217821F0020121700CE74E4A5468002CFA
:10451000B1D06888B5F804E003E00C325468002C90
:10452000A9D013888342F8D153887345F5D1000A86
:1045300003280CBF2078108959E64FF0010388F852
:10454000003009F10109B9F1040F04F1040406F186
:10455000040608F101087FF416AE3B4B059E3B4D67
:10456000DFF8F080002018704FF0010918F8013BC7
:1045700005F8043B1A0719D44FEA890444F00202F3
:1045800044F00304002347F8323047F83430304B0E
:104590009D4209F10109E9D196F8009089F00102E4
:1045A000C0E64FF0000388F80030CAE700F0B6F824
:1045B00018B307EB49134FEA890408305860204BC1
:1045C00047F8343000F0AAF868B144F0010307EB73
:1045D000C30208305060194A47F83320CEE78146BD
:1045E000A0E6022003E6184B44F001021B7847F8CE
:1045F0003200154A01331370C0E7134B124A1B787F
:104600004FEA8904013347F834001370DAE700BE3B
:104610004028844628BF4FF0400C04EB0C03CCEB41
:1046200000004FEA0C48029300224FF001097EE699
:104630001917FF1FC020074094200740C800400002
:1046400088004000B89600008517FF1FC42007406F
:10465000D4200740B49600002DE9F04100F0A2F903
:10466000002323491A4601EBC30041F833200133EC
:10467000142B42604FF000041D48F4D11D491E4A1E
:104680000B68DFF88C801D4F1D4D1E4EDFF884C077
:10469000DFF884E043F480230B60136843F0407339
:1046A0001360C0F3072388F8003001F52831C0F308
:1046B00007433B70000EFF23CC3102F5C92228705E
:1046C00002F584728CF800300F4D8EF800300F48E0
:1046D0003370012308F8083C70260C704FF4001466
:1046E000102107F82C3C2E7004601170BDE8F08199
:1046F0000000FF1F3480044000D80040B020074075
:10470000B42007401020074035E400E004E100E059
:104710009C200740802007408820074072B60D4843
:104720000268B2FA82F30B2B10DC4FF00041D94043
:1047300022EA0102026062B6074803EBC303DB0012
:10474000C2180021C15010465160704762B6002067
:10475000704700BF5407FF1F9803FF1F0D4B0E4A01
:10476000C31AA2FB03231B090B2B0CD80B4A12788C
:1047700052B972B60A484FF00041026821FA03F3B9
:104780001A43026062B67047064A1278002AF0D0D7
:10479000FFF7A4BA9803FF1F398EE3388517FF1F70
:1047A0005407FF1F9017FF1F044B054A1B68908892
:1047B0001BB11A885B88D31A18447047A017FF1FD3
:1047C0000C18FF1F38B50E4B1B7873B90D4C2168C0
:1047D00061B103F0FF054B880B800420FFF7C0FA9E
:1047E000256038BD084B01221A7038BDFFF796FFCF
:1047F0000028F7D00146BDE838400420FFF7B0BAE2
:104800009917FF1F9C17FF1F9817FF1F2DE9F843EB
:10481000314E337893B1314F3A787AB90122D907C2
:104820003A7036D49A0719D400225B073A7005D53E
:104830002B4B1A6812B1EFF305820AB1BDE8F88379
:10484000EFF3108172B6186818B1264C2278002A4E
:104850002ED00029F2D162B6BDE8F883DFF890804F
:1048600098F80020002ADFD0DFF88890002405E0C7
:10487000013498F80030E4B2A34212D959F8245018
:104880002B6828461B6998470028F1D02B69984768
:10489000EEE7FFF789FFC8B9134B1B781BB93378D4
:1048A000C0E73378C0E7337803F0FE033370B9E72D
:1048B00045691D60012323705DB1AA6101B962B62B
:1048C00000254577836898472570B7E700F068F8BA
:1048D000E2E7064B1D60F1E75807FF1FA517FF1F12
:1048E000B417FF1FB817FF1F5907FF1FB017FF1F8F
:1048F000D417FF1FBC17FF1F70B5EFF3108272B6FD
:104900000C4C206880B10C4E00254369236073B1C4
:104910009D6102B962B6457783689847EFF31082CC
:1049200072B620680028F0D102B962B670BD33605B
:10493000EFE700BFA817FF1FAC17FF1FFFF7DCBF93
:10494000024A136801331360704700BF8815FF1FC8
:1049500070B4104E104C3578D5B12368984215D0FC
:10496000691EC9B204EB8101234603E053F8042F0A
:1049700082420BD08B42F9D16A1CD2B2074944F86B
:1049800025000B78327043F002030B7070BC704747
:104990000122F3E7D417FF1FBC17FF1F5807FF1FA3
:1049A000704700BF72B6184A184B1949116070223F
:1049B00080211A701A46197013781B06FCD510B5A1
:1049C000144B84B0186862B6134B144C984298BFCD
:1049D00000EB800001A998BF40000A2200F020F8F7
:1049E00001A92046002311F8012B01333AB10A2B0B
:1049F00020F8022FF7D11623237004B010BD5B00FE
:104A0000DBB2237004B010BD04000240000002407D
:104A1000000007410C0002407F969800E807FF1F46
:104A2000F0B44D1E2E46002400E00134B0FBF2F33A
:104A300002FB1300092800F130078ABF3730F8B2B3
:104A4000C0B206F8010F1846002BEED10A195370B8
:104A50004CB1107815F8016F28700133E01A8342C9
:104A600002F80169F5DB0846F0BC7047002070478A
:104A700090F8392090F83800101A704790F83830C4
:104A800090F839209A4205D95A1C034480F83820FE
:104A9000187E70474FF0FF30704700BF90F83830F5
:104AA00090F839209A4286BF1B18187E4FF0FF30CD
:104AB000704700BF704700BF38B50546B0F85E00CC
:104AC00090B195F85D301446C3F1210294420CD8A0
:104AD00005F13B0018442246FDF75EFC95F85D3079
:104AE000234485F85D30204638BD012014462871E6
:104AF000EEE700BFB0F85E306BB190F85D30202B70
:104B000007D8C218013380F85D30012082F83B10CD
:104B10007047012303710020704700BF00234269E2
:104B200080F8383080F8393080F85C3080F85D30BB
:104B300080F85E3080F85F3006CA30B40D680469D2
:104B400043662A4383660A60A370426990F8613025
:104B50001649146813441D7A5B7B01EBC5051B02E3
:104B60006D6803F4E06343F064032B6090F86230F7
:104B700013449D7CDB7D01EBC5011B02496803F4F6
:104B8000E06343F064030B6021685368194205D069
:104B900003692C225A70036904229A710369202246
:104BA0005A71036980229A7030BC7047B494000037
:104BB00038B50269D478E4B2E106054624D510235D
:104BC000D37063061FD504F0040404F0FF03002C27
:104BD0005AD042496A6E00230B7085F85D30002A76
:104BE00066D0904795F85D30002B61D02B69D022BC
:104BF0009A702B6995F83B201A712B69012285F870
:104C00005C200222DA7038BD04F0400303F0FF009C
:104C1000002BD8D19379DBB203F0600160294ED02C
:104C2000937803F0100303F0FF01B3B114F0010413
:104C300037D195F85C3095F85D1099424BD9591CE5
:104C40002B4485F85C1093F83B3013712B69D0220C
:104C50009A702B690222DA70D5E785F86010937993
:104C600043F0200393712B6995F839101A791F29A5
:104C7000D2B2C6D8194800780028C2D068180131CD
:104C800085F839100276BCE72A6985F83930C023E7
:104C900093702B69114A1979012111700222DA707F
:104CA000B1E7C02393702B691A790222DA70AAE760
:104CB0000122002385F85D2085F83B3096E703F05C
:104CC000DF039371AB6E23B185F8380095F8390096
:104CD00098472A69A4E71471B8E700BFD517FF1FEA
:104CE0002DE9F047374FDFF8E0903B68026982B06A
:104CF00006460093DDF800800021C825D3789B0686
:104D00005BD53B680193019BC8EB03030F2BF5D9DF
:104D100049B1102BF2D000209070336980229A7034
:104D200002B0BDE8F087726996F86130134405213E
:104D3000187AFDF767FE726996F861301344012115
:104D400093F812A05046FDF75DFE0924002150465D
:104D5000FDF752FE2B46013BFDD101215046FDF7E8
:104D60004BFE2B46013BFDD1013CEFD1706996F81B
:104D7000611001444FF4C8720C7A4B7B09EBC401FB
:104D80001B02496803F4E06343F064030B6096F888
:104D900062300344997CDB7D09EBC1011B02496849
:104DA00003F4E06343F064030B60013AFDD1326920
:104DB000D3789B064FF00101A3D4012002B0BDE8D7
:104DC000F08700BF8815FF1FB4940000F0B5036999
:104DD0001222DA700269937803F0200385B004464A
:104DE0000D46002B5ED0B42393703C4922690B68BA
:104DF0000093009E05E00B680193019B9B1B042B15
:104E000042D8D37803F0200303F0FF00002BF2D048
:104E100094F85D30002B31D04FF0000E4FF0020CB3
:104E200004EB0E0393F83B3013710B680393039F5D
:104E3000206907E09B060DD50B680293029BDB1BE4
:104E4000052B28D8C378DBB203F0020202F0FF067C
:104E5000002AEFD080F803C02669F378DBB2DF06C2
:104E600032462DD49F062BD5DB0731D40EF1010E2F
:104E700094F85D305FFA8EFE7345D1D800201DBBDB
:104E8000002384F85E3004E09070236980229A70D9
:104E9000042005B0F0BD86702369802204209A703A
:104EA00005B0F0BD03F0FF06FFF71AFF10B90420AC
:104EB00005B0F0BD236984F85F60B0229A7094E772
:104EC0008023B3700420DAE726698023B370D7E724
:104ED000BEF1000F0CBF02200320F6E78815FF1F6C
:104EE0002DE9F04106690025122780F8385080F836
:104EF0003950F770D0F810C09CF802E00EF0200E88
:104F000088B00446884615461E46BEF1000F49D0BB
:104F1000B4238CF80230784B21691A680092DDF8CE
:104F200000E006E01A6801920198CEEB0000042828
:104F300030D8C87800F0200000F0FF070028F1D03A
:104F40004FEA480242F00102D2B20A711A68029294
:104F5000DDF808E0206906E01A6803920399CEEBB9
:104F6000010105292AD8C17801F0020101F0FF07EB
:104F70000029F1D04FF0020C80F803C02269D178EB
:104F800011F0110722D12DBB002E0CBFA0238023CE
:104F9000937003E08F70236980229A70384608B0BE
:104FA000BDE8F0810EF0FF07FFF79AFE0028F5D06C
:104FB000236984F85F70B0229A70ACE78770236928
:104FC000802238469A7008B0BDE8F0818023937043
:104FD0000027E3E7012D75D0A021917021690A799E
:104FE000BE4667464FF0A80C1A680492049805E084
:104FF0001A680592059A121A052A4AD8CA7802F048
:10500000020202F0FF08002AF2D0CF702169CA78AC
:10501000D2B212F0100F08465AD1920658D5013D6F
:10502000EDB2012D49D0BEF11F0F3BD90A79012DF8
:10503000DAD11A680692069D05E01A680792079A67
:10504000521B052A46D8C27802F0020202F0FF0184
:10505000002AF2D00223C3702269D378DBB2D906CA
:105060003AD49B0634D5B023BEF11F0F93703FD8BE
:10507000226904EB0E0312791A760EF1010E5FFA23
:105080008EFE16B1236980229A7084F839E0774643
:1050900084E781F80280236980229A70774684F839
:1050A00039E07BE704EB0E0291F8048082F8188067
:1050B0000EF1010E5FFA8EFEB9E781F802C0216998
:1050C0000846B0E7A82191702069BE460279B0E792
:1050D000774663E78170DEE71021C823D170013B7A
:1050E000FDD12269937803F0F7037746937055E773
:1050F00023691B79C5E700BF8815FF1F0148FFF72B
:1051000057BD00BF6C08FF1F0148FFF751BD00BF2E
:10511000D808FF1F0148FFF74BBD00BF0008FF1F65
:105120002DE9F0411A4C4FEA400E01260746204671
:1051300090461D4684F83BE084F85E6084F85D602C
:10514000FFF7D8FC31462046FFF740FE3346424683
:1051500039462046FFF7C4FE94F8392094F83830D9
:105160009A4213D00021E6189A42C8B203F1010313
:105170008ABF84F83830FF23337E2B5494F83920CB
:1051800094F838309A4201F10101ECD1BDE8F08188
:105190000008FF1F70B50B4C430016460125204642
:1051A00084F83B3084F85E5084F85D50FFF7A2FC31
:1051B00031462046FFF79EFC29462046BDE8704058
:1051C000FFF704BE0008FF1F00B551EC100B2C4A7E
:1051D00021F00043934285B020DD2A4A934209DD45
:1051E00010EE102A0B4602F0EDFD41EC100B05B05D
:1051F0005DF804FB684600F0B3FB00F003000128F3
:1052000028D0022815D060B301209DED021B9DED32
:10521000000B01F04DFE51EC100BE6E79FED161B65
:1052200001F0F2F851EC100B41EC100B05B05DF8F9
:1052300004FB9DED021B9DED000B01F0E5F853EC26
:10524000102B10EE100A03F1004141EC100B05B0D9
:105250005DF804FB9DED021B9DED000B01F028FEA7
:10526000EDE79DED021B9DED000B01F0CDF851EC3B
:10527000100BBAE7AFF30080000000000000000050
:10528000FB21E93FFFFFEF7F08B52DED048BB0EE6A
:10529000418AF0EE618AB0EE409AF0EE609A00F03A
:1052A0001FF830B9B0EE480AF0EE680ABDEC048B86
:1052B00008BDB0EE480AF0EE680A00F011F838B107
:1052C00053EC182B51EC190B03F0A2F90028E9D08C
:1052D000B0EE490AF0EE690ABDEC048B08BD00BFD0
:1052E00053EC102B33F0004110B408D01148A3F553
:1052F0008014844208D804205DF8044B70471AB922
:1053000002205DF8044B704703F1FF43094803F5A1
:10531000E0038342EFD9B1F5801F01D20320EBE710
:10532000054B994201D00020E6E7B2FA82F040092D
:10533000E2E700BFFFFFDF7F0000F07F00B510EE67
:10534000103A204A23F00043934283B019DDB3F1B1
:10535000FF4F04DB30EE400A03B05DF804FB684603
:1053600000F0B2FE00F0030001281AD002280FD08E
:1053700000B30120DDED010A9DED000A02F0FCF909
:10538000EAE7DFED110A01F05DFE03B05DF804FB12
:10539000DDED010A9DED000A01F054FEB1EE400A78
:1053A000DAE7DDED010A9DED000A02F0E5F9B1EE64
:1053B000400AD1E7DDED010A9DED000A01F042FE51
:1053C000CAE700BFD80F493F0000000000B510EE4B
:1053D000103A214A23F00043934283B01ADDB3F11F
:1053E000FF4F04DB30EE400A03B05DF804FB684673
:1053F00000F06AFE00F0030001281DD0022811D041
:1054000008B3DDED010A9DED000A01F01BFEB1EECF
:10541000400AE9E70020DFED110A02F0ADF903B020
:105420005DF804FB0120DDED010A9DED000A02F0AC
:10543000A3F9B1EE400AD7E7DDED010A9DED000AC0
:1054400001F000FED0E70120DDED010A9DED000A2C
:1054500002F092F9C8E700BFD80F493F00000000F2
:105460002DE9F0432DED028B8BB057EC106B55EC12
:10547000114B00F03BF92E4BB0EE408AF0EE608A03
:1054800093F90080B8F1FF3F31D022462B462046E9
:10549000294603F0E5F850BB32463B4630463946D4
:1054A00003F0DEF8814610BB002200232046294687
:1054B00003F0A4F8D8B11F4BCDF820900122CDE91C
:1054C0000267CDE904458DE80C00B8F1000F17D153
:1054D000CDE90667684602F02FFAE0B1089B0BBBE6
:1054E0009DED060B0BB0BDEC028BBDE8F083B0EE7A
:1054F000480AF0EE680A0BB0BDEC028BBDE8F08301
:10550000002200231046194602F03AFFB8F1020FBC
:10551000CDE90601DED103F031F921230360089BB8
:10552000002BDDD003F02AF9089B0360D8E700BF09
:105530004409FF1F9097000000F038BCD0B52DED56
:10554000028B394C8AB0F0EE408A00F0E5FC94F909
:1055500000300133B0EE408A3ED0B0EE680A02F06F
:1055600059FB002838D0DFED317AF4EEE78AF1EE0E
:1055700010FA37DCDFED2E7AF4EEE78AF1EE10FA5E
:105580002AD504232B4A009318EE900A002308938F
:10559000019202F077FD94F9003000260027022BDB
:1055A000CDE90401CDE90201CDE9066737D06846AF
:1055B00002F0C2F9002832D0089B1BB103F0DEF8DC
:1055C000089B0360DDE9060103F088F800EE100A8D
:1055D0000AB0BDEC028BD0BDB0EE480A0AB0BDECFB
:1055E000028BD0BD0323134A009318EE900A0023C8
:1055F0000893019202F046FD94F90030CDE90401D0
:10560000CDE902012BB90C4B4FF06042CDE90623E6
:10561000CDE70A490020022BCDE90601C7D103F0EE
:10562000ADF822230360C7E74409FF1F8071B14230
:10563000B5F1CFC298970000FFFFEF470000F07F61
:1056400010B52DED028B8AB0B0EE408A00F088FED6
:10565000244B93F90040631C09D0B4EE488AF1EE64
:1056600010FA04D6B5EEC08AF1EE10FA03D40AB0EF
:10567000BDEC028B10BD01231B4A009318EE100AEB
:1056800000230192089302F0FDFC0022CDE9040101
:10569000CDE902010023BCB11046194602F070FEAC
:1056A000022CCDE9060111D103F068F82123036033
:1056B000089B8BB9DDE9060103F010F800EE100A33
:1056C0000AB0BDEC028B10BDCDE90623684602F09E
:1056D00033F90028ECD1E7E703F050F8089B0360AA
:1056E000E8E700BF4409FF1FA09700002DE9F84F2D
:1056F00053EC112B23F0004952EA090055EC104BF2
:1057000025D005F000468F4885EA060B83451EDC50
:1057100050421043DFF844C249EAD070604511EEB0
:10572000108A14D8CB451F4610EE10AA11EE10EACD
:1057300010EE101A17DC28DB944226D313D1824BCB
:10574000F60F03EBC60393ED000BBDE8F88F204680
:10575000294602F0EBFC02460B4602F011FE41EC3A
:10576000100BBDE8F88FBBF5801F12DABBF1000FFC
:1057700040F0A780BAF1000F534674480DDD5B007E
:10578000002B00F1FF30FADC07E045EC104BBDE8E0
:10579000F88F4FEA2B50A0F2FF30B9F5801F0FDAD7
:1057A000B9F1000F40F0A780B8F1000F4346DFF8D1
:1057B0009CC109DD5B00002B0CF1FF3CFADC03E02F
:1057C0004FEA295CACF2FF3C614B98425BDBCBF3C8
:1057D000130343F480135E4A944563DBC7F3130558
:1057E00045F48015CCEB000007E052EA040313D027
:1057F000E30F03EB420361000138CEEB01045A1BB7
:1058000090B1714538BF02F1FF32002AEDDACA0FBC
:1058100002EB43034900EFE74B4BF60F03EBC606E1
:1058200096ED000BBDE8F88F7145154638BF02F1C3
:10583000FF35002DACBFCEEB01011D4655EA01033B
:10584000EAD0444A954208DCCB0F03EB450595426C
:105850000CF1FF3C4FEA4101F6DD3D4B9C4554DA2B
:105860003B4ACCEB0202142A5BDCC2F1200305FAAE
:1058700003F3D1400B43154145EA0601184641ECBC
:10588000100BBDE8F88F3249091A1F292DDCC1F130
:1058900020030BFA01FB2AFA03F343EA0B030AFA8B
:1058A00001F198E72A4CCCEB04041F2C15DCC4F161
:1058B000200209FA04F528FA02F2154308FA04FE58
:1058C00090E74FEACB23002B21487FF766AF5B00C0
:1058D000002B00F1FF30FADC5FE71F4DCCEB050534
:1058E00008FA05F54FF0000E7CE71B4B1B1A0AFA6D
:1058F00003F300216FE7DFF858C04FEAC9235B00CC
:10590000002B0CF1FF3CFADC5EE7A5F580152E4379
:105910000CF2FF3C46EA0C530A4643EC102BBDE860
:10592000F88F1F2A07DCC2F120039D40D14045EAD1
:1059300001033546A0E7084BCCEB030345FA03F31C
:10594000354699E7FFFFEF7FA8970000EDFBFFFFCB
:1059500002FCFFFFFFFF0F00E2FBFFFF0000F07FF4
:105960002DE9F04F53EC102B974923F0004B8B455A
:105970008FB040F3878095498B451C46824629DCD1
:10598000002C194610EE100A85A3D3E9002340F33A
:10599000A58102F017FA8E4B9B4504460D4600F098
:1059A000878081A3D3E9002302F00CFA02460B465C
:1059B000CAE900232046294602F004FA7AA3D3E973
:1059C000002302F0FFF90125CAE9020128460FB0C1
:1059D000BDE8F08F7F498B4540F387807E498B453A
:1059E0005BDC4FEA2B55A5F21645ABEB055710468D
:1059F000394610EE106A02F049FE02F031FB804693
:105A0000894642464B4630463946CDE9088902F080
:105A1000D9F90022714B02F089FB8946804602F0D9
:105A200035FE02F01DFB06460F4632463B46404619
:105A30004946CDE90A6702F0C5F90022674B02F03A
:105A400075FB00220023CDE90C0102F0D7FD0028F0
:105A500000F07081002330463946002202F0CEFD6E
:105A6000002814BF012302235D4A01920221009104
:105A70002A46514608A800F00BFE002CC0F24C81CB
:105A8000054606E080ED000B00250024C0E9024534
:105A9000002528460FB0BDE8F08F10EE100A194619
:105AA00002F090F90025CAE90201CAE90001F0E715
:105AB0003FA3D3E9002302F085F93FA3D3E90023F4
:105AC0000D46044602F07EF902460B46CAE9002361
:105AD0002946204602F076F937A3D3E9002302F0E5
