:10000000F8FF0220990100003D220000F5210000C8
:10001000F5210000F5210000F5210000F521000088
:10002000F5210000F5210000F52100003D2200002F
:100030003D220000F5210000D53F0000D93F00001F
:100040003D2200003D2200003D2200003D22000034
:100050003D2200003D2200003D2200003D22000024
:100060003D2200003D2200003D2200003D22000014
:100070003D2200003D2200003D2200003D22000004
:100080003D2200003D2200003D2200003D220000F4
:100090003D2200003D2200003D2200003D220000E4
:1000A000A5480000B14800003D2200003D220000AC
:1000B0003D2200003D2200003D220000C52F00002F
:1000C0003D2200003D2200003D2200003D220000B4
:1000D0003D2200003D2200003D2200003D220000A4
:1000E0003D2200003D2200003D2200003D22000094
:1000F0003D2200003D2200003D2200003D22000084
:100100003D2200003D2200003D2200003D22000073
:100110003D220000213200003D2200003D2200006F
:100120003D2200003D2200003D2200003D22000053
:100130003D2200003D2200003D2200003D22000043
:100140003D2200003D2200003D2200003D22000033
:100150003D2200003D2200003D2200003D22000023
:100160003D2200003D220000BD4800003D2200006D
:100170003D2200003D2200003D2200003D22000003
:100180003D2200003D2200003D2200003D220000F3
:100190003D2200003D220000584B4CF2205210B589
:1001A0001A804DF628121A8000BF00BF02F04AF8EC
:1001B000534B4FF030621A60524A9A60524ADA60EA
:1001C000524B4FF470021A60514A136813F4807353
:1001D00004D150490B604FF4A85313604E4B1A786A
:1001E000110703D51A7842F008021A704B4B4C499C
:1001F0002A221A704B4A4C4B8B4204D252F8040FFD
:1002000043F8040BF8E7494B494900228B4202D2DC
:1002100043F8042BFAE74749474A002352F82300E2
:1002200041F823000133662BF8D1444B444A802126
:1002300003F8011B9342FBD1424B3E4A1A60424BEA
:100240008A221A70A3F5805324225A70A0221A70B1
:100250009A799207FCD59A79D406FCD43B4A9379D3
:1002600003F00C03082B394BF9D103221A714622F3
:100270005A719A799006FCD5344A9179334B4906E4
:10028000FBD5334A4FF08271116009215160202261
:100290001A709A7902F00C020C2AFAD12D4B2E4AD0
:1002A0001A602E4B2E4A1A6000225A60072243F829
:1002B000042C2C4AC3F80C2D62B602F073FA154BCD
:1002C0001B68DA0705D5284802F05AF8274B284A58
:1002D0001A60284B1B785B0609D5244C244B2268F6
:1002E0009A4204D1204802F04BF80023236007F023
:1002F0001FFE01F0ADFF01F075FFFEE70E20054087
:1003000030800440823F04000100002B88ED00E0B3
:1003100010D0034014D0034002D0074000E0074053
:100320004C11FF1F44940000F806FF1F4C11FF1FE3
:10033000BC15FF1F0002FF1F0000000000E400E0EA
:1003400056E400E008ED00E00050064000400640A2
:100350004480044004800440C010050014E000E024
:10036000BFD4010000002020743062611CE0034013
:10037000A5C3945A00F00740FFFFFFFFFFFFFFFFF8
:10038000FFFFFFFFFFFFFFFFFFFFFFFFFFFFFFFF7D
:10039000FFFFFFFFFFFFFFFFFFFFFFFFFFFFFFFF6D
:1003A000FFFFFFFFFFFFFFFFFFFFFFFFFFFFFFFF5D
:1003B000FFFFFFFFFFFFFFFFFFFFFFFFFFFFFFFF4D
:1003C000FFFFFFFFFFFFFFFFFFFFFFFFFFFFFFFF3D
:1003D000FFFFFFFFFFFFFFFFFFFFFFFFFFFFFFFF2D
:1003E000FFFFFFFFFFFFFFFFFFFFFFFFFFFFFFFF1D
:1003F000FFFFFFFFFFFFFFFFFFFFFFFFFFFFFFFF0D
:10040000FFFFFFFFFFFFFFFFFFFFFFFFDEF9FFFF23
:1004100010B5054C237833B9044B13B10448AFF33E
:1004200000800123237010BD4C11FF1F000000004D
:1004300048940000084B10B51BB108490848AFF3B9
:1004400000800848036803B910BD074B002BFBD0A0
:10045000BDE81040184700BF000000005011FF1F0A
:10046000489400004C11FF1F0000000010B52DED56
:10047000068BB0EE608A8EB0F0EE400AF0EE408A55
:10048000B0EE480A04F02CFC9FED499ADFED497A62
:10049000494C20EE270AF0EE490A00F037FA2046D0
:1004A000B0EE40AA00F004FC50BB444BDFED447AB0
:1004B00093ED000AB4EEE70AF1EE10FA1BDC9FEDB3
:1004C000411A4148F0EE410A01F092FBF0EE400A79
:1004D00028EE088AB0EE480AA8EEA80AB1EEC01AC3
:1004E000B4EE411AF1EE10FA59D1B0EE4A0A0EB04C
:1004F000BDEC068B10BDDFED2E7A30EE670ADEE72D
:1005000004F1100000F0D4FB0028CED00021DFED74
:100510002F0A9FED2C0ADFED2AAA0AA800F092FB11
:10052000D4ED031A94ED021A94ED000AD4ED010AF9
:100530000AA800F093FB214B9FED250AD3ED007A2A
:10054000CDED091AF0EE490A30EE670A00F0DEF947
:10055000F0EE409A9DED090AF0EE490A30EE2A0AC3
:1005600000F0D4F939EEC00AB4EEEA0AF1EE10FA5E
:1005700012DCDFED187AB4EEE70AF1EE10FA48BFAC
:1005800030EE090A9FED0F1A1348F0EE410A01F010
:100590002FFBF1EE400A9BE730EE490AF2E7CDED82
:1005A000010A04F021FCDDED010AB0EE401A9CE7DF
:1005B0000000B443E12E65424413FF1F3812FF1FB1
:1005C0000000344300000000D811FF1F0000B7C234
:1005D0000000E143000034C31812FF1F30B52DEDB9
:1005E000028B434C8DB004F1100000F061FBF8B1B8
:1005F00094ED071ADFED3F0A9FED3F0A00F074FA11
:10060000002844D1DFED3C0AB0EE600AFFF72EFF70
:100610008DED080ACDED090A8DED0A1A9DED080A47
:10062000DDED090A9DED0A1A0DB0BDEC028B30BD5F
:100630000546204600F03CFB0028E3D02946DFEDCC
:100640002F0A9FED2D0A08A800F0FCFA94ED021A7B
:10065000D4ED031A94ED000AD4ED010A08A800F0C5
:10066000FDFADFED270A2748B0EE410A9FED221A76
:1006700001F0BEFAD4ED000AF1EE600AFFF7F6FED3
:100680008DED0A1A8DED080ACDED090AC6E7204660
:1006900000F00EFB40B3DFED1C7A94ED010A37EE5B
:1006A000C00A9FED151A1948F0EE410A01F0A0FAB0
:1006B0009FED111AD4ED077A1548B0EE408A9FEDF0
:1006C000150AF0EE410A30EE670A01F091FAF0EEF9
:1006D000400AB0EE480AFFF7C9FE8DED0A1A8DED0B
:1006E000080ACDED090A99E79FED030AD9E700BF93
:1006F0004413FF1F00003443000000000000B7C295
:1007000000002042F811FF1F000070C28413FF1F79
:100710008811FF1F0000B44208B54FF4FA7001F0D1
:10072000F3FF074801F022FA064800F057FC06489C
:1007300000F002FD0548BDE8084000F0CDBF00BF55
:100740003812FF1F4413FF1F4C12FF1FA811FF1F79
:1007500030B52DED028B144C144D87B0204601F0BE
:100760007BF9012194ED000A114800F0DBFA94EDC9
:10077000000A284600F02EFD94ED008AFFF72EFFB8
:10078000F0EE607AF0EE411AF0EE400AB0EE671A31
:10079000B0EE480A284600F063FF064801F000F872
:1007A00007B0BDEC028B30BD3812FF1F4C12FF1F8B
:1007B0004413FF1FA811FF1F10B52DED028B01F090
:1007C000C9FC9FED3A8A3A4B3A4C3B4883ED048A88
:1007D00000F096FA3948DFED3A8A00F007FC22462D
:1007E000384B52F8040B1860214610685860A06816
:1007F000986051F80C0F496803F10C0203C2B0EE87
:10080000481A0022F0EE480AF0EE681AB0EE000A2C
:100810002D481A625A629A62DA6201F0D7F9B0EE94
:10082000481AF0EE480AF3EE0E1AB7EE000A27480F
:1008300001F0CCF9F0EE681AB0EE481AF0EE480A72
:10084000B8EE000A224801F0C1F9B0EE481AF0EE05
:10085000480AF3EE0E1A9FED1F0A1F4801F0B6F981
:10086000F0EE681AF0EE480A9FED1C1A1C48B6EE2E
:10087000000A01F0ABF9F0EE681AF0EE480A9FEDBD
:10088000191A1948B7EE000A01F0A0F9F0EE681A3B
:10089000F0EE480ABDEC028B9FED141A9FED140A8E
:1008A0001448BDE8104001F091B900BF00000000FD
:1008B0003812FF1F348A00004413FF1F4C12FF1F21
:1008C0000000C842A811FF1F8413FF1FF811FF1F6B
:1008D0008811FF1FCDCCCC3D2413FF1FCDCC4C3D48
:1008E000D811FF1FCDCC4C3E6811FF1F0AD7233D06
:1008F0006666E63E1812FF1FB5EEC00AF1EE10FA6A
:10090000ACBF01204FF0FF30704700BF00B52DEDA8
:10091000028B10EE900A85B0B0EE608A8DED030A6E
:1009200006F084FF9DED030ACDE9000110EE100AE8
:1009300006F07CFF9DED001B41EC100B04F064F908
:1009400051EC100B07F09EFA00EE100AB5EEC00A4B
:10095000F1EE10FA48BF38EE000A05B0BDEC028B8C
:100960005DF804FBFFFFFFFF70EEC07A08B517EEDD
:10097000900A06F05BFF9FED0C1B41EC100B04F09E
:1009800043F951EC100B07F07DFA00EE100AB5EEBA
:10099000C00AF1EE10FA44BFDFED057A30EE270A07
:1009A00008BD00BFAFF3008000000000008076406B
:1009B0000000B443FFFFFFFF00B52DED028B70EE8A
:1009C000C07A83B017EE900A06F030FF9FED1A1B35
:1009D00041EC100B04F018F951EC100B07F052FA2F
:1009E00008EE100AB5EEC08AF1EE10FA44BFDFED52
:1009F000147A38EE278ADFED127A77EEC87A17EE8E
:100A0000900A06F013FFCDE9000118EE100A06F077
:100A10000DFF9DED001B41EC100B04F009F851ECAB
:100A2000100B07F02FFA00EE100A03B0BDEC028B9A
:100A30005DF804FBAFF3008000000000008076400A
:100A40000000B443FFFFFFFF08B570EEC07A2DED44
:100A5000028B17EE900AB0EE408A06F0E7FE9FED9B
:100A60001A1B41EC100B04F0CFF851EC100B07F0FF
:100A700009FA07EE900AF5EEC07AF1EE10FA44BFDB
:100A80009FED137A77EE877AB6EE007AA7EE878A23
:100A900018EE100A06F0CAFE9FED0B1B41EC100B7E
:100AA00004F0B2F851EC100B07F0ECF900EE100A6C
:100AB000BDEC028BB5EEC00AF1EE10FA44BFDFEDDB
:100AC000047A30EE270A08BD00000000008076405E
:100AD0000000B44390FBF1F303FB1100030648BF91
:100AE0004018C0B2704700BFB4EEE00AF1EE10FA51
:100AF000B4EEC10A0AD5F1EE10FA0CD5F4EEC10A33
:100B0000F1EE10FACCBF012000207047F1EE10FA90
:100B1000F4D5012070470020704700BF01F01ABBD8
:100B200010B52DED028BB0EE608AF0EE400A28EE93
:100B3000080A82B0A0EEA00A0446C0ED000AF1EE59
:100B4000C07A80ED018AF4EE677AF1EE10FA2FD1C7
:100B5000C4ED027AB0EE480A04F0C2F8DFED197A6B
:100B6000DFED190A20EE270AFFF7D0FE84ED030A15
:100B700094ED020AFFF7C0FE013003D002B0BDECD5
:100B8000028B10BD94ED030ADFED107ADFED0E0A43
:100B900030EE270AFFF7BAFED4ED027A84ED030A9D
:100BA000F1EE677AC4ED027A02B0BDEC028B10BDA3
:100BB000CDED010A04F018F9DDED010AF0EE407AFE
:100BC000C6E700BFE12E65420000B4430000344395
:100BD00010B5DFED040A0446B0EE600AFFF7A0FF8F
:100BE000204610BD0000000010B52DED048B9FEDD8
:100BF000138A20EE888AF0EE408AB0EE480A044656
:100C0000B0EE609A03F06EFF68EE807AB0EE480AAC
:100C1000C4ED007A03F0AEFF28EE800AC4ED028A2C
:100C200084ED010ADFED060AB0EE490AFFF76EFE19
:100C3000BDEC048B84ED030A10BD00BF35FA8E3C79
:100C40000000B44310B5044619B9FFF769FF204608
:100C500010BDFFF7C9FF204610BD00BF10B590EDD5
:100C6000017AD0ED007A90B008AC77EE600A37EEEA
:100C7000C00A2046FFF754FF94E80F0010AC04E9C7
:100C80000F009DED0C0ADDED0D0A9DED0E1ADDED58
:100C90000F1A10B010BD00BF90ED017AD0ED007AB0
:100CA00077EE600A37EEC00A84B004B0FFF738BFB1
:100CB000D0ED027AF5EE407AF1EE10FA14BF012081
:100CC0000020704701F046BADFED097A9FED097AFE
:100CD00030EE270A08B520EE070A04F003F89FED6E
:100CE000067ADFED067AE0EE077AB0EE670A08BD15
:100CF0006A5E8C4113A5733D5179853C18CF6A40DB
:100D000010B50446FFF764FF04F11000FFF760FF21
:100D100004F12000FFF75CFF04F13000FFF758FFFB
:100D2000204610BD2DE9F04F2DED048B85B0054612
:100D3000B0EE408A0E4602F0C3F8072804DC05B086
:100D4000BDEC048BBDE8F08F02F0CAF80446E4B2B3
:100D500002F0FAF8EA2CF2D1C0B2EA28EFD102F0A0
:100D6000BFF802F0BDF8044602F0BAF8074602F0F8
:100D7000B7F878384FFA80F902F0B2F878384FFABD
:100D800080FB02F0ADF8783843B2783F08EE903A35
:100D9000783C02F0A5F87BB200EE903A63B200EE28
:100DA000103A0021A0F17803B8EEC00AF8EEE00A8C
:100DB00068464FFA83FAFFF745FF9DE80F0005F1FB
:100DC000300888E80F0095ED0E0AB5EE400AF1EE06
:100DD00010FA6C4640F0DA809FED759AD5ED0F7AE7
:100DE0009FED740ADFED740A77EEC87A05F12007EB
:100DF00037EE800AFFF78AFD4046F0EE400AB0EE7B
:100E0000490AFFF7F1FE07EE90BAF8EEE70A07EE9F
:100E1000909A0021B8EEE70A2046FFF713FF94E806
:100E20000F0087E80F0095ED0A0AB5EE400AF1EED3
:100E300010FA40F0A6809FED5E9AD5ED0B7A9FEDFB
:100E40005D0ADFED5D0A37EEC88A05F1100938EE5C
:100E5000000AFFF75BFD3846F0EE400AB0EE490AA3
:100E6000FFF7C2FE07EE90AA0021F8EEE70AB8EEFF
:100E7000E80A2046FFF7E6FE94E80F0089E80F0035
:100E8000D5ED067AF5EE407AF1EE10FA68D19FEDD5
:100E9000488ADFED4A7A95ED070ADFED470A30EE22
:100EA000670AFFF733FD4846F0EE400AB0EE480A05
:100EB000FFF79AFE3846FFF7FBFE60B14046FFF7AA
:100EC000F7FE40B195ED0A7AD5ED0E7AB4EEE77AE9
:100ED000F1EE10FA27D43846FFF7EAFEF0B94046A3
:100EE000FFF7E6FE00285AD0002E54D1DFED340A79
:100EF00031469FED2F0A2046FFF7A4FE94E80F002D
:100F000095ED0C0AD5ED0D0A95ED0E1AD5ED0F1ADB
:100F100085E80F002846FFF7BFFE10E74046FFF7C1
:100F2000C7FE0028DBD1BEB9DFED260A31469FEDB2
:100F3000200A2046FFF786FE94E80F0095ED080A88
:100F4000D5ED090A95ED0A1AD5ED0B1A85E80F00C3
:100F50002846FFF7A1FEF2E60021DFED190AE6E7D9
:100F60009FED197A9FED190A9FED198A77EE877A1E
:100F700027EE800A03F0B6FEDFED167AA0EE278A90
:100F800087E7FFF7A1FEB0EE409A56E7FFF79CFE19
:100F9000B0EE409A22E70021DFED0A0AA9E72046D9
:100FA000FFF716FE94E80F0085E80F00C7E600BFC4
:100FB00000000000000087430000B4430000B4427A
:100FC0000000B7420000B7C2E305F4434562623D4A
:100FD000080301417F54802A01F0BCB84FF4E1318D
:100FE000014800F07BBE00BFF806FF1FF8B50122E4
:100FF0001E4B02740446036043602022002111301E
:1010000007F07EFA1A490B460F6853F8086F097902
:101010005D689868C4F8317084F835104327D96842
:1010200084F83670C4F8376040271E69C4F83B5016
:10103000C4F83F005D699869C4F84310D969C4F8E1
:101040004F00C4F853103A46C4F84760C4F84B50F8
:1010500004F15800002107F053FA3A4604F19800D1
:10106000002107F04DFA2046F8BD00BF000080BF08
:10107000488A000007292DE9F0410C46064624D88D
:10108000C1F1070303F00101C3F34008C3F387056F
:101090000027172001F00AFB4146162001F006FB4D
:1010A0002946152001F002FB1420394601F0FEFA12
:1010B000112000F095FF0F2C15BF4C34002326F8AB
:1010C0001400A6F8B630BDE8F0810F2907D801F06A
:1010D0000101C4F34008C4F380050127D9E71729AB
:1010E00019D8C1F1170303F00101C3F34008C3F39A
:1010F00087050027172001F0D9FA4146162001F094
:10110000D5FA2946152001F0D1FA1420394601F00C
:10111000CDFA1020CDE71F2904D900273D46B84657
:101120003946B6E7A1F1100303F00101C3F340080B
:10113000C3F380050127DDE72DE9F04701210646CD
:10114000172001F0B9FA0121162001F0B5FA0121AA
:10115000152001F0B1FA0121142001F0ADFA0021AF
:10116000112001F0A9FA0021102001F0A5FADFF802
:10117000608006F1560500275FFA87F94FF00A0AEA
:10118000002449463046FFF775FFB5F842200AF1C2
:10119000FF33144413F0FF0AA4B2F2D1A8FB0434C5
:1011A000C4F3CF0407EE904AF8EEE77AB6EE007A81
:1011B00077EE877A0137FDEEE77A202F17EE903A27
:1011C00003F1640325F8023FD6D1BDE8F08700BFE4
:1011D000CDCCCCCC2DE9F0412DED068B054682B06F
:1011E000F0EE409A0024E1B228460134FFF742FFB6
:1011F000202CF8D105F1960605F1560705F1D60821
:10120000272460B22021FFF765FC36F8023F37F84B
:10121000022F2844934294BF00230123013C4645FA
:10122000E4B24374EDD105F110060024012701E07A
:10123000202C18D016F8013F0134002BF8D1A01E45
:1012400040B22021FFF746FC2844437C002BEFD01E
:10125000202160B2FFF73EFC2844437C002BE7D0FE
:10126000202C3770E6D1BE4A002310680090019010
:101270001C4605F1110201210CE002AE3719661C73
:1012800018B107F8083CF4B200210133202B02F119
:10129000010210D010780029EFD10028F5D102A961
:1012A000581E21440133202B01F8050C02F10102E4
:1012B0004FF00101EED195F8303023B102AA22445B
:1012C0001F2102F8051C012C40F2B4806A7C002A20
:1012D00040F09F809DF900309FEDA28A08EE903A81
:1012E0009DF9043009EE103AF8EEE88AB8EEC99A92
:1012F00068EE888A29EE089AB0EE680AF0EE490A8C
:10130000FFF7A2FB9DF9053000EE903A9DF9013000
:10131000B0EE40AA00EE103AF8EEE00AB8EEC00ACD
:1013200060EE880A20EE080AFFF78EFB9DF9063072
:1013300000EE903A9DF90230F0EE40AA00EE103A2D
:10134000F8EEE00AB8EEC00A60EE880A20EE080A5D
:10135000FFF77AFB032CB0EE408A00F01381022CD9
:1013600000F0938085ED02AAF0EE490AB0EE680A1B
:10137000FFF7FAFAF6EE007A9FED7B7A20EE270A65
:1013800060EE077A17EE900A06F050FA41EC100B67
:1013900003F0EEFA002053EC102B744906F0E6F847
:1013A00006F070FD95ED028AE860FFEE007AB4EE7B
:1013B000678AF1EE10FA00F04C8138EE290ADFED71
:1013C0006C0AFFF7A3FA2B7CF0EE408A002B40F06A
:1013D0008780D5ED017AB0EE087AF4EE477AF1EE27
:1013E00010FA3DD19FED660ADFED610A38EE800A02
:1013F000FFF78CFA95ED037A85ED000AF0EE007A9E
:1014000077EEC77AC5ED017A02B0BDEC068BBDE878
:10141000F081002B3FF45EAF013C02AB2344FF227E
:1014200013F9081C8DF80010E4B203F8082C03F837
:10143000042C4FE7002C40F011812A7C4D4BAB600F
:10144000EB60002AE0D1D5ED017AB0EE087AF4EE37
:10145000477AF1EE10FAD7D0FFEE008AB0EE688A34
:10146000BFEE007AB4EE478AF1EE10FA43D1F7EE00
:10147000006AF4EEE67AF1EE10FA4FD93E4B6B605B
:1014800002B0BDEC068BBDE8F081F0EE6A0AB0EE6A
:101490004A0AFFF769FADFED3A7AB4EEE70AF1EEAD
:1014A00010FA95BFF0EE6A0AF0EE4A0AB0EE4A0A68
:1014B000B0EE6A0AFFF7C8FAF0EE6A0A85ED020A92
:1014C000B0EE4A0AFFF750FADFED2D7AB4EEE70AE4
:1014D000F1EE10FA3ED8F0EE6A0AB0EE4A0A47E79B
:1014E000EA6885ED000A00236A602B7402B0BDEC47
:1014F000068BBDE8F081D5ED000AB0EE680AFFF773
:101500005BFADFED1E7AB4EEE70AF1EE10FA3FF671
:1015100069AFEB68C5ED008A6B6075E7012385ED67
:10152000007A85ED017A2B746EE7F0EE4A0AB0EE90
:101530006A0AFFF789FAF0EE4A0A85ED020AB0EE70
:101540006A0AFFF711FADFED0E7AB4EEE70AF1EE60
:1015500010FA5CD8F0EE4A0AB0EE6A0A08E700BF5B
:10156000708A00000000344135FA8E3C0000F03FE4
:101570000000B443000080BF000040400000B442BF
:1015800000003443F0EE6A0AB0EE4A0AFFF7ECF9C5
:10159000F0EE480AB0EE409AB0EE6A0AFFF7E4F9BE
:1015A000F0EE4A0AF0EE408AB0EE480AFFF7DCF9A6
:1015B000F4EEC08AF1EE10FAB4BFF0EE407AF0EE2D
:1015C000687AB4EE679AF1EE10FAA8BFF0EE497AA5
:1015D000B4EE679AF1EE10FAA7D0F4EE678AF1EE56
:1015E00010FA17D1F0EE6A0AB0EE480AFFF72CFAAB
:1015F000F0EE6A0A85ED020AB0EE480AFFF7B4F988
:101600005FED217AB4EEE70AF1EE10FA1CD94FF043
:101610007E50C7E6F0EE480AB0EE4A0AFFF714FA29
:10162000F0EE480A85ED020AB0EE4A0AFFF79CF98F
:101630005FED2D7AB4EEE70AF1EE10FAE7D8F0EE9E
:10164000480AB0EE4A0A93E6F0EE6A0AB0EE480A9B
:101650008EE62B7C002B3FF4F6AED5E6012439E66E
:1016600030B58FB005AB8DED061ACDED050ACDED89
:10167000071A054693E807002B7C08AC84E80700AE
:1016800093B1B0EE600A8DED080ACDED0A1A94E828
:1016900007000EAB03E907009DED0B0ADDED0C0A18
:1016A0009DED0D1A0FB030BDD5ED007A9FED067A95
:1016B000DFED060A77EE877A37EEC00AFFF726F9E4
:1016C000DFED031ADFE700BF000034430000B4433E
:1016D0000000C84200F03EBD38B504460025207821
:1016E000012100F0E9FF2079012100F0E5FF207AD7
:1016F000012100F0E1FF2078002100F0D7FF012157
:1017000020790D4400F0D2FF207A002100F04AFE3B
:10171000042D04F10104E2D138BD00BFDFED1E7AD3
:1017200070B560EE277A82B0F5EE407AF1EE10FAED
:101730000B462DD0F5EEC07AF1EE10FA9FED177A38
:10174000D8BFF1EE677AF4EEC77AF1EE10FA48BF2F
:10175000FCEEE77AB5EEC00A46BFCDED017A9DF802
:101760000450FF25F1EE10FACCBF0121002181F0D9
:101770000106C418C05C00F099FF3146207900F0E2
:1017800095FF207A294602B0BDE8704000F00ABEFD
:10179000012631460025ECE73333234000007F4328
:1017A0002DE9F047D0ED057A2DED048BF4EE407A6B
:1017B00088B0F1EE10FA8DED010ACDED020A8DED43
:1017C000031A07D1D0ED067AF4EE607AF1EE10FA42
:1017D00000F09480B5EE401AF1EE10FAB0EE418AB6
:1017E00010EE906AF0EE408A0546CDED040ACDED8C
:1017F000050ACDED060ACDED070A0FD1B0EE600A5D
:1018000004AF0024E1B228460134FFF787FF042C1F
:1018100000F08180043797ED000AF3E704AF9FEDF5
:101820006B9A3C46BA4600F10A0800F1120938F8F2
:10183000023F5A3307EE903AF8EEE77A77EEE87A0D
:1018400067EE897A17EE900A05F0F0FF41EC100B75
:1018500003F08EF851EC100B06F014FBC8454AF863
:10186000040BE4D1DDED047A9DED056A9DED067A69
:10187000F5EEC07AF1EE10FAB5EEC06AD4BFF1EE23
:10188000676AF0EE676AF1EE10FAD8BFB1EE466A09
:10189000F4EE466AF1EE10FAB5EEC07AA8BFB0EEEB
:1018A000666AF1EE10FADDED076AD8BFB1EE477A4D
:1018B000B4EE467AF1EE10FAF5EEC06A98BFB0EEDB
:1018C000467AF1EE10FAD8BFF1EE666AF4EE476A96
:1018D000F1EE10FA98BFF0EE476A08AA3B4668EEB0
:1018E000277A87EEA67A07EE906A77EE277AE3ECFE
:1018F000017A9A4219D0D3ED007AF0E7D0ED077A59
:10190000F4EE417AF1EE10FA7FF464AF08B0BDEC6A
:10191000048BBDE8F087C5ED058AAE6185ED078AC9
:1019200008B0BDEC048BBDE8F087DDED047ADDED99
:10193000056A9DED067AF5EEC07AF1EE10FAF5EE45
:10194000C06AD4BFB1EE676AB0EE676AF1EE10FA12
:10195000D8BFF1EE666AB4EE666AF1EE10FAB5EE43
:10196000C07AA8BFF0EE466AF1EE10FA9DED076A64
:10197000D8BFB1EE477AB4EE667AF1EE10FAB5EE62
:10198000C06A98BFB0EE667AF1EE10FAD4BFF1EEFD
:10199000466AF0EE466AF4EE476AF1EE10FA98BF36
:1019A000F0EE476A88EE267A67EE877AE4EC017AF1
:1019B000A24207D0D4ED007A67EE877AE4EC017A90
:1019C000A242F7D19DED040A1BE700BF35FA8E3C19
:1019D00000F0C0BB30B58DB008AB0E223B216820B3
:1019E00002F072FF9DF828409DF821309DF82A50A2
:1019F0009DF82B209DF82C009DF82D109FED147A5A
:101A00009FED141A43EA042342EA05225B4241EAAD
:101A100000211BB2524212B200EE103A0BB200EE9D
:101A2000902A07EE903AF8EEE00AB8EEC00AF8EE17
:101A3000E77A60EE870A20EE070A67EE877A60EEA3
:101A4000810A20EE010A27EE811A0DB030BD00BFD9
:101A500000007A440000003830B52DED028B87B0CD
:101A60000446FFF7B7FFB0EE418A8DED030A8DED16
:101A7000051ACDED040A00F025FE6368DFED186A53
:101A800094ED031A174A94ED000A11680191C31AE4
:101A900007EE903AF8EEE77A38EE418A87EEA67ABA
:101AA000019BA1685B1A642B0546A7EE480A84EDEA
:101AB000000A09D9D4ED047A1368029330EE270A9C
:101AC000029BA36084ED000ADFED070AFEF71EFF0C
:101AD000656084ED000A07B0BDEC028B30BD00BF2D
:101AE00000247449AC13FF1F0000B44330B52DED42
:101AF000028B054685B014242846FFF76BFFD5ED11
:101B0000037A8DED031A37EE811A322085ED031A20
:101B10008DED010ACDED020A00F0F6FD631E13F013
:101B2000FF04E9D1D5ED036AB3EE047AC6EE877AF5
:101B30002846C5ED037AFFF78FFF642095ED008AF4
:101B400000F0E2FD2846FFF787FF074BD5ED007A4E
:101B50001B68009377EEC87A009BC5ED047AAB60F2
:101B600005B0BDEC028B30BDAC13FF1F10B50446B1
:101B7000144802F0A7FB06221D21682002F0DEFEB9
:101B800006221A21682002F0D9FE10221B216820AB
:101B900002F0D4FE00221C21682002F0CFFE0222B7
:101BA0003721682002F0CAFE16220A210C2002F01A
:101BB000C5FE00F087FD60602046BDE81040FFF7DD
:101BC00095BF00BFC407FF1F00F0C4BA10B50023C3
:101BD00080ED000AC0ED010A80ED021AC0ED051A81
:101BE0000361044600F06EFDE060204610BD00BFBA
:101BF00010B504462DED028B30EEC08AF0EE418A1E
:101C000000F060FDE368E060C01A07EE100A9FED87
:101C10002A6AD4ED067AB8EE477AF5EE408AC7EE26
:101C2000066A94ED047AE8EE267AF1EE10FAC4ED35
:101C3000067A38EE477A08D0B1EE686AB4EEC67A12
:101C4000F1EE10FA2BD537EE287AB1EE477A87EE0F
:101C5000266A94ED010AD4ED005A94ED057AD4ED8C
:101C6000026A84ED048A27EE800AB5EE407AA8EE77
:101C7000250AF1EE10FAA6EE660A0DD0F1EE477ACB
:101C8000B4EEE70AF1EE10FA11D4B4EE470AF1EE21
:101C900010FAC8BFB0EE470ABDEC028B10BDF4EEDF
:101CA000C78AF1EE10FA48BF37EE687ACDE7BDEC8F
:101CB000028BB0EE670A10BD002474490368C9B2F4
:101CC0001B6818470368C9B21B6818470368C9B284
:101CD0001B6818470368C9B21B681847084B4A08B5
:101CE000134410B50446B3FBF1F000F041FE054B80
:101CF0001B7803B110BD2046BDE8104002F074B956
:101D0000001C4E0E1607FF1F08B5084601F04CF8E0
:101D1000012008BD08B5084601F046F8012008BDBD
:101D200038B508460D4606F06BFC044601462846C9
:101D300001F044F8204638BD10B508461446114657
:101D400001F03CF8204610BD01F016B908B5084670
:101D500001F002F8003018BF012008BD08B50846A0
:101D600000F0D8FF003018BF012008BD084611461A
:101D700000F04CBF084600F093BF00BF084600F0DB
:101D800029BF00BF00F0B2BE10B5064B144603EBEE
:101D90005100B0FBF1F000F0EBFD2046BDE8104033
:101DA00000F06EBE001C4E0E01F0CEB801F098B8E7
:101DB00001F086B801F066B801F070B8374A3849CA
:101DC00013681B06FCD40B6813F08003F8D172B6BD
:101DD00034490A78002A5FD0334A3448F0B4344C8E
:101DE000176806682568D4680C303E4414320068D1
:101DF0001268304F35442C4420440244C2F34E0252
:101E00002D4E2E482E4D2F4C42F400423A6037683A
:101E100006682D682C4A24680C303E44006812681D
:101E20002A4F35442C4420440244C2F34E02284E2B
:101E30002848294D294C42F400423A603768066828
:101E40002D68274A24680C303E4400681268254FEC
:101E500035442C4420440244C2F34E02224E23480F
:101E6000234D244C42F400423A60376806682D68DE
:101E7000214A24680C303E440068126835442C44E2
:101E800020440244C2F34E021C4842F40042026065
:101E90000B7062B6F0BC704762B6704724B0034066
:101EA00024B00B40A513FF1F38B003403CB00340E3
:101EB00040B003402CB0034058B003405CB0034036
:101EC00060B0034064B003406CB0034030B00340E6
:101ED00038B00B403CB00B4040B00B4044B00B401E
:101EE0004CB00B402CB00B4058B00B405CB00B40DA
:101EF00060B00B4064B00B406CB00B4030B00B4096
:101F000030B42948294A2A4B2A4D6024E121047023
:101F100011701B78284C082B30D00A2B27482849F1
:101F200037D00C2B0CBF35225D2212232A60236090
:101F300002600B60234B24491B78244ABBB1012368
:101F40000B601360224B23491B78234A012B26D9AF
:101F5000042B0FD9082B1ED9102B94BF862387235F
:101F60000B6013601D4B01221A7030BC70470B6070
:101F70001360E7E784230B601360F3E700F58E201E
:101F80000F490830212213232A60236002600B606E
:101F9000D0E73922F7E785230B601360E2E780235F
:101FA0000B601360DEE700BF0040074001400740C0
:101FB0000C07FF1F08B003400CB0034008B00B40F3
:101FC0000CB00B40A813FF1F20B0034020B00B4003
:101FD0000D07FF1F24B0034024B00B40A513FF1FC3
:101FE00047282FD8334B2DE9F0411E5CFF2E2BD014
:101FF000314B1B78002B2AD132062CD472B62F4DD0
:102000002F4C2F46012326602B7062B672B62368D0
:102010001B060CD43B781BB9F4E72B78002BF1D0CE
:1020200062B601F03FFF72B623681806F5D5254B5E
:102030001B6800222A7062B6234A107843FA00F027
:10204000BDE8F081002070470020BDE8F081FFF777
:10205000B5FE3206D2D572B61C4DDFF87C801C4C22
:1020600006F04007FFB206F03F06D8F80030DFB1B7
:1020700023F01003C8F8003001232660134A2B70A8
:1020800062B672B6236819060CD413781BB9ECE754
:102090002B78002BE9D062B601F004FF72B62368FA
:1020A0001B06F5D50B4BC3E743F01003C8F800300F
:1020B000E2E700BFD48A0000A513FF1FA713FF1F8C
:1020C00000B0034010B00340A413FF1FA613FF1F6E
:1020D00000B00B4010B00B400CB00B400A4A0B494B
:1020E000136843F4805313600B7843B9084BC02244
:1020F0001A70084B80F30C0000B218807047044B34
:1021000080221A70F5E700BF2C800440A813FF1F3F
:1021100021C00C4000C00C400A4A0B49136843F42C
:10212000005313600B7843B9084BC0221A70084B58
:1021300080F30C0000B218807047044B80221A70A4
:10214000F5E700BF2C800440A813FF1F21D00C40EE
:1021500000D00C40F0B51B4B1B4E596818689A68AC
:10216000DB6885B06C460FC4337899071DD5174AD4
:10217000174C1378174913F0700318BF1370164AE1
:10218000164B8027177000261220052226706D46F8
:1021900008701A7072B6043C45F001052046A84745
:1021A00062B6237813F0700309D10D4B064901E0A4
:1021B000013B02D00A78D207FAD505B0F0BD2370F2
:1021C00005B0F0BD1C8B0000010002400000024081
:1021D000040002400B000240070002400A000240D7
:1021E000410D030008B5FEF797FAFEF7B1FA01F0CA
:1021F00059FEFAE708B5104C08E0236859050DD4DC
:1022000023681A050FD42368DB0411D4236858030C
:10221000F3D501F005F823685905F1D500F0D2FE99
:1022200023681A05EFD500F009F82368DB04EDD523
:1022300000F004F8EAE700BF3480044008B5FFF777
:10224000D9FF00BF014B10221A80704700200540C3
:10225000704700BF094908B50B6830B16A46184499
:10226000A2F50052904202D20860184608BD05F05F
:1022700059FE0C2303604FF0FF3008BD1007FF1F0D
:10228000EFF3138070B9EFF310836BB9EFF30582AE
:102290005AB94FF48070EFF311832BB1984228BFE5
:1022A000184670474FF0FF3070470F2A01D8184684
:1022B000F1E7014BD05CEEE7F0E300E010B4114B26
:1022C00053F8302092F8804234B1012379B182F87A
:1022D00080305DF8044B704703EBC0035B681A68FD
:1022E00051B922F002021A605DF8044B704782F87F
:1022F00000315DF8044B704742F003021A605DF84C
:10230000044B70472C8B00001C4A02EBC0030129D0
:102310005B6811D004291BD052F83000002280F8ED
:10232000802229B1022920D0032922D01A607047C7
:102330004FF480721A60704752F830004FF4A27266
:1023400080F880121A601A6822F020021A60704722
:1023500052F830104FF4A272012081F880021A6006
:102360001A6842F020021A60704740F203121A60A5
:1023700070474FF481721A60704700BF2C8B0000C9
:1023800030B4054B054D064C002210211A602A601E
:102390002060196030BC704714D0034004D0034063
:1023A00000D0034038B5A0F14203012B04461FD9E9
:1023B000002975DD904B1B78012505FA03F28A424E
:1023C00002D83F2827D938BDC21E012A2BD9A0F137
:1023D0001D02012A73D90E2856D9A4F12302032A1B
:1023E00057D9864A126802FB011222FA03F320E051
:1023F000814B1B780B2B0AD90C2B1CBF0C3B1941B2
:10240000422C084657D0BDE83840FFF785BEC3F1DF
:102410000C039940F4E72946FFF750FF2946BDE831
:102420003840FFF771BF764A126802FB011222FAA8
:1024300003F3A21E242A00F2D580DFE812F0CC00BC
:10244000C500BE00B700B000A900A2009B00940028
:10245000D300D300D3008D00D300D300D300D3002A
:10246000D30086007F0078007100D300D300D30032
:10247000D300D3006A006300D300D300D300D3009D
:102480005C0055004E00470044F28412C240D2075F
:10249000A3D55C4A126802FB011222FA03F3C8E7D3
:1024A0003F2890D80021FFF709FF20460121BDE811
:1024B0003840FFF729BFBDE83840FFF70FBE524A4A
:1024C000126802FB011222FA03F3B2E74F49504AA5
:1024D0000B604FF45173136038BD4E494E4A0B6088
:1024E0004FF45173136038BD4C494D4A0B604FF4A3
:1024F0005173136038BD4B494B4A0B604FF4517315
:10250000136038BD49494A4A0B604FF45173136058
:1025100038BD4849484A0B604FF45173136038BDC9
:102520004649474A0B6040F24443136038BD454971
:10253000454A0B6040F24443136038BD4349444A66
:102540000B6040F24443136038BD4249424A0B607D
:1025500040F24443136038BD4049414A0B6040F2A9
:102560004443136038BD3F493F4A0B6040F2444347
:10257000136038BD3D493E4A0B6040F2444313604E
:1025800038BD3C493C4A0B6040F24443136038BDBF
:102590003A493B4A0B6040F24443136038BD394925
:1025A000394A0B6040F24443136038BD3749384A1A
:1025B0000B6040F24443136038BD3649364A0B6025
:1025C0004FF45173136038BD3449354A0B604FF4F2
:1025D0005173136038BD3349334A0B6040F24443B2
:1025E000136038BD3F2C3FF6EEAE7F29D4BF0021EB
:1025F0000121204657E700BF1407FF1F0880034052
:102600000890034008900B4008800B4048900B4016
:102610002CB0044040900B4028B0044038900B4050
:1026200024B0044030900B4020B0044018800B4090
:102630004CA0044010800B4048A004401880034088
:1026400008B004401080034004B0044040800340C0
:1026500018C004403880034014C0044018900B4058
:1026600004C004402880034010B004402080034090
:102670000CB0044028900B400CC0044020900B404C
:1026800008C004403080034010C00440488003402C
:102690001CC0044018900340349004401090034044
:1026A0003090044010900B4000C004403F2801D8F7
:1026B000FFF704BE704700BF3F2801D8FFF724BED4
:1026C000704700BF72B60C490C4B0D4A1B68086876
:1026D000126862B6520102D5322B88BF0130094917
:1026E000C3F5EA334FF47A72BF33A1FB031302FB45
:1026F00000F000EB93107047AC13FF1F18E000E0F0
:1027000004ED00E0898888882DE9F843054672B613
:10271000204F214B214A1B683C68126862B6520167
:1027200002D5322B88BF013495B3C3F5EA331C4E72
:10273000DFF86490DFF86480BF334FF47A72A6FB51
:10274000031302FB04F404EB931472B6D9F80010DF
:102750003A68D8F800E062B6C1F5EA33BF33A6FBA9
:1027600003031EF0806FC4EB93134FF47A7002D012
:10277000322988BF013200FB0233B3F57A7F04D3DC
:10278000013D05D004F57A74DFE701F08BFBDCE74F
:10279000BDE8F883AC13FF1F18E000E004ED00E093
:1027A00089888888F8B53E4B3E49DFF818C13E4E0F
:1027B0003E4ADFF814E13E4D3E4C3F4F4FF0006083
:1027C00018604FF0805018604FF0005018604FF0C4
:1027D000804018604FF000401860002008602823F7
:1027E0004EF6FF71CCF80010CEF8003033600EF5D5
:1027F000012E13602B60236005F500253B6004F576
:102800000024B36207F50027936206F5012602F55E
:1028100001220EF1100E05F6E87504F6E87407F5CE
:102820007F67103220362B602360CEF800303B608B
:1028300013603360214EBB61936109223260A7F5BA
:10284000002706F58056203F083638603160BB60AF
:10285000F36047F8042C06F5FD2607F5FE2706F27F
:10286000FC76043730603960B360FB6046F8042CB6
:102870000836C7F8FC0F06F6FC76114831602B606D
:1028800023600260FFF73CFB1920FFF73DFF01F0DA
:102890002DFA40F21310BDE8F840FFF735BF00BF36
:1028A00004E100E004800340148003401C800340E6
:1028B000248003402C800340348003400080034088
:1028C00000900B40088003400C8003402DE9F84F36
:1028D000214B1B6807460BB101221A70DFF8889064
:1028E0001E4D99F80040DFF884801D4E01343F2CC6
:1028F0008ABF4FF0000A5FFA84FA5446AB462B7841
:10290000A34216D1FFF7BCFC40281FDC33791B061D
:10291000F5D59BF8003001333F2B86BF00221346CC
:10292000DAB218F80330DBB2F3712A702B78A342C5
:10293000E8D00C490A4BFFB208F804700120BC2211
:10294000087089F800A0DA70BDE8F88FFF28D6DD9E
:1029500001F0A8FAD3E700BF4014FF1F3D14FF1F8A
:1029600000A006403C14FF1F4414FF1FB813FF1FB4
:10297000324A33491368F0B543F4806313600A7830
:10298000304F314E314D324C32490023152A3B70C5
:1029900033702B7023700B7045D01B2A3ED082B34E
:1029A0002D4B1B78052B34D01A2B41D0012B1BD07B
:1029B0001F281FD8002002460125284B284C1A70DA
:1029C00028495D7004224FF0020E88273C264025DE
:1029D00098729A704FF0004083F813E05A751F7494
:1029E000DE7025700860F0BD1F4B4FF451721F2838
:1029F0001A60DFD9C0F34432C0F3471500F01F005E
:102A0000DBE71A4B40F213321A60134B1B78052B8D
:102A1000CAD1174B4FF451721A60C9E7154B40F2F7
:102A200013321A60BCE7144B40F213321A60B7E756
:102A3000124B4FF451721A60BAE700BF3480044061
:102A4000F813FF1FB413FF1FB513FF1F4414FF1F1C
:102A50003D14FF1F3C14FF1F1507FF1F00A0064079
:102A60001FE400E000E100E044A0044040A0044076
:102A70001CC004403C90044018C0044038900440FE
:102A8000194B19499B7803F0EC0200F00303134340
:102A9000420700F00F0248BF43F01003042A8B7076
:102AA0001CD0114B104A5B79C10603F0EF0348BFFD
:102AB00043F0100353719379820603F0EF030A4A3F
:102AC00048BF43F010039371C30506D553781178BE
:102AD000DBB241F020011170537070478B7943F0E5
:102AE00040038B71DDE700BF00A006402A4B1B6846
:102AF0005B0536D510B5294C237823B101F0D2F906
:102B00002378002BFAD12648264A274B4FF0004461
:102B100000210460D1701B78152B23D01B2B35D0DE
:102B20001BB9224B40F203121A60214B1B7803F0B1
:102B30007F03052B20D01A2B23D0012B03D11D4B53
:102B400040F203121A601C4A164B1C481C491268BA
:102B50001C79DB79002303700B700AB10123137019
:102B600010BD7047174B40F203121A60104B1B78D0
:102B700003F07F03052BDED1134B40F203121A60E2
:102B8000E1E7124B40F203121A60DCE7104B40F20F
:102B900003121A60C9E700BF348004403C14FF1FD1
:102BA00080E100E000A00640F813FF1F40A00440B1
:102BB0001507FF1F44A00440B013FF1FB413FF1FED
:102BC000B513FF1F18C004401CC0044038900440D7
:102BD0003C9004400A4A38B50546137803F0FF04D8
:102BE000002BFAD101212846FFF766FD2146284631
:102BF000FFF75CFD034A044B52F835201A6038BDDC
:102C00003C14FF1F2C8B00004014FF1F09B140F043
:102C100080001E4A137898421BD010B41C4C2468C4
:102C2000640513D503F07F03052B2AD01A2B24D07B
:102C3000012B14D0002900F07F0114BF602344232E
:102C4000052915D01A290ED0012903D010705DF87E
:102C5000044B70470F4943F440730B60F6E70D4B8C
:102C600000241C60E6E70C4943F440730B60EDE779
:102C70000A4943F440730B60E8E7074B00241C60EB
:102C8000D8E7064B00241C60D4E700BF1507FF1FE0
:102C90003480044044A00440389004401CC00440E8
:102CA000174A137883420ED016490968490509D599
:102CB000152B20D01B2B1AD05BB115280DD01B284B
:102CC00010D008B1107070470F4B40F213311960EB
:102CD000F8E70D4915280B60F1D10C4B40F2133188
:102CE0001960EFE70A4B40F213311960EAE7084B2D
:102CF00000211960E1E7054B00211960DDE700BF05
:102D0000F813FF1F3480044040A0044018C0044062
:102D10003C9004400D4B1B6813F4806305D03F28A2
:102D200005D90B4B00201860704718467047094BB7
:102D300010B5074C53F8303023600121FFF7BCFC7D
:102D4000236800221A70012010BD00BF34800440A7
:102D5000B013FF1F2C8B00000F4B1B6813F4806314
:102D600008D0122808D0142811D00C4A537B03F045
:102D7000FE03537300207047094B40F202321A6081
:102D8000064A537B43F00103537301207047054B00
:102D900040F202321A60F3E73480044000A006409B
:102DA0000CA0044014C00440034B1B685B0501D514
:102DB000FFF78CBD704700BF348004402DE9F84F09
:102DC000294B1B685A0548D5284B1B6805460BB193
:102DD00001221A7005EB010A554540D2DFF89C80AC
:102DE000234CDFF89C90234F0AE015F8012B09F8DB
:102DF0000B20214A0123AA45137088F800602ED0C9
:102E000098F80030227803F1010BBBF13F0F86BF29
:102E10000026B3465FFA8BF69345E6D1BC22FA70E2
:102E200005E03A7913060BD422789345DDD1FFF7FC
:102E300027FA4028F5DDFF28F6DD01F033F8F3E747
:102E4000227801323F2A86BF00210A46D1B219F802
:102E50000220D2B2FA712170E6E7BDE8F88F054B87
:102E6000BC22DA70BDE8F88F348004404014FF1FA4
:102E70003D14FF1F00A006403C14FF1F4414FF1F19
:102E8000B813FF1F10B5044C237823B101F00AF8E2
:102E90002378002BFAD110BD3C14FF1F064A074BC4
:102EA0001B781078DBB2C0B283422CBF3F3000F1F8
:102EB000FF30C01A704700BF3D14FF1F4414FF1FAE
:102EC000054A064B10781B78C0B2DBB2984238BF77
:102ED0004030C01A704700BFB413FF1FB513FF1F67
:102EE00030B4154B154C1A782378D2B2DBB29A4223
:102EF0001ED001333F2B0ED91149124B08781968A7
:102F00000023C0B2237021B1D31A1A2B01DC002395
:102F10000B7030BC70470A480A49C05C0968DDB2D2
:102F2000C0B225700029F4D09A4238BF4032EBE796
:102F30004FF0FF30EDE700BFB413FF1FB513FF1FC5
:102F4000FC13FF1FB013FF1F084A094B12781B78B0
:102F5000DBB29A4207D00133402B28BF0023054A39
:102F6000D05CC0B270474FF0FF307047B413FF1F02
:102F7000B513FF1FFC13FF1F0D4B1B685B0516D518
:102F800030B40C4B0C4CDA780C480D4902F0CB02F3
:102F90004025DA705D74DA7842F03402DA70237812
:102FA0000268DBB20B700AB10023137030BC7047AB
:102FB0003480044000A00640B513FF1FB013FF1F6C
:102FC000B413FF1FF0B4384B1A7912F0300F2CD025
:102FD00072B6997D01F0FF0200293DD062B6334FF1
:102FE000334938780D78334E1C46C0B2EDB2431CDD
:102FF000402BE17928BF0023AB4202F1FF32C9B276
:103000001CBFF154184612F0FF02F0D12A4B1B6886
:10301000C2B23A704BB1A84236BFC5F14005401B61
:1030200040192728C4BF01221A701F49CA78D2B29A
:10303000150616D452060DD51B4B1B795B0609D518
:103040001E4B1F491B6800220A7003B11A70164BF1
:103050003C22DA70F0BC70474022D9795A7462B6CB
:10306000E3E70B791C06E5D5164B174E1C78337831
:10307000E4B2DBB29C420ED0144D01E0A3420AD070
:103080000133402B28BF00230879E85CC0B2C87127
:10309000087D0728F2D9DBB2034933700B79180693
:1030A00044BF7C23CB70C5E700A00640B413FF1FCC
:1030B000B513FF1FFC13FF1FB013FF1F4014FF1FAA
:1030C0003C14FF1F4414FF1F3D14FF1FB813FF1FC4
:1030D000704700BF30B472B62B4A13781D0706D56F
:1030E0002A4B196A002936D0996A002941D05378B1
:1030F0001C0706D5254B196C00293ED0996C002978
:1031000039D09378190705D5204B196E002936D090
:10311000996E89B1D3781B0707D51C4BD3F8802053
:103120007AB3D3F8882011213AB162B6184B002245
:103130001A7030BC00F05EBE0D21154C154D227882
:1031400043F8315003EBC1030830013A5860227054
:1031500062B630BC704704220D4C0F4D217843F805
:10316000325003EBC20308304A1E5860227062B628
:10317000EFE70521E1E70921DFE70822ECE70C2270
:10318000EAE71022E8E700BF2C8D00000000FF1FD7
:103190001D15FF1FC800400088004000431E032B80
:1031A0001DD81B4A400140F0100030B4104472B6E4
:1031B000184CE25C032A1BD8DFE802F00212151754
:1031C00003220D88E25410F0080F14BFC82388238F
:1031D00043EA054308310360416062B630BC704782
:1031E00008300222EDE70522EBE708300422E8E789
:1031F000094A52F8230038B1084A52F823004160C6
:1032000042F8231062B6E9E742F82310034AF7E7D1
:103210000000FF1F2C15FF1FF414FF1F0415FF1FD4
:103220002DE9F04FDFF818B3DFF818A387B044E0BA
:10323000AE4F4FEA930807EBC809013ED9F80420C6
:1032400003F00803F6B2A2F1080003F0FF04002B1C
:1032500040F0048157F838301B0C99B222F8081C52
:10326000002B00F0F280A24B22F8064C42F8044CEE
:1032700053F82620002A00F06E819E4D55F8263026
:1032800058609D4C45F8260034F81630194424F84F
:10329000161000F08FFD002800F05681974A984BD9
:1032A00019F0080F00F1080018BF1346C9F8040010
:1032B00047F8383008238BF800309BF80040E4B220
:1032C00061071BD58F4B1B78ABB18F490A7802F091
:1032D000FF032AB1013BDBB20B70002B00F0EF843F
:1032E0008A490A7802F0FF032AB1013BDBB20B7076
:1032F000002B00F0F78004238BF8003004F0080363
:1033000003F0FF02002B00F0D6809AF80030DBB209
:103310001E098DD19C08DFF8D49159F8342009EBAF
:10332000C401C2F38302013A49680C2A7ED8DFE85F
:1033300002F081817D7D7D7D7D7D477D7D7D0700E6
:103340000868734D4A68734F734E286081B240F22B
:1033500081606A4B6A604FF0010E0022814249F899
:1033600034303A60C9F81020C9F8182086F800E017
:103370005E4C00F2F480B1F5D06F80F07883B1F547
:10338000817F00F0628300F28782802900F0EC8266
:10339000822940F01E83A98801F07F01042900F2F0
:1033A00018835E485E4C890008442270627002787F
:1033B000930740F1798384F800E04FF0020ED8E2E1
:1033C000544F3A6842B3574B534E57491888347894
:1033D0000D784028864645F0020828BF4FF0400E81
:1033E000002C84F001043470CEEB00000CBF882464
:1033F000C82409EBC80680B285F0010544EA0E44F2
:103400007260188049F8384072440D7018B9BEF1E6
:10341000400F18BF00223A603D4B1A88B2F5A06FEA
:1034200004D100219A785970404B1A70404A012308
:1034300013703FE7364A158842F22100854200F0BA
:10344000FF812E4A49F83420F0E72C4A2C4B19F022
:10345000080F18BF134647F838302BE700F0CAFCB6
:10346000344A354952F82630002B00F0B6815868AE
:103470008C5D42F8260003F10802C9F80420032CF1
:1034800005D8DFE804F0120F150204228A551A88C5
:1034900019F0080F0CBF8823C82343EA024347F8FA
:1034A000383007E702228A55F1E703228A55EEE712
:1034B00005228A55EBE7E00700F11A82210600F1A8
:1034C0004982A20706D51D4A1D4913780220DBB2A6
:1034D00013700870E30602D5194B10221A7007B05A
:1034E000BDE8F08F00F0BAFC05E700BF0000FF1F49
:1034F000A014FF1F4C14FF1FA415FF1FC80040009D
:10350000880040002815FF1FB114FF1F3015FF1F52
:103510001415FF1F4814FF1FB014FF1FC0200740E1
:103520002015FF1F5C14FF1F1C15FF1F982007406C
:1035300094200740F414FF1F2C15FF1F882007401C
:103540008020074090200740AB4A47F838001378A6
:1035500001331370AEE643F82600A84D91E642F21F
:103560002100814200F0358100F2AF81B1F5086F92
:1035700000F01B82B1F5106F40F02B82226AA04947
:10358000A8780870120600F14583D9F828209D49D3
:10359000130600F13A83D9F830209A49150600F154
:1035A0002F83D9F838209749140600F12483D9F8DD
:1035B00040209449100600F11983D9F84820914918
:1035C000120600F10E83D9F850208E49130600F13F
:1035D0000383D9F858208B49150600F1F882D9F8F1
:1035E00060208849140600F12983D9F868208549AC
:1035F000100600F11E83D9F870208249120600F1EE
:103600001383D9F878207F49130600F10883D9F88D
:1036100080207C49150600F11C83D9F8882079495F
:10362000140600F11083D9F890207649100600F1B5
:10363000C882D9F898207349120600F1BC827248FA
:10364000724A7349019073486C4D734C0497002380
:1036500005960295804617460E461D460394386827
:1036600028B1446800F0C6FB2046002CF9D10023A5
:103670003B60029B30681A46002342F8253028B18F
:10368000446800F0B7FB2046002CF9D100223260DC
:10369000019A98F800301146002241F8042B039A51
:1036A0000191023B4FF0000122F81510032B09D8BD
:1036B000DFE813F04B0104004B0104004FF001035D
:1036C00088F800300135042D07F1040706F10406DF
:1036D00008F10108C3D1514C514B2278464D049F4B
:1036E000059E002129701A70130700F14F8262783D
:1036F0004C49DFF810810A7010074FF00001C9F83B
:103700003010C9F8381000F12B824749A2780A70AE
:103710000021C9F85010C9F858101107DFF8E480EB
:1037200000F1DC81E2784149364C0A700021120731
:10373000C9F87010C9F8781000F1B9813378019395
:10374000002183F00102C9F89010C9F898100020F8
:10375000029080468446044635490D7845F0020EB5
:1037600009EBCE030393019B002B039B5C600CBF12
:103770008824C82444EA080385F0010449F83E304F
:1037800032700C70DFF87CE02A4BDFF8A480002850
:1037900040F02681BCF1400F1BD144F0020C09EB34
:1037A000CC03029CDFF85CE05C60002A40F02E81D4
:1037B000020442F088029DF804304EF83C20044494
:1037C00033700D702346402803D100201A4A3B6015
:1037D00010801A4A0123137028E68B5D032B00F238
:1037E0002D8101A252F823F0B5320000B53200005D
:1037F0003F390000453900001D15FF1F4C14FF1F05
:103800002815FF1F0000FF1F0415FF1FA014FF1F36
:10381000F414FF1F2C15FF1FA415FF1F2C8D000093
:10382000C4200740C8200740CC200740D0200740D4
:103830001C15FF1FB014FF1F5C14FF1F94200740CE
:10384000928892B9B14A0D784878157050708D7889
:10385000C8789570D07010680D79157186284D79EB
:1038600089795571917100F0A580A949A94E0A780E
:10387000307882F00105002842F002020D700CBF82
:103880008821C82149F8321009EBC20280F00100FA
:10389000002130705160D4E540F20232914240F094
:1038A0008D80A98801F07F01042900F292806A8846
:1038B000002A40F08E809848CDF804E08900084442
:1038C000017841F00201017041E742F2212081427A
:1038D0007BD1A988002940F0E480904B904A914820
:1038E000AC781D681560CDF804E00A4604702EE738
:1038F0008D4B8E4886491A614FF0020E80F800E029
:10390000854F0A708A49196099608A4E8A4D8B4C9E
:103910009A610D213970FF213170DFF840E2297082
:103920002270874D874A8EF800109F27012406F8E1
:10393000047C5D600470DA6007B0BDE8F08F00239E
:103940008B55B7E401238B55B4E44FF0000388F89E
:103950000030B7E67049784B80220D2008701A704D
:10396000A2077FF5B7ADAEE5774C4FF0020E22709F
:103970006270EA88724580F0A38165490D78402A1B
:10398000944645F0020E28BF4FF0400C04EB0C03A8
:1039900009EBCE000293012344604FEA0C48CCEBC4
:1039A000020001930022C824E4E6684A664C1278BB
:1039B0002270DEE7664A0F21117056E7B1F5A06F5D
:1039C00007D1012300220193C1E642F22132914244
:1039D000F7D0514A0F231370544A0123137025E581
:1039E00040287FF6DAAE44F002040EEBC401029EDA
:1039F0004E60BAB19DF80410564A197033464038EB
:103A000088F8005040334EF83420DFE69DF804304B
:103A100033700204029B0D7042F0C80203444EF85A
:103A20003C20D0E69DF804101970029B404A88F8AB
:103A30000050403840334EF83420C7E619F0080FE4
:103A40000CBF022303238B5534E4A98801F07F01C6
:103A50000429BED86A88002ABBD12F48CDF804E0DB
:103A600089000844017821F0020101706FE63A4AAA
:103A70005468002CADD06888B5F804E003E00C323F
:103A80005468002CA5D013888342F8D1538873451D
:103A9000F5D1000A03280CBF94F800E0B2F808E062
:103AA00067E7CDF804E052E64FF0020E61E700F060
:103AB00081F9002800F0F18008301D4AC4F8840024
:103AC000C4F8802000F076F9002800F0E08008308B
:103AD000204AC9F88C00C9F888202FE600F06AF95E
:103AE000002800F0E6800830114AC8F86400C8F8E1
:103AF000602000F05FF9002800F0D5800830154AFA
:103B0000C9F86C00C9F868200CE600BFAC15FF1FAF
:103B10001C15FF1FB014FF1FC0200740AC13FF1F70
:103B2000B415FF1F3C15FF1F0000FF1F9420074026
:103B300088004000882007408020074098200740E8
:103B40006014FF1FB414FF1F2015FF1F2815FF1F4F
:103B5000B114FF1FC8004000308D00008C200740CA
:103B600000F028F9002800F08C8008305D4AC8F881
:103B70004400C8F8402000F01DF900287BD0083030
:103B8000594AC9F84C00C9F84820BEE500F012F9BE
:103B900000286AD00830534AC9F82400C9F8202008
:103BA00000F008F900285AD008304F4AC9F82C0014
:103BB000C9F828209BE5D1F89C00083800F01AF9D4
:103BC0003DE5D1F89400083800F014F931E5C86DEE
:103BD000083800F00FF902E5486D083800F00AF9DE
:103BE000F7E4C86C083800F005F9ECE4486C0838D4
:103BF00000F000F9E1E4C86B083800F0FBF8D6E407
:103C0000486B083800F0F6F8CBE4C86A083800F0D2
:103C1000F1F8C0E4606A083800F0ECF8B5E4C86F69
:103C2000083800F0E7F8F2E4486F083800F0E2F8EE
:103C3000E7E4C86E083800F0DDF8DCE4486E0838C8
:103C400000F0D8F8D1E4D1F88C00083800F0D2F8B0
:103C5000E9E4D1F88400083800F0CCF8DDE42A78F3
:103C6000C9F8280001322A7041E52A78C9F82000F5
:103C700001322A7094E72A78C9F8480001322A7084
:103C800043E52A78C8F8400001322A7073E72A78A1
:103C9000C9F8880001322A7050E52A78C4F88000FB
:103CA00001322A700EE72A78C9F8680001322A70BA
:103CB00038E52A78C8F8600001322A7019E700BE9A
:103CC000BEF1400FF44628BF4FF0400C04EB0C034C
:103CD00002930123CCEB0E004FEA0C480022019323
:103CE0003AE500BF88004000C80040002DE9F843D5
:103CF000244C00F02BFA002204F1A00023461A60A5
:103D00005A60083383424FF00001F8D11E481F4A21
:103D10000368DFF890E01E4F1E4D1F4EDFF88880CD
:103D2000DFF888C0DFF8889043F4802303601368CD
:103D30001A4843F040731360C4F307238EF8003031
:103D4000C4F307433B70240EFF2302F5C9222C70F5
:103D500002F5847288F80030114D8CF80030337011
:103D6000012389F8003070268EF864104FF4001497
:103D7000102107F82C3C2E70046011700EF1640EB7
:103D8000BDE8F8830000FF1F3480044000D80040E5
:103D9000B0200740B42007401020074004E100E0B5
:103DA00035E400E09C200740802007408820074041
:103DB0009420074072B60D480268B2FA82F30B2BCA
:103DC00010DC4FF00041D94022EA0102026062B6E5
:103DD000074803EBC303DB00C2180021C1501046A3
:103DE0005160704762B60020704700BF1807FF1F80
:103DF0009803FF1F0D4B0E4AC31AA2FB03231B0996
:103E00000B2B0CD80B4A127852B972B60A484FF0F5
:103E10000041026821FA03F31A43026062B6704758
:103E2000064A1278002AF0D0FFF754B99803FF1F12
:103E3000398EE3381D15FF1F1807FF1F2815FF1FB8
:103E4000044B054A1B6890881BB11A885B88D31AFB
:103E5000184470473815FF1FA415FF1F38B50E4BC7
:103E60001B7873B90D4C216861B103F0FF054B88D5
:103E70000B800420FFF792F9256038BD084B012222
:103E80001A7038BDFFF796FF0028F7D00146BDE84D
:103E900038400420FFF782B93115FF1F3415FF1F8A
:103EA0003015FF1F2DE9F843314E337893B1314F70
:103EB0003A787AB90122D9073A7036D49A0719D4D8
:103EC00000225B073A7005D52B4B1A6812B1EFF34D
:103ED00005820AB1BDE8F883EFF3108172B6186865
:103EE00018B1264C2278002A2ED00029F2D162B6D1
:103EF000BDE8F883DFF8908098F80020002ADFD032
:103F0000DFF88890002405E0013498F80030E4B22E
:103F1000A34212D959F824502B6828461B699847A8
:103F20000028F1D02B699847EEE7FFF789FFC8B961
:103F3000134B1B781BB93378C0E73378C0E733786D
:103F400003F0FE033370B9E745691D600123237058
:103F50005DB1AA6101B962B60025457783689847CB
:103F60002570B7E700F0F0F8E2E7064B1D60F1E7D7
:103F70001C07FF1F3D15FF1F4C15FF1F5015FF1F8E
:103F80001D07FF1F4815FF1F6C15FF1F5415FF1F4E
:103F900070B5EFF3108272B60C4C206880B10C4EF5
:103FA00000254369236073B19D6102B962B645770C
:103FB00083689847EFF3108272B620680028F0D12A
:103FC00002B962B670BD3360EFE700BF4015FF1F56
:103FD0004415FF1FFFF7DCBF024A1368013313606B
:103FE000704700BFAC13FF1F30B40749074C0A7875
:103FF0002378074D42F0020245F823000A7001338E
:10400000237030BC704700BF1C07FF1F6C15FF1FDB
:104010005415FF1F844641EA000313F003036DD1DA
:10402000403A41D351F8043B40F8043B51F8043B7B
:1040300040F8043B51F8043B40F8043B51F8043B82
:1040400040F8043B51F8043B40F8043B51F8043B72
:1040500040F8043B51F8043B40F8043B51F8043B62
:1040600040F8043B51F8043B40F8043B51F8043B52
:1040700040F8043B51F8043B40F8043B51F8043B42
:1040800040F8043B51F8043B40F8043B51F8043B32
:1040900040F8043B51F8043B40F8043B51F8043B22
:1040A00040F8043B403ABDD2303211D351F8043BC2
:1040B00040F8043B51F8043B40F8043B51F8043B02
:1040C00040F8043B51F8043B40F8043B103AEDD271
:1040D0000C3205D351F8043B40F8043B043AF9D2C2
:1040E000043208D0D2071CBF11F8013B00F8013B95
:1040F00001D30B8803806046704700BF082A13D3A2
:104100008B078DD010F003038AD0C3F10403D21AB9
:10411000DB071CBF11F8013B00F8013B80D331F8ED
:10412000023B20F8023B7BE7043AD9D3013A11F86D
:10413000013B00F8013BF9D20B7803704B784370D8
:104140008B78837060467047704700BF72B6184A1C
:10415000184B19491160702280211A701A46197083
:1041600013781B06FCD510B5144B84B0186862B6E2
:10417000134B144C984298BF00EB800001A998BFE4
:1041800040000A2200F020F801A92046002311F87F
:10419000012B01333AB10A2B20F8022FF7D1162355
:1041A000237004B010BD5B00DBB2237004B010BDFF
:1041B0000400024000000240000007410C000240E1
:1041C0007F969800AC07FF1FF0B44D1E2E460024CA
:1041D00000E00134B0FBF2F302FB1300092800F108
:1041E00030078ABF3730F8B2C0B206F8010F184660
:1041F000002BEED10A1953704CB1107815F8016FED
:1042000028700133E01A834202F80169F5DB0846A1
:10421000F0BC70470020704790F8392090F83800C3
:10422000101A704790F8383090F839209A4205D922
:104230005A1C034480F83820187E70474FF0FF3036
:10424000704700BF90F8383090F839209A4286BF06
:104250001B18187E4FF0FF30704700BF704700BF3B
:1042600038B50546B0F85E0090B195F85D3014465B
:10427000C3F1210294420CD805F13B0018442246B8
:10428000FFF7C8FE95F85D30234485F85D30204681
:1042900038BD012014462871EEE700BFB0F85E304B
:1042A0006BB190F85D30202B07D8C218013380F82D
:1042B0005D30012082F83B1070470123037100201C
:1042C000704700BF0023426980F8383080F83930E9
:1042D00080F85C3080F85D3080F85E3080F85F30C8
:1042E00006CA30B40D68046943662A4383660A60CF
:1042F000A370426990F861301649146813441D7A1E
:104300005B7B01EBC5051B026D6803F4E06343F0C2
:1043100064032B6090F8623013449D7CDB7D01EBDD
:10432000C5011B02496803F4E06343F064030B60BA
:1043300021685368194205D003692C225A70036919
:1043400004229A71036920225A71036980229A70AB
:1043500030BC70472C8B000038B50269D478E4B2C9
:10436000E106054624D51023D37063061FD504F05B
:10437000040404F0FF03002C5AD042496A6E002363
:104380000B7085F85D30002A66D0904795F85D3057
:10439000002B61D02B69D0229A702B6995F83B20B5
:1043A0001A712B69012285F85C200222DA7038BD6F
:1043B00004F0400303F0FF00002BD8D19379DBB267
:1043C00003F0600160294ED0937803F0100303F0EE
:1043D000FF01B3B114F0010437D195F85C3095F8C2
:1043E0005D1099424BD9591C2B4485F85C1093F809
:1043F0003B3013712B69D0229A702B690222DA703C
:10440000D5E785F86010937943F0200393712B6909
:1044100095F839101A791F29D2B2C6D819480078F0
:104420000028C2D06818013185F839100276BCE73F
:104430002A6985F83930C02393702B69114A19799C
:10444000012111700222DA70B1E7C02393702B6949
:104450001A790222DA70AAE70122002385F85D208A
:1044600085F83B3096E703F0DF039371AB6E23B121
:1044700085F8380095F8390098472A69A4E714713F
:10448000B8E700BF6D15FF1F2DE9F047374FDFF884
:10449000E0903B68026982B006460093DDF8008038
:1044A0000021C825D3789B065BD53B680193019B0F
:1044B000C8EB03030F2BF5D949B1102BF2D0002024
:1044C0009070336980229A7002B0BDE8F0877269FB
:1044D00096F8613013440521187AFEF7EDF87269F9
:1044E00096F861301344012193F812A05046FEF76C
:1044F000E3F8092400215046FEF7D8F82B46013B8B
:10450000FDD101215046FEF7D1F82B46013BFDD1EC
:10451000013CEFD1706996F8611001444FF4C87204
:104520000C7A4B7B09EBC4011B02496803F4E0637E
:1045300043F064030B6096F862300344997CDB7DA2
:1045400009EBC1011B02496803F4E06343F0640313
:104550000B60013AFDD13269D3789B064FF001011F
:10456000A3D4012002B0BDE8F08700BFAC13FF1F49
:104570002C8B0000F0B503691222DA70026993787F
:1045800003F0200385B004460D46002B5ED0B42313
:1045900093703C4922690B680093009E05E00B680C
:1045A0000193019B9B1B042B42D8D37803F020037B
:1045B00003F0FF00002BF2D094F85D30002B31D0D7
:1045C0004FF0000E4FF0020C04EB0E0393F83B305B
:1045D00013710B680393039F206907E09B060DD5B9
:1045E0000B680293029BDB1B052B28D8C378DBB238
:1045F00003F0020202F0FF06002AEFD080F803C0A9
:104600002669F378DBB2DF0632462DD49F062BD520
:10461000DB0731D40EF1010E94F85D305FFA8EFEA7
:104620007345D1D800201DBB002384F85E3004E020
:104630009070236980229A70042005B0F0BD8670C6
:104640002369802204209A7005B0F0BD03F0FF06B4
:10465000FFF71AFF10B9042005B0F0BD236984F8F4
:104660005F60B0229A7094E78023B3700420DAE789
:1046700026698023B370D7E7BEF1000F0CBF02207C
:104680000320F6E7AC13FF1F2DE9F0410669002572
:10469000122780F8385080F83950F770D0F810C0E1
:1046A0009CF802E00EF0200E88B0044688461546BD
:1046B0001E46BEF1000F49D0B4238CF80230784B6F
:1046C00021691A680092DDF800E006E01A6801929C
:1046D0000198CEEB0000042830D8C87800F0200004
:1046E00000F0FF070028F1D04FEA480242F0010233
:1046F000D2B20A711A680292DDF808E0206906E079
:104700001A6803920399CEEB010105292AD8C178D2
:1047100001F0020101F0FF070029F1D04FF0020C77
:1047200080F803C02269D17811F0110722D12DBB86
:10473000002E0CBFA0238023937003E08F702369A9
:1047400080229A70384608B0BDE8F0810EF0FF076D
:10475000FFF79AFE0028F5D0236984F85F70B02235
:104760009A70ACE787702369802238469A7008B047
:10477000BDE8F081802393700027E3E7012D75D019
:10478000A021917021690A79BE4667464FF0A80CB6
:104790001A680492049805E01A680592059A121A9C
:1047A000052A4AD8CA7802F0020202F0FF08002A5D
:1047B000F2D0CF702169CA78D2B212F0100F084639
:1047C0005AD1920658D5013DEDB2012D49D0BEF126
:1047D0001F0F3BD90A79012DDAD11A680692069D7E
:1047E00005E01A680792079A521B052A46D8C27834
:1047F00002F0020202F0FF01002AF2D00223C3708D
:104800002269D378DBB2D9063AD49B0634D5B023DB
:10481000BEF11F0F93703FD8226904EB0E0312798B
:104820001A760EF1010E5FFA8EFE16B12369802210
:104830009A7084F839E0774684E781F8028023692A
:1048400080229A70774684F839E07BE704EB0E0209
:1048500091F8048082F818800EF1010E5FFA8EFE46
:10486000B9E781F802C021690846B0E7A821917034
:104870002069BE460279B0E7774663E78170DEE7DC
:104880001021C823D170013BFDD12269937803F038
:10489000F7037746937055E723691B79C5E700BF97
:1048A000AC13FF1F0148FFF757BD00BF3008FF1FC3
:1048B0000148FFF751BD00BF9C08FF1F0148FFF7EB
:1048C0004BBD00BFC407FF1F2DE9F0411A4C4FEA52
:1048D000400E01260746204690461D4684F83BE0E0
:1048E00084F85E6084F85D60FFF7D8FC31462046AE
:1048F000FFF740FE3346424639462046FFF7C4FEE6
:1049000094F8392094F838309A4213D00021E618F0
:104910009A42C8B203F101038ABF84F83830FF23FA
:10492000337E2B5494F8392094F838309A4201F1B0
:104930000101ECD1BDE8F081C407FF1F70B50B4C3D
:10494000430016460125204684F83B3084F85E502B
:1049500084F85D50FFF7A2FC31462046FFF79EFC2D
:1049600029462046BDE87040FFF704BEC407FF1F7C
:1049700000B551EC100B2C4A21F00043934285B056
:1049800020DD2A4A934209DD10EE102A0B4602F080
:10499000EDFD41EC100B05B05DF804FB684600F03E
:1049A000B3FB00F00300012828D0022815D060B323
:1049B00001209DED021B9DED000B01F04DFE51EC21
:1049C000100BE6E79FED161B01F0F2F851EC100B0F
:1049D00041EC100B05B05DF804FB9DED021B9DED55
:1049E000000B01F0E5F853EC102B10EE100A03F168
:1049F000004141EC100B05B05DF804FB9DED021B7E
:104A00009DED000B01F028FEEDE79DED021B9DEDF5
:104A1000000B01F0CDF851EC100BBAE7AFF30080BA
:104A20000000000000000000FB21E93FFFFFEF7FD6
:104A300008B52DED048BB0EE418AF0EE618AB0EE40
:104A4000409AF0EE609A00F01FF830B9B0EE480AD4
:104A5000F0EE680ABDEC048B08BDB0EE480AF0EE3B
:104A6000680A00F011F838B153EC182B51EC190B0F
:104A700003F0A2F90028E9D0B0EE490AF0EE690A85
:104A8000BDEC048B08BD00BF53EC102B33F000418C
:104A900010B408D01148A3F58014844208D804202B
:104AA0005DF8044B70471AB902205DF8044B70475B
:104AB00003F1FF43094803F5E0038342EFD9B1F561
:104AC000801F01D20320EBE7054B994201D0002063
:104AD000E6E7B2FA82F04009E2E700BFFFFFDF7FBE
:104AE0000000F07F00B510EE103A204A23F000439A
:104AF000934283B019DDB3F1FF4F04DB30EE400A7F
:104B000003B05DF804FB684600F0B2FE00F003005D
:104B100001281AD002280FD000B30120DDED010AD0
:104B20009DED000A02F0FCF9EAE7DFED110A01F061
:104B30005DFE03B05DF804FBDDED010A9DED000AAA
:104B400001F054FEB1EE400ADAE7DDED010A9DED19
:104B5000000A02F0E5F9B1EE400AD1E7DDED010A05
:104B60009DED000A01F042FECAE700BFD80F493FA1
:104B70000000000000B510EE103A214A23F0004377
:104B8000934283B01ADDB3F1FF4F04DB30EE400AED
:104B900003B05DF804FB684600F06AFE00F0030015
:104BA00001281DD0022811D008B3DDED010A9DEDCA
:104BB000000A01F01BFEB1EE400AE9E70020DFED3C
:104BC000110A02F0ADF903B05DF804FB0120DDED40
:104BD000010A9DED000A02F0A3F9B1EE400AD7E701
:104BE000DDED010A9DED000A01F000FED0E7012095
:104BF000DDED010A9DED000A02F092F9C8E700BF61
:104C0000D80F493F000000002DE9F0432DED028B45
:104C10008BB057EC106B55EC114B00F03BF92E4B61
:104C2000B0EE408AF0EE608A93F90080B8F1FF3F61
:104C300031D022462B462046294603F0E5F850BBEA
:104C400032463B463046394603F0DEF8814610BB1B
:104C5000002200232046294603F0A4F8D8B11F4BB8
:104C6000CDF820900122CDE90267CDE904458DE819
:104C70000C00B8F1000F17D1CDE90667684602F0C5
:104C80002FFAE0B1089B0BBB9DED060B0BB0BDEC02
:104C9000028BBDE8F083B0EE480AF0EE680A0BB074
:104CA000BDEC028BBDE8F0830022002310461946BC
:104CB00002F03AFFB8F1020FCDE90601DED103F0B0
:104CC00031F921230360089B002BDDD003F02AF982
:104CD000089B0360D8E700BF0809FF1F088E00008B
:104CE00000F038BCD0B52DED028B394C8AB0F0EE17
:104CF000408A00F0E5FC94F900300133B0EE408AC0
:104D00003ED0B0EE680A02F059FB002838D0DFED43
:104D1000317AF4EEE78AF1EE10FA37DCDFED2E7A25
:104D2000F4EEE78AF1EE10FA2AD504232B4A009319
:104D300018EE900A00230893019202F077FD94F98F
:104D4000003000260027022BCDE90401CDE9020145
:104D5000CDE9066737D0684602F0C2F9002832D0A4
:104D6000089B1BB103F0DEF8089B0360DDE9060138
:104D700003F088F800EE100A0AB0BDEC028BD0BD3B
:104D8000B0EE480A0AB0BDEC028BD0BD0323134A33
:104D9000009318EE900A00230893019202F046FD5A
:104DA00094F90030CDE90401CDE902012BB90C4B97
:104DB0004FF06042CDE90623CDE70A490020022BDF
:104DC000CDE90601C7D103F0ADF822230360C7E7A0
:104DD0000809FF1F8071B142B5F1CFC2108E0000EB
:104DE000FFFFEF470000F07F10B52DED028B8AB07A
:104DF000B0EE408A00F088FE244B93F90040631C1B
:104E000009D0B4EE488AF1EE10FA04D6B5EEC08AA5
:104E1000F1EE10FA03D40AB0BDEC028B10BD0123F1
:104E20001B4A009318EE100A00230192089302F027
:104E3000FDFC0022CDE90401CDE902010023BCB153
:104E40001046194602F070FE022CCDE9060111D180
:104E500003F068F821230360089B8BB9DDE90601A4
:104E600003F010F800EE100A0AB0BDEC028B10BD82
:104E7000CDE90623684602F033F90028ECD1E7E7D4
:104E800003F050F8089B0360E8E700BF0809FF1F24
:104E9000188E00002DE9F84F53EC112B23F0004938
:104EA00052EA090055EC104B25D005F000468F481A
:104EB00085EA060B83451EDC50421043DFF844C2EE
:104EC00049EAD070604511EE108A14D8CB451F46D0
:104ED00010EE10AA11EE10EA10EE101A17DC28DB03
:104EE000944226D313D1824BF60F03EBC60393ED06
:104EF000000BBDE8F88F2046294602F0EBFC024685
:104F00000B4602F011FE41EC100BBDE8F88FBBF52B
:104F1000801F12DABBF1000F40F0A780BAF1000F3A
:104F2000534674480DDD5B00002B00F1FF30FADCC6
:104F300007E045EC104BBDE8F88F4FEA2B50A0F28C
:104F4000FF30B9F5801F0FDAB9F1000F40F0A780EC
:104F5000B8F1000F4346DFF89CC109DD5B00002B70
:104F60000CF1FF3CFADC03E04FEA295CACF2FF3CB9
:104F7000614B98425BDBCBF3130343F480135E4A2F
:104F8000944563DBC7F3130545F48015CCEB0000B3
:104F900007E052EA040313D0E30F03EB420361007E
:104FA0000138CEEB01045A1B90B1714538BF02F1B4
:104FB000FF32002AEDDACA0F02EB43034900EFE7A4
:104FC0004B4BF60F03EBC60696ED000BBDE8F88FD2
:104FD0007145154638BF02F1FF35002DACBFCEEB51
:104FE00001011D4655EA0103EAD0444A954208DC16
:104FF000CB0F03EB450595420CF1FF3C4FEA410115
:10500000F6DD3D4B9C4554DA3B4ACCEB0202142AB8
:105010005BDCC2F1200305FA03F3D1400B431541D9
:1050200045EA0601184641EC100BBDE8F88F3249FD
:10503000091A1F292DDCC1F120030BFA01FB2AFA02
:1050400003F343EA0B030AFA01F198E72A4CCCEB8D
:1050500004041F2C15DCC4F1200209FA04F528FA17
:1050600002F2154308FA04FE90E74FEACB23002B27
:1050700021487FF766AF5B00002B00F1FF30FADCC0
:105080005FE71F4DCCEB050508FA05F54FF0000E64
:105090007CE71B4B1B1A0AFA03F300216FE7DFF8CA
:1050A00058C04FEAC9235B00002B0CF1FF3CFADC2F
:1050B0005EE7A5F580152E430CF2FF3C46EA0C5343
:1050C0000A4643EC102BBDE8F88F1F2A07DCC2F11B
:1050D00020039D40D14045EA01033546A0E7084B37
:1050E000CCEB030345FA03F3354699E7FFFFEF7F67
:1050F000208E0000EDFBFFFF02FCFFFFFFFF0F0013
:10510000E2FBFFFF0000F07F2DE9F04F53EC102B86
:10511000974923F0004B8B458FB040F3878095492A
:105120008B451C46824629DC002C194610EE100ADD
:1051300085A3D3E9002340F3A58102F017FA8E4B33
:105140009B4504460D4600F0878081A3D3E90023E8
:1051500002F00CFA02460B46CAE900232046294613
:1051600002F004FA7AA3D3E9002302F0FFF9012543
:10517000CAE9020128460FB0BDE8F08F7F498B4590
:1051800040F387807E498B455BDC4FEA2B55A5F2C7
:105190001645ABEB05571046394610EE106A02F083
:1051A00049FE02F031FB8046894642464B46304676
:1051B0003946CDE9088902F0D9F90022714B02F095
:1051C00089FB8946804602F035FE02F01DFB06464B
:1051D0000F4632463B4640464946CDE90A6702F053
:1051E000C5F90022674B02F075FB00220023CDE9D0
:1051F0000C0102F0D7FD002800F07081002330463A
:105200003946002202F0CEFD002814BF01230223FC
:105210005D4A0192022100912A46514608A800F0F9
:105220000BFE002CC0F24C81054606E080ED000B21
:1052300000250024C0E90245002528460FB0BDE83E
:10524000F08F10EE100A194602F090F90025CAE915
:105250000201CAE90001F0E73FA3D3E9002302F00D
:1052600085F93FA3D3E900230D46044602F07EF9F9
:1052700002460B46CAE900232946204602F076F989
:1052800037A3D3E9002302F071F90125CAE902012D
:10529000D3E701F08DFE57EC106B10EE100A32A32D
:1052A000D3E90023394602F015FB0022374B02F008
:1052B0005FF902F0BFFD054602F0A6FA22A3D3E98A
:1052C0000023CDE9040102F005FB02460B463046FF
:1052D000394602F04BF91EA3D3E9002380468946E4
:1052E000DDE9040102F0F6FA1F2DCDE9020151DCDF
:1052F000274B6A1E53F822309B454BD002460B4683
:105300004046494602F032F906460F46CAE90067B0
:1053100032463B464046494602F028F9DDE9022381
:1053200002F024F9002CCAE9020186DA07F10044F0
:1053300001F100436D42CAF80060CAF80440CAF89F
:105340000800CAF80C3078E700004054FB21F93F10
:105350003163621A61B4D03D0000601A61B4D03D7F
:105360007370032E8A19A33B83C8C96D305FE43F75
:10537000FB21E93F7BD90240FB21F93FFB21394169
:10538000FFFFEF7F00007041B08E00000000E03FA3
:10539000308E0000DDE902234046494602F0E6F87F
:1053A0004FEA2B5BC1F30A53C3EB0B0306460F46D0
:1053B000102BCAE90067ABDD5DA3D3E90023DDE96B
:1053C000040102F087FA06460F4602460B464046A5
:1053D000494602F0CBF8CDE9060102460B464046AD
:1053E000494602F0C3F832463B4602F0BFF852A3EA
:1053F000D3E9002306460F46DDE9040102F06AFA0C
:1054000032463B4602F0B2F80B46CDE902010246B5
:10541000DDE9060102F0AAF8C1F30A53C3EB0B0B56
:1054200006460F46BBF1310FCAE9006776DD45A39A
:10543000D3E90023DDE9040102F04CFA06460F46E9
:1054400002460B46DDE9060102F090F802460B46E3
:1054500080468946DDE9060102F088F832463B467F
:1054600002F084F839A3D3E9002306460F46DDE9AC
:10547000040102F02FFA32463B4602F077F8CDE9FC
:1054800002013BE702F074F82D4B9B4504460D46A4
:1054900026D025A3D3E9002302F06AF802460B4682
:1054A000CAE900232946204602F060F81EA3D3E98A
:1054B000002302F05DF84FF0FF35CAE90201BCE6B7
:1054C000DAF80420DAF80C3002F1004203F100436C
:1054D0004542CAF80420CAF80C30AEE6032397E62A
:1054E00013A3D3E9002302F043F813A3D3E9002365
:1054F0000D46044602F03CF802460B46CAE900237A
:105500002946204602F032F80BA3D3E9002302F02B
:105510002FF84FF0FF35CAE902018EE6DDE9068972
:10552000F6E600BFAFF300803163621A61B4D03D8C
:105530000000601A61B4D03D7370032E8A19A33B3A
:10554000FB21F93F0000002E8A19A33BC149202509
:105550009A837B3910B582B0CDED010A019B23F00F
:105560000042B2F1FF4FF0EE407A19DC10EE100A63
:1055700020F00041B1F1FF4F12DCB3F17E5F49D062
:105580009C1704F0020444EAD07479B9022C3ED08E
:105590009FED400A032C18BFB0EE670A02B010BDA1
:1055A0009DED017A37EE270A02B010BD12B3B2F1B9
:1055B000FF4F34D0B1F1FF4F1CD08A1AD2153C2ACC
:1055C00022DC002B4BDB9DED010A87EE800A01F007
:1055D000EDFE01F00FFE012C3AD0022C2FD0002C52
:1055E000E2D09FED2D7ADFED2D7A30EE070A30EE16
:1055F000670AD9E7DFED2A7A9FED2A0A0028A8BFBB
:10560000B0EE670A02B010BD9FED250AE3E79FEDFB
:10561000230AC9E702B0BDE8104001F0EBBDB1F1CB
:10562000FF4F21D0022CF2D0032C2AD0DFED1E7ABE
:105630009FED1E0A012C08BFB0EE670AB4E79FED8C
:10564000167ADFED167A30EE070A37EEC00AABE7BE
:1056500010EE103A03F1004300EE103AA4E73C329A
:10566000B1DA9FED120AB6E7022C10D0032C0BD052
:10567000DFED0F7A9FED0F0A012C08BFB0EE670A2D
:1056800092E79FED040A8FE79FED0B0A8CE79FEDF1
:105690000B0A89E7DB0F49C02EBDBB33DB0F494046
:1056A000DB0FC93FDB0FC9BF000000800000000016
:1056B000DB0F49BFDB0F493FE4CB16C0E4CB1640FC
:1056C00010EE103A23F00042B2F1FF4F56D84FEAE5
:1056D000D37156D05448834273DC002B69DB534BA3
:1056E0009A4255D9524B9A427DD85248524A8B0021
:1056F000184490ED007A1A4470EE474AC1F1010354
:1057000092ED007A5B1A34EEC70A60EE007A9FEDE4
:105710004B4A9FED4B5ADFED4B5A9FED4B6ADFED45
:105720004B6AA7EE845AE7EE855AA7EEA56AE7EE24
:10573000866AB0EE406AA7EEE66AF0EE006A002BD9
:1057400044D020EE060A76EEC67A13F17D0F80EE85
:10575000276AF7EE006A37EE467A37EE647A36EE5D
:10576000C70A5ADA10EE102A643302EBC353DFED96
:10577000387A00EE103A20EE270A704730EE000A21
:105780007047DFED347A002918BFB0EE670A704722
:10579000B2F1465F13D2DFED307A70EE277AF7EE82
:1057A000006AF4EEE67AF1EE10FA08DD30EE260A31
:1057B00070472A4B9A4292D99FED260A70470023E0
:1057C000A3E79FED250A20EE000A704760EE067AF7
:1057D00076EE666AB7EE006A87EEA67A37EE400A82
:1057E00036EE400A70471E4B9FED1E6ADFED1E6AC3
:1057F0009FED1E7A03EB8103D3ED007AE0EE067A8B
:10580000F0EE404AFDEEE77A17EE903AF8EEE77ACE
:10581000E7EEE64A27EE877A75E710EE102A02EBEC
:10582000C35300EE103A70471772B1421872B13E7E
:105830009115853FC88F0000C08F00004CBB3133ED
:105840000EEADDB555B38A38610B36BBABAA2A3EEA
:105850000000800D00000000CAF24971B5F1CF428E
:10586000B88F00003BAAB83F8071313FD1F717379E
:1058700070B510EE103A964A23F00044944286B078
:105880005FDD944A944210EE106A1BDC002BDFEDC2
:10589000927A924A24F00F0440F3D580944270EE3D
:1058A000677A5ED09FED8E7A77EEC76A012377EE36
:1058B000E67AC0ED006A77EEC77AC0ED017A184645
:1058C00006B070BD874A944205465CDDB4F1FF4FD7
:1058D0003FDAE215863AA4EBC25307EE103AFDEE2A
:1058E000C76ADFED817AF8EEE66A37EE667ACDEDCB
:1058F000036A27EE277AFDEEC76AF8EEE66A37EE0E
:10590000667ACDED046A67EE277AF5EE407AF1EE1D
:1059100010FACDED057A40F0B780F5EE406AF1EE71
:1059200010FA0CBF0123022370490191022100915A
:1059300003A8294600F0DCFF002EC0F29780034642
:1059400004E0002280ED000A42600023184606B001
:1059500070BD70EE407A0023C0ED017AC0ED007A90
:10596000F4E7DFED636A9FED637A77EEE67A012371
:1059700077EEC76A77EEE67AC0ED006A77EEC77A0F
:10598000C0ED017AE2E701F011FDDFED5B6ADFEDCA
:10599000525A9FED537AF6EE007AE0EE267AFDEE4B
:1059A000E77A17EE903AF8EEE76A1F2BB1EE666AD7
:1059B000A6EE250A66EE877A1DDC5049581E24F0B3
:1059C000FF0251F820108A4215D030EE677A85ED3B
:1059D000007A30EE470A002E30EE670A85ED010AA4
:1059E000B4DAB1EE477AB1EE400A85ED007A85ED82
:1059F000010A5B42AAE730EE677AE41517EE102A37
:105A0000C2F3C752A21A082AE1DDDFED397A9FED11
:105A1000397AF0EE405AE6EE275A30EE650AA6EEE5
:105A2000270AF0EE407AD6EE877A35EEE77A17EE5F
:105A3000102AC2F3C752A41A192C3ADC85ED007A59
:105A4000B0EE650AC5E7944270EE277A1ED09FED4E
:105A5000247A77EE876A4FF0FF3377EEE67AC0ED6F
:105A6000006A77EE877AC0ED017A6FE795ED007AEC
:105A7000D5ED017AB1EE477AF1EE677A434285EDD2
:105A8000007AC5ED017A61E703234DE7DFED186A7F
:105A90009FED187A77EEA67A4FF0FF3377EE876A9C
:105AA00077EEE67AC0ED006A77EE877AC0ED017A8C
:105AB0004CE79FED137A9FED135AB0EE650AA6EE00
:105AC000070A75EEC07AE6EE077AD6EE857A7CE7AD
:105AD000D80F493FE3CB1640800FC93FD00FC93FD5
