:10000000F8FF022099010000654200001D42000037
:100010001D4200001D4200001D4200001D42000064
:100020001D4200001D4200001D420000654200000C
:10003000654200001D420000F1400000F541000053
:100040006542000065420000654200006542000014
:100050006542000065420000654200006542000004
:1000600065420000654200006542000065420000F4
:1000700065420000654200006542000065420000E4
:1000800065420000654200006542000065420000D4
:1000900065420000654200006542000065420000C4
:1000A000554E0000614E00006542000065420000B0
:1000B0006542000065420000654200005D2D0000C1
:1000C00065420000054300006542000075300000F5
:1000D00065420000314400006542000065420000B6
:1000E0006542000065420000654200006542000074
:1000F0006542000065420000654200006542000064
:100100006542000065420000654200006542000053
:10011000654200009932000065420000654200001F
:100120006542000065420000654200006542000033
:100130006542000065420000654200006542000023
:10014000654200006542000029450000654200004C
:100150002146000065420000654200006542000043
:1001600065420000654200006D4E000065420000DF
:1001700065420000654200006542000065420000E3
:1001800065420000654200006542000065420000D3
:100190006542000065420000584B4CF2205210B5F9
:1001A0001A804DF628121A8000BF00BF04F05EF8D6
:1001B000534B4FF030621A60524A9A60524ADA60EA
:1001C000524B4FF470021A60514A136813F4807353
:1001D00004D150490B604FF4A85313604E4B1A786A
:1001E000110703D51A7842F008021A704B4B4C499C
:1001F0002A221A704B4A4C4B8B4204D252F8040FFD
:1002000043F8040BF8E7494B494900228B4202D2DC
:1002100043F8042BFAE74749474A002352F82300E2
:1002200041F823000133662BF8D1444B444A802126
:1002300003F8011B9342FBD1424B3E4A1A60424BEA
:100240008A221A70A3F5805324225A70A0221A70B1
:100250009A799207FCD59A79D406FCD43B4A9379D3
:1002600003F00C03082B394BF9D103221A714622F3
:100270005A719A799006FCD5344A9179334B4906E4
:10028000FBD5334A4FF08271116009215160202261
:100290001A709A7902F00C020C2AFAD12D4B2E4AD0
:1002A0001A602E4B2E4A1A6000225A60072243F829
:1002B000042C2C4AC3F80C2D62B602F0D7FB154B68
:1002C0001B68DA0705D5284802F0B0F9274B284A01
:1002D0001A60284B1B785B0609D5244C244B2268F6
:1002E0009A4204D1204802F0A1F90023236007F0CC
:1002F0007FFA03F0C1FF02F095F8FEE70E200540FB
:1003000030800440823F04000100002B88ED00E0B3
:1003100010D0034014D0034002D0074000E0074053
:100320002C11FF1FA0880000F806FF1F2C11FF1FD3
:100330007419FF1F0002FF1F0000000000E400E02E
:1003400056E400E008ED00E00050064000400640A2
:100350004480044004800440C010050014E000E024
:10036000BFD4010000002020060A495D1CE00340C4
:10037000A5C3945A00F00740FFFFFFFFFFFFFFFFF8
:10038000FFFFFFFFFFFFFFFFFFFFFFFFFFFFFFFF7D
:10039000FFFFFFFFFFFFFFFFFFFFFFFFFFFFFFFF6D
:1003A000FFFFFFFFFFFFFFFFFFFFFFFFFFFFFFFF5D
:1003B000FFFFFFFFFFFFFFFFFFFFFFFFFFFFFFFF4D
:1003C000FFFFFFFFFFFFFFFFFFFFFFFFFFFFFFFF3D
:1003D000FFFFFFFFFFFFFFFFFFFFFFFFFFFFFFFF2D
:1003E000FFFFFFFFFFFFFFFFFFFFFFFFFFFFFFFF1D
:1003F000FFFFFFFFFFFFFFFFFFFFFFFFFFFFFFFF0D
:10040000FFFFFFFFFFFFFFFFFFFFFFFFDEF9FFFF23
:1004100010B5054C237833B9044B13B10448AFF33E
:1004200000800123237010BD2C11FF1F000000006D
:10043000A4880000084B10B51BB108490848AFF369
:1004400000800848036803B910BD074B002BFBD0A0
:10045000BDE81040184700BF000000003011FF1F2A
:10046000A48800002C11FF1F00000000F8B5404ECA
:10047000054671683068B768F268C5F82500002441
:100480003069C5F82910C5F82D707169C5F831209B
:100490006027C5F83500C5F839103A4606F118014D
:1004A000C5F80D40C5F81140C5F81540C5F819400C
:1004B000C5F81D40C5F8214005F1400001F0BAFF24
:1004C0003A4606F1780105F1A00001F0B3FF0A27D2
:1004D00014204FF00F0EC5F8184185F8160185F865
:1004E000170185F8180185F82F01C5F80041C5F8F6
:1004F0000441C5F80841C5F80C41C5F8104185F81C
:10050000147185F815E1C5F81C41C5F82041C5F8FE
:100510002441C5F8284185F82C7185F82D7185F89E
:100520002EE1C5F83141C5F83541C5F83941C5F866
:100530003D41C5F84141C5F84541C5F84941C5F8B7
:100540004D41C5F85141C5F85541C5F85941C5F867
:100550005D41C5F86141C5F86541C5F86941C5F817
:100560006D41C5F87141C5F875412846F8BD00BF19
:10057000E081000000B52DED048BB0EE608A8BB0F9
:10058000F0EE400AF0EE408AB0EE480A04F0EEFDCC
:10059000DFED2A7ADFED2A0A20EE270A00F066FA5C
:1005A000284B1A7BB0EE409A12B1274AD2785AB340
:1005B000264BDFED277A93ED000A9FED261A264899
:1005C000B4EEE70AF1EE10FAC8BFDFED1D7AF0EEE7
:1005D000410AC8BF30EE670A01F090FCF0EE400A15
:1005E00028EE088AB0EE480AA8EEA80AB1EEC01AB2
:1005F000B4EE411AF1EE10FA16D1B0EE490A0BB082
:10060000BDEC048B5DF804FB144A127B002ACFD0AA
:10061000DFED0F0A9FED0F1A93ED040A104801F069
:100620006DFCF1EE400ADBE7CDED010A04F022FE9D
:10063000DDED010AB0EE401ADFE700BFE12E6542B2
:100640000000B443C814FF1F8014FF1F1812FF1FBF
:100650000000344300000000B811FF1F0413FF1F07
:10066000F811FF1F10B5574C2DED028B237B88B07E
:1006700063BB554B1A7BAAB9DFED540AB0EE600A92
:10068000FFF778FF8DED050ACDED060A8DED071A0F
:100690009DED050ADDED060A9DED071A08B0BDECDB
:1006A000028B10BD9FED491ADFED490A93ED050A53
:1006B000484801F023FCDFED450AFFF75BFF8DEDB5
:1006C000071A8DED050ACDED060AE1E72046D4EDC7
:1006D000008A9FED418A00F01FFCF0EE480A38EED8
:1006E000800A00F0C3F9384B1A78F0EE408A002AED
:1006F0003FD13A4BDFED3A7A93ED000A9FED331A82
:100700003848B4EEE70AF1EE10FAC8BFDFED327AEE
:10071000F0EE410AC8BF30EE670A01F0EFFBB0EE21
:10072000408ADFED2F7A94ED017A264BB4EEE77A1A
:10073000F1EE10FA36DCD4ED027AF5EEC07AF1EE85
:1007400010FA3CDD9FED286A9FED217AC7EE866A9C
:10075000F7EE007A77EEE67AF2EE046AA7EEA67A72
:10076000F0EE477ACDED058A8DED068ACDED077A5C
:100770008EE71E4AD278002ABBD093ED010ADFED46
:10078000187A9FED121A1A48B4EEE70AF1EE10FA41
:10079000C8BF30EE480AF0EE410A01F0AFFBB1EEFF
:1007A000408ABEE793ED001A9FED080AF1EE040AB5
:1007B00000F04AFA0028BED0DFED0E7AD2E7F1EE63
:1007C000677ABFE70413FF1FC814FF1F0000000073
:1007D00000002042D811FF1F0000B4431812FF1F71
:1007E00000003443B811FF1F0000B4428014FF1F03
:1007F0004811FF1F0000704200B52DED028B0F4A1B
:100800000F4B92ED008A87B00122DA70FFF72AFFC2
:10081000F0EE607AF0EE411AF0EE400AB0EE671AA0
:10082000B0EE480A074800F019FF074801F0D4F974
:1008300007B0BDEC028B5DF804FB00BF1812FF1F70
:100840008014FF1F2C12FF1F8811FF1F08B54FF4E3
:10085000FA7002F0BDF80A4801F02AF9094801F0DF
:10086000D7FA094800F0AEFF084800F071FC0848CC
:1008700001F04EF90748BDE8084000F001BA00BF9A
:100880001812FF1FC814FF1F8014FF1F2C12FF1F18
:100890008811FF1F0413FF1F38B50D4D0D4C28465E
:1008A00001F07CF80C4801F0B7FA95ED000A0B480E
:1008B00000F094FC204600F00BFAFFF79DFFD4ED0A
:1008C000010A94ED000A0648BDE8384001F000B87E
:1008D0001812FF1F0413FF1FC814FF1F2C12FF1F45
:1008E0008014FF1F38B54A4D2DED028B01F038FD05
:1008F0009FED488A484BDFED498A83ED048A002446
:100900004FF47A61281D2C80AC70EC7000F022FF4F
:100910004FF47A7105F114002C736C73EC812C7414
:100920006C7400F017FF0A2105F11C0000F012FFA3
:100930003B48AC8401F06AFA3A4800F077FB3A4A47
:100940003A4BD2F8D80018601146D2F8DC00586053
:10095000D2F8E000986051F8E40F1C6249685C62CC
:1009600003F10C0203C2B0EE481AF0EE480AF0EEB2
:10097000681AB0EE080A2E489C62DC6201F0ACFAFC
:10098000B0EE481AF0EE480AF3EE0E1AB7EE000A7F
:10099000284801F0A1FAF0EE681AB0EE481AF0EE1D
:1009A000480AB8EE000A244801F096FAB0EE481A58
:1009B000F0EE480AF3EE0E1A9FED200A204801F0EF
:1009C0008BFAF0EE681AF0EE480A9FED1E1A1E48E8
:1009D000B7EE000A01F080FAF0EE681AF0EE480A6D
:1009E000B5EE001AB7EE000A184801F075FAF0EEFD
:1009F000681AF0EE480AB0EE001AB0EE080A144881
:100A000001F06AFA1348FFF731FDBDEC028B38BDE7
:100A10008014FF1F000000001812FF1F0000C842D2
:100A2000C814FF1F2C12FF1FE08100008811FF1F58
:100A3000E414FF1FD811FF1F6811FF1FCDCCCC3D60
:100A4000A814FF1FCDCC4C3DB811FF1F4811FF1F4C
:100A5000F811FF1F0413FF1FB5EEC00AF1EE10FAE4
:100A6000ACBF01204FF0FF30704700BF00B52DED47
:100A7000028B10EE900A85B0B0EE608A8DED030A0D
:100A800006F034FB9DED030ACDE9000110EE100ADB
:100A900006F02CFB9DED001B41EC100B04F0FAFA64
:100AA00051EC100B06F04EFE00EE100AB5EEC00A37
:100AB000F1EE10FA48BF38EE000A05B0BDEC028B2B
:100AC0005DF804FBFFFFFFFF70EEC07A08B517EE7C
:100AD000900A06F00BFB9FED0C1B41EC100B04F091
:100AE000D9FA51EC100B06F02DFE00EE100AB5EE0F
:100AF000C00AF1EE10FA44BFDFED057A30EE270AA6
:100B000008BD00BFAFF30080000000000080764009
:100B10000000B443FFFFFFFF00B52DED028B70EE28
:100B2000C07A83B017EE900A06F0E0FA9FED1A1B28
:100B300041EC100B04F0AEFA51EC100B06F002FE83
:100B400008EE100AB5EEC08AF1EE10FA44BFDFEDF0
:100B5000147A38EE278ADFED127A77EEC87A17EE2C
:100B6000900A06F0C3FACDE9000118EE100A06F06B
:100B7000BDFA9DED001B41EC100B04F031FA51EC75
:100B8000100B06F0DFFD00EE100A03B0BDEC028B87
:100B90005DF804FBAFF300800000000000807640A9
:100BA0000000B443FFFFFFFF08B570EEC07A2DEDE3
:100BB000028B17EE900AB0EE408A06F097FA9FED8E
:100BC0001A1B41EC100B04F065FA51EC100B06F007
:100BD000B9FD07EE900AF5EEC07AF1EE10FA44BFC7
:100BE0009FED137A77EE877AB6EE007AA7EE878AC2
:100BF00018EE100A06F07AFA9FED0B1B41EC100B71
:100C000004F048FA51EC100B06F09CFD00EE100ABF
:100C1000BDEC028BB5EEC00AF1EE10FA44BFDFED79
:100C2000047A30EE270A08BD0000000000807640FC
:100C30000000B44390FBF1F303FB1100030648BF2F
:100C40004018C0B2704700BFB4EEE00AF1EE10FAEF
:100C5000B4EEC10A0AD5F1EE10FA0CD5F4EEC10AD1
:100C6000F1EE10FACCBF012000207047F1EE10FA2F
:100C7000F4D5012070470020704700BF01F070BB21
:100C8000F8B500F124060446354600F13C0715F896
:100C9000010F002101F074FEBD42F8D1002001F0E7
:100CA000A7FB50B104F1FF0204F10C0312F9011F7C
:100CB00003F8011FB342F9D1F8BD04F2171204F191
:100CC0000C0312F9011F03F8011F9E42F9D1F8BD70
:100CD0002DE9F84F2DED028B90F83081074600F199
:100CE000240900F5987400F13C05CB462646A2463F
:100CF0001BF8010F01F036FE1AF8013FC0F10100A8
:100D000018445D458AF80000F2D197F8303108F1B7
:100D100001080133B8F5807F87F83031E5D107F558
:100D2000A478404607F10D0207F1250E2146002563
:100D300011F8013F1BB192F800C06344DBB20132ED
:100D400096450B7000F8015FF2D1002507F5B079E8
:100D500007F2491C07F2611A607804F1010E42465D
:100D6000002302E00133182B20D012F8011F81422A
:100D7000F8D2AB4215DC172D00F0AE8004F11A0258
:100D80000CEB030012F8011D51708242FAD132348B
:100D90000AEB030114F8012D62708C42FAD19EF81F
:100DA00000003B4483F8490183F861510135182D57
:100DB0007446D1D197F84A4197F8492197F84B01E9
:100DC00097F84C114F4D4FEA440E032313FB02E3F7
:100DD00003440B4485FB03E51D44DB17C3EBA5036C
:100DE00007EE903AF8EEE77AF5EE407AF1EE10FA77
:100DF00014BF01230023C7ED017A3B7313D1BFEE6B
:100E0000000A002387ED000A87F83031424606F8D1
:100E1000013FB04502F8013F09F8013FF7D1BDECB1
:100E2000028BBDE8F88F97F8615197F862319FED1A
:100E3000368A07EE902A07EB8505D5ED285AD5EDC1
:100E4000100A97F86351F8EEE77A07EE104A07EBBD
:100E5000830393ED106AD3ED286A97F86431B8EEF6
:100E6000C77A67EEA00A67EEA57AE7EE060A07EBF7
:100E7000850207EB8303E7EE267A07EE100AD2ED30
:100E8000104A92ED285AD3ED105A93ED286AF8EEE5
:100E9000C76A07EE101AE6EEA40AE6EE857AB8EE07
:100EA000C77AB5EE000AE7EE067AE7EE250A60EEAD
:100EB000800A27EE800A04F059F99FED147ADFEDDD
:100EC000147AE0EE077AF0EE480AB0EE670AFFF710
:100ED000CDFD38EE400A94E7172B3FF462AF4A4647
:100EE0000CEB030112F8010D50708A42FAD107F59C
:100EF000BC720AEB030112F8010D50709142FAD155
:100F00004DE700BF932449920000B443E12E6542AF
:100F10000000B4C2FFFFFFFF30B5DFED3D7A90ED7A
:100F2000000AB4EEE70AF1EE10FA2DED048BC8BF0B
:100F3000DFED387A83B0C8BF30EE670A0446FFF7AA
:100F40008BFDDFED350A94ED000A0546FFF7E4FD61
:100F5000F5EE007A20EE270A04F00AF9DFED2F7A89
:100F600060EE277A17EE900A06F0C0F89FED260B88
:100F700041EC110B04F034F853EC102B2846CDE96A
:100F8000002306F0A1F8DDE9002306F003F906F0DE
:100F9000D9FB94ED017ADFED227A87EE278A09EEFC
:100FA000100AB5EEC08AF1EE10FA21D4F7EE008AED
:100FB000B4EEE88AF1EE10FA09DDB0EE680A20EE30
:100FC000090A84ED020A03B0BDEC048B30BDB1EE1A
:100FD000020A28EE000A04F0CBF8DFED127A28EEC0
:100FE000278A28EE000AB5EEC00AF1EE10FA02D503
:100FF0009FED090AE3E7B4EE680AF1EE10FAC8BF04
:10100000B0EE680ADBE700BF000000000080564039
:10101000000034430000B44300000000CDCCCC3EBF
:1010200000000C430AD7A33C01F09AB9F8B501229D
:101030001E4B0272044603604360202200210930E7
:1010400006F0BEFE1A490B460F6853F8086F09797F
:101050005D689868C4F8297084F82D104327D96812
:1010600084F82E70C4F82F6040271E69C4F83350EE
:10107000C4F837005D699869C4F83B10D969C4F8B1
:101080004700C4F84B103A46C4F83F60C4F84350D8
:1010900004F15000002106F093FE3A4604F190005E
:1010A000002106F08DFE2046F8BD00BF000080BF85
:1010B000CC8200002DE9F0414318B7EE007A93F896
:1010C0002F3007EE903AF8EE677A82B0F4EEC77AE6
:1010D0000D46F1EE10FA4FF0000104468DF80410B1
:1010E000009117DB0423F6EE006ABCEEE76A67EEB8
:1010F000A67A16EE102A02A91944F4EEC77A02F075
:101100000102013BF1EE10FA01F8082CDBB2ECDA37
:101110009DF8001004F128080026013618F8010F88
:1011200001F01AFC052E6F4608D017F8011F18F8B9
:10113000010F013601F010FC052EF6D194F82E00B7
:1011400001F054F8483524F8150002B0BDE8F081EC
:101150002DE9F047064600F1280400F12D0514F8AA
:10116000010F012101F00CFCA542F8D1002196F8F5
:101170002E00DFF8648001F003FC06F14E05002725
:101180005FFA87F94FF00A0A002449463046FFF714
:1011900091FFB5F842200AF1FF33144413F0FF0A1F
:1011A000A4B2F2D1A8FB0434C4F3CF0407EE904AF2
:1011B000F8EEE77AB6EE007A77EE877A0137FDEE41
:1011C000E77A202F17EE903A03F5967325F8023F41
:1011D000D6D1BDE8F08700BFCDCCCCCC2DE9F04313
:1011E0002DED068B00F1080583B00646F0EE409A1F
:1011F000A94600F18E0800F14E070024E1B2304606
:10120000FFF758FF38F8023F37F8022F01349342B6
:1012100094BF00230123202C09F8013FEED10024C4
:10122000012701E0202C18D015F8013F0134002BD4
:10123000F8D1A01E40B22021FFF7FCFC3044437AD5
:10124000002BEFD0202160B2FFF7F4FC3044437A4A
:10125000002BE7D0202C2F70E6D1C04A0023106865
:10126000009001901C4606F1090201210CE002AD3C
:101270002F19651C18B107F8083CECB200210133A6
:10128000202B02F1010210D010780029EFD10028A4
:10129000F5D102A9581E21440133202B01F8050C79
:1012A00002F101024FF00101EED196F8283023B18E
:1012B00002AA22441F2102F8051C012C40F2B5802D
:1012C000727A002A40F0A0809DF900309FEDA48A38
:1012D00008EE903A9DF9043009EE103AF8EEE88AEB
:1012E000B8EEC99A68EE888A29EE089AB0EE680AC4
:1012F000F0EE490AFFF758FC9DF9053000EE903AF0
:101300009DF90130B0EE40AA00EE103AF8EEE00A86
:10131000B8EEC00A60EE880A20EE080AFFF744FC27
:101320009DF9063000EE903A9DF90230F0EE40AAA9
:1013300000EE103AF8EEE00AB8EEC00A60EE880A55
:1013400020EE080AFFF730FC032CB0EE408A00F0D4
:101350001781022C00F0968086ED34AAF0EE490A3F
:10136000B0EE680AFFF7B0FBF6EE007A9FED7D7AEB
:1013700020EE270A60EE077A17EE900A05F0B6FE17
:1013800041EC100B03F0CCFD002053EC102B764900
:1013900005F04CFD06F0D6F996ED348AC6F8D40077
:1013A000FFEE007AB4EE678AF1EE10FA00F04F819A
:1013B00038EE290ADFED6D0AFFF758FB337AF0EEBD
:1013C000408A002B40F08980D6ED017AB0EE087A91
:1013D000F4EE477AF1EE10FA3FD19FED680ADFEDA7
:1013E000630A38EE800AFFF741FB96ED357A86ED09
:1013F000000AF0EE007A77EEC77AC6ED017A03B004
:10140000BDEC068BBDE8F083002B3FF45DAF013CE3
:1014100002AB2344FF2213F9081C8DF80010E4B23C
:1014200003F8082C03F8042C4EE7002C40F014813C
:10143000327A4F4BC6F8D030C6F8D430002ADED10D
:10144000D6ED017AB0EE087AF4EE477AF1EE10FAB2
:10145000D5D0FFEE008AB0EE688ABFEE007AB4EE17
:10146000478AF1EE10FA44D1F7EE006AF4EEE67A1C
:10147000F1EE10FA51D93F4B736003B0BDEC068B0F
:10148000BDE8F083F0EE6A0AB0EE4A0AFFF71CFBF3
:10149000DFED3A7AB4EEE70AF1EE10FA95BFF0EE1E
:1014A0006A0AF0EE4A0AB0EE4A0AB0EE6A0AFFF79C
:1014B0007BFBF0EE6A0A86ED340AB0EE4A0AFFF7CB
:1014C00003FBDFED2E7AB4EEE70AF1EE10FA40D816
:1014D000F0EE6A0AB0EE4A0A44E7D6F8D42086ED68
:1014E000000A00237260337203B0BDEC068BBDE8C6
:1014F000F083D6ED000AB0EE680AFFF70DFBDFEDD2
:101500001E7AB4EEE70AF1EE10FA3FF666AFD6F8AF
:10151000D430C6ED008A736071E7012386ED007A4E
:1015200086ED017A33726AE7F0EE4A0AB0EE6A0A93
:10153000FFF73AFBF0EE4A0A86ED340AB0EE6A0A8B
:10154000FFF7C2FADFED0D7AB4EEE70AF1EE10FA1A
:101550005BD8F0EE4A0AB0EE6A0A03E7F4820000B4
:101560000000344135FA8E3C0000F03F0000B443E7
:10157000000080BF000040400000B442000034433F
:10158000F0EE6A0AB0EE4A0AFFF79EFAF0EE480A59
:10159000B0EE409AB0EE6A0AFFF796FAF0EE4A0A09
:1015A000F0EE408AB0EE480AFFF78EFAF4EEC08AF9
:1015B000F1EE10FAB4BFF0EE407AF0EE687AB4EED5
:1015C000679AF1EE10FAA8BFF0EE497AB4EE679A86
:1015D000F1EE10FAA8D0F4EE678AF1EE10FA17D106
:1015E000F0EE6A0AB0EE480AFFF7DEFAF0EE6A0A99
:1015F00086ED340AB0EE480AFFF766FA5FED217A0D
:10160000B4EEE70AF1EE10FA1CD94FF07E50C3E6B3
:10161000F0EE480AB0EE4A0AFFF7C6FAF0EE480AC2
:1016200086ED340AB0EE4A0AFFF74EFA5FED2D7AE6
:10163000B4EEE70AF1EE10FAE7D8F0EE480AB0EEA1
:101640004A0A8FE6F0EE6A0AB0EE480A8AE6337A72
:10165000002B3FF4F5AED2E6012435E6F0B58FB0AD
:101660008DED061ACDED071ACDED050A05AA034644
:1016700007CA1D7A08AC84E807004DBBD3ED017A98
:10168000B6EE007AF4EEC77AF1EE10FA10EE102AF8
:101690001F4610EE906A11EE905A1CDCB5EE007AEF
:1016A000F4EEC77AF1EE10FA33DCB0EE600A8DED9D
:1016B000080ACDED0A1A94E807000EAB03E907000B
:1016C0009DED0B0ADDED0C0A9DED0D1A0FB0F0BD7E
:1016D000B0EE600AEBE7D3ED007A9FED170ADFED7D
:1016E000170A37EE800A07EE902A30EE670AFFF7F6
:1016F000BDF9D7ED016ADFED127ADFED121AB6EE11
:10170000087AF4EEC76AF1EE10FAC8BFF0EE671A75
:10171000CDE793ED000AFFF7FFF9DFED0B7ADFED80
:101720000B1AB4EEE70AF1EE10FA00EE106A58BF99
:1017300001EE905ABBE700BF000034430000B44301
:101740000000C8420000204200007042000000007B
:1017500000F006BE01607047034B82B01B68019326
:10176000019B436002B070470C15FF1F10B40C4A78
:1017700083B01368009390E81200009B1B1B8B4200
:1017800008D913680193019B4360012003B05DF801
:10179000044B7047002003B05DF8044B704700BF56
:1017A0000C15FF1F064B82B01B68019305C8019BF7
:1017B0009B1A834294BF0020012002B0704700BFF3
:1017C0000C15FF1F43F2D40001F0A0BB10B5044676
:1017D000FF2001F0E9FBFF2001F0E6FB2088000A72
:1017E00001F0E2FB207801F0DFFBA07801F0DCFBE8
:1017F000E078BDE8104001F0D7BB00BF70B51F4BCB
:1018000082B005461868019001F0D8FB052801DC7C
:1018100002B070BD01F0E2FB0446E4B201F012FC3C
:10182000FF2CF5D1C0B2FF28F2D101F0D7FB01ACFB
:1018300002AE01F0D3FB04F8010BB442F9D105F17B
:101840001400FFF789FF9DF804009DF805309DF80E
:101850000720697C9DF806402C7443EA0023101C85
:1018600018BF0120EB8168740029D1D1002ACFD0A4
:10187000EB78002BCCD001236B73C9E7F882000012
:1018800038B5037B33B1437B3BB9C178427C91428D
:101890000FD038BDC370838438BDC378044600259B
:1018A00083F00103C37045730430FFF755FFA5842F
:1018B00038BD828C642A08D98178027C914288BF25
:1018C0000123C3700023838438BD01328284E0E7A2
:1018D000FCEEC07A10B517EE902AFCEEE07A0446D2
:1018E00017EE903A028083701C30FFF73FFF68B913
:1018F0002046FFF783FF2046FFF7C2FF04F11400E4
:10190000FFF750FF80F00100207310BD2046FFF765
:101910005DFFEDE700F024BD30B58DB008AB0E22C1
:101920003B21682003F0A8FA9DF828409DF821305B
:101930009DF82A509DF82B209DF82C009DF82D1025
:101940009FED147A9FED141A43EA042342EA05221C
:101950005B4241EA00211BB2524212B200EE103A41
:101960000BB200EE902A07EE903AF8EEE00AB8EEDD
:10197000C00AF8EEE77A60EE870A20EE070A67EE03
:10198000877A60EE810A20EE010A27EE811A0DB0F7
:1019900030BD00BF00007A440000003830B52DEDA6
:1019A000028B87B00446FFF7B7FFB0EE418A8DED9A
:1019B000030A8DED051ACDED040A00F0E7FF636818
:1019C000DFED186A94ED031A174A94ED000A1168C6
:1019D0000191C31A07EE903AF8EEE77A38EE418AA1
:1019E00087EEA67A019BA1685B1A642B0546A7EED9
:1019F000480A84ED000A09D9D4ED047A13680293E9
:101A000030EE270A029BA36084ED000ADFED070A8F
:101A1000FFF72CF8656084ED000A07B0BDEC028B7F
:101A200030BD00BF002474490C15FF1F0000B443F3
:101A300030B52DED028B054685B014242846FFF7FE
:101A40006BFFD5ED037A8DED031A37EE811A322044
:101A500085ED031A8DED010ACDED020A00F0B8FF05
:101A6000631E13F0FF04E9D1D5ED036AB3EE047AE7
:101A7000C6EE877A2846C5ED037AFFF78FFF64200C
:101A800095ED008A00F0A4FF2846FFF787FF074B7B
:101A9000D5ED007A1B68009377EEC87A009BC5ED00
:101AA000047AAB6005B0BDEC028B30BD0C15FF1F96
:101AB00010B50446144802F0DDFE06221D21682000
:101AC00003F014FA06221A21682003F00FFA1022FC
:101AD0001B21682003F00AFA00221C21682003F071
:101AE00005FA02223721682003F000FA16220A21A3
:101AF0000C2003F0FBF900F049FF60602046BDE8D0
:101B00001040FFF795BF00BFA807FF1F00F028BCDB
:101B100038B5044600252078012100F031FF2079F6
:101B2000012100F02DFF207A012100F029FF20780B
:101B3000012100F011FF012120790D4400F00CFF7C
:101B4000207A002100F084FD042D04F10104E2D18B
:101B500038BD00BFDFED1E7A70B560EE277A82B027
:101B6000F5EE407AF1EE10FA0B462DD0F5EEC07A84
:101B7000F1EE10FA9FED177AD8BFF1EE677AF4EE26
:101B8000C77AF1EE10FA48BFFCEEE77AB5EEC00A6C
:101B900046BFCDED017A9DF80450FF25F1EE10FA15
:101BA000CCBF0121002181F00106C418C05C00F007
:101BB000D3FE3146207900F0CFFE207A294602B0CC
:101BC000BDE8704000F044BD012631460025ECE739
:101BD0003333234000007F432DE9F047D0ED057AF1
:101BE0002DED048BF4EE407A88B0F1EE10FA8DED15
:101BF000010ACDED020A8DED031A07D1D0ED067A68
:101C0000F4EE607AF1EE10FA00F09480B5EE401A2E
:101C1000F1EE10FAB0EE418A10EE906AF0EE408AD2
:101C20000546CDED040ACDED050ACDED060ACDED54
:101C3000070A0FD1B0EE600A04AF0024E1B22846D3
:101C40000134FFF787FF042C00F08180043797ED03
:101C5000000AF3E704AF9FED6B9A3C46BA4600F1E9
:101C60000A0800F1120938F8023F5A3307EE903A99
:101C7000F8EEE77A77EEE87A67EE897A17EE900A5F
:101C800005F034FA41EC100B03F04AF951EC100B5B
:101C900005F058FDC8454AF8040BE4D1DDED047A9F
:101CA0009DED056A9DED067AF5EEC07AF1EE10FA2B
:101CB000B5EEC06AD4BFF1EE676AF0EE676AF1EE86
:101CC00010FAD8BFB1EE466AF4EE466AF1EE10FAA9
:101CD000B5EEC07AA8BFB0EE666AF1EE10FADDED9F
:101CE000076AD8BFB1EE477AB4EE467AF1EE10FA41
:101CF000F5EEC06A98BFB0EE467AF1EE10FAD8BFA2
:101D0000F1EE666AF4EE476AF1EE10FA98BFF0EE73
:101D1000476A08AA3B4668EE277A87EEA67A07EE5E
:101D2000906A77EE277AE3EC017A9A4219D0D3EDE4
:101D3000007AF0E7D0ED077AF4EE417AF1EE10FA8E
:101D40007FF464AF08B0BDEC048BBDE8F087C5ED4F
:101D5000058AAE6185ED078A08B0BDEC048BBDE84D
:101D6000F087DDED047ADDED056A9DED067AF5EE8E
:101D7000C07AF1EE10FAF5EEC06AD4BFB1EE676A30
:101D8000B0EE676AF1EE10FAD8BFF1EE666AB4EE13
:101D9000666AF1EE10FAB5EEC07AA8BFF0EE466AB8
:101DA000F1EE10FA9DED076AD8BFB1EE477AB4EEB6
:101DB000667AF1EE10FAB5EEC06A98BFB0EE667AB8
:101DC000F1EE10FAD4BFF1EE466AF0EE466AF4EE98
:101DD000476AF1EE10FA98BFF0EE476A88EE267A6D
:101DE00067EE877AE4EC017AA24207D0D4ED007A5C
:101DF00067EE877AE4EC017AA242F7D19DED040AFE
:101E00001BE700BF35FA8E3C00F0AABA704700BF4E
:101E100040F6230000F0BEBE70B52DED028B0546E6
:101E200000F040FF072802DCBDEC028B70BD00F023
:101E300049FF0446E4B200F079FFFF2CF4D1C0B2B0
:101E4000FF28F1D100F03EFF00F03CFF044600F017
:101E500039FF240204F47F44C0B2204307EE900A05
:101E60009FED1B8AF8EEE77AF4EE487AF1EE10FA6D
:101E700014BF012300232B70C5ED017A00F022FF6F
:101E800007EE900AF8EEE77AC5ED027A00F01AFF45
:101E9000064600F017FF3602044606F47F46E4B219
:101EA000344300F00FFF07EE904AF8EEE77A07EEB2
:101EB000100AF4EE487AF1EE10FAB8EEC77A14BFC1
:101EC00001230023C5ED047A2B7385ED057AABE77A
:101ED00000FF7F4700F044BA10B5002380ED000AF0
:101EE000C0ED010A80ED021AC0ED051A0361044637
:101EF00000F04CFDE060204610BD00BF10B5044668
:101F00002DED028B30EEC08AF0EE418A00F03EFDEE
:101F1000E368E060C01A07EE100A9FED2A6AD4ED6C
:101F2000067AB8EE477AF5EE408AC7EE066A94ED77
:101F3000047AE8EE267AF1EE10FAC4ED067A38EE6D
:101F4000477A08D0B1EE686AB4EEC67AF1EE10FABC
:101F50002BD537EE287AB1EE477A87EE266A94EDD4
:101F6000010AD4ED005A94ED057AD4ED026A84EDAD
:101F7000048A27EE800AB5EE407AA8EE250AF1EE33
:101F800010FAA6EE660A0DD0F1EE477AB4EEE70A33
:101F9000F1EE10FA11D4B4EE470AF1EE10FAC8BF10
:101FA000B0EE470ABDEC028B10BDF4EEC78AF1EE2D
:101FB00010FA48BF37EE687ACDE7BDEC028BB0EE81
:101FC000670A10BD00247449374A384913681B0654
:101FD000FCD40B6813F08003F8D172B634490A7848
:101FE000002A5FD0334A3448F0B4344C176806688E
:101FF0002568D4680C303E44143200681268304FB3
:1020000035442C4420440244C2F34E022D4E2E4847
:102010002E4D2F4C42F400423A60376806682D6816
:102020002C4A24680C303E44006812682A4F35441C
:102030002C4420440244C2F34E02284E2848294D25
:10204000294C42F400423A60376806682D68274AF6
:1020500024680C303E4400681268254F35442C44F7
:1020600020440244C2F34E02224E2348234D244C06
:1020700042F400423A60376806682D68214A2468B5
:102080000C303E440068126835442C44204402441D
:10209000C2F34E021C4842F4004202600B7062B66A
:1020A000F0BC704762B6704724B0034024B00B40C8
:1020B0000515FF1F38B003403CB0034040B003405B
:1020C0002CB0034058B003405CB0034060B0034004
:1020D00064B003406CB0034030B0034038B00B40F4
:1020E0003CB00B4040B00B4044B00B404CB00B40F8
:1020F0002CB00B4058B00B405CB00B4060B00B40B4
:1021000064B00B406CB00B4030B00B4030B4294889
:10211000294A2A4B2A4D6024E121047011701B7852
:10212000284C082B30D00A2B2748284937D00C2BB5
:102130000CBF35225D2212232A60236002600B60EF
:10214000234B24491B78244ABBB101230B60136045
:10215000224B23491B78234A012B26D9042B0FD964
:10216000082B1ED9102B94BF862387230B60136086
:102170001D4B01221A7030BC70470B601360E7E7FB
:1021800084230B601360F3E700F58E200F490830BD
:10219000212213232A60236002600B60D0E73922DA
:1021A000F7E785230B601360E2E780230B60136081
:1021B000DEE700BF0040074001400740F806FF1F70
:1021C00008B003400CB0034008B00B400CB00B400B
:1021D0000815FF1F20B0034020B00B40F906FF1F79
:1021E00024B0034024B00B400515FF1F47282FD80B
:1021F000334B2DE9F0411E5CFF2E2BD0314B1B7869
:10220000002B2AD132062CD472B62F4D2F4C2F46DC
:10221000012326602B7062B672B623681B060CD4AD
:102220003B781BB9F4E72B78002BF1D062B601F0B4
:102230008DFE72B623681806F5D5254B1B68002263
:102240002A7062B6234A107843FA00F0BDE8F081A4
:10225000002070470020BDE8F081FFF7B5FE320690
:10226000D2D572B61C4DDFF87C801C4C06F04007BE
:10227000FFB206F03F06D8F80030DFB123F01003BC
:10228000C8F8003001232660134A2B7062B672B67C
:10229000236819060CD413781BB9ECE72B78002BB4
:1022A000E9D062B601F052FE72B623681B06F5D57E
:1022B0000B4BC3E743F01003C8F80030E2E700BF60
:1022C000FC8200000515FF1F0715FF1F00B003402B
:1022D00010B003400415FF1F0615FF1F00B00B4090
:1022E00010B00B400CB00B400A4A0B49136843F482
:1022F000805313600B7843B9084BC0221A70084B07
:1023000080F30C0000B218807047044B80221A70D2
:10231000F5E700BF2C8004400815FF1F21C00C40CA
:1023200000C00C400A4A0B49136843F40053136081
:102330000B7843B9084BC0221A70084B80F30C008D
:1023400000B218807047044B80221A70F5E700BF76
:102350002C8004400815FF1F21D00C4000D00C40F9
:10236000F0B51B4B1B4E596818689A68DB6885B03E
:102370006C460FC4337899071DD5174A174C13784C
:10238000174913F0700318BF1370164A164B8027B5
:10239000177000261220052226706D4608701A70EC
:1023A00072B6043C45F001052046A84762B6237882
:1023B00013F0700309D10D4B064901E0013B02D037
:1023C0000A78D207FAD505B0F0BD237005B0F0BD8C
:1023D000448300000100024000000240040002406B
:1023E0000B000240070002400A000240410D0300BA
:1023F000B0F5805F0AD210B5094B1B78DB070446A5
:1024000006D504F1A0500078C0B210BD002070477E
:10241000FFF7A6FF04F1A0500078C0B210BD00BFC6
:102420000100024008B5FEF711FAFEF735FA01F097
:102430008DFDFAE7844641EA000313F003036DD1F2
:10244000403A41D351F8043B40F8043B51F8043B77
:1024500040F8043B51F8043B40F8043B51F8043B7E
:1024600040F8043B51F8043B40F8043B51F8043B6E
:1024700040F8043B51F8043B40F8043B51F8043B5E
:1024800040F8043B51F8043B40F8043B51F8043B4E
:1024900040F8043B51F8043B40F8043B51F8043B3E
:1024A00040F8043B51F8043B40F8043B51F8043B2E
:1024B00040F8043B51F8043B40F8043B51F8043B1E
:1024C00040F8043B403ABDD2303211D351F8043BBE
:1024D00040F8043B51F8043B40F8043B51F8043BFE
:1024E00040F8043B51F8043B40F8043B103AEDD26D
:1024F0000C3205D351F8043B40F8043B043AF9D2BE
:10250000043208D0D2071CBF11F8013B00F8013B90
:1025100001D30B8803806046704700BF082A13D39D
:102520008B078DD010F003038AD0C3F10403D21AB5
:10253000DB071CBF11F8013B00F8013B80D331F8E9
:10254000023B20F8023B7BE7043AD9D3013A11F869
:10255000013B00F8013BF9D20B7803704B784370D4
:102560008B7883706046704710B4114B53F830205D
:1025700092F8804234B1012379B182F880305DF85D
:10258000044B704703EBC0035B681A6851B922F033
:1025900002021A605DF8044B704782F800315DF862
:1025A000044B704742F003021A605DF8044B704719
:1025B000548300001C4A02EBC00301295B6811D060
:1025C00004291BD052F83000002280F8802229B163
:1025D000022920D0032922D01A6070474FF480725C
:1025E0001A60704752F830004FF4A27280F88012DF
:1025F0001A601A6822F020021A60704752F83010F0
:102600004FF4A272012081F880021A601A6842F029
:1026100020021A60704740F203121A6070474FF4AC
:1026200081721A60704700BF5483000030B4054BBC
:10263000054D064C002210211A602A6020601960A6
:1026400030BC704714D0034004D0034000D0034096
:1026500038B5A0F14203012B04461FD9002975DDCE
:10266000904B1B78012505FA03F28A4202D83F28D5
:1026700027D938BDC21E012A2BD9A0F11D02012A7B
:1026800073D90E2856D9A4F12302032A57D9864AB2
:10269000126802FB011222FA03F320E0814B1B783F
:1026A0000B2B0AD90C2B1CBF0C3B1941422C0846A2
:1026B00057D0BDE83840FFF735BEC3F10C03994051
:1026C000F4E72946FFF750FF2946BDE83840FFF7F9
:1026D00071BF764A126802FB011222FA03F3A21EAE
:1026E000242A00F2D580DFE812F0CC00C500BE003D
:1026F000B700B000A900A2009B009400D300D30053
:10270000D3008D00D300D300D300D300D3008600C4
:102710007F0078007100D300D300D300D300D30032
:102720006A006300D300D300D300D3005C005500DF
:102730004E00470044F28412C240D207A3D55C4A3F
:10274000126802FB011222FA03F3C8E73F2890D86F
:102750000021FFF709FF20460121BDE83840FFF7BF
:1027600029BFBDE83840FFF7BFBD524A126802FBDF
:10277000011222FA03F3B2E74F49504A0B604FF4BB
:102780005173136038BD4E494E4A0B604FF451737C
:10279000136038BD4C494D4A0B604FF451731360C0
:1027A00038BD4B494B4A0B604FF45173136038BD31
:1027B00049494A4A0B604FF45173136038BD484988
:1027C000484A0B604FF45173136038BD4649474A7D
:1027D0000B6040F24443136038BD4549454A0B60E5
:1027E00040F24443136038BD4349444A0B6040F211
:1027F0004443136038BD4249424A0B6040F24443AF
:10280000136038BD4049414A0B6040F244431360B5
:1028100038BD3F493F4A0B6040F24443136038BD26
:102820003D493E4A0B6040F24443136038BD3C4989
:102830003C4A0B6040F24443136038BD3A493B4A7E
:102840000B6040F24443136038BD3949394A0B608C
:1028500040F24443136038BD3749384A0B6040F2B8
:102860004443136038BD3649364A0B604FF4517308
:10287000136038BD3449354A0B604FF4517313600F
:1028800038BD3349334A0B6040F24443136038BDCE
:102890003F2C3FF6EEAE7F29D4BF00210121204618
:1028A00057E700BFFA06FF1F088003400890034067
:1028B00008900B4008800B4048900B402CB004401F
:1028C00040900B4028B0044038900B4024B00440A6
:1028D00030900B4020B0044018800B404CA00440C6
:1028E00010800B4048A004401880034008B004400A
:1028F0001080034004B004404080034018C00440EE
:102900003880034014C0044018900B4004C00440B9
:102910002880034010B00440208003400CB00440E5
:1029200028900B400CC0044020900B4008C004408D
:102930003080034010C00440488003401CC0044065
:1029400018900340349004401090034030900440AD
:1029500010900B4000C004403F2801D8FFF704BE90
:10296000704700BF3F2806D8044B53F8303093F827
:102970000002C0B270470020704700BF54830000BF
:102980003F2801D8FFF716BE704700BF72B60C494A
:102990000C4B0D4A1B680868126862B6520102D5DA
:1029A000322B88BF01300949C3F5EA334FF47A72FC
:1029B000BF33A1FB031302FB00F000EB9310704741
:1029C0000C15FF1F18E000E004ED00E089888888FE
:1029D0002DE9F843054672B6204F214B214A1B686A
:1029E0003C68126862B6520102D5322B88BF0134AE
:1029F00095B3C3F5EA331C4EDFF86490DFF86480CA
:102A0000BF334FF47A72A6FB031302FB04F404EB0A
:102A1000931472B6D9F800103A68D8F800E062B69C
:102A2000C1F5EA33BF33A6FB03031EF0806FC4EB8E
:102A300093134FF47A7002D0322988BF013200FB21
:102A40000233B3F57A7F04D3013D05D004F57A74DF
:102A5000DFE701F07BFADCE7BDE8F8830C15FF1F28
:102A600018E000E004ED00E089888888F8B53E4B66
:102A70003E49DFF818C13E4E3E4ADFF814E13E4DB4
:102A80003E4C3F4F4FF0006018604FF08050186090
:102A90004FF0005018604FF0804018604FF0004039
:102AA00018600020086028234EF6FF71CCF8001053
:102AB000CEF8003033600EF5012E13602B602360DA
:102AC00005F500253B6004F50024B36207F50027F7
:102AD000936206F5012602F501220EF1100E05F6AD
:102AE000E87504F6E87407F57F67103220362B602E
:102AF0002360CEF800303B6013603360214EBB6131
:102B0000936109223260A7F5002706F58056203F21
:102B1000083638603160BB60F36047F8042C06F576
:102B2000FD2607F5FE2706F2FC7604373060396093
:102B3000B360FB6046F8042C0836C7F8FC0F06F6B5
:102B4000FC76114831602B6023600260FFF7DEFAEB
:102B50001920FFF73DFF01F007F940F21310BDE81F
:102B6000F840FFF735BF00BF04E100E004800340F8
:102B7000148003401C800340248003402C800340C9
:102B8000348003400080034000900B4008800340E5
:102B90000C800340324A33491368F0B543F4806334
:102BA00013600A78304F314E314D324C3249002398
:102BB000152A3B7033702B7023700B7045D01B2A85
:102BC0003ED082B32D4B1B78052B34D01A2B41D02D
:102BD000012B1BD01F281FD8002002460125284B9F
:102BE000284C1A7028495D7004224FF0020E882785
:102BF0003C26402598729A704FF0004083F813E00D
:102C00005A751F74DE7025700860F0BD1F4B4FF4BD
:102C100051721F281A60DFD9C0F34432C0F3471540
:102C200000F01F00DBE71A4B40F213321A60134B1F
:102C30001B78052BCAD1174B4FF451721A60C9E7A4
:102C4000154B40F213321A60BCE7144B40F21332BA
:102C50001A60B7E7124B4FF451721A60BAE700BF1F
:102C6000348004405815FF1F1415FF1F1515FF1F52
:102C7000A415FF1F9D15FF1F9C15FF1FFB06FF1FBF
:102C800000A006401FE400E000E100E044A0044092
:102C900040A004401CC004403C90044018C00440C4
:102CA00038900440054A064B10781B78C0B2DBB25E
:102CB000984238BF4030C01A704700BF1415FF1F3C
:102CC0001515FF1F30B4154B154C1A782378D2B266
:102CD000DBB29A421ED001333F2B0ED91149124B61
:102CE000087819680023C0B2237021B1D31A1A2BB7
:102CF00001DC00230B7030BC70470A480A49C05CF5
:102D00000968DDB2C0B225700029F4D09A4238BFFC
:102D10004032EBE74FF0FF30EDE700BF1415FF1F27
:102D20001515FF1F5C15FF1F1015FF1F084A094BE3
:102D300012781B78DBB29A4207D00133402B28BFB0
:102D40000023054AD05CC0B270474FF0FF30704797
:102D50001415FF1F1515FF1F5C15FF1FF0B4384B2E
:102D60001A7912F0300F2CD072B6997D01F0FF0263
:102D700000293DD062B6334F334938780D78334E51
:102D80001C46C0B2EDB2431C402BE17928BF0023A2
:102D9000AB4202F1FF32C9B21CBFF154184612F027
:102DA000FF02F0D12A4B1B68C2B23A704BB1A84265
:102DB00036BFC5F14005401B40192728C4BF01227A
:102DC0001A701F49CA78D2B2150616D452060DD50C
:102DD0001B4B1B795B0609D51E4B1F491B68002244
:102DE0000A7003B11A70164B3C22DA70F0BC7047BF
:102DF0004022D9795A7462B6E3E70B791C06E5D50F
:102E0000164B174E1C783378E4B2DBB29C420ED0DE
:102E1000144D01E0A3420AD00133402B28BF002308
:102E20000879E85CC0B2C871087D0728F2D9DBB226
:102E3000034933700B79180644BF7C23CB70C5E778
:102E400000A006401415FF1F1515FF1F5C15FF1F7E
:102E50001015FF1FA015FF1F9C15FF1FA415FF1FB6
:102E60009D15FF1F1815FF1F2DE9F84F214B1B68FB
:102E700007460BB101221A70DFF888901E4D99F8B1
:102E80000040DFF884801D4E0134272C8ABF4FF0AC
:102E9000000A5FFA84FA5446AB462B78A34216D157
:102EA00001F002FA40281FDC33791B06F5D59BF8A8
:102EB00000300133272B86BF00221346DAB218F800
:102EC0000330DBB2F3712A702B78A342E8D00C49AF
:102ED0000A4BFFB208F804700120AC22087089F890
:102EE00000A0DA70BDE8F88FFF28D6DD01F02EF8DB
:102EF000D3E700BF1C16FF1F1916FF1F00C00640B6
:102F00001816FF1F2016FF1FB015FF1F1B4BDFF801
:102F100090C01A681A49F0B542F48052194D1A60EF
:102F2000DFF880E0184F194E194C00238CF8003060
:102F30004FF451722B701F2840F213358EF8003079
:102F40003B70337025600A6011D819460124114A7C
:102F5000114D11701148547000212C274026937296
:102F6000082491701174D7702E700460F0BDC0F306
:102F70004431C0F3471400F01F03E8E734800440F5
:102F80000CC00440AD15FF1F1916FF1F1816FF1FB8
:102F900008C0044000C0064023E400E004E100E073
:102FA000AC15FF1F2016FF1F034B1B68DB0401D568
:102FB000FFF75ABF704700BF34800440054A064BF4
:102FC00010781B78C0B2DBB2984238BF4030C01ACC
:102FD000704700BFAC15FF1FAD15FF1F30B4154B78
:102FE000154C1A782378D2B2DBB29A421ED0013344
:102FF0003F2B0ED91149124B087819680023C0B233
:10300000237021B1D31A1A2B01DC00230B7030BCC2
:1030100070470A480A49C05C0968DDB2C0B2257031
:103020000029F4D09A4238BF4032EBE74FF0FF302E
:10303000EDE700BFAC15FF1FAD15FF1FD815FF1F33
:10304000A815FF1F084A094B12781B78DBB29A4279
:1030500007D00133402B28BF0023054AD05CC0B203
:1030600070474FF0FF307047AC15FF1FAD15FF1FC5
:10307000D815FF1F30B42B4B1A7994061FD52A4858
:10308000DA790378294901333F2B0978C8BF002337
:103090008B42D2B203D0264CD9B2E2540170254AF9
:1030A000116861B1244A1278D2B2934236BFC2F19C
:1030B00040029B1A9B18272BC4BF01230B70194A8F
:1030C000D378DBB2180611D45A060DD5154B1B79EF
:1030D0005B0609D5194B1A491B6800220A7003B117
:1030E0001A70104B2C22DA7030BC70471179090627
:1030F000EAD5144910480C780178C9B28C420DD039
:103100004A1C272A84BF00210A460F4D054C98BF50
:10311000D1B2AA5CD2B2E2710170D5E76C21D17054
:10312000D2E700BF00C00640AC15FF1FAD15FF1F62
:10313000D815FF1FA815FF1F1916FF1F1C16FF1F0C
:103140001816FF1F2016FF1FB015FF1F30B472B6F0
:103150002B4A13781D0706D52A4B196A002936D049
:10316000996A002941D053781C0706D5254B196C64
:1031700000293ED0996C002939D09378190705D5DC
:10318000204B196E002936D0996E89B1D3781B0770
:1031900007D51C4BD3F880207AB3D3F888201121AF
:1031A0003AB162B6184B00221A7030BC00F076BEFD
:1031B0000D21154C154D227843F8315003EBC10316
:1031C0000830013A5860227062B630BC7047042261
:1031D0000D4C0F4D217843F8325003EBC2030830F9
:1031E0004A1E5860227062B6EFE70521E1E7092127
:1031F000DFE70822ECE70C22EAE71022E8E700BF4D
:10320000548500000000FF1FF916FF1FC800400092
:1032100088004000431E032B1DD81B4A400140F08C
:10322000100030B4104472B6184CE25C032A1BD86C
:10323000DFE802F00212151703220D88E25410F0A5
:10324000080F14BFC823882343EA054308310360ED
:10325000416062B630BC704708300222EDE70522BB
:10326000EBE708300422E8E7094A52F8230038B1B6
:10327000084A52F82300416042F8231062B6E9E799
:1032800042F82310034AF7E70000FF1F0817FF1F4B
:10329000D016FF1FE016FF1F2DE9F04FDFF80CB32B
:1032A000DFF80CA387B044E0AB4F4FEA930807EB7D
:1032B000C809013ED9F8042003F00803F6B2A2F1D0
:1032C000080003F0FF04002B40F0028157F838306B
:1032D0001B0C99B222F8081C002B00F0F0809F4BC9
:1032E00022F8064C42F8044C53F82620002A00F03D
:1032F000C5829B4D55F8263058609A4C45F82600FB
:1033000034F81630194424F8161000F0A7FD0028F0
:1033100000F0AD82944A954B19F0080F00F10800B7
:1033200018BF1346C9F8040047F8383008238BF853
:1033300000309BF80040E4B261071AD58C4B1B7833
:10334000A3B18C490A7802F0FF0322B1013BDBB242
:103350000B7003B900BE88490A7802F0FF032AB156
:10336000013BDBB20B70002B00F0578204238BF87B
:10337000003004F0080303F0FF02002B00F0CC80C3
:103380009AF80030DBB21E098ED19C08DFF8C89194
:1033900059F8342009EBC401C2F38302013A4968A9
:1033A0000C2A00F28880DFE802F07C7C8686868624
:1033B00086864786868607000868704D4A68704F83
:1033C000704E286081B240F28160674B6A604FF0B6
:1033D000010E0022814249F834303A60C9F81020C9
:1033E000C9F8182086F800E05B4C00F2E380B1F5E4
:1033F000D06F80F04683B1F5817F00F0FC8200F24F
:103400008D82802900F07783822940F0FA82A98892
:1034100001F07F01042900F2F4825B485B4C8900D3
:103420000844227062700278930740F1588484F84F
:1034300000E04FF0020E42E3514F3A6832B3544B72
:10344000504E5449188834780D784028864645F007
:10345000020828BF4FF0400E002C84F001043470A5
:10346000CEEB00000CBF8824C82409EBC80680B24C
:1034700085F0010544EA0E447260188049F838402E
:1034800072440D70002800F045813A603B4B1A8869
:10349000B2F5A06F0FD100219A7859703E4B1A7087
:1034A00009E0364A108842F22102904200F037814A
:1034B0002D4A49F83420394A0123137036E72A4A45
:1034C0002A4B19F0080F18BF134647F838302DE77C
:1034D00000F0E4FC324A334952F82630002B00F069
:1034E000D18158688C5D42F8260003F10802C9F8C2
:1034F0000420032C05D8DFE804F02C022926022240
:103500008A551A8819F0080F0CBF8823C82343EA8C
:10351000024347F8383009E7E00700F181812106CE
:1035200000F1F281A20706D51F4A20491378022034
:10353000DBB213700870E30602D51C4B10221A7020
:1035400007B0BDE8F08F04228A55DAE705228A55D4
:10355000D7E703228A55D4E70000FF1F7C16FF1F20
:103560002816FF1F5C19FF1FC8004000880040009C
:103570000417FF1F8D16FF1F0C17FF1FF016FF1FEC
:103580002416FF1F8C16FF1FC0200740FC16FF1FCC
:103590003816FF1FF816FF1F982007409420074099
:1035A000D016FF1F0817FF1F882007408020074004
:1035B0009020074042F22100814200F02A8100F26F
:1035C000D880B1F5086F00F07682B1F5106F40F049
:1035D0001882226AB349A8780870120600F13A836B
:1035E000D9F82820B049130600F10C83D9F830200F
:1035F000AD49150600F10183D9F83820AA4914060F
:1036000000F1F682D9F84020A749100600F14A835C
:10361000D9F84820A449120600F13F83D9F8502078
:10362000A149130600F13483D9F858209E491506A4
:1036300000F12983D9F860209B49140600F11E830C
:10364000D9F868209849100600F11383D9F8702042
:103650009549120600F10883D9F87820924913069B
:1036600000F1FD82D9F880208F49150600F13183E1
:10367000D9F888208C49140600F12583D9F89020C8
:103680008949100600F11983D9F898208649120655
:1036900000F10D838548864A864901908648874D0A
:1036A000874C049700230596029580460F461646E0
:1036B0001D460394306828B1446800F0EFFB2046B3
:1036C000002CF9D100233360029B38681A4600238E
:1036D00042F8253028B1446800F0E0FB2046002C79
:1036E000F9D100223A60019A98F800301146002280
:1036F00041F8042B039A0191023B4FF0000122F89C
:103700001510032B00F22B81DFE813F07001250167
:1037100070012501BEF1400F18BF0022B5E6694ACD
:103720000D784878157050708D78C8789570D07085
:1037300010680D79157186284D79897955719171C7
:1037400000F09B816049614E0A78307882F0010573
:10375000002842F002020D700CBF8821C82149F8F0
:10376000321009EBC20280F001000021307051607C
:103770009EE642F22120814240F0CB81544B554CD1
:103780005549A8781D682560CDF804E00870002030
:1037900002908046844604464B490D7845F0020E5F
:1037A00009EBCE030393019B002B039B5C600CBFD2
:1037B0008824C82444EA080385F0010449F83E300F
:1037C00032700C70DFF8E0E0404BDFF8FC8000283E
:1037D00040F01E81BCF1400F1BD144F0020C09EBFC
:1037E000CC03029CDFF8C0E05C60002A40F0268138
:1037F000020442F088029DF804304EF83C20044454
:1038000033700D702346402803D10020334A3B60BB
:103810001080334A012313704DE600F073FBA5E5D9
:10382000214B2F4828491A614FF0020E80F800E022
:103830002C4F0A702C49196099602C4E2C4D2D4C40
:103840009A610D213970FF213170DFF8B8E02970DD
:103850002270294D294A8EF800109F27012406F86E
:10386000047C5D600470DA6007B0BDE8F08F244A24
:1038700047F8380013780133137057E543F82600F2
:103880000E4D3AE58B5D032B00F2F08001A252F859
:1038900023F000BF2D3300002D330000513900000C
:1038A0004B3900000417FF1F0000FF1FE016FF1F29
:1038B0007C16FF1FD016FF1F0817FF1F2816FF1FBB
:1038C0005C19FF1F6419FF1FF816FF1F8C16FF1FDE
:1038D0000C15FF1F6C19FF1F1817FF1F3816FF1F4D
:1038E00094200740C02007408800400088200740FF
:1038F00080200740982007403C16FF1F9016FF1FAE
:10390000F916FF1F8C200740C149C24B80220D20B1
:1039100008701A70A2077FF50EAE05E640F202327B
:10392000914240F0EE80A98801F07F01042968D817
:103930006A88002A65D1B648CDF804E089000844B9
:10394000017841F00201017021E701238B55EDE47C
:1039500000238B55EAE44FF0010388F8003001356D
:10396000042D06F1040607F1040708F101087FF4AD
:10397000A1AEA94CA94B2278A94D049F059E002118
:1039800029701A70130700F105816278A549DFF8E4
:10399000A0820A7010074FF00001C9F83010C9F872
:1039A000381000F1E080A049A2780A700021C9F81F
:1039B0005010C9F858101107DFF8748200F1018126
:1039C000E2789A499A4C0A7000211207C9F87010DF
:1039D000C9F8781000F1B08033780193002183F0AA
:1039E0000102C9F89010C9F89810D0E64FF0000312
:1039F00088F80030B3E7A98801F07F01042940F27C
:103A00008D80834A0F2313708A4A0123137052E575
:103A100040287FF6E2AE44F002040EEBC401029EA1
:103A20004E60BAB19DF80410834A1970334640388D
:103A300088F8005040334EF83420E7E69DF8043013
:103A400033700204029B0D7042F0C80203444EF82A
:103A50003C20D8E69DF804101970029B774A88F83C
:103A60000050403840334EF83420CFE619F0080FAC
:103A70000CBF022303238B5558E4714A0F211170A8
:103A800060E6704A5468002CBBD06888B5F804E042
:103A900003E00C325468002CB3D013888342F8D171
:103AA00053887345F5D1000A03280CBF94F800E051
:103AB000B2F808E003E0644A644C12782270E888A7
:103AC000704580F03F8162490D784028844645F07A
:103AD000020E28BF4FF0400C04EB0C0309EBCE02A2
:103AE000029301235460CCEB00004FEA0C48002203
:103AF0000193C8245EE6554C4FF0020E22706270AE
:103B0000DDE7B1F5A06F7FF47CAF012300220193C4
:103B10003DE642F221329142F7D072E76A88002AEC
:103B20007FF46FAF3A48CDF804E08900084401788B
:103B300021F0020101702AE600F090F9002800F05F
:103B4000EF8008303D4AC4F88400C4F8802000F0BB
:103B500085F9002800F0DE800830374AC9F88C006B
:103B6000C9F8882038E700F079F9002800F0C08013
:103B70000830324AC8F84400C8F8402000F06EF916
:103B8000002800F0AF8008302B4AC9F84C00C9F873
:103B9000482008E700F062F9002800F0CD800830E6
:103BA000264AC9F82400C9F8202000F057F9002857
:103BB00000F0BC800830204AC9F82C00C9F8282041
:103BC000E3E600F04BF9002800F09E8008301B4A25
:103BD000C8F86400C8F8602000F040F9002800F040
:103BE0008D800830144AC9F86C00C9F86820E7E6EF
:103BF000C86B083800F052F904E5486B083800F04B
:103C00004DF9F9E4C86A083800F048F9EEE400BF5D
:103C1000C02007408020074054850000C420074092
:103C2000F916FF1FC8200740CC200740D0200740CE
:103C30000000FF1F94200740C8004000880040009B
:103C40008D16FF1F588500000417FF1FFC16FF1F6D
:103C5000F816FF1F606A083800F020F9C0E4C86F4A
:103C6000083800F01BF9FDE4486F083800F016F939
:103C7000F2E4C86E083800F011F9E7E4486E08383D
:103C800000F00CF9DCE4C86D083800F007F9D1E465
:103C9000486D083800F002F9C6E4C86C083800F036
:103CA000FDF8BBE4486C083800F0F8F8B0E4D1F84F
:103CB0009C00083800F0F2F8ECE4D1F894000838E1
:103CC00000F0ECF8E0E4D1F88C00083800F0E6F8F9
:103CD000D4E4D1F88400083800F0E0F8C8E44FF0EC
:103CE000020EECE62A78C9F8480001322A705AE63A
:103CF0002A78C8F8400001322A703FE72A78C9F8CC
:103D0000680001322A705BE62A78C8F86000013248
:103D10002A7061E72A78C9F8880001322A705BE6C8
:103D20002A78C4F8800001322A7010E72A78C9F88E
:103D3000280001322A7028E62A78C9F820000132CA
:103D40002A7032E7BEF1400FF44628BF4FF0400C16
:103D500004EB0C0302930123CCEB0E004FEA0C485A
:103D60000022019318E500BF2DE9F04100F0C4FCEA
:103D70002F4C304B3048DFF8D880304F304D314E2B
:103D8000DFF8D0C0DFF8D0E000221A605A609A60F5
:103D9000DA601A615A619A61DA611A625A629A6249
:103DA000DA621A635A639A63DA631A645A649A6429
:103DB000DA641A655A659A65DA651A665A669A6609
:103DC000DA661A675A679A67DA67C3F8802021684B
:103DD000C3F8842041F480212160016841F04071E2
:103DE0000160C3F3072188F8001004F52834C3F3F9
:103DF00007411B0E3970CC342B7000F12040FF239B
:103E00008CF80030104D8EF8003000F6041033703E
:103E10000E49012308F8083C702622704FF4001464
:103E2000102207F82C3C2E7004600A70BDE8F08167
:103E3000348004400000FF1F00D80040B02007403D
:103E4000B42007401020074035E400E00821074077
:103E50009C200740802007408820074072B60D480C
:103E60000268B2FA82F30B2B10DC4FF00041D9400C
:103E700022EA0102026062B6074803EBC303DB00DB
:103E8000C2180021C15010465160704762B6002030
:103E9000704700BFFC06FF1F9803FF1F0D4B0E4A23
:103EA000C31AA2FB03231B090B2B0CD80B4A127855
:103EB00052B972B60A484FF00041026821FA03F382
:103EC0001A43026062B67047064A1278002AF0D0A0
:103ED000FFF73CB99803FF1F398EE338F916FF1F2F
:103EE000FC06FF1F0417FF1F044B054A1B68908840
:103EF0001BB11A885B88D31A184470471417FF1F28
:103F00005C19FF1F38B50E4B1B7873B90D4C216837
:103F100061B103F0FF054B880B800420FFF77AF9AD
:103F2000256038BD084B01221A7038BDFFF796FF97
:103F30000028F7D00146BDE838400420FFF76AB9F1
:103F40000D17FF1F1017FF1F0C17FF1F38B52C4C44
:103F5000237803B138BD01232370FFF7C5FF002884
:103F600042D1FEF79FFE00283BD100F0BBF90028AC
:103F700034D1FFF723F870BB00F04AFA40BB00F0E1
:103F8000C3FA10BB00F03CFBE0B900232370EFF351
:103F90000583002BDED1EFF3108172B6194B186840
:103FA00028B3194C227812BB45691D600123237088
:103FB0000DB3AA6101B962B60025457783689847B9
:103FC0002570C7E700F028F9DFE700F023F9D9E70B
:103FD00000F01EF9D3E700F019F9CDE700F014F96D
:103FE000C7E700F00FF9C0E700F0C4FBB9E700290C
:103FF000B0D162B638BD054B1D600029DCD1DAE7CF
:104000001917FF1F2C17FF1F3017FF1F2817FF1F3F
:1040100010B4EFF3108272B6437F33B9017F0129E8
:1040200008D0032910D00123437702B962B65DF8A6
:10403000044B7047114C2168A1B1114943610B68D1
:10404000836108605861EEE70E4C216881B10E492A
:1040500043610B688361086058610C4B4FF08051DD
:104060001960E0E7064B4161816120601860DAE782
:10407000054B4161816120601860EEE72C17FF1F3E
:104080002817FF1F1C17FF1F2017FF1F04ED00E05C
:1040900010B4047F4160022CC26003D05DF8044B71
:1040A000FFF7B6BF83685DF8044B184770B5EFF3B0
:1040B000108272B60C4C206880B10C4E002543690A
:1040C000236073B19D6102B962B6457783689847F2
:1040D000EFF3108272B620680028F0D102B962B600
:1040E00070BD3360EFE700BF1C17FF1F2017FF1FD5
:1040F000FFF7DCBF184A30B41468002C27D00368DF
:1041000021688B420ED2CB1A00218460C1602360EB
:10411000E06010600223037530BC704711688B4269
:10412000144608D3A2685B1A0360002AF6D18260A5
:10413000C460A060EEE7D268C2608460E060C568D9
:10414000CB1A0222A8602360027530BC70478460DD
:10415000C4601060DEE700BF2417FF1FF8B5224ED1
:1041600034682CB32368002B3AD1204F1D4604E05D
:104170003468ECB12368002B32D1A36803B1DD6051
:1041800020693360036825751B68BB4221D1037F1A
:104190004560022BC46020D0FFF73AFF6368002B14
:1041A000E6D023602046FFF7A5FF3468002CE1D15C
:1041B000EFF3108372B60E4A00211068116003B944
:1041C00062B628B18468FFF795FF20460028F9D130
:1041D000F8BD224600219847E0E783689847DDE76D
:1041E000013B2360E4E700BF2417FF1F914000005C
:1041F0003417FF1F024A136801331360FFF7AEBF85
:104200000C15FF1F704700BF704700BF704700BF0D
:10421000704700BF704700BF704700BF08B5104C23
:1042200008E0236859050DD423681A050FD42368C4
:10423000DB0411D423685803F3D5FFF72DF8236866
:104240005905F1D5FEF78AFD23681A05EFD500F070
:1042500059F82368DB04EDD5FEF70CFFEAE700BF51
:104260003480044008B5FFF7D9FF00BF014B10228E
:104270001A80704700200540704700BF094908B503
:104280000B6830B16A461844A2F50052904202D23F
:104290000860184608BD03F0A5FA0C2303604FF030
:1042A000FF3008BD0007FF1FEFF3138070B9EFF375
:1042B00010836BB9EFF305825AB94FF48070EFF3B6
:1042C00011832BB1984228BF184670474FF0FF303A
:1042D00070470F2A01D81846F1E7014BD05CEEE792
:1042E000F0E300E0054A064B10781B78C0B2DBB261
:1042F000984238BF4030C01A704700BFA817FF1F50
:104300003D17FF1FF0B4384B1A7912F0300F2CD044
:1043100072B6997D01F0FF0200293DD062B6334F9D
:10432000334938780D78334E1C46C0B2EDB2431C89
:10433000402BE17928BF0023AB4202F1FF32C9B222
:104340001CBFF154184612F0FF02F0D12A4B1B6833
:10435000C2B23A704BB1A84236BFC5F14005401B0E
:1043600040192728C4BF01221A701F49CA78D2B247
:10437000150616D452060DD51B4B1B795B0609D5C5
:104380001E4B1F491B6800220A7003B11A70164B9E
:104390003C22DA70F0BC70474022D9795A7462B678
:1043A000E3E70B791C06E5D5164B174E1C783378DE
:1043B000E4B2DBB29C420ED0144D01E0A3420AD01D
:1043C0000133282B28BF00230879E85CC0B2C871EC
:1043D000087D0728F2D9DBB2034933700B79180640
:1043E00044BF7C23CB70C5E700B00640A817FF1F71
:1043F0003D17FF1F6817FF1F3817FF1FAC17FF1F60
:104400003C17FF1FB017FF1FA917FF1F4017FF1F03
:10441000054A064B10781B78C0B2DBB2984238BF11
:104420004030C01A704700BFB817FF1FB917FF1FF1
:1044300030B42B4B1A7994061FD52A48DA790378C1
:10444000294901333F2B0978C8BF00238B42D2B2E0
:1044500003D0264CD9B2E2540170254A116861B1EB
:10446000244A1278D2B2934236BFC2F140029B1A5C
:104470009B18272BC4BF01230B70194AD378DBB2DA
:10448000180611D45A060DD5154B1B795B0609D5B4
:10449000194B1A491B6800220A7003B11A70104B9D
:1044A0002C22DA7030BC704711790906EAD514491C
:1044B00010480C780178C9B28C420DD04A1C272ACA
:1044C00084BF00210A460F4D054C98BFD1B2AA5CAB
:1044D000D2B2E2710170D5E76C21D170D2E700BF92
:1044E00000D00640B817FF1FB917FF1FE417FF1FC2
:1044F000B417FF1F2518FF1F2818FF1F2418FF1FC0
:104500002C18FF1FBC17FF1F054A064B10781B789D
:10451000C0B2DBB2984238BF4030C01A704700BF0B
:104520003418FF1F3518FF1F30B42B4B1A7994062F
:104530001FD52A48DA790378294901333F2B0978B6
:10454000C8BF00238B42D2B203D0264CD9B2E2546A
:104550000170254A116861B1244A1278D2B293429F
:1045600036BFC2F140029B1A9B18272BC4BF012300
:104570000B70194AD378DBB2180611D45A060DD540
:10458000154B1B795B0609D5194B1A491B6800228C
:104590000A7003B11A70104B2C22DA7030BC7047CD
:1045A00011790906EAD5144910480C780178C9B286
:1045B0008C420DD04A1C272A84BF00210A460F4D89
:1045C000054C98BFD1B2AA5CD2B2E2710170D5E7B6
:1045D0006C21D170D2E700BF00A00E403418FF1F3D
:1045E0003518FF1F6018FF1F3018FF1FA118FF1F8D
:1045F000A418FF1FA018FF1FA818FF1F3818FF1FBF
:10460000054A064B10781B78C0B2DBB2984238BF1F
:104610004030C01A704700BFB018FF1FB118FF1F0D
:1046200030B42B4B1A7994061FD52A48DA790378CF
:10463000294901333F2B0978C8BF00238B42D2B2EE
:1046400003D0264CD9B2E2540170254A116861B1F9
:10465000244A1278D2B2934236BFC2F140029B1A6A
:104660009B18272BC4BF01230B70194AD378DBB2E8
:10467000180611D45A060DD5154B1B795B0609D5C2
:10468000194B1A491B6800220A7003B11A70104BAB
:104690002C22DA7030BC704711790906EAD514492A
:1046A00010480C780178C9B28C420DD04A1C272AD8
:1046B00084BF00210A460F4D054C98BFD1B2AA5CB9
:1046C000D2B2E2710170D5E76C21D170D2E700BFA0
:1046D00000B00E40B018FF1FB118FF1FDC18FF1FFD
:1046E000AC18FF1F1D19FF1F2019FF1F1C19FF1FEA
:1046F0002419FF1FB418FF1F72B6184A184B194926
:104700001160702280211A701A46197013781B06E6
:10471000FCD510B5144B84B0186862B6134B144C1A
:10472000984298BF00EB800001A998BF40000A2280
:1047300000F022F801A92046002311F8012B0133D3
:104740003AB10A2B20F8022FF7D11623237004B0B8
:1047500010BD5B00DBB2237004B010BD040002404A
:1047600000000240000007410C0002407F969800C4
:104770009007FF1F704700BFF0B44D1E2E46002467
:1047800000E00134B0FBF2F302FB1300092800F152
:1047900030078ABF3730F8B2C0B206F8010F1846AA
:1047A000002BEED10A1953704CB1107815F8016F37
:1047B00028700133E01A834202F80169F5DB0846EC
:1047C000F0BC70470020704790F8392090F838000E
:1047D000101A704790F8383090F839209A4205D96D
:1047E0005A1C034480F83820187E70474FF0FF3081
:1047F000704700BF90F8383090F839209A4286BF51
:104800001B18187E4FF0FF30704700BF704700BF85
:1048100038B50546B0F85E0090B195F85D301446A5
:10482000C3F1210294420CD805F13B001844224602
:10483000FDF700FE95F85D30234485F85D30204695
:1048400038BD012014462871EEE700BFB0F85E3095
:104850006BB190F85D30202B07D8C218013380F877
:104860005D30012082F83B10704701230371002066
:10487000704700BF0023426980F8383080F8393033
:1048800080F85C3080F85D3080F85E3080F85F3012
:1048900006CA30B40D68046943662A4383660A6019
:1048A000A370426990F861301649146813441D7A68
:1048B0005B7B01EBC5051B026D6803F4E06343F00D
:1048C00064032B6090F8623013449D7CDB7D01EB28
:1048D000C5011B02496803F4E06343F064030B6005
:1048E00021685368194205D003692C225A70036964
:1048F00004229A71036920225A71036980229A70F6
:1049000030BC70475483000038B50269D478E4B2F3
:10491000E106054624D51023D37063061FD504F0A5
:10492000040404F0FF03002C5AD042496A6E0023AD
:104930000B7085F85D30002A66D0904795F85D30A1
:10494000002B61D02B69D0229A702B6995F83B20FF
:104950001A712B69012285F85C200222DA7038BDB9
:1049600004F0400303F0FF00002BD8D19379DBB2B1
:1049700003F0600160294ED0937803F0100303F038
:10498000FF01B3B114F0010437D195F85C3095F80C
:104990005D1099424BD9591C2B4485F85C1093F853
:1049A0003B3013712B69D0229A702B690222DA7086
:1049B000D5E785F86010937943F0200393712B6954
:1049C00095F839101A791F29D2B2C6D8194800783B
:1049D0000028C2D06818013185F839100276BCE78A
:1049E0002A6985F83930C02393702B69114A1979E7
:1049F000012111700222DA70B1E7C02393702B6994
:104A00001A790222DA70AAE70122002385F85D20D4
:104A100085F83B3096E703F0DF039371AB6E23B16B
:104A200085F8380095F8390098472A69A4E7147189
:104A3000B8E700BF2519FF1F2DE9F047374FDFF812
:104A4000E0903B68026982B006460093DDF8008082
:104A50000021C825D3789B065BD53B680193019B59
:104A6000C8EB03030F2BF5D949B1102BF2D000206E
:104A70009070336980229A7002B0BDE8F087726945
:104A800096F8613013440521187AFDF779FF7269B1
:104A900096F861301344012193F812A05046FDF7B7
:104AA0006FFF092400215046FDF756FF2B46013BBE
:104AB000FDD101215046FDF74FFF2B46013BFDD1B3
:104AC000013CEFD1706996F8611001444FF4C8724F
:104AD0000C7A4B7B09EBC4011B02496803F4E063C9
:104AE00043F064030B6096F862300344997CDB7DED
:104AF00009EBC1011B02496803F4E06343F064035E
:104B00000B60013AFDD13269D3789B064FF0010169
:104B1000A3D4012002B0BDE8F08700BF0C15FF1F31
:104B200054830000F0B503691222DA7002699378A9
:104B300003F0200385B004460D46002B5ED0B4235D
:104B400093703C4922690B680093009E05E00B6856
:104B50000193019B9B1B042B42D8D37803F02003C5
:104B600003F0FF00002BF2D094F85D30002B31D021
:104B70004FF0000E4FF0020C04EB0E0393F83B30A5
:104B800013710B680393039F206907E09B060DD503
:104B90000B680293029BDB1B052B28D8C378DBB282
:104BA00003F0020202F0FF06002AEFD080F803C0F3
:104BB0002669F378DBB2DF0632462DD49F062BD56B
:104BC000DB0731D40EF1010E94F85D305FFA8EFEF2
:104BD0007345D1D800201DBB002384F85E3004E06B
:104BE0009070236980229A70042005B0F0BD867011
:104BF0002369802204209A7005B0F0BD03F0FF06FF
:104C0000FFF71AFF10B9042005B0F0BD236984F83E
:104C10005F60B0229A7094E78023B3700420DAE7D3
:104C200026698023B370D7E7BEF1000F0CBF0220C6
:104C30000320F6E70C15FF1F2DE9F041066900255A
:104C4000122780F8385080F83950F770D0F810C02B
:104C50009CF802E00EF0200E88B004468846154607
:104C60001E46BEF1000F49D0B4238CF80230784BB9
:104C700021691A680092DDF800E006E01A680192E6
:104C80000198CEEB0000042830D8C87800F020004E
:104C900000F0FF070028F1D04FEA480242F001027D
:104CA000D2B20A711A680292DDF808E0206906E0C3
:104CB0001A6803920399CEEB010105292AD8C1781D
:104CC00001F0020101F0FF070029F1D04FF0020CC2
:104CD00080F803C02269D17811F0110722D12DBBD1
:104CE000002E0CBFA0238023937003E08F702369F4
:104CF00080229A70384608B0BDE8F0810EF0FF07B8
:104D0000FFF79AFE0028F5D0236984F85F70B0227F
:104D10009A70ACE787702369802238469A7008B091
:104D2000BDE8F081802393700027E3E7012D75D063
:104D3000A021917021690A79BE4667464FF0A80C00
:104D40001A680492049805E01A680592059A121AE6
:104D5000052A4AD8CA7802F0020202F0FF08002AA7
:104D6000F2D0CF702169CA78D2B212F0100F084683
:104D70005AD1920658D5013DEDB2012D49D0BEF170
:104D80001F0F3BD90A79012DDAD11A680692069DC8
:104D900005E01A680792079A521B052A46D8C2787E
:104DA00002F0020202F0FF01002AF2D00223C370D7
:104DB0002269D378DBB2D9063AD49B0634D5B02326
:104DC000BEF11F0F93703FD8226904EB0E031279D6
:104DD0001A760EF1010E5FFA8EFE16B1236980225B
:104DE0009A7084F839E0774684E781F80280236975
:104DF00080229A70774684F839E07BE704EB0E0254
:104E000091F8048082F818800EF1010E5FFA8EFE90
:104E1000B9E781F802C021690846B0E7A82191707E
:104E20002069BE460279B0E7774663E78170DEE726
:104E30001021C823D170013BFDD12269937803F082
:104E4000F7037746937055E723691B79C5E700BFE1
:104E50000C15FF1F0148FFF757BD00BF1408FF1FC7
:104E60000148FFF751BD00BF8008FF1F0148FFF751
:104E70004BBD00BFA807FF1F2DE9F0411A4C4FEAB8
:104E8000400E01260746204690461D4684F83BE02A
:104E900084F85E6084F85D60FFF7D8FC31462046F8
:104EA000FFF740FE3346424639462046FFF7C4FE30
:104EB00094F8392094F838309A4213D00021E6183B
:104EC0009A42C8B203F101038ABF84F83830FF2345
:104ED000337E2B5494F8392094F838309A4201F1FB
:104EE0000101ECD1BDE8F081A807FF1F70B50B4CA4
:104EF000430016460125204684F83B3084F85E5076
:104F000084F85D50FFF7A2FC31462046FFF79EFC77
:104F100029462046BDE87040FFF704BEA807FF1FE2
:104F200000B551EC100B2C4A21F00043934285B0A0
:104F300020DD2A4A934209DD10EE102A0B4601F0CB
:104F400075FF41EC100B05B05DF804FB684600F0FE
:104F500023FB00F00300012828D0022815D060B3FD
:104F600001209DED021B9DED000B01F071FC51EC49
:104F7000100BE6E79FED161B00F016FF51EC100B2F
:104F800041EC100B05B05DF804FB9DED021B9DED9F
:104F9000000B00F009FF53EC102B10EE100A03F188
:104FA000004141EC100B05B05DF804FB9DED021BC8
:104FB0009DED000B01F04CFCEDE79DED021B9DED1E
:104FC000000B00F0F1FE51EC100BBAE7AFF30080DC
:104FD0000000000000000000FB21E93FFFFFEF7F21
:104FE00008B52DED048BB0EE418AF0EE618AB0EE8B
:104FF000409AF0EE609A00F01FF830B9B0EE480A1F
:10500000F0EE680ABDEC048B08BDB0EE480AF0EE85
:10501000680A00F011F838B153EC182B51EC190B59
:1050200002F02AFB0028E9D0B0EE490AF0EE690A46
:10503000BDEC048B08BD00BF53EC102B33F00041D6
:1050400010B408D01148A3F58014844208D8042075
:105050005DF8044B70471AB902205DF8044B7047A5
:1050600003F1FF43094803F5E0038342EFD9B1F5AB
:10507000801F01D20320EBE7054B994201D00020AD
:10508000E6E7B2FA82F04009E2E700BFFFFFDF7F08
:105090000000F07F2DE9F0432DED028B8BB057EC33
:1050A000106B55EC114B00F03BF92E4BB0EE408AE3
:1050B000F0EE608A93F90080B8F1FF3F31D02246CC
:1050C0002B462046294602F0FFFA50BB32463B46AB
:1050D0003046394602F0F8FA814610BB0022002320
:1050E0002046294602F0BEFAD8B11F4BCDF82090D9
:1050F0000122CDE90267CDE904458DE80C00B8F145
:10510000000F17D1CDE90667684601F005FDE0B153
:10511000089B0BBB9DED060B0BB0BDEC028BBDE8F5
:10512000F083B0EE480AF0EE680A0BB0BDEC028BDB
:10513000BDE8F083002200231046194602F054F91E
:10514000B8F1020FCDE90601DED102F04BFB2123BD
:105150000360089B002BDDD002F044FB089B03603A
:10516000D8E700BFEC08FF1F3086000000F03ABC13
:10517000D0B52DED028B394C8AB0F0EE408A00F0AC
:10518000E7FC94F900300133B0EE408A3ED0B0EE37
:10519000680A01F02FFE002838D0DFED317AF4EEF6
:1051A000E78AF1EE10FA37DCDFED2E7AF4EEE78ACB
:1051B000F1EE10FA2AD504232B4A009318EE900A38
:1051C00000230893019201F091FF94F9003000262A
:1051D0000027022BCDE90401CDE90201CDE90667E4
:1051E00037D0684601F098FC002832D0089B1BB1EC
:1051F00002F0F8FA089B0360DDE9060102F0A2FA6A
:1052000000EE100A0AB0BDEC028BD0BDB0EE480A29
:105210000AB0BDEC028BD0BD0323134A009318EEF5
:10522000900A00230893019201F060FF94F9003086
:10523000CDE90401CDE902012BB90C4B4FF06042DE
:10524000CDE90623CDE70A490020022BCDE906016E
:10525000C7D102F0C7FA22230360C7E7EC08FF1F9B
:105260008071B142B5F1CFC238860000FFFFEF4731
:105270000000F07F10B52DED028B8AB0B0EE408AB1
:1052800000F03EFD244B93F90040631C09D0B4EEBE
:10529000488AF1EE10FA04D6B5EEC08AF1EE10FAA3
:1052A00003D40AB0BDEC028B10BD01231B4A00934E
:1052B00018EE100A00230192089301F017FF002254
:1052C000CDE90401CDE902010023BCB11046194625
:1052D00002F08AF8022CCDE9060111D102F082FA1F
:1052E00021230360089B8BB9DDE9060102F02AFA4D
:1052F00000EE100A0AB0BDEC028B10BDCDE906230A
:10530000684601F009FC0028ECD1E7E702F06AFAF0
:10531000089B0360E8E700BFEC08FF1F4086000021
:105320002DE9F84F53EC112B23F0004952EA090004
:1053300055EC104B25D005F000468F4885EA060B4A
:1053400083451EDC50421043DFF844C249EAD07066
:10535000604511EE108A14D8CB451F4610EE10AAF6
:1053600011EE10EA10EE101A17DC28DB944226D357
:1053700013D1824BF60F03EBC60393ED000BBDE890
:10538000F88F2046294601F005FF02460B4602F041
:105390002BF841EC100BBDE8F88FBBF5801F12DA3B
:1053A000BBF1000F40F0A780BAF1000F53467448DC
:1053B0000DDD5B00002B00F1FF30FADC07E045EC6F
:1053C000104BBDE8F88F4FEA2B50A0F2FF30B9F533
:1053D000801F0FDAB9F1000F40F0A780B8F1000F7D
:1053E0004346DFF89CC109DD5B00002B0CF1FF3C5C
:1053F000FADC03E04FEA295CACF2FF3C614B9842D7
:105400005BDBCBF3130343F480135E4A944563DB09
:10541000C7F3130545F48015CCEB000007E052EA12
:10542000040313D0E30F03EB420361000138CEEB1A
:1054300001045A1B90B1714538BF02F1FF32002AB6
:10544000EDDACA0F02EB43034900EFE74B4BF60FCF
:1054500003EBC60696ED000BBDE8F88F71451546C7
:1054600038BF02F1FF35002DACBFCEEB01011D4668
:1054700055EA0103EAD0444A954208DCCB0F03EB1E
:10548000450595420CF1FF3C4FEA4101F6DD3D4BED
:105490009C4554DA3B4ACCEB0202142A5BDCC2F195
:1054A000200305FA03F3D1400B43154145EA0601F9
:1054B000184641EC100BBDE8F88F3249091A1F2934
:1054C0002DDCC1F120030BFA01FB2AFA03F343EAB6
:1054D0000B030AFA01F198E72A4CCCEB04041F2CC9
:1054E00015DCC4F1200209FA04F528FA02F215438A
:1054F00008FA04FE90E74FEACB23002B21487FF700
:1055000066AF5B00002B00F1FF30FADC5FE71F4D58
:10551000CCEB050508FA05F54FF0000E7CE71B4BB8
:105520001B1A0AFA03F300216FE7DFF858C04FEAAD
:10553000C9235B00002B0CF1FF3CFADC5EE7A5F50C
:1055400080152E430CF2FF3C46EA0C530A4643EC0E
:10555000102BBDE8F88F1F2A07DCC2F120039D4005
:10556000D14045EA01033546A0E7084BCCEB0303E5
:1055700045FA03F3354699E7FFFFEF7F48860000C1
:10558000EDFBFFFF02FCFFFFFFFF0F00E2FBFFFF51
:105590000000F07FFFFFFFFF2DE9F04F53EC102BD1
:1055A000974923F0004B8B458FB040F38780954996
:1055B0008B451C46824629DC002C194610EE100A49
:1055C00085A3D3E9002340F3A58101F02FFC8E4B86
:1055D0009B4504460D4600F0878081A3D3E9002354
:1055E00001F024FC02460B46CAE900232046294666
:1055F00001F01CFC7AA3D3E9002301F017FC01257C
:10560000CAE9020128460FB0BDE8F08F7F498B45FB
:1056100040F387807E498B455BDC4FEA2B55A5F232
:105620001645ABEB05571046394610EE106A02F0EE
:1056300061F801F049FD8046894642464B463046B6
:105640003946CDE9088901F0F1FB0022714B01F0E8
:10565000A1FD8946804602F04DF801F035FD064671
:105660000F4632463B4640464946CDE90A6701F0BF
:10567000DDFB0022674B01F08DFD00220023CDE908
:105680000C0101F0EFFF002800F07081002330468C
:105690003946002201F0E6FF002814BF012302234F
:1056A0005D4A0192022100912A46514608A800F065
:1056B000BFFC002CC0F24C81054606E080ED000BDB
:1056C00000250024C0E90245002528460FB0BDE8AA
:1056D000F08F10EE100A194601F0A8FB0025CAE968
:1056E0000201CAE90001F0E73FA3D3E9002301F07A
:1056F0009DFB3FA3D3E900230D46044601F096FB32
:1057000002460B46CAE900232946204601F08EFBDB
:1057100037A3D3E9002301F089FB0125CAE902017F
:10572000D3E701F05FF957EC106B10EE100A32A3CB
:10573000D3E90023394601F02DFD0022374B01F05B
:1057400077FB01F0D7FF054601F0BEFC22A3D3E9A9
:105750000023CDE9040101F01DFD02460B46304651
:10576000394601F063FB1EA3D3E900238046894636
:10577000DDE9040101F00EFD1F2DCDE9020151DC30
:10578000274B6A1E53F822309B454BD002460B46EE
:105790004046494601F04AFB06460F46CAE9006703
:1057A00032463B464046494601F040FBDDE90223D4
:1057B00001F03CFB002CCAE9020186DA07F1004443
:1057C00001F100436D42CAF80060CAF80440CAF80B
:1057D0000800CAF80C3078E700004054FB21F93F7C
:1057E0003163621A61B4D03D0000601A61B4D03DEB
:1057F0007370032E8A19A33B83C8C96D305FE43FE1
:10580000FB21E93F7BD90240FB21F93FFB213941D4
:10581000FFFFEF7F00007041D88600000000E03FEE
:1058200058860000DDE902234046494601F0FEFAB1
:105830004FEA2B5BC1F30A53C3EB0B0306460F463B
:10584000102BCAE90067ABDD5DA3D3E90023DDE9D6
:10585000040101F09FFC06460F4602460B464046F7
:10586000494601F0E3FACDE9060102460B464046FF
:10587000494601F0DBFA32463B4601F0D7FA52A323
:10588000D3E9002306460F46DDE9040101F082FC5E
:1058900032463B4601F0CAFA0B46CDE90201024608
:1058A000DDE9060101F0C2FAC1F30A53C3EB0B0BA9
:1058B00006460F46BBF1310FCAE9006776DD45A306
:1058C000D3E90023DDE9040101F064FC06460F463C
:1058D00002460B46DDE9060101F0A8FA02460B4636
:1058E00080468946DDE9060101F0A0FA32463B46D2
:1058F00001F09CFA39A3D3E9002306460F46DDE9FF
:10590000040101F047FC32463B4601F08FFACDE935
:1059100002013BE701F08CFA2D4B9B4504460D46F6
:1059200026D025A3D3E9002301F082FA02460B46D4
:10593000CAE900232946204601F078FA1EA3D3E9DC
:10594000002301F075FA4FF0FF35CAE90201BCE609
:10595000DAF80420DAF80C3002F1004203F10043D7
:105960004542CAF80420CAF80C30AEE6032397E695
:1059700013A3D3E9002301F05BFA13A3D3E90023B7
:105980000D46044601F054FA02460B46CAE90023CC
:105990002946204601F04AFA0BA3D3E9002301F07F
:1059A00047FA4FF0FF35CAE902018EE6DDE90689C4
:1059B000F6E600BFAFF300803163621A61B4D03DF8
:1059C0000000601A61B4D03D7370032E8A19A33BA6
:1059D000FB21F93F0000002E8A19A33BC149202575
:1059E0009A837B3910B582B0CDED010A019B23F07B
:1059F0000042B2F1FF4FF0EE407A19DC10EE100ACF
:105A000020F00041B1F1FF4F12DCB3F17E5F49D0CD
:105A10009C1704F0020444EAD07479B9022C3ED0F9
:105A20009FED400A032C18BFB0EE670A02B010BD0C
:105A30009DED017A37EE270A02B010BD12B3B2F124
:105A4000FF4F34D0B1F1FF4F1CD08A1AD2153C2A37
:105A500022DC002B4BDB9DED010A87EE800A01F072
:105A6000C1F901F0E3F8012C3AD0022C2FD0002C20
:105A7000E2D09FED2D7ADFED2D7A30EE070A30EE81
:105A8000670AD9E7DFED2A7A9FED2A0A0028A8BF26
:105A9000B0EE670A02B010BD9FED250AE3E79FED67
:105AA000230AC9E702B0BDE8104001F0BFB8B1F168
:105AB000FF4F21D0022CF2D0032C2AD0DFED1E7A2A
:105AC0009FED1E0A012C08BFB0EE670AB4E79FEDF8
:105AD000167ADFED167A30EE070A37EEC00AABE72A
