:10000000F8FF022099010000ED270000A52700005D
:10001000A5270000A5270000A5270000A5270000B0
:10002000A5270000A5270000A5270000ED27000058
:10003000ED270000A5270000ED4E0000F14E000066
:10004000ED270000ED270000ED270000ED27000060
:10005000ED270000ED270000ED270000ED27000050
:10006000ED270000ED270000ED270000ED27000040
:10007000ED270000ED270000ED270000ED27000030
:10008000ED270000ED270000ED270000ED27000020
:10009000ED270000ED270000ED270000ED27000010
:1000A0005D56000069560000ED270000ED270000B6
:1000B000ED270000ED270000ED270000E1360000ED
:1000C000ED270000ED270000ED270000053E0000B1
:1000D000ED270000ED270000ED270000ED270000D0
:1000E000ED270000ED270000ED270000ED270000C0
:1000F000ED270000ED270000ED270000ED270000B0
:10010000ED270000ED270000ED270000ED2700009F
:10011000ED270000FD400000ED270000ED27000066
:10012000ED270000ED270000ED270000ED2700007F
:10013000ED270000ED270000ED270000ED2700006F
:10014000ED270000ED270000ED270000ED2700005F
:10015000ED270000ED270000ED270000ED2700004F
:10016000ED270000ED27000075560000ED27000088
:10017000ED270000ED270000ED270000ED2700002F
:10018000ED270000ED270000ED270000ED2700001F
:10019000ED270000ED270000584B4CF2205210B51F
:1001A0001A804DF628121A8000BF00BF02F022FB11
:1001B000534B4FF030621A60524A9A60524ADA60EA
:1001C000524B4FF470021A60514A136813F4807353
:1001D00004D150490B604FF4A85313604E4B1A786A
:1001E000110703D51A7842F008021A704B4B4C499C
:1001F0002A221A704B4A4C4B8B4204D252F8040FFD
:1002000043F8040BF8E7494B494900228B4202D2DC
:1002100043F8042BFAE74749474A002352F82300E2
:1002200041F823000133662BF8D1444B444A802126
:1002300003F8011B9342FBD1424B3E4A1A60424BEA
:100240008A221A70A3F5805324225A70A0221A70B1
:100250009A799207FCD59A79D406FCD43B4A9379D3
:1002600003F00C03082B394BF9D103221A714622F3
:100270005A719A799006FCD5344A9179334B4906E4
:10028000FBD5334A4FF08271116009215160202261
:100290001A709A7902F00C020C2AFAD12D4B2E4AD0
:1002A0001A602E4B2E4A1A6000225A60072243F829
:1002B000042C2C4AC3F80C2D62B602F071FD154BCC
:1002C0001B68DA0705D5284802F058FB274B284A57
:1002D0001A60284B1B785B0609D5244C244B2268F6
:1002E0009A4204D1204802F049FB0023236008F021
:1002F0001BFD02F085FA02F079F9FEE70E200540B9
:1003000030800440823F04000100002B88ED00E0B3
:1003100010D0034014D0034002D0074000E0074053
:100320009411FF1F90A30000F806FF1F9411FF1FF8
:100330003818FF1F0002FF1F0000000000E400E06B
:1003400056E400E008ED00E00050064000400640A2
:100350004480044004800440C010050014E000E024
:10036000BFD401000000202025E85E611CE00340AE
:10037000A5C3945A00F00740FFFFFFFFFFFFFFFFF8
:10038000FFFFFFFFFFFFFFFFFFFFFFFFFFFFFFFF7D
:10039000FFFFFFFFFFFFFFFFFFFFFFFFFFFFFFFF6D
:1003A000FFFFFFFFFFFFFFFFFFFFFFFFFFFFFFFF5D
:1003B000FFFFFFFFFFFFFFFFFFFFFFFFFFFFFFFF4D
:1003C000FFFFFFFFFFFFFFFFFFFFFFFFFFFFFFFF3D
:1003D000FFFFFFFFFFFFFFFFFFFFFFFFFFFFFFFF2D
:1003E000FFFFFFFFFFFFFFFFFFFFFFFFFFFFFFFF1D
:1003F000FFFFFFFFFFFFFFFFFFFFFFFFFFFFFFFF0D
:10040000FFFFFFFFFFFFFFFFFFFFFFFFDEF9FFFF23
:1004100010B5054C237833B9044B13B10448AFF33E
:1004200000800123237010BD9411FF1F0000000005
:1004300094A30000084B10B51BB108490848AFF35E
:1004400000800848036803B910BD074B002BFBD0A0
:10045000BDE81040184700BF000000009811FF1FC2
:1004600094A300009411FF1F00000000F8B51826A7
:100470002C4D0446324600210D3008F03DFF602728
:100480003246294604F1250002F0B8F8A9193A4687
:1004900004F1400002F0B2F83A4605F1780104F1A7
:1004A000A00002F0ABF8002514230A200F2784F8DF
:1004B000163184F8173184F82F31C4F8185184F8B4
:1004C000140184F81831324684F82C0184F82D0187
:1004D0002946C4F80051C4F80451C4F80851C4F8BE
:1004E0000C51C4F8105184F81571C4F81C51C4F8AB
:1004F0002051C4F82451C4F8285184F82E7104F214
:10050000311008F0F9FE3246294604F2491008F08D
:10051000F3FE3246294604F2611008F0EDFE204653
:10052000F8BD00BFF497000010B52DED048BB0EEC0
:10053000608A8EB0F0EE400AF0EE408AB0EE480AD3
:1005400005F0AAFADFED397ADFED390A394C20EEF1
:10055000270A00F0D9F92046B0EE409A00F096FB49
:1005600050BB354BDFED357A93ED000AB4EEE70A68
:10057000F1EE10FA1BDC9FED321A3248F0EE410A20
:1005800001F048FBF0EE400A28EE088AB0EE480A77
:10059000A8EEA80AB1EEC01AB4EE411AF1EE10FAB4
:1005A0003AD1B0EE490A0EB0BDEC048B10BDDFEDC0
:1005B000207A30EE670ADEE704F1100000F066FBF7
:1005C0000028CED00021DFED200A9FED1D0A0AA8E9
:1005D00000F026FBD4ED031A94ED021A94ED000A04
:1005E000D4ED010A0AA800F027FB9FED140A124B74
:1005F000DFED0F0AD3ED009A31EE800A00F084F9A6
:100600009FED0F1A1148F0EE410A39EEC00A01F0D1
:1006100001FBF1EE400AB7E7CDED010A05F0C0FAA3
:10062000DDED010AB0EE401ABBE700BFE12E6542E6
:100630000000B4433015FF1F8012FF1F0000344339
:10064000000000002012FF1F0000B7C26012FF1F51
:1006500010B52DED028B9FED158A154CDFED150AB7
:100660008CB00021B0EE480A08A800F0D9FA94ED49
:10067000021AD4ED031A94ED000AD4ED010A08A879
:1006800000F0DAFA0C48DFED0D0AB0EE410AB0EEE8
:10069000481A01F0BFFAD4ED000AF1EE600AFFF744
:1006A00043FF0CB0BDEC028B10BD00BF000000008A
:1006B0003015FF1F0000B7C24012FF1F000020428C
:1006C00008B54FF4FA7002F01DFB084801F060FA1B
:1006D000074800F087FC074800F008FA064800F0D9
:1006E00009FD0648BDE8084001F008B88012FF1F68
:1006F0003015FF1FE814FF1F9412FF1FF011FF1F9A
:1007000030B52DED028B144C144D87B0204601F00E
:10071000B5F9012194ED000A114800F0F1FA94EDC9
:10072000000A284600F02CFD94ED008AFFF790FFA8
:10073000F0EE607AF0EE411AF0EE400AB0EE671A81
:10074000B0EE480A284600F05DFF064801F03AF88E
:1007500007B0BDEC028B30BD8012FF1F9412FF1F4B
:100760003015FF1FF011FF1FF8B5504D504E514F7F
:100770002DED028B01F0F4FE9FED4F8A4F4BDFED24
:10078000508A83ED048A0024281D4FF47A612C805E
:10079000AC70EC7000F0A6F905F114004FF47A711A
:1007A0002C736C73EC812C746C7400F09BF90A212F
:1007B00005F11C0000F096F94248AC8400F08EFA76
:1007C0000425414800F016FC07F1D8012A463046BE
:1007D00001F014FF2A4607F1DC01701901F00EFF49
:1007E0002A4607F1E00106F1080001F007FF07F1D2
:1007F000E401082206F10C0001F000FFB0EE481AF7
:10080000F0EE480AF0EE681AB0EE080A2F4834629B
:100810007462B462F46201F0EBF9B0EE481AF0EEE3
:10082000480AF3EE0E1AB7EE000A294801F0E0F983
:10083000F0EE681AB0EE481AF0EE480AB8EE000A78
:10084000244801F0D5F9B0EE481AF0EE480AF3EE6C
:100850000E1A9FED210A214801F0CAF9F0EE681A3C
:10086000F0EE480A9FED1E1A1E48B6EE000A01F08F
:10087000BFF9F0EE681AF0EE480AB5EE001AB7EECE
:10088000000A194801F0B4F9F0EE681AF0EE480ACF
:10089000B0EE001AB0EE080A144801F0A9F91448A5
:1008A000FFF7E4FDBDEC028BF8BD00BFE814FF1FAD
:1008B000F011FF1FF4970000000000008012FF1FDE
:1008C0000000C8423015FF1F9412FF1F7015FF1F54
:1008D0004012FF1FD011FF1FCDCCCC3D1015FF1FC4
:1008E000CDCC4C3D2012FF1FB011FF1F6012FF1F27
:1008F0006C13FF1FB5EEC00AF1EE10FAACBF012079
:100900004FF0FF30704700BF00B52DED028B10EEA9
:10091000900A85B0B0EE608A8DED030A07F062FEA2
:100920009DED030ACDE9000110EE100A07F05AFE12
:100930009DED001B41EC100B05F042F851EC100B43
:1009400008F09CF900EE100AB5EEC00AF1EE10FABC
:1009500048BF38EE000A05B0BDEC028B5DF804FB21
:1009600070EEC07A08B517EE900A07F03BFE9FEDD7
:100970000C1B41EC100B05F023F851EC100B08F0A8
:100980007DF900EE100AB5EEC00AF1EE10FA44BF90
:10099000DFED057A30EE270A08BD00BFAFF3008017
:1009A00000000000008076400000B443FFFFFFFF1E
:1009B00000B52DED028B70EEC07A83B017EE900A71
:1009C00007F010FE9FED1A1B41EC100B04F0F8FF2E
:1009D00051EC100B08F052F908EE100AB5EEC08A7F
:1009E000F1EE10FA44BFDFED147A38EE278ADFED1E
:1009F000127A77EEC87A17EE900A07F0F3FDCDE988
:100A0000000118EE100A07F0EDFD9DED001B41EC12
:100A1000100B04F0E9FE51EC100B08F02FF900EE7A
:100A2000100A03B0BDEC028B5DF804FBAFF300804D
:100A300000000000008076400000B443FFFFFFFF8D
:100A400008B570EEC07A2DED028B17EE900AB0EE6D
:100A5000408A07F0C7FD9FED1A1B41EC100B04F014
:100A6000AFFF51EC100B08F009F907EE900AF5EE14
:100A7000C07AF1EE10FA44BF9FED137A77EE877AD1
:100A8000B6EE007AA7EE878A18EE100A07F0AAFDE4
:100A90009FED0B1B41EC100B04F092FF51EC100B7F
:100AA00008F0ECF800EE100ABDEC028BB5EEC00ABF
:100AB000F1EE10FA44BFDFED047A30EE270A08BDEC
:100AC00000000000008076400000B44390FBF1F38A
:100AD00003FB1100030648BF4018C0B2704700BFB7
:100AE00001F03EBD0160704701F03ABD4FF4165170
:100AF000014801F07DB900BF0C07FF1F10B52DEDB7
:100B0000028BB0EE608AF0EE400A28EE080A82B04E
:100B1000A0EEA00A0446C0ED000AF1EEC07A80ED16
:100B2000018AF4EE677AF1EE10FA2FD1C4ED027A61
:100B3000B0EE480A04F0B0FFDFED197ADFED190AD4
:100B400020EE270AFFF7E0FE84ED030A94ED020A87
:100B5000FFF7D0FE013003D002B0BDEC028B10BD18
:100B600094ED030ADFED107ADFED0E0A30EE270A6E
:100B7000FFF7CAFED4ED027A84ED030AF1EE677A3C
:100B8000C4ED027A02B0BDEC028B10BDCDED010ABE
:100B900005F006F8DDED010AF0EE407AC6E700BF89
:100BA000E12E65420000B4430000344310B5DFED90
:100BB000040A0446B0EE600AFFF7A0FF204610BD0D
:100BC0000000000010B52DED048B9FED138A20EE80
:100BD000888AF0EE408AB0EE480A0446B0EE609A89
:100BE00004F05CFE68EE807AB0EE480AC4ED007A4C
:100BF00004F09CFE28EE800AC4ED028A84ED010A0E
:100C0000DFED060AB0EE490AFFF77EFEBDEC048B6D
:100C100084ED030A10BD00BF35FA8E3C0000B443DA
:100C200010B5044619B9FFF769FF204610BDFFF75C
:100C3000C9FF204610BD00BF10B590ED017AD0ED80
:100C4000007A90B008AC77EE600A37EEC00A204612
:100C5000FFF754FF94E80F0010AC04E90F009DED7E
:100C60000C0ADDED0D0A9DED0E1ADDED0F1A10B028
:100C700010BD00BF90ED017AD0ED007A77EE600AEA
:100C800037EEC00A84B004B0FFF738BFD0ED027A67
:100C9000F5EE407AF1EE10FA14BF01200020704703
:100CA00001F05EBCDFED097A9FED097A30EE270A8C
:100CB00008B520EE070A04F0F1FE9FED067ADFED9D
:100CC000067AE0EE077AB0EE670A08BD6A5E8C41EC
:100CD00013A5733D5179853C18CF6A4010B5044681
:100CE000FFF764FF04F11000FFF760FF04F120003C
:100CF000FFF75CFF04F13000FFF758FF204610BDFE
:100D00002DE9F04F2DED028B85B004460E4602F022
:100D100047FC072804DC05B0BDEC028BBDE8F08F72
:100D200002F052FC0546EDB202F08EFCEA2DF2D143
:100D3000C0B2EA28EFD102F047FC02F045FC0546BC
:100D400002F042FC074602F03FFC78384FFA80FB85
:100D500002F03AFC783843B208EE103A02F034FC64
:100D6000783F7838783D4FFA80F902F02DFC7BB25D
:100D700000EE903A6BB200EE103A0021A0F1780339
:100D8000B8EEC00AF8EEE00A68464FFA83FAFFF7B9
:100D900047FF9DE80F0004F1300888E80F0094ED4C
:100DA0000E0AB5EE400AF1EE10FA6D4640F0F18001
:100DB000DFED808ADFED807A94ED0F0ADFED7F0AA8
:100DC00030EE670AFFF7A0FD4046F0EE400AB0EEB5
:100DD000680AFFF7F7FE07EE90BA0021B8EEE70ABF
:100DE000F8EEC80A2846FFF71BFF95E80F0004F14C
:100DF000200787E80F0094ED0A0AB5EE400AF1EEED
:100E000010FA40F0C1809FED6B8ADFED6B7A94EDB4
:100E10000B0ADFED6A0A30EE670AFFF775FD384608
:100E2000F0EE400AB0EE480AFFF7CCFE07EE90AABB
:100E3000F8EEE70A07EE909A0021B8EEE70A284696
:100E4000FFF7EEFE95E80F0004F1100989E80F00A6
:100E5000D4ED067AF5EE407AF1EE10FA40F0838098
:100E60009FED548ADFED547A94ED070ADFED530AC3
:100E700030EE670AFFF748FD4846F0EE400AB0EE54
:100E8000480AFFF79FFE3846FFF700FF60B1404673
:100E9000FFF7FCFE40B194ED0A7AD4ED0E7AB4EE81
:100EA000E77AF1EE10FA41D43846FFF7EFFE00285A
:100EB00037D14046FFF7EAFE002873D0002E6DD0F0
:100EC000DFED3F0A00219FED3B0A2846FFF7A8FE11
:100ED00095E80F0094ED0C0AD4ED0D0A94ED0E1A6E
:100EE000D4ED0F1A84E80F002046FFF7C3FEA06878
:100EF00007F078FB41EC100B0221324801F088F832
:100F00000121314803F056FEE06807F06BFB41EC2D
:100F1000100B02212B4801F07BF82A4801F022F83F
:100F2000F9E64046FFF7B2FE0028C2D1BEB1DFEDC0
:100F3000270A00219FED1F0A2846FFF771FE95E85A
:100F40000F0094ED080AD4ED090A94ED0A1AD4EDC5
:100F50000B1A84E80F002046FFF78CFEC7E73146E6
:100F6000DFED170AE6E79FED1A7A9FED1A0A9FED6B
:100F70001A8A77EE877A27EE800A04F08FFDDFED7C
:100F8000177AA0EE278A6DE7FFF78CFEB0EE408A55
:100F90003BE7FFF787FEF0EE408A0BE73146DFEDD7
:100FA0000B0A90E72846FFF701FE95E80F0084E85A
:100FB0000F009CE7000000000000B4420000B443B2
:100FC0000000B7C25407FF1FE09800000000B742BE
:100FD000E305F4434562623D080301417F54802AE2
:100FE00001F0BEBA4FF4E131014800F089BE00BF04
:100FF000F806FF1F70B5164B164D03602026012220
:1010000004464360027400213246113008F074F93E
:10101000294604F13100052201F0F0FA432384F857
:101020003630324605F1080104F13700402501F061
:10103000E5FA2A4604F15800002108F05DF92A4635
:1010400004F19800002108F057F9204670BD00BF58
:10105000000080BFE49800002DE9F0414318B7EE8E
:10106000007A93F8373007EE903AF8EE677A82B05C
:10107000F4EEC77A0D46F1EE10FA4FF00001044687
:101080008DF80410009117DB0423F6EE006ABCEE25
:10109000E76A67EEA67A16EE102A02A91944F4EE62
:1010A000C77A02F00102013BF1EE10FA01F8082CB8
:1010B000DBB2ECDA9DF8001004F1300800260136AE
:1010C00018F8010F01F0F0FD052E6F4608D017F853
:1010D000011F18F8010F013601F0E6FD052EF6D1CB
:1010E00094F8360001F082F94C3524F8150002B06E
:1010F000BDE8F0812DE9F047064600F1300400F12B
:10110000350514F8010F012101F0D4FDA542F8D1F5
:10111000002196F83600DFF8648001F0CBFD06F17F
:10112000560500275FFA87F94FF00A0A002449465E
:101130003046FFF791FFB5F842200AF1FF3314441F
:1011400013F0FF0AA4B2F2D1A8FB0434C4F3CF0415
:1011500007EE904AF8EEE77AB6EE007A77EE877AF5
:101160000137FDEEE77A202F17EE903A03F59673DC
:1011700025F8023FD6D1BDE8F08700BFCDCCCCCC5E
:101180002DE9F0432DED068B00F1100583B00646E6
:10119000F0EE409AA94600F1960800F156070024A7
:1011A000E1B23046FFF758FF38F8023F37F8022F18
:1011B0000134934294BF00230123202C09F8013FFE
:1011C000EED10024012701E0202C18D015F8013FB2
:1011D0000134002BF8D1A01E40B22021FFF776FC8D
:1011E0003044437C002BEFD0202160B2FFF76EFC2F
:1011F0003044437C002BE7D0202C2F70E6D1042212
:10120000C049684601F0FAF90422BE490DEB02001C
:1012100001F0F4F900231C4606F1110201210CE053
:1012200002AD2F19651C18B107F8083CECB200217B
:101230000133202B02F1010210D010780029EFD1E8
:101240000028F5D102A9581E21440133202B01F8B2
:10125000050C02F101024FF00101EED196F8303099
:1012600023B102AA22441F2102F8051C012C40F2DE
:10127000B480727C002A40F09F809DF900309FED81
:10128000A28A08EE903A9DF9043009EE103AF8EE81
:10129000E88AB8EEC99A68EE888A29EE089AB0EE14
:1012A000680AF0EE490AFFF7CBFB9DF9053000EE26
:1012B000903A9DF90130B0EE40AA00EE103AF8EEF7
:1012C000E00AB8EEC00A60EE880A20EE080AFFF7CE
:1012D000B7FB9DF9063000EE903A9DF90230F0EE32
:1012E00040AA00EE103AF8EEE00AB8EEC00A60EE4E
:1012F000880A20EE080AFFF7A3FB032CB0EE408A11
:1013000000F01281022C00F0938086ED02AAF0EE2C
:10131000490AB0EE680AFFF723FBF6EE007A9FED6C
:101320007B7A20EE270A60EE077A17EE900A07F024
:1013300059F941EC100B04F0F7F9002053EC102B95
:10134000734906F0EFFF07F099FC96ED028AF06012
:10135000FFEE007AB4EE678AF1EE10FA00F04B81EE
:1013600038EE290ADFED6B0AFFF7CEFA337CF0EE98
:10137000408A002B40F08780D6ED017AB0EE087AE3
:10138000F4EE477AF1EE10FA3DD19FED660ADFEDFB
:10139000610A38EE800AFFF7B7FA96ED037A86ED18
:1013A000000AF0EE007A77EEC77AC6ED017A03B054
:1013B000BDEC068BBDE8F083002B3FF45EAF013C33
:1013C00002AB2344FF2213F9081C8DF80010E4B28D
:1013D00003F8082C03F8042C4FE7002C40F0108190
:1013E000327C4D4BB360F360002AE0D1D6ED017A38
:1013F000B0EE087AF4EE477AF1EE10FAD7D0FFEEAD
:10140000008AB0EE688ABFEE007AB4EE478AF1EE49
:1014100010FA43D1F7EE006AF4EEE67AF1EE10FA34
:101420004FD93E4B736003B0BDEC068BBDE8F08333
:10143000F0EE6A0AB0EE4A0AFFF792FADFED397A67
:10144000B4EEE70AF1EE10FA95BFF0EE6A0AF0EE9C
:101450004A0AB0EE4A0AB0EE6A0AFFF7F1FAF0EE75
:101460006A0A86ED020AB0EE4A0AFFF779FADFED62
:101470002D7AB4EEE70AF1EE10FA3ED8F0EE6A0AE1
:10148000B0EE4A0A47E7F26886ED000A0023726070
:10149000337403B0BDEC068BBDE8F083D6ED000AD3
:1014A000B0EE680AFFF784FADFED1D7AB4EEE70AC2
:1014B000F1EE10FA3FF669AFF368C6ED008A73608B
:1014C00075E7012386ED007A86ED017A33746EE7C5
:1014D000F0EE4A0AB0EE6A0AFFF7B2FAF0EE4A0AF4
:1014E00086ED020AB0EE6A0AFFF73AFADFED0D7AEE
:1014F000B4EEE70AF1EE10FA5BD8F0EE4A0AB0EE6D
:101500006A0A08E70C9900000000344135FA8E3C65
:101510000000F03F0000B443000080BF00004040E6
:101520000000B44200003443F0EE6A0AB0EE4A0A0A
:10153000FFF716FAF0EE480AB0EE409AB0EE6A0AEB
:10154000FFF70EFAF0EE4A0AF0EE408AB0EE480AD3
:10155000FFF706FAF4EEC08AF1EE10FAB4BFF0EE2F
:10156000407AF0EE687AB4EE679AF1EE10FAA8BF0E
:10157000F0EE497AB4EE679AF1EE10FAA8D0F4EEE4
:10158000678AF1EE10FA17D1F0EE6A0AB0EE480A57
:10159000FFF756FAF0EE6A0A86ED020AB0EE480A44
:1015A000FFF7DEF95FED217AB4EEE70AF1EE10FA0B
:1015B0001CD94FF07E50C8E6F0EE480AB0EE4A0A59
:1015C000FFF73EFAF0EE480A86ED020AB0EE4A0A4C
:1015D000FFF7C6F95FED2D7AB4EEE70AF1EE10FAE7
:1015E000E7D8F0EE480AB0EE4A0A94E6F0EE6A0A4E
:1015F000B0EE480A8FE6337C002B3FF4F7AED6E618
:1016000001243AE6F0B58FB08DED061ACDED071A3C
:10161000CDED050A05AA034607CA1D7C08AC84E87F
:1016200007004DBBD3ED017AB6EE007AF4EEC77A2F
:10163000F1EE10FA10EE102A1F4610EE906A11EE2D
:10164000905A1CDCB5EE007AF4EEC77AF1EE10FA8F
:1016500033DCB0EE600A8DED080ACDED0A1A94E88D
:1016600007000EAB03E907009DED0B0ADDED0C0A48
:101670009DED0D1A0FB0F0BDB0EE600AEBE7D3EDB3
:10168000007A9FED170ADFED170A37EE800A07EEA2
:10169000902A30EE670AFFF737F9D7ED016ADFEDE0
:1016A000127ADFED121AB6EE087AF4EEC76AF1EE9E
:1016B00010FAC8BFF0EE671ACDE793ED000AFFF706
:1016C00077F9DFED0B7ADFED0B1AB4EEE70AF1EEF6
:1016D00010FA00EE106A58BF01EE905ABBE700BF47
:1016E000000034430000B4430000C8420000204220
:1016F000000070420000000000F032BF38B5044620
:1017000000252078012101F0D5FA2079012101F08E
:10171000D1FA207A012101F0CDFA2078012101F0DF
:10172000C3FA012120790D4401F0BEFA207A00218C
:1017300001F036F9042D04F10104E2D138BD00BFF7
:10174000DFED1E7A70B560EE277A82B0F5EE407A52
:10175000F1EE10FA0B462DD0F5EEC07AF1EE10FA4C
:101760009FED177AD8BFF1EE677AF4EEC77AF1EE03
:1017700010FA48BFFCEEE77AB5EEC00A46BFCDEDE1
:10178000017A9DF80450FF25F1EE10FACCBF01213B
:10179000002181F00106C418C05C01F085FA3146D1
:1017A000207901F081FA207A294602B0BDE8704024
:1017B00001F0F6B8012631460025ECE7333323402B
:1017C00000007F432DE9F047D0ED057A2DED048B25
:1017D000F4EE407A88B0F1EE10FA8DED010ACDED0D
:1017E000020A8DED031A07D1D0ED067AF4EE607A85
:1017F000F1EE10FA00F09480B5EE401AF1EE10FA16
:10180000B0EE418A10EE906AF0EE408A0546CDEDCA
:10181000040ACDED050ACDED060ACDED070A0FD17C
:10182000B0EE600A04AF0024E1B228460134FFF7AD
:1018300087FF042C00F08180043797ED000AF3E75E
:1018400004AF9FED6B9A3C46BA4600F10A0800F1DE
:10185000120938F8023F5A3307EE903AF8EEE77A69
:1018600077EEE87A67EE897A17EE900A06F0BAFE0C
:1018700041EC100B03F058FF51EC100B07F0FEF990
:10188000C8454AF8040BE4D1DDED047A9DED056A04
:101890009DED067AF5EEC07AF1EE10FAB5EEC06A6B
:1018A000D4BFF1EE676AF0EE676AF1EE10FAD8BFC6
:1018B000B1EE466AF4EE466AF1EE10FAB5EEC07A81
:1018C000A8BFB0EE666AF1EE10FADDED076AD8BF88
:1018D000B1EE477AB4EE467AF1EE10FAF5EEC06A50
:1018E00098BFB0EE467AF1EE10FAD8BFF1EE666A14
:1018F000F4EE476AF1EE10FA98BFF0EE476A08AAD4
:101900003B4668EE277A87EEA67A07EE906A77EE76
:10191000277AE3EC017A9A4219D0D3ED007AF0E706
:10192000D0ED077AF4EE417AF1EE10FA7FF464AF6D
:1019300008B0BDEC048BBDE8F087C5ED058AAE614B
:1019400085ED078A08B0BDEC048BBDE8F087DDEDBE
:10195000047ADDED056A9DED067AF5EEC07AF1EECA
:1019600010FAF5EEC06AD4BFB1EE676AB0EE676AEE
:10197000F1EE10FAD8BFF1EE666AB4EE666AF1EEE7
:1019800010FAB5EEC07AA8BFF0EE466AF1EE10FA92
:101990009DED076AD8BFB1EE477AB4EE667AF1EEF4
:1019A00010FAB5EEC06A98BFB0EE667AF1EE10FAA2
:1019B000D4BFF1EE466AF0EE466AF4EE476AF1EE05
:1019C00010FA98BFF0EE476A88EE267A67EE877ABB
:1019D000E4EC017AA24207D0D4ED007A67EE877A70
:1019E000E4EC017AA242F7D19DED040A1BE700BFA7
:1019F00035FA8E3C00F0B4BD30B58DB008AB0E2288
:101A00003B21682003F03CFE9DF828409DF82130E2
:101A10009DF82A509DF82B209DF82C009DF82D1044
:101A20009FED147A9FED141A43EA042342EA05223B
:101A30005B4241EA00211BB2524212B200EE103A60
:101A40000BB200EE902A07EE903AF8EEE00AB8EEFC
:101A5000C00AF8EEE77A60EE870A20EE070A67EE22
:101A6000877A60EE810A20EE010A27EE811A0DB016
:101A700030BD00BF00007A440000003830B52DEDC5
:101A8000028B87B00446FFF7B7FFB0EE418A8DEDB9
:101A9000030A8DED051ACDED040A01F011F9636812
:101AA000DFED186A94ED031A174A94ED000A1168E5
:101AB0000191C31A07EE903AF8EEE77A38EE418AC0
:101AC00087EEA67A019BA1685B1A642B0546A7EEF8
:101AD000480A84ED000A09D9D4ED047A1368029308
:101AE00030EE270A029BA36084ED000ADFED070AAF
:101AF000FEF70AFF656084ED000A07B0BDEC028BBB
:101B000030BD00BF002474499815FF1F0000B44386
:101B100030B52DED028B054685B014242846FFF71D
:101B20006BFFD5ED037A8DED031A37EE811A322063
:101B300085ED031A8DED010ACDED020A01F0E2F800
:101B4000631E13F0FF04E9D1D5ED036AB3EE047A06
:101B5000C6EE877A2846C5ED037AFFF78FFF64202B
:101B600095ED008A01F0CEF82846FFF787FF074B76
:101B7000D5ED007A1B68009377EEC87A009BC5ED1F
:101B8000047AAB6005B0BDEC028B30BD9815FF1F29
:101B900010B50446144803F071FA06221D2168208E
:101BA00003F0A8FD06221A21682003F0A3FD1022ED
:101BB0001B21682003F09EFD00221C21682003F0F9
:101BC00099FD02223721682003F094FD16220A2194
:101BD0000C2003F08FFD01F073F860602046BDE833
:101BE0001040FFF795BF00BF1008FF1F00F0B8BC02
:101BF00010B5002380ED000AC0ED010A80ED021A45
:101C0000C0ED051A0361044601F05AF8E060204671
:101C100010BD00BF10B504462DED028B30EEC08A1A
:101C2000F0EE418A01F04CF8E368E060C01A07EE7C
:101C3000100A9FED2A6AD4ED067AB8EE477AF5EEDF
:101C4000408AC7EE066A94ED047AE8EE267AF1EE51
:101C500010FAC4ED067A38EE477A08D0B1EE686A19
:101C6000B4EEC67AF1EE10FA2BD537EE287AB1EE43
:101C7000477A87EE266A94ED010AD4ED005A94ED76
:101C8000057AD4ED026A84ED048A27EE800AB5EE67
:101C9000407AA8EE250AF1EE10FAA6EE660A0DD0FB
:101CA000F1EE477AB4EEE70AF1EE10FA11D4B4EE91
:101CB000470AF1EE10FAC8BFB0EE470ABDEC028B3E
:101CC00010BDF4EEC78AF1EE10FA48BF37EE687A1D
:101CD000CDE7BDEC028BB0EE670A10BD002474495D
:101CE0000368C9B21B6818470368C9B21B68184764
:101CF0000368C9B21B6818470368C9B21B68184754
:101D0000084B4A08134410B50446B3FBF1F001F048
:101D100047F9054B1B7803B110BD2046BDE81040C4
:101D200003F0EEB8001C4E0E5107FF1F08B5084621
:101D300001F078FB012008BD08B5084601F072FBF0
:101D4000012008BD38B508460D4607F039FB0446AA
:101D50000146284601F070FB204638BD10B5084604
:101D60001446114601F068FB204610BD0846114696
:101D700001F092BD0846114601F074BD01F08ABC25
:101D800008B5084601F026FB003018BF012008BD49
:101D900008B5084601F0FCFA003018BF012008BD64
:101DA0000846114601F070BA084601F0B7BA00BF04
:101DB000084601F04DBA00BF01F0D6B910B5064B88
:101DC000144603EB5100B0FBF1F001F0E9F82046B6
:101DD000BDE8104001F06CB9001C4E0E01F034BC9F
:101DE00001F0F2BB01F0DCBB01F0B6BB01F0C0BBFF
:101DF000084B4A08134410B50446B3FBF1F001F058
:101E0000C5FD054B1B7803B110BD2046BDE8104051
:101E100003F076B8000E27075207FF1F08B50846E3
:101E200001F020FF012008BD08B5084601F01AFFA7
:101E3000012008BD38B508460D4607F0C1FA044632
:101E40000146284601F018FF204638BD10B5084667
:101E50001446114601F010FF204610BD08461146F9
:101E600002F082B80846114602F064B801F0B8BF2B
:101E700008B5084601F0D6FE003018BF012008BDA5
:101E800008B5084601F0ACFE003018BF012008BDBF
:101E90000846114601F078BE084601F09FBE00BF1B
:101EA000084601F055BE00BF01F01ABE10B5064B42
:101EB000144603EB5100B0FBF1F001F067FD204642
:101EC000BDE8104001F0B0BD000E270701F062BF71
:101ED00001F020BF01F00ABF01F0E4BE01F0EEBE48
:101EE0000368064A1B68934205D110B5C8B201F0D9
:101EF000B9FE012010BDC9B2184700BF291E00005D
:101F00000368064A1B68934205D110B5C8B201F0B8
:101F1000A9FE012010BDC9B2184700BF291E00004C
:101F20000368064A1B68934205D110B5C8B201F098
:101F300099FE012010BDC9B2184700BF291E00003C
:101F40000368064A1B68934205D110B5C8B201F078
:101F500089FE012010BDC9B2184700BF291E00002C
:101F60000020704730B5044683B002252A4601A8F8
:101F7000054900F043FB23682A4601A95B68204617
:101F8000984703B030BD00BFE0990000F0B50746A8
:101F90008BB0002A33D0012A08BF0A2251B3212472
:101FA00000E0F4B2B1FBF2F502FB1511C8B2092949
:101FB00000F1300198BFC8B20AA988BF3730214468
:101FC00088BFC0B201F8240C661E2946002DE8D156
:101FD00033B1013CE4B20AAB23442D2203F8242C94
:101FE0003B6801AA11195B683846C4F12202984780
:101FF0000BB0F0BD30228DF825202124E8E70368DE
:10200000C9B21B6898470BB0F0BD00BFFFFFFFFFD0
:102010002DE9F04357EC106B85B005460C4610EEE9
:10202000102A3B4610EE100A394606F0C9FD00287A
:1020300040F0B28027F00049304649464FF0FF3269
:10204000594B06F0BDFD90B9304649464FF0FF327E
:10205000554B06F097FD50B92B6854495B682846EC
:10206000032298478046404605B0BDE8F0834FF014
:1020700060424F4B3046394606F098FD002872D139
:102080004FF060424B4B3046394606F071FD002858
:1020900069D1002200233046394606F069FD002848
:1020A00064D18146002C67D0434900204FF00008DE
:1020B0003BA3D3E9002308F1010806F0E7FA5FFA31
:1020C00088F39C42F4D802460B463046394606F067
:1020D0002BF90F46064606F0B1FD804606F060FA81
:1020E00002460B463046394606F01CF94B4606467A
:1020F0000F460A2241462846FFF748FF0F2C28BF0B
:102100000F2404F101092E2380465FFA89F98DF826
:10211000003001240022294B3046394606F0B6FA39
:102120000F46064606F08AFD04AB2344C0B200F118
:10213000300203F8102C06F043FA02460B463046F4
:10214000394606F0EFF80134E4B24C4506460F4636
:10215000E0D12B6822465B6828466946984740468E
:1021600005B0BDE8F0832B68154977E707F1004318
:102170001F464FF0010995E700220F4B30463946C4
:1021800006F0D2F806F05AFD4B4601460A222846D0
:10219000FFF7FCFE804666E72B680A495EE700BF52
:1021A000000000A09999B93FFFFFEF7FEC99000074
:1021B000FFFFEF41FFFFEFC10000E03F00002440C0
:1021C000E8990000E4990000374A384913681B0673
:1021D000FCD40B6813F08003F8D172B634490A7846
:1021E000002A5FD0334A3448F0B4344C176806688C
:1021F0002568D4680C303E44143200681268304FB1
:1022000035442C4420440244C2F34E022D4E2E4845
:102210002E4D2F4C42F400423A60376806682D6814
:102220002C4A24680C303E44006812682A4F35441A
:102230002C4420440244C2F34E02284E2848294D23
:10224000294C42F400423A60376806682D68274AF4
:1022500024680C303E4400681268254F35442C44F5
:1022600020440244C2F34E02224E2348234D244C04
:1022700042F400423A60376806682D68214A2468B3
:102280000C303E440068126835442C44204402441B
:10229000C2F34E021C4842F4004202600B7062B668
:1022A000F0BC704762B6704724B0034024B00B40C6
:1022B0009115FF1F38B003403CB0034040B00340CD
:1022C0002CB0034058B003405CB0034060B0034002
:1022D00064B003406CB0034030B0034038B00B40F2
:1022E0003CB00B4040B00B4044B00B404CB00B40F6
:1022F0002CB00B4058B00B405CB00B4060B00B40B2
:1023000064B00B406CB00B4030B00B4030B4294887
:10231000294A2A4B2A4D6024E121047011701B7850
:10232000284C082B30D00A2B2748284937D00C2BB3
:102330000CBF35225D2212232A60236002600B60ED
:10234000234B24491B78244ABBB101230B60136043
:10235000224B23491B78234A012B26D9042B0FD962
:10236000082B1ED9102B94BF862387230B60136084
:102370001D4B01221A7030BC70470B601360E7E7F9
:1023800084230B601360F3E700F58E200F490830BB
:10239000212213232A60236002600B60D0E73922D8
:1023A000F7E785230B601360E2E780230B6013607F
:1023B000DEE700BF00400740014007402007FF1F45
:1023C00008B003400CB0034008B00B400CB00B4009
:1023D0009415FF1F20B0034020B00B402107FF1FC2
:1023E00024B0034024B00B409115FF1F47282FD87D
:1023F000334B2DE9F0411E5CFF2E2BD0314B1B7867
:10240000002B2AD132062CD472B62F4D2F4C2F46DA
:10241000012326602B7062B672B623681B060CD4AB
:102420003B781BB9F4E72B78002BF1D062B602F0B1
:10243000C5FC72B623681806F5D5254B1B6800222B
:102440002A7062B6234A107843FA00F0BDE8F081A2
:10245000002070470020BDE8F081FFF7B5FE32068E
:10246000D2D572B61C4DDFF87C801C4C06F04007BC
:10247000FFB206F03F06D8F80030DFB123F01003BA
:10248000C8F8003001232660134A2B7062B672B67A
:10249000236819060CD413781BB9ECE72B78002BB2
:1024A000E9D062B602F08AFC72B623681B06F5D545
:1024B0000B4BC3E743F01003C8F80030E2E700BF5E
:1024C000F09900009115FF1F9315FF1F00B0034006
:1024D00010B003409015FF1F9215FF1F00B00B4076
:1024E00010B00B400CB00B400A4A0B49136843F480
:1024F000805313600B7843B9084BC0221A70084B05
:1025000080F30C0000B218807047044B80221A70D0
:10251000F5E700BF2C8004409415FF1F21C00C403C
:1025200000C00C400A4A0B49136843F4005313607F
:102530000B7843B9084BC0221A70084B80F30C008B
:1025400000B218807047044B80221A70F5E700BF74
:102550002C8004409415FF1F21D00C4000D00C406B
:10256000F0B585B010221949684600F047F8184ABE
:10257000127891071DD51749174D0A7812F070028D
:1025800018BF0A701549164A0346802715480F7070
:102590000026122405212E700470117072B60D4CA5
:1025A00043F001032046984762B6237813F0700386
:1025B00009D10D4B064901E0013B02D00A78D20750
:1025C000FAD505B0F0BD237005B0F0BD389A000013
:1025D00001000240000002400400024007000240E7
:1025E0000A0002400B000240410D030008B5FEF74F
:1025F00067F8FEF785F802F0E1FBFAE701B441EA7B
:10260000000313F003036FD1403A41D351F8043B68
:1026100040F8043B51F8043B40F8043B51F8043BBC
:1026200040F8043B51F8043B40F8043B51F8043BAC
:1026300040F8043B51F8043B40F8043B51F8043B9C
:1026400040F8043B51F8043B40F8043B51F8043B8C
:1026500040F8043B51F8043B40F8043B51F8043B7C
:1026600040F8043B51F8043B40F8043B51F8043B6C
:1026700040F8043B51F8043B40F8043B51F8043B5C
:1026800040F8043B51F8043B40F8043B403ABDD2CB
:10269000303211D351F8043B40F8043B51F8043B6D
:1026A00040F8043B51F8043B40F8043B51F8043B2C
:1026B00040F8043B103AEDD20C3205D351F8043BFC
:1026C00040F8043B043AF9D204320AD0D2071CBFC6
:1026D00011F8013B00F8013B03D30B7803704B78F2
:1026E000437001BC704700BF0C2A4AD310F00303AB
:1026F00011D0C3F10403D21ADB071CBF11F8013B50
:1027000000F8013B07D311F8013B00F8013B11F839
:10271000013B00F8013B11F003033FF475AF30B407
:10272000043AC91AC3F1040C51F8044B022B19D016
:10273000032B0BD0240A51F8043B1D0644EA050480
:1027400040F8044B1C46043AF4D216E0240E51F82B
:10275000043B1D0244EA050440F8044B1C46043ABD
:10276000F4D20AE0240C51F8043B1D0444EA0504A9
:1027700040F8044B1C46043AF4D20432B1EB0C018D
:1027800030BC043AA0D3013A11F8013B00F8013BF8
:10279000F9D20B7803704B7843708B78837001BC4F
:1027A000704700BF08B5104C08E0236859050DD4E8
:1027B00023681A050FD42368DB0411D42368580357
:1027C000F3D501F09BFC23685905F1D500F088FF93
:1027D00023681A05EFD500F009F82368DB04EDD56E
:1027E00001F010FBEAE700BF3480044008B5FFF7B2
:1027F000D9FF00BF014B10221A807047002005400E
:10280000704700BF094908B50B6830B16A461844E3
:10281000A2F50052904202D20860184608BD06F0A8
:102820007DFA0C2303604FF0FF3008BD2407FF1F23
:10283000EFF3138070B9EFF310836BB9EFF30582F8
:102840005AB94FF48070EFF311832BB1984228BF2F
:10285000184670474FF0FF3070470F2A01D81846CE
:10286000F1E7014BD05CEEE7F0E300E0F0B44D1E81
:102870002E46002400E00134B0FBF2F302FB13000B
:10288000092800F130078ABF3730F8B2C0B206F825
:10289000010F1846002BEED10A1953704CB1107875
:1028A00015F8016F28700133E01A834202F80169BC
:1028B000F5DB0846F0BC704710B4114B53F83020DC
:1028C00092F8804234B1012379B182F880305DF80A
:1028D000044B704703EBC0035B681A6851B922F0E0
:1028E00002021A605DF8044B704782F800315DF80F
:1028F000044B704742F003021A605DF8044B7047C6
:10290000489A00001C4A02EBC00301295B6811D001
:1029100004291BD052F83000002280F8802229B10F
:10292000022920D0032922D01A6070474FF4807208
:102930001A60704752F830004FF4A27280F880128B
:102940001A601A6822F020021A60704752F830109C
:102950004FF4A272012081F880021A601A6842F0D6
:1029600020021A60704740F203121A6070474FF459
:1029700081721A60704700BF489A000030B4054B5E
:10298000054D064C002210211A602A602060196053
:1029900030BC704714D0034004D0034000D0034043
:1029A00038B5A0F14203012B04461FD9002975DD7B
:1029B000904B1B78012505FA03F28A4202D83F2882
:1029C00027D938BDC21E012A2BD9A0F11D02012A28
:1029D00073D90E2856D9A4F12302032A57D9864A5F
:1029E000126802FB011222FA03F320E0814B1B78EC
:1029F0000B2B0AD90C2B1CBF0C3B1941422C08464F
:102A000057D0BDE83840FFF78DBDC3F10C039940A6
:102A1000F4E72946FFF750FF2946BDE83840FFF7A5
:102A200071BF764A126802FB011222FA03F3A21E5A
:102A3000242A00F2D580DFE812F0CC00C500BE00E9
:102A4000B700B000A900A2009B009400D300D300FF
:102A5000D3008D00D300D300D300D300D300860071
:102A60007F0078007100D300D300D300D300D300DF
:102A70006A006300D300D300D300D3005C0055008C
:102A80004E00470044F28412C240D207A3D55C4AEC
:102A9000126802FB011222FA03F3C8E73F2890D81C
:102AA0000021FFF709FF20460121BDE83840FFF76C
:102AB00029BFBDE83840FFF717BD524A126802FB34
:102AC000011222FA03F3B2E74F49504A0B604FF468
:102AD0005173136038BD4E494E4A0B604FF4517329
:102AE000136038BD4C494D4A0B604FF4517313606D
:102AF00038BD4B494B4A0B604FF45173136038BDDE
:102B000049494A4A0B604FF45173136038BD484934
:102B1000484A0B604FF45173136038BD4649474A29
:102B20000B6040F24443136038BD4549454A0B6091
:102B300040F24443136038BD4349444A0B6040F2BD
:102B40004443136038BD4249424A0B6040F244435B
:102B5000136038BD4049414A0B6040F24443136062
:102B600038BD3F493F4A0B6040F24443136038BDD3
:102B70003D493E4A0B6040F24443136038BD3C4936
:102B80003C4A0B6040F24443136038BD3A493B4A2B
:102B90000B6040F24443136038BD3949394A0B6039
:102BA00040F24443136038BD3749384A0B6040F265
:102BB0004443136038BD3649364A0B604FF45173B5
:102BC000136038BD3449354A0B604FF451731360BC
:102BD00038BD3349334A0B6040F24443136038BD7B
:102BE0003F2C3FF6EEAE7F29D4BF002101212046C5
:102BF00057E700BF2807FF1F0880034008900340E5
:102C000008900B4008800B4048900B402CB00440CB
:102C100040900B4028B0044038900B4024B0044052
:102C200030900B4020B0044018800B404CA0044072
:102C300010800B4048A004401880034008B00440B6
:102C40001080034004B004404080034018C004409A
:102C50003880034014C0044018900B4004C0044066
:102C60002880034010B00440208003400CB0044092
:102C700028900B400CC0044020900B4008C004403A
:102C80003080034010C00440488003401CC0044012
:102C9000189003403490044010900340309004405A
:102CA00010900B4000C004403F2801D8FFF704BE3D
:102CB000704700BF3F2801D8FFF724BE704700BF10
:102CC00072B60C490C4B0D4A1B680868126862B654
:102CD000520102D5322B88BF01300949C3F5EA33CE
:102CE0004FF47A72BF33A1FB031302FB00F000EB39
:102CF000931070479815FF1F18E000E004ED00E006
:102D0000898888882DE9F843054672B6204F214B03
:102D1000214A1B683C68126862B6520102D5322B08
:102D200088BF013495B3C3F5EA331C4EDFF86490D5
:102D3000DFF86480BF334FF47A72A6FB031302FB03
:102D400004F404EB931472B6D9F800103A68D8F87A
:102D500000E062B6C1F5EA33BF33A6FB03031EF001
:102D6000806FC4EB93134FF47A7002D0322988BF7E
:102D7000013200FB0233B3F57A7F04D3013D05D065
:102D800004F57A74DFE702F019F8DCE7BDE8F883B0
:102D90009815FF1F18E000E004ED00E0898888889E
:102DA000F8B53E4B3E49DFF818C13E4E3E4ADFF8CB
:102DB00014E13E4D3E4C3F4F4FF0006018604FF025
:102DC000805018604FF0005018604FF0804018603D
:102DD0004FF0004018600020086028234EF6FF7175
:102DE000CCF80010CEF8003033600EF5012E1360E1
:102DF0002B60236005F500253B6004F50024B362D9
:102E000007F50027936206F5012602F501220EF16F
:102E1000100E05F6E87504F6E87407F57F671032C2
:102E200020362B602360CEF800303B6013603360A7
:102E3000214EBB61936109223260A7F5002706F598
:102E40008056203F083638603160BB60F36047F839
:102E5000042C06F5FD2607F5FE2706F2FC7604375E
:102E600030603960B360FB6046F8042C0836C7F860
:102E7000FC0F06F6FC76114831602B60236002607F
:102E8000FFF744FA1920FFF73DFF01F071FD40F212
:102E90001310BDE8F840FFF735BF00BF04E100E0C4
:102EA00004800340148003401C80034024800340BE
:102EB0002C800340348003400080034000900B408E
:102EC000088003400C8003402DE9F84F2C4B1B6811
:102ED00007460BB101221A70DFF8BC90DFF8BC8006
:102EE00099F80040D8F80030264D274E01349C4216
:102EF0002ABF4FF0000A5FFA84FA5446AB462B789B
:102F0000A3421CD1FFF794FC40282BDC33791B062D
:102F1000F5D59BF80030D8F80010DBB25A1C8A4275
:102F200025D23F2A29D919493F3B0968CB5CD1B248
:102F3000DBB2DBB2F37129702B78A342E2D03F2CD5
:102F40008ABF124B124B1B68124988BF403CFFB22C
:102F50001F550D4B0120BC22087089F800A0DA70C3
:102F6000BDE8F88FFF28CADD01F028FFC7E7002180
:102F70000A46074B9B5CDBB2DBE7D1B2F9E700BF47
:102F80003416FF1F2D16FF1F00A00640E815FF1F77
:102F9000A415FF1F2C16FF1F3816FF1F3807FF1F31
:102FA000324A33491368F0B543F4806313600A78FA
:102FB000304F314E314D324C32490023152A3B708F
:102FC00033702B7023700B7045D01B2A3ED082B318
:102FD0002D4B1B78052B34D01A2B41D0012B1BD045
:102FE0001F281FD8002002460125284B284C1A70A4
:102FF00028495D7004224FF0020E88273C264025A8
:1030000098729A704FF0004083F813E05A751F745D
:10301000DE7025700860F0BD1F4B4FF451721F2801
:103020001A60DFD9C0F34432C0F3471500F01F0027
:10303000DBE71A4B40F213321A60134B1B78052B57
:10304000CAD1174B4FF451721A60C9E7154B40F2C1
:1030500013321A60BCE7144B40F213321A60B7E720
:10306000124B4FF451721A60BAE700BF348004402B
:10307000E415FF1FA015FF1FA115FF1F3816FF1F26
:103080002D16FF1F2C16FF1F3C07FF1F00A0064038
:103090001FE400E000E100E044A0044040A0044040
:1030A0001CC004403C90044018C0044038900440C8
:1030B000284B28499B7803F0EC0200F003031343EC
:1030C000420700F00F0248BF43F01003042A8B7040
:1030D00038D0204B1F4A5B79C10603F0EF0348BF8D
:1030E00043F0100353719379820603F0EF03194AFA
:1030F00048BF43F010039371C30506D55378117888
:10310000DBB241F020011170537010F4007005D152
:10311000114B124A1968914219D0704730B40D49C9
:103120000F4D8A780F4B0C480C4C42F0A0028A706D
:103130002A78046003EBC20340F247325B6830BC7C
:103140001A6070478B7943F040038B71C1E71860B8
:10315000704700BF00A006403416FF1FD400D442C1
:103160003C07FF1F489A00002A4B1B685B0536D5B9
:1031700010B5294C237823B101F020FE2378002BD1
:10318000FAD12648264A274B4FF00044002104601C
:10319000D1701B78152B23D01B2B35D01BB9224B9C
:1031A00040F203121A60214B1B7803F07F03052BBA
:1031B00020D01A2B23D0012B03D11D4B40F2031238
:1031C0001A601C4A164B1C481C4912681C79DB7992
:1031D000002303700B700AB10123137010BD7047F8
:1031E000174B40F203121A60104B1B7803F07F0359
:1031F000052BDED1134B40F203121A60E1E7124BAC
:1032000040F203121A60DCE7104B40F203121A601E
:10321000C9E700BF348004402C16FF1F80E100E0A6
:1032200000A00640E415FF1F40A004403C07FF1F1C
:1032300044A004409C15FF1FA015FF1FA115FF1FF0
:1032400018C004401CC00440389004403C90044026
:103250000A4A38B50546137803F0FF04002BFAD16B
:1032600001212846FFF726FD21462846FFF71CFDD1
:10327000034A044B52F835201A6038BD2C16FF1F44
:10328000489A00003416FF1F09B140F080001E4A22
:10329000137898421BD010B41C4C2468640513D5D5
:1032A00003F07F03052B2AD01A2B24D0012B14D036
:1032B000002900F07F0114BF60234423052915D0A5
:1032C0001A290ED0012903D010705DF8044B704705
:1032D0000F4943F440730B60F6E70D4B00241C606C
:1032E000E6E70C4943F440730B60EDE70A4943F409
:1032F00040730B60E8E7074B00241C60D8E7064BDF
:1033000000241C60D4E700BF3C07FF1F348004404A
:1033100044A00440389004401CC00440174A13786D
:1033200083420ED016490968490509D5152B20D0CE
:103330001B2B1AD05BB115280DD01B2810D008B15B
:10334000107070470F4B40F213311960F8E70D49C8
:1033500015280B60F1D10C4B40F213311960EFE7E7
:103360000A4B40F213311960EAE7084B002119605B
:10337000E1E7054B00211960DDE700BFE415FF1F01
:103380003480044040A0044018C004403C900440F5
:103390000D4B1B6813F4806305D03F2805D90B4BF8
:1033A00000201860704718467047094B10B5074C4D
:1033B00053F8303023600121FFF77CFC23680022A2
:1033C0001A70012010BD00BF348004409C15FF1FFF
:1033D000489A00000F4B1B6813F4806308D0122832
:1033E00008D0142811D00C4A537B03F0FE0353730A
:1033F00000207047094B40F202321A60064A537BA4
:1034000043F00103537301207047054B40F2023231
:103410001A60F3E73480044000A006400CA004408A
:1034200014C00440034B1B685B0501D5FFF74CBD7E
:10343000704700BF348004403E4B1B685A0575D569
:103440002DE9F04F3C4B1B6883B00BB101221A7081
:1034500043189842019363D2DFF8F080DFF8F090D0
:10346000364CDFF8F0B0364F451C18E02278924514
:103470005FFA8AF629D0BAF13F0F1ED9DBF8002097
:1034800015F8011CAAF14003D1542A462D49012305
:103490000B701D44019B88F800609A4240D298F856
:1034A0000030D9F8002003F1010A9245DED32378D9
:1034B00003F0FF0643B10026B246234B15F8012C5A
:1034C00003F80A202A46E1E7B246BC22FA7005E07A
:1034D0003A7913060BD422785245CCD1FFF7A8F9DC
:1034E0004028F5DDFF28F6DD01F068FCF3E72278DF
:1034F000D9F80010D2B2501C88420BD23F2816D9FE
:10350000DBF800103F3A8A5CC1B2D2B2D2B2FA7193
:103510002170E0E7002108460B4B1A5CD2B2F5E7B8
:10352000074BBC22DA7003B0BDE8F08F7047C1B220
:10353000F2E700BF348004403416FF1F2D16FF1F32
:1035400000A006402C16FF1FA415FF1F3816FF1FF2
:103550003807FF1FE815FF1F10B5044C237823B16F
:1035600001F02CFC2378002BFAD110BD2C16FF1F84
:10357000084B094A1B781078DBB2C0B2834202D2F2
:103580000138C01A7047054A1268013A1044C01A3F
:10359000704700BF3816FF1F2D16FF1F3807FF1F8B
:1035A000064A074B10781B78C0B2DBB2984202D2B1
:1035B000044A12681044C01A704700BFA015FF1FCC
:1035C000A115FF1F2C07FF1F70B4184B184D1B7857
:1035D0002A78D9B2D2B2914222D0164B1C68531C21
:1035E000A34214D3002213461348C05CC0B2134E4A
:1035F0002A7032684AB1994238BF0919CB1A10496A
:1036000009688B4201D80023137070BC70473F2BB0
:1036100009D90C483F3A0068805CDAB2C0B2E6E7EC
:103620004FF0FF30F1E7DAB2DEE700BFA015FF1F71
:10363000A115FF1F2C07FF1FEC15FF1F9C15FF1F77
:103640003007FF1F3016FF1F0D4A0E4B12781B78F4
:10365000DBB29A4211D00C4A11685A1C8A4204D338
:1036600000220A4B985CC0B270473F2AF9D9084A39
:103670003F3B1268D05CC0B270474FF0FF307047DC
:10368000A015FF1FA115FF1F2C07FF1FEC15FF1F23
:103690003016FF1F0D4B1B685B0516D530B40C4B65
:1036A0000C4CDA780C480D4902F0CB024025DA7058
:1036B0005D74DA7842F03402DA7023780268DBB2A3
:1036C0000B700AB10023137030BC70473480044083
:1036D00000A00640A115FF1F9C15FF1FA015FF1F8E
:1036E0002DE9F041504A137913F0300F44D072B6EF
:1036F000937D03F0FF01002B57D062B6DFF85881AD
:103700004A4B4B4D98F800004A4C1B782F68D4F870
:1037100000C0DFF848E11546C0B2DEB20CE09642C8
:10372000A0F13F0404D03F2A7CD90CF804301046A5
:103730004A1E12F0FF010DD0EB79421CBA42DBB2F7
:10374000EDD3002EF4D000204A1E12F0FF010EF837
:103750000030F1D1384B1A68C3B288F800305AB142
:103760003649B04238BFBB1B09682CBF831B1B18EE
:103770008B4224BF012313702B48C178C9B20D06B8
:1037800018D44A060FD5284B1B795B060BD52C4B5A
:103790002C491B6800220A7003B11A70224B3C228C
:1037A000DA70BDE8F081BDE8F0814023D17953742F
:1037B00062B6E1E703791C06E3D5234BDFF8A0E00E
:1037C0001D789EF80030EDB2DBB29D421ED01F4C3A
:1037D0001F4A2668D2F800C01E4F0DE03F2C027928
:1037E0001ED91CF803202346D2B2D2B2C271027D88
:1037F000072A0BD89D4209D05C1CA642A3F13F03C7
:10380000ECD803790023FA5CD2B2EEE7DBB2064AC9
:103810008EF800301379180644BF7C23D370B0E7CC
:103820002346F0E710468FE700A00640A115FF1FD2
:103830002C07FF1F3016FF1F9C15FF1F3407FF1FAB
:103840003416FF1F2C16FF1F3816FF1F3807FF1FE7
:10385000E815FF1FA415FF1FA015FF1FEC15FF1F84
:103860002D16FF1F084B1860084B50B101F14002A4
:103870001A60074A074B01F11A00283110601960DD
:10388000704740221A60F4E73016FF1F2C07FF1F15
:103890003007FF1F3407FF1F044B1860044B10B1A3
:1038A00040311960704740221A607047E815FF1FC9
:1038B0003807FF1F2DE9F84F2C4B1B6807460BB14B
:1038C00001221A70DFF8BC90DFF8BC8099F8004044
:1038D000D8F80030264D274E01349C422ABF4FF0C5
:1038E000000A5FFA84FA5446AB462B78A3421CD1F7
:1038F000FEF79EFF40282BDC33791B06F5D59BF89D
:103900000030D8F80010DBB25A1C8A4225D2272A90
:1039100029D91949273B0968CB5CD1B2DBB2DBB2AC
:10392000F37129702B78A342E2D0272C8ABF124B67
:10393000124B1B68124988BF283CFFB21F550D4B24
:103940000120AC22087089F800A0DA70BDE8F88F79
:10395000FF28CADD01F032FAC7E700210A46074B0B
:103960009B5CDBB2DBE7D1B2F9E700BFB816FF1F03
:10397000B116FF1F00C006406C16FF1F4416FF1F44
:10398000B016FF1FBC16FF1F4C07FF1F1B4BDFF8B5
:1039900090C01A681A49F0B542F48052194D1A6065
:1039A000DFF880E0184F194E194C00238CF80030D6
:1039B0004FF451722B701F2840F213358EF80030EF
:1039C0003B70337025600A6011D819460124114AF2
:1039D000114D11701148547000212C27402693720C
:1039E000082491701174D7702E700460F0BDC0F37C
:1039F0004431C0F3471400F01F03E8E7348004406B
:103A00000CC004404116FF1FB116FF1FB016FF1F68
:103A100008C0044000C0064023E400E004E100E0E8
:103A20004016FF1FBC16FF1F284B28499B7803F048
:103A3000EC0200F003031343420700F00F0248BFFB
:103A400043F01003042A8B7038D0204B1F4A5B7957
:103A5000C10603F0EF0348BF43F01003537193799D
:103A6000820603F0EF03194A48BF43F01003937135
:103A7000C30506D553781178DBB241F020011170EF
:103A8000537010F4007005D1114B124A196891421D
:103A900019D0704730B40D490F4D8A780F4B0C4840
:103AA0000C4C42F0A0028A702A78046003EBC20337
:103AB00040F247325B6830BC1A6070478B7943F044
:103AC00040038B71C1E71860704700BF00C006401B
:103AD000B816FF1FD400D8425007FF1F489A0000B5
:103AE000F8B5124B1B68DB041ED5114C237823B1AB
:103AF00001F064F92378002BFAD10E4B0E4A0F4DDA
:103B00000F4F104E104C1148082119600023D3703C
:103B100040F203113960316029681579D279237038
:103B2000037011B101230B70F8BDF8BD348004405F
:103B3000B016FF1F84E100E000C006403C16FF1FE6
:103B400008C004400CC004404016FF1F4116FF1F70
:103B50000A4A38B50546137803F0FF04002BFAD162
:103B600001212846FFF7A6F821462846FFF79CF8D2
:103B7000034A044B52F835201A6038BDB016FF1FB7
:103B8000489A0000B816FF1F09B140F08000104AA3
:103B9000137898421AD010B40E4C2468E40412D55D
:103BA00003F07F03082B02D10B4B00241C6000297B
:103BB00000F07F0314BF60214421082B03D1064B82
:103BC00041F44071196010705DF8044B704700BFFC
:103BD0005007FF1F348004400CC00440704700BFF2
:103BE0000D4B1B6813F4805305D03F2805D90B4BB0
:103BF00000201860704718467047094B10B5074CF5
:103C000053F8303023600121FFF754F82368002275
:103C10001A70012010BD00BF348004403C16FF1F05
:103C2000489A00000C4B1B6813F4805306D00E28F2
:103C300006D00A4A537B03F0FE03537300207047FB
:103C4000074B064A40F202311960537B43F00103EF
:103C500053730120704700BF3480044000C0064009
:103C600004C00440034B1B68DB0401D5FFF722BEF0
:103C7000704700BF3480044070B5094E04464518B3
:103C8000AC4204F101040AD03368DB04F8D514F81F
:103C9000010CFFF70FFEAC4204F10104F4D170BD3A
:103CA0003480044010B5044C237823B101F086F829
:103CB0002378002BFAD110BDB016FF1F084B094A1C
:103CC0001B781078DBB2C0B2834202D20138C01A2E
:103CD0007047054A1268013A1044C01A704700BF85
:103CE000BC16FF1FB116FF1F4C07FF1F064A074BEC
:103CF00010781B78C0B2DBB2984202D2044A126834
:103D00001044C01A704700BF4016FF1F4116FF1F26
:103D10004007FF1F70B4184B184D1B782A78D9B292
:103D2000D2B2914222D0164B1C68531CA34214D32A
:103D3000002213461348C05CC0B2134E2A7032688A
:103D40004AB1994238BF0919CB1A104909688B4208
:103D500001D80023137070BC70473F2B09D90C4861
:103D60003F3A0068805CDAB2C0B2E6E74FF0FF305D
:103D7000F1E7DAB2DEE700BF4016FF1F4116FF1F72
:103D80004007FF1F7016FF1F3C16FF1F4407FF1F51
:103D9000B416FF1F0D4A0E4B12781B78DBB29A4205
:103DA00011D00C4A11685A1C8A4204D300220A4BD3
:103DB000985CC0B270473F2AF9D9084A3F3B126865
:103DC000D05CC0B270474FF0FF3070474016FF1F05
:103DD0004116FF1F4007FF1F7016FF1FB416FF1F7D
:103DE000054B064A1B7806491268DBB20B700AB114
:103DF00000231370704700BF4116FF1F3C16FF1FC2
:103E00004016FF1F30B43C4B1A79940626D53B4D23
:103E1000DC793B4B29781A683A4BC9B2481C90426E
:103E2000E4B232D3197801F0FF03002957D0002300
:103E3000184635490C542B703449096871B1344B1C
:103E40001B78DBB2834284BFD21A1318314A12683E
:103E500098BFC31A934224BF01230B70264AD3781C
:103E6000DBB218061DD45A060DD5234B1B795B0611
:103E700009D5294B29491B6800220A7003B11A7021
:103E80001D4B2C22DA7030BC70471B789842D3D07F
:103E90003F282FD9224B3F391B685C54C3B22B708B
:103EA000CAE711790906DED51E49194C0878217830
:103EB000C9B288421BD01C4A1268481C904210D2DA
:103EC000272898BFC1B20ED9184A27391268525C08
:103ED000C1B2D2B20848D2B2C2712170C3E718464B
:103EE000AAE700210846124A125CD2B2F2E76C211E
:103EF000D170B8E7C3B29CE700C006404016FF1F70
:103F00004007FF1F4116FF1F7016FF1F3C16FF1FC3
:103F1000B116FF1F4807FF1FB816FF1FB016FF1F7F
:103F2000B416FF1FBC16FF1F4C07FF1F6C16FF1FA8
:103F30004416FF1F084B1860084B50B101F14002B6
:103F40001A60074A074B01F11A0028311060196006
:103F5000704740221A60F4E7B416FF1F4007FF1FA6
:103F60004407FF1F4807FF1F044B1860044B10B1A4
:103F700028311960704728221A6070476C16FF1F9D
:103F80004C07FF1F704700BF704700BF431E032B45
:103F900014D872B60A4951F8230068B170B4094CBC
:103FA000058834F81320466841F82360521B24F832
:103FB000132062B670BC704762B67047002070472D
:103FC0001817FF1F2018FF1F013803280BD872B6DF
:103FD000074B53F8203043B100205B680130002BC1
:103FE000FBD162B67047002070471846F9E700BF62
:103FF0006C17FF1FF0B472B61A491B4E012311F85B
:10400000014B194F9A00240742F0010505D556F8D7
:10401000324064B156F83520BAB10133052BEED1E8
:1040200062B6124B00221A70F0BC00F037BD0F4C84
:104030000F4D217807EB4313083001395860217088
:1040400047F8325062B6F0BC7047084A0949137805
:1040500007EBC5040830013B6060137047F835106A
:1040600062B6F0E7709C00000000FF1F9517FF1F6D
:1040700088004000C8004000431E032B1DD81B4A87
:10408000400140F0100030B4104472B6184CE25CAD
:10409000032A1BD8DFE802F00212151703220D884D
:1040A000E25410F0080F14BFC823882343EA0543E5
:1040B00008314160036062B630BC704708300222AC
:1040C000EDE70522EBE708300422E8E7094A52F859
:1040D000230038B1084A52F82300416042F8231007
:1040E00062B6E9E742F82310034AF7E70000FF1F32
:1040F000A417FF1F6C17FF1F7C17FF1F2DE9F04F40
:10410000DFF814B3DFF814A387B044E0AD4F4FEAF3
:10411000930807EBC809013ED9F8042003F008030F
:10412000F6B2A2F1080003F0FF04002B40F0038177
:1041300057F838301B0C99B222F8081C002B00F0FD
:10414000F180A14B22F8064C42F8044C53F826208B
:10415000002A00F06C819D4D55F8263058609C4C2B
:1041600045F8260034F81630194424F8161000F0EB
:1041700075FC002800F05481964A974B19F0080FFF
:1041800000F1080018BF1346C9F8040047F838309A
:1041900008238BF800309BF80040E4B260071BD581
:1041A0008E4B1B78ABB18E490A7802F0FF032AB11F
:1041B000013BDBB20B70002B00F0B58389490A7814
:1041C00002F0FF032AB1013BDBB20B70002B00F0C1
:1041D000F68004238BF8003004F0080303F0FF029C
:1041E000002B00F0D5809AF80030DBB21E098DD18B
:1041F0009C08744F57F8342007EBC401C2F38302C4
:10420000013A49680C2A7ED8DFE802F081817D7D81
:104210007D7D7D7D427D7D7D07000868724B734DFD
:1042200001936C4B4A68724E47F8343081B240F2C9
:1042300081646D4B6A60286000220120A1423A61CE
:104240001A60BA61307000F2F680B1F5D06F80F07C
:10425000E882B1F5817F00F0D38200F2D881802915
:1042600000F04D81822940F09282A988614B01F0D3
:104270007F01042900F28C825F4C89000B4422707C
:1042800062701A78930740F13883207002203AE177
:10429000554B01931A6862B3584B5949544E1888CC
:1042A0000C7896F800E04028054684F0010C28BF01
:1042B000402544F00204BEF1000F81F800C0A0EBDD
:1042C000050007EBC40C0CBF8821C82180B28EF01A
:1042D000010E41EA0541CCF80420188086F800E080
:1042E0002A4447F8341010B9402D18BF0022019B12
:1042F0001A603E4B1A88B2F5A06F04D100219A785B
:104300005970404B1A70404A0123137040E7374AF6
:10431000158842F22100854200F052812D4A47F86B
:104320003420F0E72B4A2C4B19F0080F18BF134626
:1043300047F838302CE700F0B1FB344A344952F8E2
:104340002630002B00F02D8158688C5D42F8260045
:1043500003F10802C9F80420032C05D8DFE804F0B3
:10436000120F150204228A551A8819F0080F0CBF83
:104370008823C82343EA024347F8383008E702227B
:104380008A55F1E703228A55EEE705228A55EBE7C5
:10439000E00700F17881210600F1A281A20706D58D
:1043A0001C4A1D4913780220DBB213700870E30623
:1043B00002D5194B10221A7007B0BDE8F08F00F03B
:1043C000D9FC06E70000FF1F1817FF1FC416FF1FC8
:1043D0002018FF1FC800400088004000A017FF1FE2
:1043E0002917FF1FA817FF1FC016FF1F8C17FF1FDD
:1043F0002817FF1FC02007409817FF1FD416FF1F64
:104400009417FF1F98200740942007406C17FF1F48
:10441000A417FF1F882007408020074090200740F6
:10442000B74A47F83800137801331370B0E643F801
:104430002600B44D93E642F22104A14200F0AD8083
:1044400000F20E81B1F5086F00F05481B1F5106FE4
:1044500040F09D81AC4AA9781170AC4D042402E073
:104460000134142C0CD057F834301906F8D505EB6C
:10447000C40301345868083800F010FB142CF2D142
:10448000A349A44BA44A0291A449A54C9D4D039471
:1044900005964FF0000988461C461646049520688C
:1044A00028B1456800F0FAFA2846002DF9D100231A
:1044B0002360049B30681A46002342F8293028B153
:1044C000456800F0EBFA2846002DF9D10022326051
:1044D000029A98F800301146002241F8042B039A02
:1044E0000291023B4FF0000122F81910032B00F259
:1044F000B481DFE813F0E201AE01E201AE01894CC4
:10450000022022706270EA88824280F00D82864921
:104510000D78402A45F0020E944607EBCE0028BFE6
:104520004FF0400C04EB0C0344600293CCEB020010
:104530004FEA0C484FF001090022C82444EA08035E
:1045400085F0010447F83E3032700C70DFF8BCE1B2
:10455000764BDFF8D481002840F02081BCF1400F79
:104560001BD144F0020407EBC403029FDFF89CE177
:104570005F60002A40F02781020442F0880286F83A
:1045800000900D7007444EF834203B46402804D17B
:104590000020674A019910800B60664A012313705E
:1045A000B1E68B5D032B00F2248101A252F823F0C7
:1045B0009141000091410000D5460000DB4600001B
:1045C000928862B95C4ACD1D11F8013B02F8013FA7
:1045D0008D42F9D1594A1268862A00F0C9805249A1
:1045E000524E0878327840F0020580F001000870E1
:1045F00007EBC501002A4FF00000486082F001027D
:104600000CBF8821C82147F83510327086E640F289
:104610000232914240F0B080A98801F07F01042964
:1046200000F2B5806A88002A40F0B180444C8900CD
:104630000C448146217841F0020121700020029053
:1046400080468446044638490D7845F0020E07EB53
:10465000CE03B9F1000F5C600CBF8824C8246DE75D
:1046600042F22124A14240F08E80A988002940F026
:104670004281344B344A354C1B68AD781360814617
:104680000A462570DAE72B49204B3148264EDFF8E1
:10469000B0C0304DDFF8D4E02F4F02240C702F4C07
:1046A00018605C6098602E48D8601A619A610D238A
:1046B00032702C4C8CF800302B4EFF232B700120D5
:1046C0009F258EF800303A7033702570087007B05F
:1046D000BDE8F08F00238B555AE501238B5557E534
:1046E0001749224B80220D2008701A70A2077FF50F
:1046F0005EAE55E6044A0B4C1278227003E700BF09
:104700009517FF1FC416FF1FA017FF1F0000FF1FF4
:104710007C17FF1F1817FF1F6C17FF1FA417FF1F21
:104720002018FF1F9817FF1F9417FF1F2817FF1F40
:10473000D416FF1F942007402718FF1F2818FF1FBB
:10474000C02007409815FF1F3018FF1FB817FF1F24
:10475000880040008820074098200740D816FF1F97
:104760002C17FF1F842007408C2007408020074023
:10477000754A0F21117032E7B1F5A06F07D1002201
:104780004FF001095AE742F221329142F7D06F4BC4
:104790000F221A706E4A01231370B4E540287FF689
:1047A000E0AE44F002040EEBC401029E4E60AAB1DA
:1047B00083F80090674A88F8005033464038403309
:1047C0004EF83420E5E6029B86F80090020442F0A1
:1047D000C8020D7003444EF83420D7E683F80090E9
:1047E000029B5D4A88F80050403840334EF8342030
:1047F000CFE619F0080F0CBF022303238B55C7E443
:10480000A98801F07F010429C1D86A88002ABED195
:104810004E4C89000C448146217821F00201217020
:104820000CE74E4A5468002CB1D06888B5F804E013
:1048300003E00C325468002CA9D013888342F8D1CD
:1048400053887345F5D1000A03280CBF20781089DE
:1048500059E64FF0010388F8003009F10109B9F178
:10486000040F04F1040406F1040608F101087FF4C2
:1048700016AE3B4B059E3B4DDFF8F08000201870D4
:104880004FF0010918F8013B05F8043B1A0719D449
:104890004FEA890444F0020244F00304002347F87D
:1048A000323047F83430304B9D4209F10109E9D1EB
:1048B00096F8009089F00102C0E64FF0000388F8F6
:1048C0000030CAE700F0CAF818B307EB49134FEA03
:1048D000890408305860204B47F8343000F0BEF8A7
:1048E00068B144F0010307EBC30208305060194A75
:1048F00047F83320CEE78146A0E6022003E6184BB6
:1049000044F001021B7847F83200154A0133137056
:10491000C0E7134B124A1B784FEA8904013347F86A
:1049200034001370DAE700BE4028844628BF4FF0F9
:10493000400C04EB0C03CCEB00004FEA0C48029354
:1049400000224FF001097EE62917FF1FC020074013
:1049500094200740C800400088004000749C00007C
:104960009517FF1FC4200740D4200740709C00000B
:104970002DE9F04100F0EEFA002323491A4601EB3D
:10498000C30041F833200133142B42604FF0000480
:104990001D48F4D11D491E4A0B68DFF88C801D4F5D
:1049A0001D4D1E4EDFF884C0DFF884E043F4802301
:1049B0000B60136843F040731360C0F3072388F85B
:1049C000003001F52831C0F307433B70000EFF2390
:1049D000CC3102F5C922287002F584728CF80030BF
:1049E0000F4D8EF800300F483370012308F8083C53
:1049F00070260C704FF40014102107F82C3C2E7018
:104A000004601170BDE8F0810000FF1F3480044095
:104A100000D80040B0200740B420074010200740D5
:104A200035E400E004E100E09C20074080200740DE
:104A30008820074000F0A2B800F07AB800F054B81F
:104A400000F08EB800F06AB900F044B9084611468B
:104A500000F0B0B8084600F031B900BF72B60D489A
:104A60000268B2FA82F30B2B10DC4FF00041D94000
:104A700022EA0102026062B6074803EBC303DB00CF
:104A8000C2180021C15010465160704762B6002024
:104A9000704700BF6407FF1F9803FF1F0D4B0E4AAE
:104AA000C31AA2FB03231B090B2B0CD80B4A127849
:104AB00052B972B60A484FF00041026821FA03F376
:104AC0001A43026062B67047064A1278002AF0D094
:104AD000FFF790BA9803FF1F398EE3389517FF1F31
:104AE0006407FF1FA017FF1F38B50F4D286878B166
:104AF00043880288C118013393420C7A02D2438062
:104B0000204638BDFFF7CAFF002320462B6038BD82
:104B1000064B1B782BB10320FFF738FA28600028DA
:104B2000E6D14FF0FF3038BDB417FF1FA017FF1FAD
:104B300010B5094C206818B143881844007A10BD9C
:104B4000064B1B782BB10320FFF720FA20600028CA
:104B5000F2D14FF0FF3010BDB417FF1FA017FF1F99
:104B6000044B054A1B6890881BB11A885B88D31ACE
:104B700018447047B417FF1F2018FF1F0B4B1B78FA
:104B80009BB110B50A4C206848B1FFF787FF00239E
:104B900003202360FFF7FAF930B1FFF77FFF03200E
:104BA000FFF7F4F90028F8D110BD7047A017FF1FD8
:104BB000B417FF1F2DE9F04FDFF8F89083B0012202
:104BC00089F80020019169B3DFF8EC80364F019E2F
:104BD0008346D8F80000B0B3344D4488C4F1400196
:104BE000B14228BF314604EB010E00221FFA8EFEAF
:104BF0002A70761AA0F802E000F1080251B1013CD7
:104C0000224459441BF8014B02F8014F8B45F9D15E
:104C1000B0F802E0BEF13F0F0BD8254A0521117014
:104C2000002ED6D10198002389F8003003B0BDE8EA
:104C3000F08F4022028001460420FFF71DFA002277
:104C4000C8F80020E9E73A782AB3184D4DF2E90494
:104C50004FF0010A07E0013C16D02A78A2B900F013
:104C6000ADF83A78BAB10420FFF7AEF90728F2D8C8
:104C700089F800A0FFF7F2FEC8F800000028ACD1C8
:104C80000C4B013C1870E8D101234FF0FF302B7022
:104C900003B0BDE8F08F00234FF0FF3089F80030FB
:104CA00003B0BDE8F08F00BFA017FF1FB017FF1FB4
:104CB000A817FF1FA917FF1FAC17FF1F00B583B070
:104CC00002AB012103F8010D1846FFF773FF03B093
:104CD0005DF804FB38B50E4D0E4C28680123237097
:104CE00028B1408800232370C0F1400038BD0A4B32
:104CF0001B7813B90020207038BD0420FFF764F939
:104D00000728F7D8FFF7AAFE28600028E9D1F1E7C5
:104D1000AC17FF1FA917FF1FA017FF1FF8B5114BF6
:104D20001B788BB1104E114D346801272F7064B180
:104D30000F4A638800271770214623800420FFF75D
:104D40009BF9376000232B70F8BDFFF787FE084BF7
:104D500028B1014604201C70FFF78EF9F2E71F709E
:104D6000F0E700BFA017FF1FAC17FF1FA917FF1F19
:104D7000A817FF1F38B50E4B1B7873B90D4C21686F
:104D800061B103F0FF054B880B800420FFF774F935
:104D9000256038BD084B01221A7038BDFFF75EFE52
:104DA0000028F7D00146BDE838400420FFF764B979
:104DB000A917FF1FAC17FF1FA817FF1F2DE9F84306
:104DC000314E337893B1314F3A787AB90122D9070D
:104DD0003A7036D49A0719D400225B073A7005D589
:104DE0002B4B1A6812B1EFF305820AB1BDE8F883C4
:104DF000EFF3108172B6186818B1264C2278002A99
:104E00002ED00029F2D162B6BDE8F883DFF8908099
:104E100098F80020002ADFD0DFF88890002405E011
:104E2000013498F80030E4B2A34212D959F8245062
:104E30002B6828461B6998470028F1D02B699847B2
:104E4000EEE7FFF78DFEC8B9134B1B781BB933781B
:104E5000C0E73378C0E7337803F0FE033370B9E777
:104E600045691D60012323705DB1AA6101B962B675
:104E700000254577836898472570B7E700F068F804
:104E8000E2E7064B1D60F1E76807FF1FB917FF1F38
:104E9000C817FF1FCC17FF1F6907FF1FC417FF1F8D
:104EA000E817FF1FD017FF1F70B5EFF3108272B61F
:104EB0000C4C206880B10C4E00254369236073B10F
:104EC0009D6102B962B6457783689847EFF3108217
:104ED00072B620680028F0D102B962B670BD3360A6
:104EE000EFE700BFBC17FF1FC017FF1FFFF7DCBFB6
:104EF000024A136801331360704700BF9815FF1F03
:104F000070B4104E104C3578D5B12368984215D046
:104F1000691EC9B204EB8101234603E053F8042F54
:104F200082420BD08B42F9D16A1CD2B2074944F8B5
:104F300025000B78327043F002030B7070BC704791
:104F40000122F3E7E817FF1FD017FF1F6807FF1FB5
:104F5000704700BF72B6184A184B19491160702289
:104F600080211A701A46197013781B06FCD510B5EB
:104F7000144B84B0186862B6134B144C984298BF17
:104F800000EB800001A998BF40000A22FDF76EFCEB
:104F900001A92046002311F8012B01333AB10A2B55
:104FA00020F8022FF7D11623237004B010BD5B0048
:104FB000DBB2237004B010BD0400024000000240C8
:104FC000000007410C0002407F969800F807FF1F81
:104FD00090F8392090F83800101A704790F838305F
:104FE00090F839209A4205D95A1C034480F8382099
:104FF000187E70474FF0FF30704700BF90F8383090
:1050000090F839209A4286BF1B18187E4FF0FF3067
:10501000704700BF704700BF38B50546B0F85E0066
:1050200090B195F85D301446C3F1210294420CD83A
:1050300005F13B0018442246FDF7E0FA95F85D3093
:10504000234485F85D30204638BD01201446287180
:10505000EEE700BFB0F85E306BB190F85D30202B0A
:1050600007D8C218013380F85D30012082F83B1068
:105070007047012303710020704700BF002342697D
:1050800080F8383080F8393080F85C3080F85D3056
:1050900080F85E3080F85F3006CA30B40D6804696D
:1050A00043662A4383660A60A370426990F86130C0
:1050B0001649146813441D7A5B7B01EBC5051B027E
:1050C0006D6803F4E06343F064032B6090F8623092
:1050D00013449D7CDB7D01EBC5011B02496803F491
:1050E000E06343F064030B6021685368194205D004
:1050F00003692C225A70036904229A7103692022E1
:105100005A71036980229A7030BC7047489A000037
:1051100038B50269D478E4B2E106054624D51023F7
:10512000D37063061FD504F0040404F0FF03002CC1
:105130005AD042496A6E00230B7085F85D30002A10
:1051400066D0904795F85D30002B61D02B69D02256
:105150009A702B6995F83B201A712B69012285F80A
:105160005C200222DA7038BD04F0400303F0FF0037
:10517000002BD8D19379DBB203F0600160294ED0C7
:10518000937803F0100303F0FF01B3B114F00104AE
:1051900037D195F85C3095F85D1099424BD9591C80
:1051A0002B4485F85C1093F83B3013712B69D022A7
:1051B0009A702B690222DA70D5E785F8601093792E
:1051C00043F0200393712B6995F839101A791F2940
:1051D000D2B2C6D8194800780028C2D06818013168
:1051E00085F839100276BCE72A6985F83930C02382
:1051F00093702B69114A1979012111700222DA701A
:10520000B1E7C02393702B691A790222DA70AAE7FA
:105210000122002385F85D2085F83B3096E703F0F6
:10522000DF039371AB6E23B185F8380095F8390030
:1052300098472A69A4E71471B8E700BFE917FF1F70
:105240002DE9F047374FDFF8E0903B68026982B004
:1052500006460093DDF800800021C825D3789B0620
:105260005BD53B680193019BC8EB03030F2BF5D97A
:1052700049B1102BF2D000209070336980229A70CF
:1052800002B0BDE8F087726996F8613013440521D9
:10529000187AFDF70FFD726996F861301344012109
:1052A00093F812A05046FDF705FD09240021504651
:1052B000FDF7FAFC2B46013BFDD101215046FDF7DD
:1052C000F3FC2B46013BFDD1013CEFD1706996F810
:1052D000611001444FF4C8720C7A4B7B09EBC40196
:1052E0001B02496803F4E06343F064030B6096F823
:1052F00062300344997CDB7D09EBC1011B024968E4
:1053000003F4E06343F064030B60013AFDD13269BA
:10531000D3789B064FF00101A3D4012002B0BDE871
:10532000F08700BF9815FF1F489A0000F0B5036989
:105330001222DA700269937803F0200385B00446E4
:105340000D46002B5ED0B42393703C4922690B6854
:105350000093009E05E00B680193019B9B1B042BAF
:1053600042D8D37803F0200303F0FF00002BF2D0E3
:1053700094F85D30002B31D04FF0000E4FF0020C4E
:1053800004EB0E0393F83B3013710B680393039FF8
:10539000206907E09B060DD50B680293029BDB1B7F
:1053A000052B28D8C378DBB203F0020202F0FF0617
:1053B000002AEFD080F803C02669F378DBB2DF065D
:1053C00032462DD49F062BD5DB0731D40EF1010ECA
:1053D00094F85D305FFA8EFE7345D1D800201DBB76
:1053E000002384F85E3004E09070236980229A7074
:1053F000042005B0F0BD86702369802204209A70D5
:1054000005B0F0BD03F0FF06FFF71AFF10B9042046
:1054100005B0F0BD236984F85F60B0229A7094E70C
:105420008023B3700420DAE726698023B370D7E7BE
:10543000BEF1000F0CBF02200320F6E79815FF1FF6
:105440002DE9F04106690025122780F8385080F8D0
:105450003950F770D0F810C09CF802E00EF0200E22
:1054600088B00446884615461E46BEF1000F49D056
:10547000B4238CF80230784B21691A680092DDF869
:1054800000E006E01A6801920198CEEB00000428C3
:1054900030D8C87800F0200000F0FF070028F1D0D5
:1054A0004FEA480242F00102D2B20A711A6802922F
:1054B000DDF808E0206906E01A6803920399CEEB54
:1054C000010105292AD8C17801F0020101F0FF0786
:1054D0000029F1D04FF0020C80F803C02269D17886
:1054E00011F0110722D12DBB002E0CBFA023802369
:1054F000937003E08F70236980229A70384608B059
:10550000BDE8F0810EF0FF07FFF79AFE0028F5D006
:10551000236984F85F70B0229A70ACE787702369C2
:10552000802238469A7008B0BDE8F08180239370DD
:105530000027E3E7012D75D0A021917021690A7938
:10554000BE4667464FF0A80C1A680492049805E01E
:105550001A680592059A121A052A4AD8CA7802F0E2
:10556000020202F0FF08002AF2D0CF702169CA7847
:10557000D2B212F0100F08465AD1920658D5013D0A
:10558000EDB2012D49D0BEF11F0F3BD90A79012D93
:10559000DAD11A680692069D05E01A680792079A02
:1055A000521B052A46D8C27802F0020202F0FF011F
:1055B000002AF2D00223C3702269D378DBB2D90665
:1055C0003AD49B0634D5B023BEF11F0F93703FD859
:1055D000226904EB0E0312791A760EF1010E5FFABE
:1055E0008EFE16B1236980229A7084F839E07746DE
:1055F00084E781F80280236980229A70774684F8D4
:1056000039E07BE704EB0E0291F8048082F8188001
:105610000EF1010E5FFA8EFEB9E781F802C0216932
:105620000846B0E7A82191702069BE460279B0E72C
:10563000774663E78170DEE71021C823D170013B14
:10564000FDD12269937803F0F7037746937055E70D
:1056500023691B79C5E700BF9815FF1F0148FFF7B5
:1056600057BD00BF7C08FF1F0148FFF751BD00BFB9
:10567000E808FF1F0148FFF74BBD00BF1008FF1FE0
:105680002DE9F0411A4C4FEA400E0126074620460C
:1056900090461D4684F83BE084F85E6084F85D60C7
:1056A000FFF7D8FC31462046FFF740FE334642461E
:1056B00039462046FFF7C4FE94F8392094F8383074
:1056C0009A4213D00021E6189A42C8B203F10103AE
:1056D0008ABF84F83830FF23337E2B5494F8392066
:1056E00094F838309A4201F10101ECD1BDE8F08123
:1056F0001008FF1F70B50B4C4300164601252046CD
:1057000084F83B3084F85E5084F85D50FFF7A2FCCB
:1057100031462046FFF79EFC29462046BDE87040F2
:10572000FFF704BE1008FF1F00B551EC100B2C4A08
:1057300021F00043934285B020DD2A4A934209DDDF
:1057400010EE102A0B4602F0EDFD41EC100B05B0F7
:105750005DF804FB684600F0B3FB00F0030001288D
:1057600028D0022815D060B301209DED021B9DEDCD
:10577000000B01F04DFE51EC100BE6E79FED161B00
:1057800001F0F2F851EC100B41EC100B05B05DF894
:1057900004FB9DED021B9DED000B01F0E5F853ECC1
:1057A000102B10EE100A03F1004141EC100B05B074
:1057B0005DF804FB9DED021B9DED000B01F028FE42
:1057C000EDE79DED021B9DED000B01F0CDF851ECD6
:1057D000100BBAE7AFF300800000000000000000EB
:1057E000FB21E93FFFFFEF7F08B52DED048BB0EE05
:1057F000418AF0EE618AB0EE409AF0EE609A00F0D5
:105800001FF830B9B0EE480AF0EE680ABDEC048B20
:1058100008BDB0EE480AF0EE680A00F011F838B1A1
:1058200053EC182B51EC190B03F0A2F90028E9D026
:10583000B0EE490AF0EE690ABDEC048B08BD00BF6A
:1058400053EC102B33F0004110B408D01148A3F5ED
:105850008014844208D804205DF8044B70471AB9BC
:1058600002205DF8044B704703F1FF43094803F53C
:10587000E0038342EFD9B1F5801F01D20320EBE7AB
:10588000054B994201D00020E6E7B2FA82F04009C8
:10589000E2E700BFFFFFDF7F0000F07F00B510EE02
:1058A000103A204A23F00043934283B019DDB3F14C
:1058B000FF4F04DB30EE400A03B05DF804FB68469E
:1058C00000F0B2FE00F0030001281AD002280FD029
:1058D00000B30120DDED010A9DED000A02F0FCF9A4
:1058E000EAE7DFED110A01F05DFE03B05DF804FBAD
:1058F000DDED010A9DED000A01F054FEB1EE400A13
:10590000DAE7DDED010A9DED000A02F0E5F9B1EEFE
:10591000400AD1E7DDED010A9DED000A01F042FEEB
:10592000CAE700BFD80F493F0000000000B510EEE5
:10593000103A214A23F00043934283B01ADDB3F1B9
:10594000FF4F04DB30EE400A03B05DF804FB68460D
:1059500000F06AFE00F0030001281DD0022811D0DB
:1059600008B3DDED010A9DED000A01F01BFEB1EE6A
:10597000400AE9E70020DFED110A02F0ADF903B0BB
:105980005DF804FB0120DDED010A9DED000A02F047
:10599000A3F9B1EE400AD7E7DDED010A9DED000A5B
:1059A00001F000FED0E70120DDED010A9DED000AC7
:1059B00002F092F9C8E700BFD80F493F000000008D
:1059C0002DE9F0432DED028B8BB057EC106B55ECAD
:1059D000114B00F03BF92E4BB0EE408AF0EE608A9E
:1059E00093F90080B8F1FF3F31D022462B46204684
:1059F000294603F0E5F850BB32463B46304639466F
:105A000003F0DEF8814610BB002200232046294621
:105A100003F0A4F8D8B11F4BCDF820900122CDE9B6
:105A20000267CDE904458DE80C00B8F1000F17D1ED
:105A3000CDE90667684602F02FFAE0B1089B0BBB80
:105A40009DED060B0BB0BDEC028BBDE8F083B0EE14
:105A5000480AF0EE680A0BB0BDEC028BBDE8F0839B
:105A6000002200231046194602F03AFFB8F1020F57
:105A7000CDE90601DED103F051F921230360089B33
:105A8000002BDDD003F04AF9089B0360D8E700BF84
:105A90005409FF1F4C9D000000F038BCD0B52DED1F
:105AA000028B394C8AB0F0EE408A00F0E5FC94F9A4
:105AB00000300133B0EE408A3ED0B0EE680A02F00A
:105AC00059FB002838D0DFED317AF4EEE78AF1EEA9
:105AD00010FA37DCDFED2E7AF4EEE78AF1EE10FAF9
