:10000000F8FF022099010000F1240000A92400005B
:10001000A9240000A9240000A9240000A9240000AC
:10002000A9240000A9240000A9240000F124000054
:10003000F1240000A92400005548000059480000A0
:10004000F1240000F1240000F1240000F12400005C
:10005000F1240000F1240000F1240000F12400004C
:10006000F1240000F1240000F1240000F12400003C
:10007000F1240000F1240000F1240000F12400002C
:10008000F1240000F1240000F1240000F12400001C
:10009000F1240000F1240000F1240000F12400000C
:1000A000A14F0000AD4F0000F1240000F12400003A
:1000B000F1240000F1240000F1240000E1320000EE
:1000C000F1240000F1240000F12400007538000044
:1000D000F1240000F1240000F1240000F1240000CC
:1000E000F1240000F1240000F1240000F1240000BC
:1000F000F1240000F1240000F1240000F1240000AC
:10010000F1240000F1240000F1240000F12400009B
:10011000F1240000A13A0000F1240000F1240000C5
:10012000F1240000F1240000F1240000F12400007B
:10013000F1240000F1240000F1240000F12400006B
:10014000F1240000F1240000F1240000F12400005B
:10015000F1240000F1240000F1240000F12400004B
:10016000F1240000F1240000B94F0000F124000048
:10017000F1240000F1240000F1240000F12400002B
:10018000F1240000F1240000F1240000F12400001B
:10019000F1240000F1240000584B4CF2205210B51D
:1001A0001A804DF628121A8000BF00BF02F0A4F991
:1001B000534B4FF030621A60524A9A60524ADA60EA
:1001C000524B4FF470021A60514A136813F4807353
:1001D00004D150490B604FF4A85313604E4B1A786A
:1001E000110703D51A7842F008021A704B4B4C499C
:1001F0002A221A704B4A4C4B8B4204D252F8040FFD
:1002000043F8040BF8E7494B494900228B4202D2DC
:1002100043F8042BFAE74749474A002352F82300E2
:1002200041F823000133662BF8D1444B444A802126
:1002300003F8011B9342FBD1424B3E4A1A60424BEA
:100240008A221A70A3F5805324225A70A0221A70B1
:100250009A799207FCD59A79D406FCD43B4A9379D3
:1002600003F00C03082B394BF9D103221A714622F3
:100270005A719A799006FCD5344A9179334B4906E4
:10028000FBD5334A4FF08271116009215160202261
:100290001A709A7902F00C020C2AFAD12D4B2E4AD0
:1002A0001A602E4B2E4A1A6000225A60072243F829
:1002B000042C2C4AC3F80C2D62B602F001FC154B3D
:1002C0001B68DA0705D5284802F0DAF9274B284AD7
:1002D0001A60284B1B785B0609D5244C244B2268F6
:1002E0009A4204D1204802F0CBF90023236007F0A2
:1002F00027FB02F007F902F035F8FEE70E20054073
:1003000030800440823F04000100002B88ED00E0B3
:1003100010D0034014D0034002D0074000E0074053
:100320006411FF1FB08B0000F806FF1F6411FF1F50
:10033000D417FF1F0002FF1F0000000000E400E0D0
:1003400056E400E008ED00E00050064000400640A2
:100350004480044004800440C010050014E000E024
:10036000BFD4010000002020D548B7601CE0034046
:10037000A5C3945A00F00740FFFFFFFFFFFFFFFFF8
:10038000FFFFFFFFFFFFFFFFFFFFFFFFFFFFFFFF7D
:10039000FFFFFFFFFFFFFFFFFFFFFFFFFFFFFFFF6D
:1003A000FFFFFFFFFFFFFFFFFFFFFFFFFFFFFFFF5D
:1003B000FFFFFFFFFFFFFFFFFFFFFFFFFFFFFFFF4D
:1003C000FFFFFFFFFFFFFFFFFFFFFFFFFFFFFFFF3D
:1003D000FFFFFFFFFFFFFFFFFFFFFFFFFFFFFFFF2D
:1003E000FFFFFFFFFFFFFFFFFFFFFFFFFFFFFFFF1D
:1003F000FFFFFFFFFFFFFFFFFFFFFFFFFFFFFFFF0D
:10040000FFFFFFFFFFFFFFFFFFFFFFFFDEF9FFFF23
:1004100010B5054C237833B9044B13B10448AFF33E
:1004200000800123237010BD6411FF1F0000000035
:10043000B48B0000084B10B51BB108490848AFF356
:1004400000800848036803B910BD074B002BFBD0A0
:10045000BDE81040184700BF000000006811FF1FF2
:10046000B48B00006411FF1F00000000F8B5404E7F
:10047000054671683068B768F268C5F82500002441
:100480003069C5F82910C5F82D707169C5F831209B
:100490006027C5F83500C5F839103A4606F118014D
:1004A000C5F80D40C5F81140C5F81540C5F819400C
:1004B000C5F81D40C5F8214005F1400001F05AFF84
:1004C0003A4606F1780105F1A00001F053FF0A2732
:1004D00014204FF00F0EC5F8184185F8160185F865
:1004E000170185F8180185F82F01C5F80041C5F8F6
:1004F0000441C5F80841C5F80C41C5F8104185F81C
:10050000147185F815E1C5F81C41C5F82041C5F8FE
:100510002441C5F8284185F82C7185F82D7185F89E
:100520002EE1C5F83141C5F83541C5F83941C5F866
:100530003D41C5F84141C5F84541C5F84941C5F8B7
:100540004D41C5F85141C5F85541C5F85941C5F867
:100550005D41C5F86141C5F86541C5F86941C5F817
:100560006D41C5F87141C5F875412846F8BD00BF19
:100570003484000000B52DED048BB0EE608A8BB0A2
:10058000F0EE400AF0EE408AB0EE480A04F096FE23
:10059000DFED2A7ADFED2A0A20EE270A00F004FABE
:1005A000284B1A7BB0EE409A12B1274AD2785AB340
:1005B000264BDFED277A93ED000A9FED261A264899
:1005C000B4EEE70AF1EE10FAC8BFDFED1D7AF0EEE7
:1005D000410AC8BF30EE670A01F02AF9F0EE400A7E
:1005E00028EE088AB0EE480AA8EEA80AB1EEC01AB2
:1005F000B4EE411AF1EE10FA16D1B0EE490A0BB082
:10060000BDEC048B5DF804FB144A127B002ACFD0AA
:10061000DFED0F0A9FED0F1A93ED040A104801F069
:1006200007F9F1EE400ADBE7CDED010A04F0CAFE5E
:10063000DDED010AB0EE401ADFE700BFE12E6542B2
:100640000000B4430015FF1FB814FF1F5012FF1F16
:100650000000344300000000F011FF1F3C13FF1F97
:100660003012FF1F10B53B4C2DED028B237B88B061
:10067000002B49D02046D4ED008A9FED378A01F047
:1006800087FAF0EE480A38EE800A00F08DF9334B15
:10069000DFED337A9FED331A3348F0EE408A93ED65
:1006A000000AB4EEE70AF1EE10FAC8BF30EE480ACD
:1006B000F0EE410A01F0BCF8DFED297A94ED017A01
:1006C000244BB4EEE77AF1EE10FAB0EE408A31DC5A
:1006D000D4ED027AF5EEC07AF1EE10FA37DDDFEDF7
:1006E000236A87EEA67AF7EE007A37EEC77AF1EE44
:1006F000046AF2EE0E7AE7EE267ACDED058A8DEDEC
:10070000068ACDED077A0BE0DFED160AB0EE600A3F
:10071000FFF730FF8DED050ACDED060A8DED071AC6
:100720009DED050ADDED060A9DED071A08B0BDEC4A
:10073000028B10BD93ED001A9FED0A0AF1EE040A38
:1007400000F01EFA0028C3D0F3EE097AD5E7F1EEE7
:10075000677AC4E73C13FF1F0000B4435012FF1F29
:100760000000344300000000F011FF1F0000B442FD
:1007700008B54FF4FA7002F055F90A4801F016F87E
:10078000094800F031FA094800F01AFA084800F068
:10079000C5FA084800F0C0FD0748BDE8084001F070
:1007A000ADB800BF5012FF1F0015FF1FB814FF1F88
:1007B0006412FF1FC011FF1F3C13FF1F30B52DED4A
:1007C000028B134C134D87B0204600F065FF94ED6B
:1007D000000A284600F0E8FA0F4801F0B7F894ED57
:1007E000008AFFF73FFFF0EE607AF0EE411AF0EE7C
:1007F000400AB0EE671AB0EE480A284600F010FD35
:10080000064800F0EDFD07B0BDEC028B30BD00BF27
:100810005012FF1F6412FF1F3C13FF1FC011FF1F68
:1008200038B54A4D2DED028B01F03AFD9FED488A17
:10083000484BDFED498A83ED048A00244FF47A6146
:10084000281D2C80AC70EC7000F0B6F94FF47A7172
:1008500005F114002C736C73EC812C746C7400F033
:10086000ABF90A2105F11C0000F0A6F93B48AC8465
:1008700000F0AEF93A4800F0BFF93A4A3A4BD2F8E4
:10088000D80018601146D2F8DC005860D2F8E000B9
:10089000986051F8E40F1C6249685C6203F10C0235
:1008A00003C2B0EE481AF0EE480AF0EE681AB0EE55
:1008B000080A2E489C62DC6200F0A8FFB0EE481ADD
:1008C000F0EE480AF3EE0E1AB7EE000A284800F0E0
:1008D0009DFFF0EE681AB0EE481AF0EE480AB8EE46
:1008E000000A244800F092FFB0EE481AF0EE480AE1
:1008F000F3EE0E1A9FED200A204800F087FFF0EE7D
:10090000681AF0EE480A9FED1E1A1E48B6EE000A5D
:1009100000F07CFFF0EE681AF0EE480AB5EE001A1F
:10092000B7EE000A184800F071FFF0EE681AF0EE1A
:10093000480AB0EE001AB0EE080A144800F066FF4C
:100940001348FFF793FDBDEC028B38BDB814FF1FB1
:10095000000000005012FF1F0000C8420015FF1FDA
:100960006412FF1F34840000C011FF1F2015FF1FF9
:100970001012FF1FA011FF1FCDCCCC3DE014FF1FB4
:10098000CDCC4C3DF011FF1F8011FF1F3012FF1F17
:100990003C13FF1FB5EEC00AF1EE10FAACBF012008
:1009A0004FF0FF30704700BF00B52DED028B10EE09
:1009B000900A85B0B0EE608A8DED030A06F03EFC29
:1009C0009DED030ACDE9000110EE100A06F036FC99
:1009D0009DED001B41EC100B04F004FC51EC100BDE
:1009E00006F058FF00EE100AB5EEC00AF1EE10FA5C
:1009F00048BF38EE000A05B0BDEC028B5DF804FB81
:100A000070EEC07A08B517EE900A06F017FC9FED5D
:100A10000C1B41EC100B04F0E5FB51EC100B06F045
:100A200039FF00EE100AB5EEC00AF1EE10FA44BF2D
:100A3000DFED057A30EE270A08BD00BFAFF3008076
:100A400000000000008076400000B443FFFFFFFF7D
:100A500000B52DED028B70EEC07A83B017EE900AD0
:100A600006F0ECFB9FED1A1B41EC100B04F0BAFBF7
:100A700051EC100B06F00EFF08EE100AB5EEC08A1E
:100A8000F1EE10FA44BFDFED147A38EE278ADFED7D
:100A9000127A77EEC87A17EE900A06F0CFFBCDE90E
:100AA000000118EE100A06F0C9FB9DED001B41EC99
:100AB000100B04F03DFB51EC100B06F0EBFE00EECA
:100AC000100A03B0BDEC028B5DF804FBAFF30080AD
:100AD00000000000008076400000B443FFFFFFFFED
:100AE00008B570EEC07A2DED028B17EE900AB0EECD
:100AF000408A06F0A3FB9FED1A1B41EC100B04F09B
:100B000071FB51EC100B06F0C5FE07EE900AF5EEF6
:100B1000C07AF1EE10FA44BF9FED137A77EE877A30
:100B2000B6EE007AA7EE878A18EE100A06F086FB6A
:100B30009FED0B1B41EC100B04F054FB51EC100B20
:100B400006F0A8FE00EE100ABDEC028BB5EEC00A5E
:100B5000F1EE10FA44BFDFED047A30EE270A08BD4B
:100B600000000000008076400000B44390FBF1F3E9
:100B700003FB1100030648BF4018C0B2704700BF16
:100B8000B4EEE00AF1EE10FAB4EEC10A0AD5F1EEC5
:100B900010FA0CD5F4EEC10AF1EE10FACCBF012028
:100BA00000207047F1EE10FAF4D5012070470020C4
:100BB000704700BF01F074BB0160704701F070BB6B
:100BC0004FF41651014801F0EDB800BF0C07FF1FAC
:100BD000034B82B01B680193019BC36102B0704755
:100BE0004815FF1F01F05CBB4FF4E131014801F0F3
:100BF00069B800BFF806FF1FF8B501221E4B02744A
:100C000004460360436020220021113007F080F980
:100C10001A490B460F6853F8086F09795D689868A0
:100C2000C4F8317084F835104327D96884F83670D9
:100C3000C4F8376040271E69C4F83B50C4F83F0031
:100C40005D699869C4F84310D969C4F84F00C4F8C5
:100C500053103A46C4F84760C4F84B5004F15800AA
:100C6000002107F055F93A4604F19800002107F0F9
:100C70004FF92046F8BD00BF000080BF208500006E
:100C80002DE9F0414318B7EE007A93F8373007EEBC
:100C9000903AF8EE677A82B0F4EEC77A0D46F1EE3C
:100CA00010FA4FF0000104468DF80410009117DB94
:100CB0000423F6EE006ABCEEE76A67EEA67A16EE4B
:100CC000102A02A91944F4EEC77A02F00102013B8E
:100CD000F1EE10FA01F8082CDBB2ECDA9DF8001006
:100CE00004F130080026013618F8010F01F05EFE0D
:100CF000052E6F4608D017F8011F18F8010F0136AE
:100D000001F054FE052EF6D194F8360001F00EFAEB
:100D10004C3524F8150002B0BDE8F0812DE9F0470C
:100D2000064600F1300400F1350514F8010F0121E9
:100D300001F050FEA542F8D1002196F83600DFF808
:100D4000648001F047FE06F1560500275FFA87F937
:100D50004FF00A0A002449463046FFF791FFB5F8E4
:100D600042200AF1FF33144413F0FF0AA4B2F2D177
:100D7000A8FB0434C4F3CF0407EE904AF8EEE77AF8
:100D8000B6EE007A77EE877A0137FDEEE77A202F0C
:100D900017EE903A03F5967325F8023FD6D1BDE8D9
:100DA000F08700BFCDCCCCCC2DE9F0432DED068BE8
:100DB00000F1100583B00646F0EE409AA94600F116
:100DC000960800F156070024E1B23046FFF758FFBD
:100DD00038F8023F37F8022F0134934294BF0023C2
:100DE0000123202C09F8013FEED10024012701E066
:100DF000202C18D015F8013F0134002BF8D1A01E8B
:100E000040B22021FFF7B2FE3044437C002BEFD0EC
:100E1000202160B2FFF7AAFE3044437C002BE7D0CC
:100E2000202C2F70E6D1BE4A00231068009001905C
:100E30001C4606F1110201210CE002AD2F19651CC0
:100E400018B107F8083CECB200210133202B02F165
:100E5000010210D010780029EFD10028F5D102A9A5
:100E6000581E21440133202B01F8050C02F1010228
:100E70004FF00101EED196F8303023B102AA22449E
:100E80001F2102F8051C012C40F2B480727C002A5C
:100E900040F09F809DF900309FEDA28A08EE903AC5
:100EA0009DF9043009EE103AF8EEE88AB8EEC99AD6
:100EB00068EE888A29EE089AB0EE680AF0EE490AD0
:100EC000FFF70EFE9DF9053000EE903A9DF90130D6
:100ED000B0EE40AA00EE103AF8EEE00AB8EEC00A12
:100EE00060EE880A20EE080AFFF7FAFD9DF9063049
:100EF00000EE903A9DF90230F0EE40AA00EE103A72
:100F0000F8EEE00AB8EEC00A60EE880A20EE080AA1
:100F1000FFF7E6FD032CB0EE408A00F01381022CAF
:100F200000F0938086ED02AAF0EE490AB0EE680A5E
:100F3000FFF766FDF6EE007A9FED7B7A20EE270A3A
:100F400060EE077A17EE900A06F078F941EC100B84
:100F500004F08EF8002053EC102B744906F00EF8C4
:100F600006F098FC96ED028AF060FFEE007AB4EE8F
:100F7000678AF1EE10FA00F04C8138EE290ADFEDB5
:100F80006C0AFFF711FD337CF0EE408A002B40F035
:100F90008780D6ED017AB0EE087AF4EE477AF1EE6A
:100FA00010FA3DD19FED660ADFED610A38EE800A46
:100FB000FFF7FAFC96ED037A86ED000AF0EE007A70
:100FC00077EEC77AC6ED017A03B0BDEC068BBDE8BB
:100FD000F083002B3FF45EAF013C02AB2344FF22C1
:100FE00013F9081C8DF80010E4B203F8082C03F87C
:100FF000042C4FE7002C40F01181327C4D4BB36044
:10100000F360002AE0D1D6ED017AB0EE087AF4EE72
:10101000477AF1EE10FAD7D0FFEE008AB0EE688A78
:10102000BFEE007AB4EE478AF1EE10FA43D1F7EE44
:10103000006AF4EEE67AF1EE10FA4FD93E4B736097
:1010400003B0BDEC068BBDE8F083F0EE6A0AB0EEAB
:101050004A0AFFF7D5FCDFED3A7AB4EEE70AF1EE83
:1010600010FA95BFF0EE6A0AF0EE4A0AB0EE4A0AAC
:10107000B0EE6A0AFFF734FDF0EE6A0A86ED020A66
:10108000B0EE4A0AFFF7BCFCDFED2D7AB4EEE70ABA
:10109000F1EE10FA3ED8F0EE6A0AB0EE4A0A47E7DF
:1010A000F26886ED000A00237260337403B0BDEC71
:1010B000068BBDE8F083D6ED000AB0EE680AFFF7B4
:1010C000C7FCDFED1E7AB4EEE70AF1EE10FA3FF648
:1010D00069AFF368C6ED008A736075E7012386ED9A
:1010E000007A86ED017A33746EE7F0EE4A0AB0EECC
:1010F0006A0AFFF7F5FCF0EE4A0A86ED020AB0EE46
:101100006A0AFFF77DFCDFED0E7AB4EEE70AF1EE36
:1011100010FA5CD8F0EE4A0AB0EE6A0A08E700BF9F
:10112000488500000000344135FA8E3C0000F03F55
:101130000000B443000080BF000040400000B44203
:1011400000003443F0EE6A0AB0EE4A0AFFF758FC9A
:10115000F0EE480AB0EE409AB0EE6A0AFFF750FC93
:10116000F0EE4A0AF0EE408AB0EE480AFFF748FC7B
:10117000F4EEC08AF1EE10FAB4BFF0EE407AF0EE71
:10118000687AB4EE679AF1EE10FAA8BFF0EE497AE9
:10119000B4EE679AF1EE10FAA7D0F4EE678AF1EE9A
:1011A00010FA17D1F0EE6A0AB0EE480AFFF798FC81
:1011B000F0EE6A0A86ED020AB0EE480AFFF720FC5C
:1011C0005FED217AB4EEE70AF1EE10FA1CD94FF088
:1011D0007E50C7E6F0EE480AB0EE4A0AFFF780FC00
:1011E000F0EE480A86ED020AB0EE4A0AFFF708FC64
:1011F0005FED2D7AB4EEE70AF1EE10FAE7D8F0EEE3
:10120000480AB0EE4A0A93E6F0EE6A0AB0EE480ADF
:101210008EE6337C002B3FF4F6AED5E6012439E6AA
:10122000F0B58FB08DED061ACDED071ACDED050A9C
:1012300005AA034607CA1D7C08AC84E807004DBB1D
:10124000D3ED017AB6EE007AF4EEC77AF1EE10FA39
:1012500010EE102A1F4610EE906A11EE905A1CDC18
:10126000B5EE007AF4EEC77AF1EE10FA33DCB0EEA8
:10127000600A8DED080ACDED0A1A94E807000EAB5E
:1012800003E907009DED0B0ADDED0C0A9DED0D1A3B
:101290000FB0F0BDB0EE600AEBE7D3ED007A9FED42
:1012A000170ADFED170A37EE800A07EE902A30EEB4
:1012B000670AFFF779FBD7ED016ADFED127ADFED00
:1012C000121AB6EE087AF4EEC76AF1EE10FAC8BF49
:1012D000F0EE671ACDE793ED000AFFF7B9FBDFEDFB
:1012E0000B7ADFED0B1AB4EEE70AF1EE10FA00EE1E
:1012F000106A58BF01EE905ABBE700BF00003443AC
:101300000000B4430000C8420000204200007042C8
:101310000000000000F0C4BF38B504460025207866
:10132000012101F057FB2079012101F053FB207AC4
:10133000012101F04FFB2078012101F037FB012151
:1013400020790D4401F032FB207A002101F0AAF946
:10135000042D04F10104E2D138BD00BFDFED1E7A97
:1013600070B560EE277A82B0F5EE407AF1EE10FAB1
:101370000B462DD0F5EEC07AF1EE10FA9FED177AFC
:10138000D8BFF1EE677AF4EEC77AF1EE10FA48BFF3
:10139000FCEEE77AB5EEC00A46BFCDED017A9DF8C6
:1013A0000450FF25F1EE10FACCBF0121002181F09D
:1013B0000106C418C05C01F0F9FA3146207901F049
:1013C000F5FA207A294602B0BDE8704001F06AB90A
:1013D000012631460025ECE73333234000007F43EC
:1013E0002DE9F047D0ED057A2DED048BF4EE407A2F
:1013F00088B0F1EE10FA8DED010ACDED020A8DED07
:10140000031A07D1D0ED067AF4EE607AF1EE10FA05
:1014100000F09480B5EE401AF1EE10FAB0EE418A79
:1014200010EE906AF0EE408A0546CDED040ACDED4F
:10143000050ACDED060ACDED070A0FD1B0EE600A20
:1014400004AF0024E1B228460134FFF787FF042CE3
:1014500000F08180043797ED000AF3E704AF9FEDB9
:101460006B9A3C46BA4600F10A0800F1120938F8B6
:10147000023F5A3307EE903AF8EEE77A77EEE87AD1
:1014800067EE897A17EE900A05F0D8FE41EC100B52
:1014900003F0EEFD51EC100B06F0FCF9C8454AF8DC
:1014A000040BE4D1DDED047A9DED056A9DED067A2D
:1014B000F5EEC07AF1EE10FAB5EEC06AD4BFF1EEE7
:1014C000676AF0EE676AF1EE10FAD8BFB1EE466ACD
:1014D000F4EE466AF1EE10FAB5EEC07AA8BFB0EEAF
:1014E000666AF1EE10FADDED076AD8BFB1EE477A11
:1014F000B4EE467AF1EE10FAF5EEC06A98BFB0EE9F
:10150000467AF1EE10FAD8BFF1EE666AF4EE476A59
:10151000F1EE10FA98BFF0EE476A08AA3B4668EE73
:10152000277A87EEA67A07EE906A77EE277AE3ECC1
:10153000017A9A4219D0D3ED007AF0E7D0ED077A1C
:10154000F4EE417AF1EE10FA7FF464AF08B0BDEC2E
:10155000048BBDE8F087C5ED058AAE6185ED078A8D
:1015600008B0BDEC048BBDE8F087DDED047ADDED5D
:10157000056A9DED067AF5EEC07AF1EE10FAF5EE09
:10158000C06AD4BFB1EE676AB0EE676AF1EE10FAD6
:10159000D8BFF1EE666AB4EE666AF1EE10FAB5EE07
:1015A000C07AA8BFF0EE466AF1EE10FA9DED076A28
:1015B000D8BFB1EE477AB4EE667AF1EE10FAB5EE26
:1015C000C06A98BFB0EE667AF1EE10FAD4BFF1EEC1
:1015D000466AF0EE466AF4EE476AF1EE10FA98BFFA
:1015E000F0EE476A88EE267A67EE877AE4EC017AB5
:1015F000A24207D0D4ED007A67EE877AE4EC017A54
:10160000A242F7D19DED040A1BE700BF35FA8E3CDC
:1016100000F046BE30B58DB008AB0E223B216820ED
:1016200003F0D0FC9DF828409DF821309DF82A5009
:101630009DF82B209DF82C009DF82D109FED147A1D
:101640009FED141A43EA042342EA05225B4241EA71
:1016500000211BB2524212B200EE103A0BB200EE61
:10166000902A07EE903AF8EEE00AB8EEC00AF8EEDB
:10167000E77A60EE870A20EE070A67EE877A60EE67
:10168000810A20EE010A27EE811A0DB030BD00BF9D
:1016900000007A440000003830B52DED028B87B091
:1016A0000446FFF7B7FFB0EE418A8DED030A8DEDDA
:1016B000051ACDED040A01F093F96368DFED186AAD
:1016C00094ED031A174A94ED000A11680191C31AA8
:1016D00007EE903AF8EEE77A38EE418A87EEA67A7E
:1016E000019BA1685B1A642B0546A7EE480A84EDAE
:1016F000000A09D9D4ED047A1368029330EE270A60
:10170000029BA36084ED000ADFED070AFFF74CF9A6
:10171000656084ED000A07B0BDEC028B30BD00BFF0
:10172000002474494815FF1F0000B44330B52DED67
:10173000028B054685B014242846FFF76BFFD5EDD4
:10174000037A8DED031A37EE811A322085ED031AE4
:101750008DED010ACDED020A01F064F9631E13F06C
:10176000FF04E9D1D5ED036AB3EE047AC6EE877AB9
:101770002846C5ED037AFFF78FFF642095ED008AB8
:1017800001F050F92846FFF787FF074BD5ED007AA7
:101790001B68009377EEC87A009BC5ED047AAB60B6
:1017A00005B0BDEC028B30BD4815FF1F10B50446D7
:1017B000144803F005F906221D21682003F03CFCC3
:1017C00006221A21682003F037FC10221B21682012
:1017D00003F032FC00221C21682003F02DFC0222C1
:1017E0003721682003F028FC16220A210C2003F080
:1017F00023FC01F0F5F860602046BDE81040FFF7DB
:1018000095BF00BFDC07FF1F00F04ABD10B50023E5
:1018100080ED000AC0ED010A80ED021AC0ED051A44
:101820000361044601F0DCF8E060204610BD00BF13
:1018300010B504462DED028B30EEC08AF0EE418AE1
:1018400001F0CEF8E368E060C01A07EE100A9FEDE1
:101850002A6AD4ED067AB8EE477AF5EE408AC7EEEA
:10186000066A94ED047AE8EE267AF1EE10FAC4EDF9
:10187000067A38EE477A08D0B1EE686AB4EEC67AD6
:10188000F1EE10FA2BD537EE287AB1EE477A87EED3
:10189000266A94ED010AD4ED005A94ED057AD4ED50
:1018A000026A84ED048A27EE800AB5EE407AA8EE3B
:1018B000250AF1EE10FAA6EE660A0DD0F1EE477A8F
:1018C000B4EEE70AF1EE10FA11D4B4EE470AF1EEE5
:1018D00010FAC8BFB0EE470ABDEC028B10BDF4EEA3
:1018E000C78AF1EE10FA48BF37EE687ACDE7BDEC53
:1018F000028BB0EE670A10BD00247449F8B500F100
:1019000024060446354600F13C0715F8010F002176
:1019100001F060F8BD42F8D1002000F009FD50B19F
:1019200004F1FF0204F10C0312F9011F03F8011F77
:10193000B342F9D1F8BD04F2171204F10C0312F905
:10194000011F03F8011F9E42F9D1F8BD2DE9F84FA0
:101950002DED028B90F83081074600F1240900F547
:10196000987400F13C05CB462646A2461BF8010FB1
:1019700001F022F81AF8013FC0F1010018445D455A
:101980008AF80000F2D197F8303108F101080133EC
:10199000B8F5807F87F83031E5D107F5A478404667
:1019A00007F10D0207F1250E2146002511F8013F30
:1019B0001BB192F800C06344DBB2013296450B7054
:1019C00000F8015FF2D1002507F5B07907F2491C54
:1019D00007F2611A607804F1010E4246002302E02A
:1019E0000133182B20D012F8011F8142F8D2AB42EC
:1019F00015DC172D00F0AE8004F11A020CEB030089
:101A000012F8011D51708242FAD132340AEB0301FF
:101A100014F8012D62708C42FAD19EF800003B440C
:101A200083F8490183F861510135182D7446D1D1ED
:101A300097F84A4197F8492197F84B0197F84C11CC
:101A40004F4D4FEA440E032313FB02E303440B44C0
:101A500085FB03E51D44DB17C3EBA50307EE903AB6
:101A6000F8EEE77AF5EE407AF1EE10FA14BF0123B2
:101A70000023C7ED017A3B7313D1BFEE000A0023A8
:101A800087ED000A87F83031424606F8013FB0453D
:101A900002F8013F09F8013FF7D1BDEC028BBDE828
:101AA000F88F97F8615197F862319FED368A07EE0B
:101AB000902A07EB8505D5ED285AD5ED100A97F841
:101AC0006351F8EEE77A07EE104A07EB830393EDD4
:101AD000106AD3ED286A97F86431B8EEC77A67EEDA
:101AE000A00A67EEA57AE7EE060A07EB850207EB88
:101AF0008303E7EE267A07EE100AD2ED104A92ED44
:101B0000285AD3ED105A93ED286AF8EEC76A07EE0B
:101B1000101AE6EEA40AE6EE857AB8EEC77AB5EEBC
:101B2000000AE7EE067AE7EE250A60EE800A27EE65
:101B3000800A03F0C3FB9FED147ADFED147AE0EE28
:101B4000077AF0EE480AB0EE670AFEF72DFF38EE8E
:101B5000400A94E7172B3FF462AF4A460CEB0301AF
:101B600012F8010D50708A42FAD107F5BC720AEBE7
:101B7000030112F8010D50709142FAD14DE700BFF8
:101B8000932449920000B443E12E65420000B4C2A0
:101B900030B5DFED3D7A90ED000AB4EEE70AF1EEE4
:101BA00010FA2DED048BC8BFDFED387A83B0C8BFC3
:101BB00030EE670A0446FEF7EDFEDFED350A94EDE0
:101BC000000A0546FEF744FFF5EE007A20EE270AEC
:101BD00003F076FBDFED2F7A60EE277A17EE900A9E
:101BE00005F02CFB9FED260B41EC110B03F0A0FA46
:101BF00053EC102B2846CDE9002305F00DFBDDE961
:101C0000002305F06FFB05F045FE94ED017ADFED52
:101C1000227A87EE278A09EE100AB5EEC08AF1EE25
:101C200010FA21D4F7EE008AB4EEE88AF1EE10FA49
:101C300009DDB0EE680A20EE090A84ED020A03B05D
:101C4000BDEC048B30BDB1EE020A28EE000A03F0B1
:101C500037FBDFED127A28EE278A28EE000AB5EE70
:101C6000C00AF1EE10FA02D59FED090AE3E7B4EEDF
:101C7000680AF1EE10FAC8BFB0EE680ADBE700BFF1
:101C80000000000000805640000034430000B443D0
:101C900000000000CDCCCC3E00000C430AD7A33C92
:101CA00000F0FEBA0368C9B21B6818470368C9B2DE
:101CB0001B6818470368C9B21B6818470368C9B294
:101CC0001B681847084B4A08134410B50446B3FB79
:101CD000F1F000F0DBFF054B1B7803B110BD20468F
:101CE000BDE8104002F0C0BD001C4E0E2B07FF1FC8
:101CF00008B5084601F0E6F9012008BD08B5084618
:101D000001F0E0F9012008BD38B508460D4606F09F
:101D100077F904460146284601F0DEF9204638BD31
:101D200010B508461446114601F0D6F9204610BDFC
:101D300001F0B0BA08B5084601F09CF9003018BFB0
:101D4000012008BD08B5084601F072F9003018BF3F
:101D5000012008BD0846114601F0E6B8084601F02A
:101D60002DB900BF084601F0C3B800BF01F04CB860
:101D700010B5064B144603EB5100B0FBF1F000F038
:101D800085FF2046BDE8104001F008B8001C4E0E4B
:101D900001F068BA01F032BA01F020BA01F000BADD
:101DA00001F00ABA084B4A08134410B50446B3FBC5
:101DB000F1F001F06DFB054B1B7803B110BD20461F
:101DC000BDE8104002F050BD000E27072C07FF1F92
:101DD00008B5084601F0A2FC012008BD08B5084678
:101DE00001F09CFC012008BD38B508460D4606F000
:101DF00007F904460146284601F09AFC204638BD02
:101E000010B508461446114601F092FC204610BD5C
:101E100001F01EBD08B5084601F060FC003018BF97
:101E2000012008BD08B5084601F036FC003018BF97
:101E3000012008BD0846114601F002BC084601F029
:101E400029BC00BF084601F0DFBB00BF01F0A4BB06
:101E500010B5064B144603EB5100B0FBF1F001F056
:101E600017FB2046BDE8104001F060BB000E2707BD
:101E700001F0D6BC01F0A0BC01F08EBC01F06EBC3C
:101E800001F078BC0368064A1B68934205D110B57F
:101E9000C8B201F043FC012010BDC9B2184700BF11
:101EA000DD1D00000368064A1B68934205D110B58A
:101EB000C8B201F033FC012010BDC9B2184700BF01
:101EC000DD1D00000368064A1B68934205D110B56A
:101ED000C8B201F023FC012010BDC9B2184700BFF1
:101EE000DD1D00000368064A1B68934205D110B54A
:101EF000C8B201F013FC012010BDC9B2184700BFE1
:101F0000DD1D000000207047374A384913681B0662
:101F1000FCD40B6813F08003F8D172B634490A7808
:101F2000002A5FD0334A3448F0B4344C176806684E
:101F30002568D4680C303E44143200681268304F73
:101F400035442C4420440244C2F34E022D4E2E4808
:101F50002E4D2F4C42F400423A60376806682D68D7
:101F60002C4A24680C303E44006812682A4F3544DD
:101F70002C4420440244C2F34E02284E2848294DE6
:101F8000294C42F400423A60376806682D68274AB7
:101F900024680C303E4400681268254F35442C44B8
:101FA00020440244C2F34E02224E2348234D244CC7
:101FB00042F400423A60376806682D68214A246876
:101FC0000C303E440068126835442C4420440244DE
:101FD000C2F34E021C4842F4004202600B7062B62B
:101FE000F0BC704762B6704724B0034024B00B4089
:101FF0004115FF1F38B003403CB0034040B00340E0
:102000002CB0034058B003405CB0034060B00340C4
:1020100064B003406CB0034030B0034038B00B40B4
:102020003CB00B4040B00B4044B00B404CB00B40B8
:102030002CB00B4058B00B405CB00B4060B00B4074
:1020400064B00B406CB00B4030B00B4030B429484A
:10205000294A2A4B2A4D6024E121047011701B7813
:10206000284C082B30D00A2B2748284937D00C2B76
:102070000CBF35225D2212232A60236002600B60B0
:10208000234B24491B78244ABBB101230B60136006
:10209000224B23491B78234A012B26D9042B0FD925
:1020A000082B1ED9102B94BF862387230B60136047
:1020B0001D4B01221A7030BC70470B601360E7E7BC
:1020C00084230B601360F3E700F58E200F4908307E
:1020D000212213232A60236002600B60D0E739229B
:1020E000F7E785230B601360E2E780230B60136042
:1020F000DEE700BF00400740014007402007FF1F08
:1021000008B003400CB0034008B00B400CB00B40CB
:102110004415FF1F20B0034020B00B402107FF1FD4
:1021200024B0034024B00B404115FF1F47282FD88F
:10213000334B2DE9F0411E5CFF2E2BD0314B1B7829
:10214000002B2AD132062CD472B62F4D2F4C2F469D
:10215000012326602B7062B672B623681B060CD46E
:102160003B781BB9F4E72B78002BF1D062B602F074
:10217000D9FA72B623681806F5D5254B1B680022DC
:102180002A7062B6234A107843FA00F0BDE8F08165
:10219000002070470020BDE8F081FFF7B5FE320651
:1021A000D2D572B61C4DDFF87C801C4C06F040077F
:1021B000FFB206F03F06D8F80030DFB123F010037D
:1021C000C8F8003001232660134A2B7062B672B63D
:1021D000236819060CD413781BB9ECE72B78002B75
:1021E000E9D062B602F09EFA72B623681B06F5D5F6
:1021F0000B4BC3E743F01003C8F80030E2E700BF21
:102200000C8600004115FF1F4315FF1F00B003405F
:1022100010B003404015FF1F4215FF1F00B00B40D8
:1022200010B00B400CB00B400A4A0B49136843F442
:10223000805313600B7843B9084BC0221A70084BC7
:1022400080F30C0000B218807047044B80221A7093
:10225000F5E700BF2C8004404415FF1F21C00C404F
:1022600000C00C400A4A0B49136843F40053136042
:102270000B7843B9084BC0221A70084B80F30C004E
:1022800000B218807047044B80221A70F5E700BF37
:102290002C8004404415FF1F21D00C4000D00C407E
:1022A000F0B51B4B1B4E596818689A68DB6885B0FF
:1022B0006C460FC4337899071DD5174A174C13780D
:1022C000174913F0700318BF1370164A164B802776
:1022D000177000261220052226706D4608701A70AD
:1022E00072B6043C45F001052046A84762B6237843
:1022F00013F0700309D10D4B064901E0013B02D0F8
:102300000A78D207FAD505B0F0BD237005B0F0BD4C
:102310005486000001000240000002400400024018
:102320000B000240070002400A000240410D03007A
:10233000B0F5805F0AD210B5094B1B78DB07044665
:1023400006D504F1A0500078C0B210BD002070473F
:10235000FFF7A6FF04F1A0500078C0B210BD00BF87
:102360000100024008B5FEF703FAFEF727FA02F073
:10237000D9F9FAE7844641EA000313F003036DD16B
:10238000403A41D351F8043B40F8043B51F8043B38
:1023900040F8043B51F8043B40F8043B51F8043B3F
:1023A00040F8043B51F8043B40F8043B51F8043B2F
:1023B00040F8043B51F8043B40F8043B51F8043B1F
:1023C00040F8043B51F8043B40F8043B51F8043B0F
:1023D00040F8043B51F8043B40F8043B51F8043BFF
:1023E00040F8043B51F8043B40F8043B51F8043BEF
:1023F00040F8043B51F8043B40F8043B51F8043BDF
:1024000040F8043B403ABDD2303211D351F8043B7E
:1024100040F8043B51F8043B40F8043B51F8043BBE
:1024200040F8043B51F8043B40F8043B103AEDD22D
:102430000C3205D351F8043B40F8043B043AF9D27E
:10244000043208D0D2071CBF11F8013B00F8013B51
:1024500001D30B8803806046704700BF082A13D35E
:102460008B078DD010F003038AD0C3F10403D21A76
:10247000DB071CBF11F8013B00F8013B80D331F8AA
:10248000023B20F8023B7BE7043AD9D3013A11F82A
:10249000013B00F8013BF9D20B7803704B78437095
:1024A0008B7883706046704708B5104C08E023684D
:1024B00059050DD423681A050FD42368DB0411D401
:1024C00023685803F3D501F0EBFA23685905F1D5D9
:1024D00000F006FF23681A05EFD500F009F823681D
:1024E000DB04EDD501F0C6F9EAE700BF3480044013
:1024F00008B5FFF7D9FF00BF014B10221A807047C3
:1025000000200540704700BF094908B50B6830B18D
:102510006A461844A2F50052904202D2086018465A
:1025200008BD05F007FA0C2303604FF0FF3008BD2B
:102530002407FF1FEFF3138070B9EFF310836BB91B
:10254000EFF305825AB94FF48070EFF311832BB18A
:10255000984228BF184670474FF0FF3070470F2A47
:1025600001D81846F1E7014BD05CEEE7F0E300E05C
:10257000F0B44D1E2E46002400E00134B0FBF2F30F
:1025800002FB1300092800F130078ABF3730F8B288
:10259000C0B206F8010F1846002BEED10A1953708D
:1025A0004CB1107815F8016F28700133E01A83429E
:1025B00002F80169F5DB0846F0BC704710B4114B16
:1025C00053F8302092F8804234B1012379B182F877
:1025D00080305DF8044B704703EBC0035B681A68FA
:1025E00051B922F002021A605DF8044B704782F87C
:1025F00000315DF8044B704742F003021A605DF849
:10260000044B7047648600001C4A02EBC00301299A
:102610005B6811D004291BD052F83000002280F8EA
:10262000802229B1022920D0032922D01A607047C4
:102630004FF480721A60704752F830004FF4A27263
:1026400080F880121A601A6822F020021A6070471F
:1026500052F830104FF4A272012081F880021A6003
:102660001A6842F020021A60704740F203121A60A2
:1026700070474FF481721A60704700BF6486000093
:1026800030B4054B054D064C002210211A602A601B
:102690002060196030BC704714D0034004D0034060
:1026A00000D0034038B5A0F14203012B04461FD9E6
:1026B000002975DD904B1B78012505FA03F28A424B
:1026C00002D83F2827D938BDC21E012A2BD9A0F134
:1026D0001D02012A73D90E2856D9A4F12302032A18
:1026E00057D9864A126802FB011222FA03F320E04E
:1026F000814B1B780B2B0AD90C2B1CBF0C3B1941AF
:10270000422C084657D0BDE83840FFF7ABBDC3F1B7
:102710000C039940F4E72946FFF750FF2946BDE82E
:102720003840FFF771BF764A126802FB011222FAA5
:1027300003F3A21E242A00F2D580DFE812F0CC00B9
:10274000C500BE00B700B000A900A2009B00940025
:10275000D300D300D3008D00D300D300D300D30027
:10276000D30086007F0078007100D300D300D3002F
:10277000D300D3006A006300D300D300D300D3009A
:102780005C0055004E00470044F28412C240D2075C
:10279000A3D55C4A126802FB011222FA03F3C8E7D0
:1027A0003F2890D80021FFF709FF20460121BDE80E
:1027B0003840FFF729BFBDE83840FFF735BD524A22
:1027C000126802FB011222FA03F3B2E74F49504AA2
:1027D0000B604FF45173136038BD4E494E4A0B6085
:1027E0004FF45173136038BD4C494D4A0B604FF4A0
:1027F0005173136038BD4B494B4A0B604FF4517312
:10280000136038BD49494A4A0B604FF45173136055
:1028100038BD4849484A0B604FF45173136038BDC6
:102820004649474A0B6040F24443136038BD45496E
:10283000454A0B6040F24443136038BD4349444A63
:102840000B6040F24443136038BD4249424A0B607A
:1028500040F24443136038BD4049414A0B6040F2A6
:102860004443136038BD3F493F4A0B6040F2444344
:10287000136038BD3D493E4A0B6040F2444313604B
:1028800038BD3C493C4A0B6040F24443136038BDBC
:102890003A493B4A0B6040F24443136038BD394922
:1028A000394A0B6040F24443136038BD3749384A17
:1028B0000B6040F24443136038BD3649364A0B6022
:1028C0004FF45173136038BD3449354A0B604FF4EF
:1028D0005173136038BD3349334A0B6040F24443AF
:1028E000136038BD3F2C3FF6EEAE7F29D4BF0021E8
:1028F0000121204657E700BF2807FF1F088003403B
:102900000890034008900B4008800B4048900B4013
:102910002CB0044040900B4028B0044038900B404D
:1029200024B0044030900B4020B0044018800B408D
:102930004CA0044010800B4048A004401880034085
:1029400008B004401080034004B0044040800340BD
:1029500018C004403880034014C0044018900B4055
:1029600004C004402880034010B00440208003408D
:102970000CB0044028900B400CC0044020900B4049
:1029800008C004403080034010C004404880034029
:102990001CC0044018900340349004401090034041
:1029A0003090044010900B4000C004403F2801D8F4
:1029B000FFF704BE704700BF3F2806D8044B53F80A
:1029C000303093F80002C0B270470020704700BF5B
:1029D000648600003F2801D8FFF716BE704700BF8D
:1029E00072B60C490C4B0D4A1B680868126862B637
:1029F000520102D5322B88BF01300949C3F5EA33B1
:102A00004FF47A72BF33A1FB031302FB00F000EB1B
:102A1000931070474815FF1F18E000E004ED00E038
:102A2000898888882DE9F843054672B6204F214BE6
:102A3000214A1B683C68126862B6520102D5322BEB
:102A400088BF013495B3C3F5EA331C4EDFF86490B8
:102A5000DFF86480BF334FF47A72A6FB031302FBE6
:102A600004F404EB931472B6D9F800103A68D8F85D
:102A700000E062B6C1F5EA33BF33A6FB03031EF0E4
:102A8000806FC4EB93134FF47A7002D0322988BF61
:102A9000013200FB0233B3F57A7F04D3013D05D048
:102AA00004F57A74DFE701F03DFEDCE7BDE8F8836A
:102AB0004815FF1F18E000E004ED00E089888888D1
:102AC000F8B53E4B3E49DFF818C13E4E3E4ADFF8AE
:102AD00014E13E4D3E4C3F4F4FF0006018604FF008
:102AE000805018604FF0005018604FF08040186020
:102AF0004FF0004018600020086028234EF6FF7158
:102B0000CCF80010CEF8003033600EF5012E1360C3
:102B10002B60236005F500253B6004F50024B362BB
:102B200007F50027936206F5012602F501220EF152
:102B3000100E05F6E87504F6E87407F57F671032A5
:102B400020362B602360CEF800303B60136033608A
:102B5000214EBB61936109223260A7F5002706F57B
:102B60008056203F083638603160BB60F36047F81C
:102B7000042C06F5FD2607F5FE2706F2FC76043741
:102B800030603960B360FB6046F8042C0836C7F843
:102B9000FC0F06F6FC76114831602B602360026062
:102BA000FFF754FA1920FFF73DFF01F0DFFC40F278
:102BB0001310BDE8F840FFF735BF00BF04E100E0A7
:102BC00004800340148003401C80034024800340A1
:102BD0002C800340348003400080034000900B4071
:102BE000088003400C8003402DE9F84F214B1B68FF
:102BF00007460BB101221A70DFF888901E4D99F834
:102C00000040DFF884801D4E01343F2C8ABF4FF016
:102C1000000A5FFA84FA5446AB462B78A34216D1D9
:102C2000FFF788FC40281FDC33791B06F5D59BF89D
:102C3000003001333F2B86BF00221346DAB218F86A
:102C40000330DBB2F3712A702B78A342E8D00C4931
:102C50000A4BFFB208F804700120BC22087089F802
:102C600000A0DA70BDE8F88FFF28D6DD01F05AFD2C
:102C7000D3E700BFDC15FF1FD915FF1F00A00640DA
:102C8000D815FF1FE015FF1F5415FF1F324A3349A7
:102C90001368F0B543F4806313600A78304F314E07
:102CA000314D324C32490023152A3B7033702B7062
:102CB00023700B7045D01B2A3ED082B32D4B1B785E
:102CC000052B34D01A2B41D0012B1BD01F281FD825
:102CD000002002460125284B284C1A7028495D70B7
:102CE00004224FF0020E88273C26402598729A70E5
:102CF0004FF0004083F813E05A751F74DE702570A2
:102D00000860F0BD1F4B4FF451721F281A60DFD9C5
:102D1000C0F34432C0F3471500F01F00DBE71A4B45
:102D200040F213321A60134B1B78052BCAD1174B94
:102D30004FF451721A60C9E7154B40F213321A6012
:102D4000BCE7144B40F213321A60B7E7124B4FF452
:102D500051721A60BAE700BF348004409415FF1F17
:102D60005015FF1F5115FF1FE015FF1FD915FF1F3D
:102D7000D815FF1F2907FF1F00A006401FE400E031
:102D800000E100E044A0044040A004401CC0044016
:102D90003C90044018C0044038900440194B194935
:102DA0009B7803F0EC0200F003031343420700F0AA
:102DB0000F0248BF43F01003042A8B701CD0114B44
:102DC000104A5B79C10603F0EF0348BF43F01003DC
:102DD00053719379820603F0EF030A4A48BF43F028
:102DE00010039371C30506D553781178DBB241F017
:102DF00020011170537070478B7943F040038B7141
:102E0000DDE700BF00A006402A4B1B685B0536D5F6
:102E100010B5294C237823B101F084FC2378002BD2
:102E2000FAD12648264A274B4FF00044002104607F
:102E3000D1701B78152B23D01B2B35D01BB9224BFF
:102E400040F203121A60214B1B7803F07F03052B1D
:102E500020D01A2B23D0012B03D11D4B40F203129B
:102E60001A601C4A164B1C481C4912681C79DB79F5
:102E7000002303700B700AB10123137010BD70475B
:102E8000174B40F203121A60104B1B7803F07F03BC
:102E9000052BDED1134B40F203121A60E1E7124B0F
:102EA00040F203121A60DCE7104B40F203121A6082
:102EB000C9E700BF34800440D815FF1F80E100E05F
:102EC00000A006409415FF1F40A004402907FF1FE3
:102ED00044A004404C15FF1F5015FF1F5115FF1F44
:102EE00018C004401CC00440389004403C9004408A
:102EF0000A4A38B50546137803F0FF04002BFAD1CF
:102F000001212846FFF766FD21462846FFF74EFDC2
:102F1000034A044B52F835201A6038BDD815FF1FFC
:102F200064860000DC15FF1F09B140F080001E4AD6
:102F3000137898421BD010B41C4C2468640513D538
:102F400003F07F03052B2AD01A2B24D0012B14D099
:102F5000002900F07F0114BF60234423052915D008
:102F60001A290ED0012903D010705DF8044B704768
:102F70000F4943F440730B60F6E70D4B00241C60CF
:102F8000E6E70C4943F440730B60EDE70A4943F46C
:102F900040730B60E8E7074B00241C60D8E7064B42
:102FA00000241C60D4E700BF2907FF1F34800440C1
:102FB00044A00440389004401CC00440174A1378D1
:102FC00083420ED016490968490509D5152B20D032
:102FD0001B2B1AD05BB115280DD01B2810D008B1BF
:102FE000107070470F4B40F213311960F8E70D492C
:102FF00015280B60F1D10C4B40F213311960EFE74B
:103000000A4B40F213311960EAE7084B00211960BE
:10301000E1E7054B00211960DDE700BF9415FF1FB4
:103020003480044040A0044018C004403C90044058
:103030000D4B1B6813F4806305D03F2805D90B4B5B
:1030400000201860704718467047094B10B5074CB0
:1030500053F8303023600121FFF7BCFC23680022C5
:103060001A70012010BD00BF348004404C15FF1FB2
:10307000648600000F4B1B6813F4806308D012288D
:1030800008D0142811D00C4A537B03F0FE0353736D
:1030900000207047094B40F202321A60064A537B07
:1030A00043F00103537301207047054B40F2023295
:1030B0001A60F3E73480044000A006400CA00440EE
:1030C00014C00440034B1B685B0501D5FFF78CBDA2
:1030D000704700BF348004402DE9F84F294B1B682E
:1030E0005A0548D5284B1B6805460BB101221A70BA
:1030F00005EB010A554540D2DFF89C80234CDFF8F0
:103100009C90234F0AE015F8012B09F80B20214A67
:103110000123AA45137088F800602ED098F800307B
:10312000227803F1010BBBF13F0F86BF0026B346A7
:103130005FFA8BF69345E6D1BC22FA7005E03A7946
:1031400013060BD422789345DDD1FFF7F3F940281D
:10315000F5DDFF28F6DD01F0E5FAF3E7227801322C
:103160003F2A86BF00210A46D1B219F80220D2B206
:10317000FA712170E6E7BDE8F88F054BBC22DA70E2
:10318000BDE8F88F34800440DC15FF1FD915FF1F00
:1031900000A00640D815FF1FE015FF1F5415FF1FA4
:1031A00010B5044C237823B101F0BCFA2378002B2E
:1031B000FAD110BDD815FF1F064A074B1B781078AF
:1031C000DBB2C0B283422CBF3F3000F1FF30C01AE7
:1031D000704700BFD915FF1FE015FF1F054A064BBA
:1031E00010781B78C0B2DBB2984238BF4030C01AAA
:1031F000704700BF5015FF1F5115FF1F30B4154B0E
:10320000154C1A782378D2B2DBB29A421ED0013321
:103210003F2B0ED91149124B087819680023C0B210
:10322000237021B1D31A1A2B01DC00230B7030BCA0
:1032300070470A480A49C05C0968DDB2C0B225700F
:103240000029F4D09A4238BF4032EBE74FF0FF300C
:10325000EDE700BF5015FF1F5115FF1F9815FF1F09
:103260004C15FF1F084A094B12781B78DBB29A42B3
:1032700007D00133402B28BF0023054AD05CC0B2E1
:1032800070474FF0FF3070475015FF1F5115FF1F5B
:103290009815FF1F0D4B1B685B0516D530B40C4B02
:1032A0000C4CDA780C480D4902F0CB024025DA705C
:1032B0005D74DA7842F03402DA7023780268DBB2A7
:1032C0000B700AB10023137030BC70473480044087
:1032D00000A006405115FF1F4C15FF1F5015FF1F82
:1032E000F0B4384B1A7912F0300F2CD072B6997DA9
:1032F00001F0FF0200293DD062B6334F33493878E0
:103300000D78334E1C46C0B2EDB2431C402BE17920
:1033100028BF0023AB4202F1FF32C9B21CBFF154F7
:10332000184612F0FF02F0D12A4B1B68C2B23A7065
:103330004BB1A84236BFC5F14005401B40192728B4
:10334000C4BF01221A701F49CA78D2B2150616D41A
:1033500052060DD51B4B1B795B0609D51E4B1F4929
:103360001B6800220A7003B11A70164B3C22DA70F7
:10337000F0BC70474022D9795A7462B6E3E70B7902
:103380001C06E5D5164B174E1C783378E4B2DBB239
:103390009C420ED0144D01E0A3420AD00133402BD1
:1033A00028BF00230879E85CC0B2C871087D0728EF
:1033B000F2D9DBB2034933700B79180644BF7C2382
:1033C000CB70C5E700A006405015FF1F5115FF1F29
:1033D0009815FF1F4C15FF1FDC15FF1FD815FF1F89
:1033E000E015FF1FD915FF1F5415FF1F2DE9F84FDA
:1033F000214B1B6807460BB101221A70DFF8889039
:103400001E4D99F80040DFF884801D4E0134272CB2
:103410008ABF4FF0000A5FFA84FA5446AB462B7815
:10342000A34216D1FFF786F840281FDC33791B062C
:10343000F5D59BF800300133272B86BF00221346B9
:10344000DAB218F80330DBB2F3712A702B78A3429A
:10345000E8D00C490A4BFFB208F804700120AC22F6
:10346000087089F800A0DA70BDE8F88FFF28D6DD73
:1034700001F058F9D3E700BF5816FF1F5516FF1F7C
:1034800000C006405416FF1F5C16FF1FEC15FF1FFF
:103490001B4BDFF890C01A681A49F0B542F480520D
:1034A000194D1A60DFF880E0184F194E194C0023AF
:1034B0008CF800304FF451722B701F2840F21335F6
:1034C0008EF800303B70337025600A6011D81946C1
:1034D0000124114A114D11701148547000212C27FC
:1034E00040269372082491701174D7702E70046076
:1034F000F0BDC0F34431C0F3471400F01F03E8E708
:10350000348004400CC00440E915FF1F5516FF1F0E
:103510005416FF1F08C0044000C0064023E400E02A
:1035200004E100E0E815FF1F5C16FF1F194B194965
:103530009B7803F0EC0200F003031343420700F012
:103540000F0248BF43F01003042A8B701CD0114BAC
:10355000104A5B79C10603F0EF0348BF43F0100344
:1035600053719379820603F0EF030A4A48BF43F090
:1035700010039371C30506D553781178DBB241F07F
:1035800020011170537070478B7943F040038B71A9
:10359000DDE700BF00C00640F8B5124B1B68DB0436
:1035A0001ED5114C237823B101F0BCF82378002BF1
:1035B000FAD10E4B0E4A0F4D0F4F104E104C1148C2
:1035C000082119600023D37040F203113960316083
:1035D00029681579D2792370037011B101230B701A
:1035E000F8BDF8BD348004405416FF1F84E100E0AC
:1035F00000C00640E415FF1F08C004400CC0044092
:10360000E815FF1FE915FF1F0A4A38B5054613786C
:1036100003F0FF04002BFAD101212846FFF7DAF965
:1036200021462846FFF7C2F9034A044B52F83520D9
:103630001A6038BD5416FF1F648600005816FF1F1D
:1036400009B140F08000104A137898421AD010B4A3
:103650000E4C2468E40412D503F07F03082B02D13A
:103660000B4B00241C60002900F07F0314BF602175
:103670004421082B03D1064B41F4407119601070AE
:103680005DF8044B704700BF2A07FF1F34800440D9
:103690000CC00440704700BF0D4B1B6813F48053EF
:1036A00005D03F2805D90B4B0020186070471846FD
:1036B0007047094B10B5074C53F830302360012197
:1036C000FFF788F9236800221A70012010BD00BF9F
:1036D00034800440E415FF1F648600000C4B1B6817
:1036E00013F4805306D00E2806D00A4A537B03F009
:1036F000FE03537300207047074B064A40F2023125
:103700001960537B43F0010353730120704700BFDE
:103710003480044000C0064004C00440034B1B68D2
:10372000DB0401D5FFF762BE704700BF3480044060
:1037300070B5094E04464518AC4204F101040AD0A4
:103740003368DB04F8D514F8010CFFF74FFEAC42E8
:1037500004F10104F4D170BD3480044010B5044C70
:10376000237823B100F0DEFF2378002BFAD110BDBF
:103770005416FF1F064A074B1B781078DBB2C0B205
:1037800083422CBF273000F1FF30C01A704700BFC2
:103790005516FF1F5C16FF1F054A064B10781B7855
:1037A000C0B2DBB2984238BF4030C01A704700BF89
:1037B000E815FF1FE915FF1F30B4154B154C1A789B
:1037C0002378D2B2DBB29A421ED001333F2B0ED9FE
:1037D0001149124B087819680023C0B2237021B137
:1037E000D31A1A2B01DC00230B7030BC70470A4837
:1037F0000A49C05C0968DDB2C0B225700029F4D066
:103800009A4238BF4032EBE74FF0FF30EDE700BFA0
:10381000E815FF1FE915FF1F1416FF1FE415FF1F12
:10382000084A094B12781B78DBB29A4207D0013361
:10383000402B28BF0023054AD05CC0B270474FF030
:10384000FF307047E815FF1FE915FF1F1416FF1F13
:10385000054B064A1B7806491268DBB20B700AB1A9
:1038600000231370704700BFE915FF1FE415FF1F09
:10387000E815FF1F30B42B4B1A7994061FD52A4840
:10388000DA790378294901333F2B0978C8BF00232F
:103890008B42D2B203D0264CD9B2E2540170254AF1
:1038A000116861B1244A1278D2B2934236BFC2F194
:1038B00040029B1A9B18272BC4BF01230B70194A87
:1038C000D378DBB2180611D45A060DD5154B1B79E7
:1038D0005B0609D5194B1A491B6800220A7003B10F
:1038E0001A70104B2C22DA7030BC7047117909061F
:1038F000EAD5144910480C780178C9B28C420DD031
:103900004A1C272A84BF00210A460F4D054C98BF48
:10391000D1B2AA5CD2B2E2710170D5E76C21D1704C
:10392000D2E700BF00C00640E815FF1FE915FF1FE2
:103930001416FF1FE415FF1F5516FF1F5816FF1F13
:103940005416FF1F5C16FF1FEC15FF1F704700BFCA
:10395000704700BF30B472B62B4A13781D0706D5E6
:103960002A4B196A002936D0996A002941D0537828
:103970001C0706D5254B196C00293ED0996C0029EF
:1039800039D09378190705D5204B196E002936D008
:10399000996E89B1D3781B0707D51C4BD3F88020CB
:1039A0007AB3D3F8882011213AB162B6184B0022BD
:1039B0001A7030BC00F05EBE0D21154C154D2278FA
:1039C00043F8315003EBC1030830013A58602270CC
:1039D00062B630BC704704220D4C0F4D217843F87D
:1039E000325003EBC20308304A1E5860227062B6A0
:1039F000EFE70521E1E70921DFE70822ECE70C22E8
:103A0000EAE71022E8E700BF648800000000FF1F1B
:103A10003517FF1FC800400088004000431E032BDD
:103A20001DD81B4A400140F0100030B4104472B65B
:103A3000184CE25C032A1BD8DFE802F002121517CB
:103A400003220D88E25410F0080F14BFC823882306
:103A500043EA054308310360416062B630BC7047F9
:103A600008300222EDE70522EBE708300422E8E700
:103A7000094A52F8230038B1084A52F8230041603D
:103A800042F8231062B6E9E742F82310034AF7E749
:103A90000000FF1F4417FF1F0C17FF1F1C17FF1FFD
:103AA0002DE9F04FDFF818B3DFF818A387B044E032
:103AB000AE4F4FEA930807EBC809013ED9F804203E
:103AC00003F00803F6B2A2F1080003F0FF04002B94
:103AD00040F0048157F838301B0C99B222F8081CCA
:103AE000002B00F0F280A24B22F8064C42F8044C66
:103AF00053F82620002A00F06E819E4D55F826309E
:103B000058609D4C45F8260034F81630194424F8C6
:103B1000161000F08FFD002800F05681974A984B50
:103B200019F0080F00F1080018BF1346C9F8040087
:103B300047F8383008238BF800309BF80040E4B297
:103B400061071BD58F4B1B78ABB18F490A7802F008
:103B5000FF032AB1013BDBB20B70002B00F0EF84B6
:103B60008A490A7802F0FF032AB1013BDBB20B70ED
:103B7000002B00F0F78004238BF8003004F00803DA
:103B800003F0FF02002B00F0D6809AF80030DBB281
:103B90001E098DD19C08DFF8D49159F8342009EB27
:103BA000C401C2F38302013A49680C2A7ED8DFE8D7
:103BB00002F081817D7D7D7D7D7D477D7D7D07005E
:103BC0000868734D4A68734F734E286081B240F2A3
:103BD00081606A4B6A604FF0010E0022814249F811
:103BE00034303A60C9F81020C9F8182086F800E08F
:103BF0005E4C00F2F480B1F5D06F80F07883B1F5BF
:103C0000817F00F0628300F28782802900F0EC82DD
:103C1000822940F01E83A98801F07F01042900F267
:103C200018835E485E4C89000844227062700278F6
:103C3000930740F1798384F800E04FF0020ED8E258
:103C4000544F3A6842B3574B534E5749188834780B
:103C50000D784028864645F0020828BF4FF0400EF8
:103C6000002C84F001043470CEEB00000CBF8824DB
:103C7000C82409EBC80680B285F0010544EA0E4469
:103C80007260188049F8384072440D7018B9BEF15E
:103C9000400F18BF00223A603D4B1A88B2F5A06F62
:103CA00004D100219A785970404B1A70404A012380
:103CB00013703FE7364A158842F22100854200F032
:103CC000FF812E4A49F83420F0E72C4A2C4B19F09A
:103CD000080F18BF134647F838302BE700F0CAFC2E
:103CE000344A354952F82630002B00F0B681586826
:103CF0008C5D42F8260003F10802C9F80420032C69
:103D000005D8DFE804F0120F150204228A551A883C
:103D100019F0080F0CBF8823C82343EA024347F871
:103D2000383007E702228A55F1E703228A55EEE789
:103D300005228A55EBE7E00700F11A82210600F11F
:103D40004982A20706D51D4A1D4913780220DBB21D
:103D500013700870E30602D5194B10221A7007B0D1
:103D6000BDE8F08F00F0BAFC05E700BF0000FF1FC0
:103D7000B816FF1F6416FF1FBC17FF1FC8004000C6
:103D8000880040004017FF1FC916FF1F4817FF1F7C
:103D90002C17FF1F6016FF1FC816FF1FC02007400B
:103DA0003817FF1F7416FF1F3417FF1F9820074096
:103DB000942007400C17FF1F4417FF1F882007405F
:103DC0008020074090200740AB4A47F8380013781E
:103DD00001331370AEE643F82600A84D91E642F297
:103DE0002100814200F0358100F2AF81B1F5086F0A
:103DF00000F01B82B1F5106F40F02B82226AA049BF
:103E0000A8780870120600F14583D9F828209D494A
:103E1000130600F13A83D9F830209A49150600F1CB
:103E20002F83D9F838209749140600F12483D9F854
:103E300040209449100600F11983D9F8482091498F
:103E4000120600F10E83D9F850208E49130600F1B6
:103E50000383D9F858208B49150600F1F882D9F868
:103E600060208849140600F12983D9F86820854923
:103E7000100600F11E83D9F870208249120600F165
:103E80001383D9F878207F49130600F10883D9F805
:103E900080207C49150600F11C83D9F888207949D7
:103EA000140600F11083D9F890207649100600F12D
:103EB000C882D9F898207349120600F1BC82724872
:103EC000724A7349019073486C4D734C04970023F8
:103ED00005960295804617460E461D46039438689F
:103EE00028B1446800F0C6FB2046002CF9D100231D
:103EF0003B60029B30681A46002342F8253028B107
:103F0000446800F0B7FB2046002CF9D10022326053
:103F1000019A98F800301146002241F8042B039AC8
:103F20000191023B4FF0000122F81510032B09D834
:103F3000DFE813F04B0104004B0104004FF00103D4
:103F400088F800300135042D07F1040706F1040656
:103F500008F10108C3D1514C514B2278464D049FC2
:103F6000059E002129701A70130700F14F826278B4
:103F70004C49DFF810810A7010074FF00001C9F8B2
:103F80003010C9F8381000F12B824749A2780A7026
:103F90000021C9F85010C9F858101107DFF8E48063
:103FA00000F1DC81E2784149364C0A7000211207A9
:103FB000C9F87010C9F8781000F1B981337801930D
:103FC000002183F00102C9F89010C9F89810002070
:103FD000029080468446044635490D7845F0020E2D
:103FE00009EBCE030393019B002B039B5C600CBF8A
:103FF0008824C82444EA080385F0010449F83E30C7
:1040000032700C70DFF87CE02A4BDFF8A4800028C7
:1040100040F02681BCF1400F1BD144F0020C09EBAB
:10402000CC03029CDFF85CE05C60002A40F02E814B
:10403000020442F088029DF804304EF83C2004440B
:1040400033700D702346402803D100201A4A3B608C
:1040500010801A4A0123137028E68B5D032B00F2AF
:104060002D8101A252F823F0353B0000353B0000C2
:10407000BF410000C54100003517FF1F6416FF1F38
:104080004017FF1F0000FF1F1C17FF1FB816FF1F60
:104090000C17FF1F4417FF1FBC17FF1F6488000089
:1040A000C4200740C8200740CC200740D02007404C
:1040B0003417FF1FC816FF1F7416FF1F94200740F8
:1040C000928892B9B14A0D784878157050708D7801
:1040D000C8789570D07010680D79157186284D7963
:1040E00089795571917100F0A580A949A94E0A7886
:1040F000307882F00105002842F002020D700CBFFA
:104100008821C82149F8321009EBC20280F0010071
:10411000002130705160D4E540F20232914240F00B
:104120008D80A98801F07F01042900F292806A88BD
:10413000002A40F08E809848CDF804E089000844B9
:10414000017841F00201017041E742F221208142F1
:104150007BD1A988002940F0E480904B904A914897
:10416000AC781D681560CDF804E00A4604702EE7AF
:104170008D4B8E4886491A614FF0020E80F800E0A0
:10418000854F0A708A49196099608A4E8A4D8B4C16
:104190009A610D213970FF213170DFF840E22970FA
:1041A0002270874D874A8EF800109F27012406F859
:1041B000047C5D600470DA6007B0BDE8F08F002316
:1041C0008B55B7E401238B55B4E44FF0000388F816
:1041D0000030B7E67049784B80220D2008701A70C5
:1041E000A2077FF5B7ADAEE5774C4FF0020E227017
:1041F0006270EA88724580F0A38165490D78402A93
:10420000944645F0020E28BF4FF0400C04EB0C031F
:1042100009EBCE000293012344604FEA0C48CCEB3B
:10422000020001930022C824E4E6684A664C127832
:104230002270DEE7664A0F21117056E7B1F5A06FD4
:1042400007D1012300220193C1E642F221329142BB
:10425000F7D0514A0F231370544A0123137025E5F8
:1042600040287FF6DAAE44F002040EEBC401029E51
:104270004E60BAB19DF80410564A19703346403862
:1042800088F8005040334EF83420DFE69DF80430C3
:1042900033700204029B0D7042F0C80203444EF8D2
:1042A0003C20D0E69DF804101970029B404A88F823
:1042B0000050403840334EF83420C7E619F0080F5C
:1042C0000CBF022303238B5534E4A98801F07F013E
:1042D0000429BED86A88002ABBD12F48CDF804E053
:1042E00089000844017821F0020101706FE63A4A22
:1042F0005468002CADD06888B5F804E003E00C32B7
:104300005468002CA5D013888342F8D15388734594
:10431000F5D1000A03280CBF94F800E0B2F808E0D9
:1043200067E7CDF804E052E64FF0020E61E700F0D7
:1043300081F9002800F0F18008301D4AC4F884009B
:10434000C4F8802000F076F9002800F0E080083002
:10435000204AC9F88C00C9F888202FE600F06AF9D5
:10436000002800F0E6800830114AC8F86400C8F858
:10437000602000F05FF9002800F0D5800830154A71
:10438000C9F86C00C9F868200CE600BFC417FF1F0D
:104390003417FF1FC816FF1FC02007404815FF1F16
:1043A000CC17FF1F5417FF1F0000FF1F942007406A
:1043B0008800400088200740802007409820074060
:1043C0007816FF1FCC16FF1F3817FF1F4017FF1F5F
:1043D000C916FF1FC8004000688800008C200740F5
:1043E00000F028F9002800F08C8008305D4AC8F8F9
:1043F0004400C8F8402000F01DF900287BD00830A8
:10440000594AC9F84C00C9F84820BEE500F012F935
:1044100000286AD00830534AC9F82400C9F820207F
:1044200000F008F900285AD008304F4AC9F82C008B
:10443000C9F828209BE5D1F89C00083800F01AF94B
:104440003DE5D1F89400083800F014F931E5C86D65
:10445000083800F00FF902E5486D083800F00AF955
:10446000F7E4C86C083800F005F9ECE4486C08384B
:1044700000F000F9E1E4C86B083800F0FBF8D6E47E
:10448000486B083800F0F6F8CBE4C86A083800F04A
:10449000F1F8C0E4606A083800F0ECF8B5E4C86FE1
:1044A000083800F0E7F8F2E4486F083800F0E2F866
:1044B000E7E4C86E083800F0DDF8DCE4486E083840
:1044C00000F0D8F8D1E4D1F88C00083800F0D2F828
:1044D000E9E4D1F88400083800F0CCF8DDE42A786B
:1044E000C9F8280001322A7041E52A78C9F820006D
:1044F00001322A7094E72A78C9F8480001322A70FC
:1045000043E52A78C8F8400001322A7073E72A7818
:10451000C9F8880001322A7050E52A78C4F8800072
:1045200001322A700EE72A78C9F8680001322A7031
:1045300038E52A78C8F8600001322A7019E700BE11
:10454000BEF1400FF44628BF4FF0400C04EB0C03C3
:1045500002930123CCEB0E004FEA0C48002201939A
:104560003AE500BF88004000C80040002DE9F8434C
:10457000244C00F091F9002204F1A00023461A60B7
:104580005A60083383424FF00001F8D11E481F4A99
:104590000368DFF890E01E4F1E4D1F4EDFF8888045
:1045A000DFF888C0DFF8889043F480230360136845
:1045B0001A4843F040731360C4F307238EF80030A9
:1045C000C4F307433B70240EFF2302F5C9222C706D
:1045D00002F5847288F80030114D8CF80030337089
:1045E000012389F8003070268EF864104FF400140F
:1045F000102107F82C3C2E70046011700EF1640E2F
:10460000BDE8F8830000FF1F3480044000D800405C
:10461000B0200740B42007401020074004E100E02C
:1046200035E400E09C2007408020074088200740B8
:104630009420074072B60D480268B2FA82F30B2B41
:1046400010DC4FF00041D94022EA0102026062B65C
:10465000074803EBC303DB00C2180021C15010461A
:104660005160704762B60020704700BF3007FF1FDF
:104670009803FF1F0D4B0E4AC31AA2FB03231B090D
:104680000B2B0CD80B4A127852B972B60A484FF06D
:104690000041026821FA03F31A43026062B67047D0
:1046A000064A1278002AF0D0FFF754B99803FF1F8A
:1046B000398EE3383517FF1F3007FF1F4017FF1FE4
:1046C000044B054A1B6890881BB11A885B88D31A73
:1046D000184470475017FF1FBC17FF1F38B50E4B0B
:1046E0001B7873B90D4C216861B103F0FF054B884D
:1046F0000B800420FFF792F9256038BD084B01229A
:104700001A7038BDFFF796FF0028F7D00146BDE8C4
:1047100038400420FFF782B94917FF1F4C17FF1FCD
:104720004817FF1F2DE9F843314E337893B1314FCD
:104730003A787AB90122D9073A7036D49A0719D44F
:1047400000225B073A7005D52B4B1A6812B1EFF3C4
:1047500005820AB1BDE8F883EFF3108172B61868DC
:1047600018B1264C2278002A2ED00029F2D162B648
:10477000BDE8F883DFF8908098F80020002ADFD0A9
:10478000DFF88890002405E0013498F80030E4B2A6
:10479000A34212D959F824502B6828461B69984720
:1047A0000028F1D02B699847EEE7FFF789FFC8B9D9
:1047B000134B1B781BB93378C0E73378C0E73378E5
:1047C00003F0FE033370B9E745691D6001232370D0
:1047D0005DB1AA6101B962B6002545778368984743
:1047E0002570B7E700F056F8E2E7064B1D60F1E7E9
:1047F0003407FF1F5517FF1F6417FF1F6817FF1FA0
:104800003507FF1F6017FF1F8417FF1F6C17FF1F5F
:1048100070B5EFF3108272B60C4C206880B10C4E6C
:1048200000254369236073B19D6102B962B6457783
:1048300083689847EFF3108272B620680028F0D1A1
:1048400002B962B670BD3360EFE700BF5817FF1FB3
:104850005C17FF1FFFF7DCBF024A136801331360C8
:10486000704700BF4815FF1F30B40749074C0A784E
:104870002378074D42F0020245F823000A70013305
:10488000237030BC704700BF3407FF1F8417FF1F21
:104890006C17FF1F704700BF72B6184A184B1949B2
:1048A0001160702280211A701A46197013781B0645
:1048B000FCD510B5144B84B0186862B6134B144C79
:1048C000984298BF00EB800001A998BF40000A22DF
:1048D000FDF74EFE01A92046002311F8012B0133FC
:1048E0003AB10A2B20F8022FF7D11623237004B017
:1048F00010BD5B00DBB2237004B010BD04000240A9
:1049000000000240000007410C0002407F96980022
:10491000C407FF1F90F8392090F83800101A70472C
:1049200090F8383090F839209A4205D95A1C03443F
:1049300080F83820187E70474FF0FF30704700BF76
:1049400090F8383090F839209A4286BF1B18187EAC
:104950004FF0FF30704700BF704700BF38B50546C5
:10496000B0F85E0090B195F85D301446C3F12102B5
:1049700094420CD805F13B0018442246FDF7FAFC9E
:1049800095F85D30234485F85D30204638BD012020
:1049900014462871EEE700BFB0F85E306BB190F8B6
:1049A0005D30202B07D8C218013380F85D3001201C
:1049B00082F83B107047012303710020704700BF4D
:1049C0000023426980F8383080F8393080F85C3054
:1049D00080F85D3080F85E3080F85F3006CA30B411
:1049E0000D68046943662A4383660A60A3704269BE
:1049F00090F861301649146813441D7A5B7B01EB13
:104A0000C5051B026D6803F4E06343F064032B608B
:104A100090F8623013449D7CDB7D01EBC5011B02E5
:104A2000496803F4E06343F064030B602168536852
:104A3000194205D003692C225A70036904229A7125
:104A4000036920225A71036980229A7030BC704732
:104A50006486000038B50269D478E4B2E106054600
:104A600024D51023D37063061FD504F0040404F08A
:104A7000FF03002C5AD042496A6E00230B7085F860
:104A80005D30002A66D0904795F85D30002B61D0EC
:104A90002B69D0229A702B6995F83B201A712B69EB
:104AA000012285F85C200222DA7038BD04F0400350
:104AB00003F0FF00002BD8D19379DBB203F0600143
:104AC00060294ED0937803F0100303F0FF01B3B1D7
:104AD00014F0010437D195F85C3095F85D109942D7
:104AE0004BD9591C2B4485F85C1093F83B3013715B
:104AF0002B69D0229A702B690222DA70D5E785F8EB
:104B00006010937943F0200393712B6995F8391065
:104B10001A791F29D2B2C6D8194800780028C2D005
:104B20006818013185F839100276BCE72A6985F8E2
:104B30003930C02393702B69114A19790121117002
:104B40000222DA70B1E7C02393702B691A7902222E
:104B5000DA70AAE70122002385F85D2085F83B3052
:104B600096E703F0DF039371AB6E23B185F838004D
:104B700095F8390098472A69A4E71471B8E700BF8F
:104B80008517FF1F2DE9F047374FDFF8E0903B68AE
:104B9000026982B006460093DDF800800021C82536
:104BA000D3789B065BD53B680193019BC8EB03035D
:104BB0000F2BF5D949B1102BF2D00020907033693A
:104BC00080229A7002B0BDE8F087726996F8613071
:104BD00013440521187AFDF7FDFE726996F86130DD
:104BE0001344012193F812A05046FDF7F3FE092467
:104BF00000215046FDF7DAFE2B46013BFDD1012195
:104C00005046FDF7D3FE2B46013BFDD1013CEFD1D1
:104C1000706996F8611001444FF4C8720C7A4B7BAE
:104C200009EBC4011B02496803F4E06343F0640329
:104C30000B6096F862300344997CDB7D09EBC1017F
:104C40001B02496803F4E06343F064030B60013A1C
:104C5000FDD13269D3789B064FF00101A3D4012026
:104C600002B0BDE8F08700BF4815FF1F6486000052
:104C7000F0B503691222DA700269937803F0200319
:104C800085B004460D46002B5ED0B42393703C499A
:104C900022690B680093009E05E00B680193019B5D
:104CA0009B1B042B42D8D37803F0200303F0FF00B2
:104CB000002BF2D094F85D30002B31D04FF0000E75
:104CC0004FF0020C04EB0E0393F83B3013710B68AA
:104CD0000393039F206907E09B060DD50B680293A1
:104CE000029BDB1B052B28D8C378DBB203F0020242
:104CF00002F0FF06002AEFD080F803C02669F3789F
:104D0000DBB2DF0632462DD49F062BD5DB0731D42C
:104D10000EF1010E94F85D305FFA8EFE7345D1D826
:104D200000201DBB002384F85E3004E090702369EE
:104D300080229A70042005B0F0BD8670236980221D
:104D400004209A7005B0F0BD03F0FF06FFF71AFFCC
:104D500010B9042005B0F0BD236984F85F60B0226B
:104D60009A7094E78023B3700420DAE726698023E1
:104D7000B370D7E7BEF1000F0CBF02200320F6E7A7
:104D80004815FF1F2DE9F04106690025122780F81C
:104D9000385080F83950F770D0F810C09CF802E015
:104DA0000EF0200E88B00446884615461E46BEF119
:104DB000000F49D0B4238CF80230784B21691A686F
:104DC0000092DDF800E006E01A6801920198CEEB4F
:104DD0000000042830D8C87800F0200000F0FF0759
:104DE0000028F1D04FEA480242F00102D2B20A7123
:104DF0001A680292DDF808E0206906E01A6803925A
:104E00000399CEEB010105292AD8C17801F00201EE
:104E100001F0FF070029F1D04FF0020C80F803C029
:104E20002269D17811F0110722D12DBB002E0CBFC1
:104E3000A0238023937003E08F70236980229A70EF
:104E4000384608B0BDE8F0810EF0FF07FFF79AFE84
:104E50000028F5D0236984F85F70B0229A70ACE71F
:104E600087702369802238469A7008B0BDE8F081C7
:104E7000802393700027E3E7012D75D0A021917066
:104E800021690A79BE4667464FF0A80C1A68049259
:104E9000049805E01A680592059A121A052A4AD85C
:104EA000CA7802F0020202F0FF08002AF2D0CF70A6
:104EB0002169CA78D2B212F0100F08465AD1920670
:104EC00058D5013DEDB2012D49D0BEF11F0F3BD9A0
:104ED0000A79012DDAD11A680692069D05E01A6852
:104EE0000792079A521B052A46D8C27802F002029E
:104EF00002F0FF01002AF2D00223C3702269D378A6
:104F0000DBB2D9063AD49B0634D5B023BEF11F0FCD
:104F100093703FD8226904EB0E0312791A760EF1D2
:104F2000010E5FFA8EFE16B1236980229A7084F812
:104F300039E0774684E781F80280236980229A70FD
:104F4000774684F839E07BE704EB0E0291F80480A1
:104F500082F818800EF1010E5FFA8EFEB9E781F833
:104F600002C021690846B0E7A82191702069BE46B9
:104F70000279B0E7774663E78170DEE71021C82346
:104F8000D170013BFDD12269937803F0F703774696
:104F9000937055E723691B79C5E700BF4815FF1FCC
:104FA0000148FFF757BD00BF4808FF1F0148FFF742
:104FB00051BD00BFB408FF1F0148FFF74BBD00BF44
:104FC000DC07FF1F2DE9F0411A4C4FEA400E012685
:104FD0000746204690461D4684F83BE084F85E6014
:104FE00084F85D60FFF7D8FC31462046FFF740FEAD
:104FF0003346424639462046FFF7C4FE94F839202E
:1050000094F838309A4213D00021E6189A42C8B278
:1050100003F101038ABF84F83830FF23337E2B5419
:1050200094F8392094F838309A4201F10101ECD11A
:10503000BDE8F081DC07FF1F70B50B4C430016463E
:105040000125204684F83B3084F85E5084F85D509A
:10505000FFF7A2FC31462046FFF79EFC294620467A
:10506000BDE87040FFF704BEDC07FF1FFFFFFFFF36
:1050700000B551EC100B2C4A21F00043934285B04F
:1050800020DD2A4A934209DD10EE102A0B4601F07A
:1050900075FF41EC100B05B05DF804FB684600F0AD
:1050A00023FB00F00300012828D0022815D060B3AC
:1050B00001209DED021B9DED000B01F071FC51ECF8
:1050C000100BE6E79FED161B00F016FF51EC100BDE
:1050D00041EC100B05B05DF804FB9DED021B9DED4E
:1050E000000B00F009FF53EC102B10EE100A03F137
:1050F000004141EC100B05B05DF804FB9DED021B77
:105100009DED000B01F04CFCEDE79DED021B9DEDCC
:10511000000B00F0F1FE51EC100BBAE7AFF300808A
:105120000000000000000000FB21E93FFFFFEF7FCF
:1051300008B52DED048BB0EE418AF0EE618AB0EE39
:10514000409AF0EE609A00F01FF830B9B0EE480ACD
:10515000F0EE680ABDEC048B08BDB0EE480AF0EE34
:10516000680A00F011F838B153EC182B51EC190B08
:1051700002F02AFB0028E9D0B0EE490AF0EE690AF5
:10518000BDEC048B08BD00BF53EC102B33F0004185
:1051900010B408D01148A3F58014844208D8042024
:1051A0005DF8044B70471AB902205DF8044B704754
:1051B00003F1FF43094803F5E0038342EFD9B1F55A
:1051C000801F01D20320EBE7054B994201D000205C
:1051D000E6E7B2FA82F04009E2E700BFFFFFDF7FB7
:1051E0000000F07F2DE9F0432DED028B8BB057ECE2
:1051F000106B55EC114B00F03BF92E4BB0EE408A92
:10520000F0EE608A93F90080B8F1FF3F31D022467A
:105210002B462046294602F0FFFA50BB32463B4659
:105220003046394602F0F8FA814610BB00220023CE
:105230002046294602F0BEFAD8B11F4BCDF8209087
:105240000122CDE90267CDE904458DE80C00B8F1F3
:10525000000F17D1CDE90667684601F005FDE0B102
:10526000089B0BBB9DED060B0BB0BDEC028BBDE8A4
:10527000F083B0EE480AF0EE680A0BB0BDEC028B8A
:10528000BDE8F083002200231046194602F054F9CD
:10529000B8F1020FCDE90601DED102F04BFB21236C
:1052A0000360089B002BDDD002F044FB089B0360E9
:1052B000D8E700BF2009FF1F4089000000F03ABC7A
:1052C000D0B52DED028B394C8AB0F0EE408A00F05B
:1052D000E7FC94F900300133B0EE408A3ED0B0EEE6
:1052E000680A01F02FFE002838D0DFED317AF4EEA5
:1052F000E78AF1EE10FA37DCDFED2E7AF4EEE78A7A
:10530000F1EE10FA2AD504232B4A009318EE900AE6
:1053100000230893019201F091FF94F900300026D8
:105320000027022BCDE90401CDE90201CDE9066792
:1053300037D0684601F098FC002832D0089B1BB19A
:1053400002F0F8FA089B0360DDE9060102F0A2FA18
:1053500000EE100A0AB0BDEC028BD0BDB0EE480AD8
:105360000AB0BDEC028BD0BD0323134A009318EEA4
:10537000900A00230893019201F060FF94F9003035
:10538000CDE90401CDE902012BB90C4B4FF060428D
:10539000CDE90623CDE70A490020022BCDE906011D
:1053A000C7D102F0C7FA22230360C7E72009FF1F15
:1053B0008071B142B5F1CFC248890000FFFFEF47CD
:1053C0000000F07F10B52DED028B8AB0B0EE408A60
:1053D00000F03EFD244B93F90040631C09D0B4EE6D
:1053E000488AF1EE10FA04D6B5EEC08AF1EE10FA52
:1053F00003D40AB0BDEC028B10BD01231B4A0093FD
:1054000018EE100A00230192089301F017FF002202
:10541000CDE90401CDE902010023BCB110461946D3
:1054200002F08AF8022CCDE9060111D102F082FACD
:1054300021230360089B8BB9DDE9060102F02AFAFB
:1054400000EE100A0AB0BDEC028B10BDCDE90623B8
:10545000684601F009FC0028ECD1E7E702F06AFA9F
:10546000089B0360E8E700BF2009FF1F5089000088
:105470002DE9F84F53EC112B23F0004952EA0900B3
:1054800055EC104B25D005F000468F4885EA060BF9
:1054900083451EDC50421043DFF844C249EAD07015
:1054A000604511EE108A14D8CB451F4610EE10AAA5
:1054B00011EE10EA10EE101A17DC28DB944226D306
:1054C00013D1824BF60F03EBC60393ED000BBDE83F
:1054D000F88F2046294601F005FF02460B4602F0F0
:1054E0002BF841EC100BBDE8F88FBBF5801F12DAEA
:1054F000BBF1000F40F0A780BAF1000F534674488B
:105500000DDD5B00002B00F1FF30FADC07E045EC1D
:10551000104BBDE8F88F4FEA2B50A0F2FF30B9F5E1
:10552000801F0FDAB9F1000F40F0A780B8F1000F2B
:105530004346DFF89CC109DD5B00002B0CF1FF3C0A
:10554000FADC03E04FEA295CACF2FF3C614B984285
:105550005BDBCBF3130343F480135E4A944563DBB8
:10556000C7F3130545F48015CCEB000007E052EAC1
:10557000040313D0E30F03EB420361000138CEEBC9
:1055800001045A1B90B1714538BF02F1FF32002A65
:10559000EDDACA0F02EB43034900EFE74B4BF60F7E
:1055A00003EBC60696ED000BBDE8F88F7145154676
:1055B00038BF02F1FF35002DACBFCEEB01011D4617
:1055C00055EA0103EAD0444A954208DCCB0F03EBCD
:1055D000450595420CF1FF3C4FEA4101F6DD3D4B9C
:1055E0009C4554DA3B4ACCEB0202142A5BDCC2F144
:1055F000200305FA03F3D1400B43154145EA0601A8
:10560000184641EC100BBDE8F88F3249091A1F29E2
:105610002DDCC1F120030BFA01FB2AFA03F343EA64
:105620000B030AFA01F198E72A4CCCEB04041F2C77
:1056300015DCC4F1200209FA04F528FA02F2154338
:1056400008FA04FE90E74FEACB23002B21487FF7AE
:1056500066AF5B00002B00F1FF30FADC5FE71F4D07
:10566000CCEB050508FA05F54FF0000E7CE71B4B67
:105670001B1A0AFA03F300216FE7DFF858C04FEA5C
:10568000C9235B00002B0CF1FF3CFADC5EE7A5F5BB
:1056900080152E430CF2FF3C46EA0C530A4643ECBD
:1056A000102BBDE8F88F1F2A07DCC2F120039D40B4
:1056B000D14045EA01033546A0E7084BCCEB030394
:1056C00045FA03F3354699E7FFFFEF7F588900005D
:1056D000EDFBFFFF02FCFFFFFFFF0F00E2FBFFFF00
:1056E0000000F07FFFFFFFFF2DE9F04F53EC102B80
:1056F000974923F0004B8B458FB040F38780954945
:105700008B451C46824629DC002C194610EE100AF7
:1057100085A3D3E9002340F3A58101F02FFC8E4B34
:105720009B4504460D4600F0878081A3D3E9002302
:1057300001F024FC02460B46CAE900232046294614
:1057400001F01CFC7AA3D3E9002301F017FC01252A
:10575000CAE9020128460FB0BDE8F08F7F498B45AA
:1057600040F387807E498B455BDC4FEA2B55A5F2E1
:105770001645ABEB05571046394610EE106A02F09D
:1057800061F801F049FD8046894642464B46304665
:105790003946CDE9088901F0F1FB0022714B01F097
:1057A000A1FD8946804602F04DF801F035FD064620
:1057B0000F4632463B4640464946CDE90A6701F06E
:1057C000DDFB0022674B01F08DFD00220023CDE9B7
:1057D0000C0101F0EFFF002800F07081002330463B
:1057E0003946002201F0E6FF002814BF01230223FE
:1057F0005D4A0192022100912A46514608A800F014
:10580000BFFC002CC0F24C81054606E080ED000B89
:1058100000250024C0E90245002528460FB0BDE858
:10582000F08F10EE100A194601F0A8FB0025CAE916
:105830000201CAE90001F0E73FA3D3E9002301F028
:105840009DFB3FA3D3E900230D46044601F096FBE0
:1058500002460B46CAE900232946204601F08EFB8A
:1058600037A3D3E9002301F089FB0125CAE902012E
:10587000D3E701F05FF957EC106B10EE100A32A37A
:10588000D3E90023394601F02DFD0022374B01F00A
:1058900077FB01F0D7FF054601F0BEFC22A3D3E958
:1058A0000023CDE9040101F01DFD02460B46304600
:1058B000394601F063FB1EA3D3E9002380468946E5
:1058C000DDE9040101F00EFD1F2DCDE9020151DCDF
:1058D000274B6A1E53F822309B454BD002460B469D
:1058E0004046494601F04AFB06460F46CAE90067B2
:1058F00032463B464046494601F040FBDDE9022383
:1059000001F03CFB002CCAE9020186DA07F10044F1
:1059100001F100436D42CAF80060CAF80440CAF8B9
:105920000800CAF80C3078E700004054FB21F93F2A
:105930003163621A61B4D03D0000601A61B4D03D99
:105940007370032E8A19A33B83C8C96D305FE43F8F
:10595000FB21E93F7BD90240FB21F93FFB21394183
:10596000FFFFEF7F00007041E88900000000E03F8A
:1059700068890000DDE902234046494601F0FEFA4D
:105980004FEA2B5BC1F30A53C3EB0B0306460F46EA
:10599000102BCAE90067ABDD5DA3D3E90023DDE985
:1059A000040101F09FFC06460F4602460B464046A6
:1059B000494601F0E3FACDE9060102460B464046AE
:1059C000494601F0DBFA32463B4601F0D7FA52A3D2
:1059D000D3E9002306460F46DDE9040101F082FC0D
:1059E00032463B4601F0CAFA0B46CDE902010246B7
:1059F000DDE9060101F0C2FAC1F30A53C3EB0B0B58
:105A000006460F46BBF1310FCAE9006776DD45A3B4
:105A1000D3E90023DDE9040101F064FC06460F46EA
:105A200002460B46DDE9060101F0A8FA02460B46E4
:105A300080468946DDE9060101F0A0FA32463B4680
:105A400001F09CFA39A3D3E9002306460F46DDE9AD
:105A5000040101F047FC32463B4601F08FFACDE9E4
:105A600002013BE701F08CFA2D4B9B4504460D46A5
:105A700026D025A3D3E9002301F082FA02460B4683
:105A8000CAE900232946204601F078FA1EA3D3E98B
:105A9000002301F075FA4FF0FF35CAE90201BCE6B8
:105AA000DAF80420DAF80C3002F1004203F1004386
:105AB0004542CAF80420CAF80C30AEE6032397E644
:105AC00013A3D3E9002301F05BFA13A3D3E9002366
:105AD0000D46044601F054FA02460B46CAE900237B
